S02B0000626F6F746C6F616465722D73746F726167652D737069666C6173682D73696E676C652D313032346BF2
S3150800000000100020050200081D230008F723000839
S315080000101D2300081D2300081D2300081D230008B2
S315080000201D2300081D230008083E00081D2300089C
S315080000301D230008503E00081D2300081D23000844
S315080000401D2300081D2300081D2300081D23000882
S315080000501D2300081D2300081D2300081D23000872
S315080000601D2300081D2300081D2300081D23000862
S315080000701D2300081D2300081D2300081D23000852
S315080000801D2300081D2300081D2300081D23000842
S315080000901D2300081D2300081D2300081D23000832
S315080000A01D2300081D2300081D2300081D23000822
S315080000B01D2300081D2300081D2300081D23000812
S315080000C01D2300081D2300081D2300081D23000802
S315080000D01D2300081D2300081D2300081D230008F2
S315080000E01D2300081D2300081D2300081D230008E2
S315080000F01D2300081D2300081D2300081D230008D2
S315080001001D2300081D2300081D2300081D230008C1
S315080001101D2300081D2300081D2300081D230008B1
S315080001201D2300081D2300081D2300081D230008A1
S315080001301D2300081D2300081D2300081D23000891
S315080001401D2300081D2300081D2300081D23000881
S315080001501D2300081D2300081D2300081D23000871
S315080001601D2300081D2300081D2300081D23000861
S31508000170013800D0FCE7704710B5054C237833B931
S31508000180044B13B1044800E000BF0123237010BDDF
S3150800019018100020000000001441000808B5034BA1
S315080001A01BB10349034800E000BF08BD000000007A
S315080001B01C10002014410008064B0748DA1C121AC6
S315080001C0C11E22F00302994288BF0022034903F0A8
S315080001D0D6BD00BF181000200810002020410008D6
S315080001E0064B0748DA1C121AC11E22F0030299426E
S315080001F088BF0022002103F0E9BD00BFB45D0020DE
S315080002001810002008B5084B83F30A88074B084ADC
S31508000210C3E9002200F00EF800F024FAFFF7CCFF3D
S31508000220FFF7DEFF00F0D6F90000002000100020DE
S31508000230A5EDF5FE044B054A9A60D3F8882042F4EA
S315080002407002C3F88820704700ED00E0000000083F
S315080002501FB500F1006303F500430393104B1446E2
S3150800026098421BD8039A0F4B9A4217D2039A9B1AA5
S31508000270A34213D358B94FF000639B6A0A4A5869D8
S31508000280904204D91869019100F04CFA0199224666
S31508000290039804B0BDE8104002F04AB804B010BD97
S315080002A0FF7FFFF700E01708008000087FB56FF0B2
S315080002B0006200F17841914203461AD26D460E4A11
S315080002C002F110062C4610685168083203C4B2427F
S315080002D02546F7D15A1E0DF10F010F3311F8010902
S315080002E012F8014F844204D19A42F7D1012004B092
S315080002F070BD0020FBE700BFF43D00082DE9F04182
S315080003000368044603F16043B3F5802FA0B034D8E0
S315080003104FF000639B6A42681E6996422DD8394B96
S315080003209A422AD8456B06F14002AA4268D89D42ED
S3150800033066D82846FFF7BAFF002861D0284602F09B
S315080003402AF880B16B6973B1022B0FD1AB69C4F17E
S31508000350040119444FF0FF32204601F06DF92A4B8B
S31508000360C31A5842584120B0BDE8F08140F20463F0
S3150800037028460493FFF79AFF08B90020F3E72846B2
S3150800038002F009F80028F8D04FF00067D7F8348053
S315080003904046FFF78BFF0028EFD0503EB045ECD81B
S315080003A0284605A901F0FEFF0028E6D0BA6A059B93
S315080003B012699A42E1D89C42DFD8124A9342DCD8A5
S315080003C006A801F0FBF9059A2146121B06A803F0B8
S315080003D0DAF906A803F0D9F9059C01F0FFF90390AC
S315080003E001F01AFA21460090039B04F1200206A8A0
S315080003F001F064F904900498B0FA80F04009B2E775
S315080004000120B0E700001808E320BBDE70B54FF006
S31508000410FF3290B005460C4601F00EF91C4B984287
S3150800042032D14FF480621B4B00219A6601A81C2228
S3150800043003F0CCFC184B29466846043C009303F0AD
S3150800044033FC2146684603F02FFC684603F035FC6A
S3150800045001F065FF0646B8B940F2022002F060F8DE
S315080004601C22314609A803F0B1FC0C4B294608A802
S31508000470089303F019FC08A8214603F015FC08A800
S3150800048003F01BFC01F04BFF002010B070BD00BF4D
S31508000490E320BBDE0090004001000543010006434F
S315080004A04FF4806230B50446154B91B09A66002128
S315080004B01C2201A803F08AFC124B214668460093C9
S315080004C003F0F2FB684603F0F8FB01F028FF054647
S315080004D098B940F2022002F023F81C22294609A8FE
S315080004E003F074FC084B08A82146089303F0DCFBCC
S315080004F008A803F0E2FB01F012FF002011B030BD9E
S315080005000090004000000243000003434FF480625D
S3150800051010B50F4B8CB004469A6600211C2205A81C
S3150800052003F054FC0B4B01940493012302930A4BEA
S3150800053001A904A8039303F0ADFB04A803F0BDFBCF
S3150800054001F0EDFEB0FA80F040090CB010BD00BF16
S31508000550009000400000084304000020004870474F
S315080005600080000837B50C460546E0B1D9B100232E
S315080005700B60114B036003F0E6FA013018BF2B68D5
S3150800058001A81CBF43F4C0432B604FF0FF3301930F
S3150800059003F0DCFA019B43B92B68184328602368EB
S315080005A043F40023236003B030BD012B02BF236848
S315080005B018432060F3E700BF0C120008044B1846E6
S315080005C0016881F3088881F3098840688746FEE751
S315080005D0006000084FF04023D3F8842013B51106B5
S315080005E006D44FF400621A67D3F88420D206FBD4E7
S315080005F001F0FDFE01F088FF08B901F073FF03F072
S3150800060001F9044658B901F07FFF08B101F076FFF9
S3150800061040F2012000F072F84FF4017018E001F082
S3150800062073FF08B901F064FF01F085FF012802D9BC
S3150800063001F058FFFEE701F088FF094B0193019B83
S31508000640002B0ADC40F205439C42E5D140F2032028
S3150800065000F054F8002002B010BD019B013BEDE705
S3150800066000350C0013B501244FF040238DF80640E1
S315080006708DF80740D3F894305B0610D501F075FF66
S31508000680A0F2022080B2072809D804FA00F010F078
S31508000690C90F1EBF00238DF806308DF80730154B9D
S315080006A05B68013308D14FF4027001F039FF00236B
S315080006B08DF806308DF807309DF807305BB10D4888
S315080006C0FFF71CFE8DF806009DF806301BB94FF49F
S315080006D0027001F025FF9DF806304BB101F014FFBA
S315080006E008B101F00BFF0348034B9860FFF766FF5C
S315080006F002B010BD0060000800ED00E008B501F08A
S315080007000FFFBFF34F8F0549054BCA6802F4E06235
S315080007101343CB60BFF34F8F00BFFDE700ED00E04A
S315080007200400FA054FF4803208B5044B9A6601F0C6
S3150800073003FCB0FA80F0400908BD00BF00900040F5
S31508000740072BF8B506460F4614461D4601D9002064
S31508000750F8BD0121202001F069FB0121212001F0CB
S3150800076065FB8CB144EA06039B07F0D14FF480324F
S31508000770064B31469A66284623463A4601F004FC5B
S31508000780B0FA80F04009E3E70120E1E70090004075
S3150800079010B5044600F0D8F8074BB0FBF3F304FB9A
S315080007A003F0022806D9BDE810400323B0FBF3F096
S315080007B0FFF7DEBC10BD00BF40420F004FF080625D
S315080007C0024B5A664FF400725A6670470090004012
S315080007D010B5FFF7F3FF032100230422022001F0DE
S315080007E041FB022200231146104601F03BFB002381
S315080007F004220121022001F035FB012304220021F5
S31508000800022001F02FFB0122174C04F580535A6091
S3150800081040F6AA6363610023144A2361E36404F57E
S3150800082000539A6440F20143A36041F20503E36072
S3150800083000F08AF80E4B0138B0FBF3F010230002E3
S31508000840E0610C4A63610C4BC3F838274FF002127B
S31508000850C3F83027A2F58032C3F834271C22C3F820
S3150800086020270523636110BD00C00540FFFF010076
S315080008700050C3000200030000C0034008B501464B
S31508000880FFF79CFFBDE80840014803F03ABA00BFED
S3150800089000C0054038B505460D4CC0F30741204653
S315080008A0FFF78CFF03F037FA2046C5F3072103F05C
S315080008B032FAE9B2204603F02EFA204603F01BFA74
S315080008C0204603F018FA2046BDE8384003F013BA6C
S315080008D000C0054008B5FFF771FFBDE80840FF21D5
S315080008E0014803F00EBA00BF00C0054038B50B4DED
S315080008F0FF212846FFF762FF03F00DFAFF2128467D
S3150800090003F009FA284603F0F6F9000284B22846ED
S3150800091003F0F1F9204380B238BD00BF00C005409E
S3150800092008B5FFF74BFF0122014BC3F8A02008BD0D
S3150800093000E0034008B5FFF741FF0122014BC3F869
S31508000940A02008BD00D0034030B51C4B87B001AAD3
S3150800095003F11005144618685968083303C4AB42F6
S315080009602246F7D11B782370154B1B6F03F007033C
S31508000970032B1FD04FF48022124B5A66124A9368F3
S31508000980C3F30443102B17D818336B4413F8143CDD
S315080009900E480F4943438B4203D19268C2F3016262
S315080009A0D340074A106FC0F303300130B3FBF0F0B1
S315080009B007B030BD074BF4E7074BF2E7A03E000847
S315080009C000800040009000400000014040420F00B7
S315080009D000093D0000F04902C0EA21010A4B1868E7
S315080009E030B9B1F5205F0DD8012208481A60704762
S315080009F0012806D1B1F5005F03D8022204481A601F
S31508000A0070470020704700BF34100020A83000202F
S31508000A10A810002031B1044A1368002BC4BF03F1A3
S31508000A20FF331360704700BF3410002002232DE9FE
S31508000A30F04F8046894600278BB0DFF8C8A0DFF85C
S31508000A40C8B004928DF81F309DF81F20022A08D0DE
S31508000A50049B002B49D041F20231012A18BF0F46E8
S31508000A6043E0DAF80010244DC1F540730893DBF82B
S31508000A700030224809930DF11F03029300230193C6
S31508000A8009AB009308AA1E4B294402F030FD50BB5F
S31508000A909DF81F306BB3089BDAF8004029461C44C2
S31508000AA024F0030632464B46404600F071F9B4423C
S31508000AB00746A4EB060205D02846A919059203F0B5
S31508000AC06BF9059A0999CAF80020DBF800208A42D2
S31508000AD0A2EB010404D90A482246014403F05CF952
S31508000AE0CBF80040B0E741F2033738460BB0BDE813
S31508000AF0F08F41F20237F8E7AC5A00203810002090
S31508000B00A8580020AC5D0020A85A002008B570221D
S31508000B100021064803F05AF901220020044B1A70F6
S31508000B20044B1860044B186008BD00BF381000203D
S31508000B30B05D0020AC5D0020A85A00202DE9F843DE
S31508000B40804658680F461446994620B31C4B1D78B4
S31508000B507DB100221A7051F8043B0522C8F86030AE
S31508000B601848194B00F066F830BB164802F09DFB92
S31508000B701125164E641B3368C3F50073A3420CD3C4
S31508000B80D6F80080124822467919404403F0F7F84F
S31508000B90002044443460BDE8F883002249464046B4
S31508000BA0FFF744FF0028F6D13368C3F50073A34264
S31508000BB0E6D241F20430EEE741F20530EBE700BF3A
S31508000BC0B05D00203810002008100020A85A002028
S31508000BD0A8580020F8B54C6806460D46ECB1012227
S31508000BE0FFF724FF0446C0B90E4B186888B10E4FAC
S31508000BF00428C0F104024FF0FF0188BF00223844E0
S31508000C0003F0E4F82B4604223946304600F0C0F8D3
S31508000C1028B90649064802F0E1FC2046F8BD044614
S31508000C20FBE700BFAC5D0020AC5A0020081000208E
S31508000C30381000202DE9F04385B0E84604464046C2
S31508000C40994602F0D7FC054670BB4A4641462046FF
S31508000C5002F0A4FC054638BB039FB7F1804F27D2A4
S31508000C6040F6FF76164BB7F5800F28BF1E46F319D8
S31508000C7023EA06066169B74238BF374611B1A36A47
S31508000C80BB4217D04846D9F804309847002339465E
S31508000C9063614846D9F800309847606150B94946BB
S31508000CA0204602F072FC0225284605B0BDE8F0830E
S31508000CB0044EDCE798E80F00A76284E80F00F3E724
S31508000CC0FFFF0F00FFFF3F000068024BC31A5842A0
S31508000CD058417047FD0707FD034A044B90420CBF75
S31508000CE018460020704700BFFD0707FDB43E000800
S31508000CF030B500220C24064B04FB02F1CD58854280
S31508000D0001D1581830BD01320D2AF5D10020F9E776
S31508000D10C83E00087FB50023CDE9003308231546F1
S31508000D200DEB0302044602F0A8FC41F203039842C5
S31508000D30064626D194F8433063B10822E06C0DEBE1
S31508000D40020102F020FD08230DEB03021146A06CF8
S31508000D5002F008FD039A029B6A6094F843202B6010
S31508000D605AB9094A934208D0084A934205D008223C
S31508000D70E06C0DEB020102F006FD6B6823650023AB
S31508000D806365304604B070BDF70A0AF7FC0404FC34
S31508000D902DE9F743044658680E4617469846002834
S31508000DA041D08B0742D14FF000639B6A206E1B69C6
S31508000DB002EB000C1D1D65451CD81C33984219D240
S31508000DC08542294638BF01469C4594BFC1EB0C02B3
S31508000DD0C1EB0302081AC5F1680506EB0009681895
S31508000DE020444946019202F0CAFFFF214846019A6B
S31508000DF002F0ECFF226E0F4B9A420AD80E49B81839
S31508000E00884206D39B1AF258C4F880204FF0FF3266
S31508000E10F2503A46D8E90035206E3146A8470020F8
S31508000E20226E3A44226603B0BDE8F08341F202001E
S31508000E30F9E700BF04800008088000082DE9F041A2
S31508000E4000254FF0FF3704468846164603F0200370
S31508000E5080F842301822FF21C0E91855A0F8405002
S31508000E6080F84350A0F8445080F84650C0F888707F
S31508000E70683002F0ABFF88222946C4E91286C4F816
S31508000E808070C4F8847004F1900002F09FFF074B4D
S31508000E90C4F82071C4E9463584F8245116B13046A1
S31508000EA000F08CFC0020BDE8F08100BF00010101C4
S31508000EB02DE9F04FA7B09846CDE913230023044641
S31508000EC00E46309D1593159A424501D30020D5E06C
S31508000ED094F84630142BF7D8DFE813F06800B5000D
S31508000EE0AF0053003A002E00E7013A00DF013A004E
S31508000EF091013A00DF013603A60315003001DC0232
S31508000F00DC027002A4034FF00009636D0F2B00F298
S31508000F1098800127102316AA2046CDF8049000973A
S31508000F2013A902F0AAFB41F203030990099A9A420F
S31508000F3000F0F680099B45E04FF00109D4E9143228
S31508000F40934200F2058184F8469041F2030339E0A2
S31508000F504FF00109D4E91472974272D9BF1ADDE934
S31508000F601423D21A94F84030032F1A4440F2A18170
S31508000F70032A00F2A181204613A902F05DFB002393
S31508000F8020E00127636D072BDFD8082316AA204621
S31508000F90CDE9007713A902F070FB41F203030C9028
S31508000FA00C9A9A4200F040810C9B0BE016AA204648
S31508000FB013A9FFF7AFFE41F203020690069B934280
S31508000FC008D0069B059341F20303059A9A423FF41B
S31508000FD07AAF52E0179A1699226500226265AA4AE4
S31508000FE0914240F02E81022284F84620EAE7012346
S31508000FF016AA009320460823019713A902F03DFB81
S3150800100041F203030790079A9A4201D0079BD9E752
S31508001010169B03F07F43B3F1407F05D0142384F871
S31508001020463041F20903CDE7179BD90706D594F850
S31508001030423043F0010384F842300027636D072BE2
S31508001040D5D901232EE1204616AA13A9FFF762FE79
S3150800105041F203030890DDF82090994511D0DDF898
S31508001060209041F20303CDF81490059A9A423FF472
S315080010702AAF059B0BB10023F370059827B0BDE88E
S31508001080F08F1698FFF734FE074628B9142341F265
S31508001090080984F84630E4E7437994F824219A420B
S315080010A005D9142341F20E0984F84630D9E70268B7
S315080010B076498A4205D00289D20748BF013384F8A7
S315080010C0243194F84230D8070DD53A8994F843303C
S315080010D0910706D53BB1142384F8463041F201093D
S315080010E0BFE7002BF7D016A8FFF7EEFD18B93B7936
S315080010F084F84630B5E71698C4F88C00FFF7ECFD7F
S3150800110094F842309A06F2D50028F0D04368002BAE
S31508001110EDD0204698470890089B002BE7D0DDE7DE
S31508001120D4F848A000F096FB80230221CDE90003FD
S3150800113017AA3B46504600F097FAE6E6226D0123C9
S31508001140A265002284F84330E26584F84630BAE6A0
S3150800115016AA2046CDE9009913A902F08EFA41F2A3
S3150800116003030A900A9A9A4201D00A9B2AE716AF05
S3150800117006F108030DF1700C3A4603CA6245186079
S315080011805960174603F10803F6D1106818603378DA
S3150800119043F001033370D1E6337843F00403337028
S315080011A0199BB36273785B0726D5EB238DF8583005
S315080011B017238DF85930A6238DF85A305E23002060
S315080011C08DF85B30236D6066C4F8843094F845303A
S315080011D043F0020384F84530EF686FB104222B68A8
S315080011E016A9B8470822606E2B68EF6818A910443C
S315080011F0B847636E103363660B2384F84630636D15
S31508001200072B3FF6A2AE012318AACDE900332046E4
S31508001210082313A902F031FA41F203030B900B9A43
S315080012209A42B9D00B9BCDE6337843F0020333706C
S31508001230169B7360236D083B7362179BB3F1006FAF
S3150800124005D0142384F8463041F20103BAE6042394
S3150800125084F8463094F8453043F0010384F8453065
S31508001260002363668EE6042316AA2046CDE9007796
S3150800127013A902F002FA41F203030D900D9A9A425D
S3150800128006D00D9B9EE600BFEB17A603F90707F9E4
S31508001290236D042B02D9169B23660127636D032B46
S315080012A0E1D9092384F846304FE60023636607230D
S315080012B04BE797423FF65FAE402F28BF402797423D
S315080012C028BF1746032F88BF27F003073B4616AAF1
S315080012D02046CDE9009913A902F0CFF941F203039C
S315080012E00E900E9A9A4201D00E9B6BE694F846A091
S315080012F0BAF1070F04D1D5F808B0BBF1000F1BD11E
S31508001300042FC7F1040B88BF4FF0000B16AB5A46E3
S31508001310FF21D81902F05AFDBAF1090FBB4414D1BE
S315080013202B465A46204616A9FFF732FD0E900E9B0D
S31508001330002B3FF40FAED7E73A462B68606E16A926
S31508001340D847626E3A44626604E6BAF1040F21D1C0
S3150800135073789F077FF5FEADEB68002B3FF4FAAD77
S31508001360626E042A0BD80BEB0203062B07D917ABC0
S315080013709B1A1A68C4F884204FF0FF321A605A463E
S315080013802B68606EEF6816A9B847626E0BEB02070A
S315080013906766DFE5BAF10B0F7FF4DCAD73785807A3
S315080013A07FF5D8ADD5F80CA0BAF1000F3FF4D2AD51
S315080013B05A462B68606E16A9D047E6E794F842703D
S315080013C017F0200707D0D4F88C00FFF785FC0746EE
S315080013D000283FF439AF4FF0010940E03BB337B37B
S315080013E03B6923B320469847DDE914329B1A94F8E3
S315080013F0402013448342FFF4BEADD4E91421521AA7
S31508001400402A28BF40229A4228BF1A462046134639
S315080014109246CDE9009916AA13A902F02EF941F2CF
S3150800142003030F900F9A9A4203D00F9BCAE5012037
S31508001430DAE794F84230990611D5002F3FF404AF45
S31508001440D7F808B0BBF1000F3FF4FEAE2B46524664
S31508001450204616A9D8470F900F9B002BE5D1D4E953
S31508001460142194F84230914203F02003B6D3002B9E
S315080014703FF4E7AD002F3FF4E4ADFB68002B3FF4E3
S31508001480E0AD2946204698470F900F9B002B3FF466
S31508001490D8ADCAE74FF000618A6A496B1269503ABB
S315080014A091423FF6D1AE112B0FD194F81831002B8B
S315080014B07FF4C7AD41F206031093109A9A4202D1FF
S315080014C0142384F84630109B7CE594F84430002BAE
S315080014D07FF4B7ADCDE9003316AA4023204613A9F9
S315080014E002F0CBF841F203031090109A9A42EAD11F
S315080014F0E06C02F04AF994F81831A3B104F1B40388
S31508001500E06C00931EAA04F1940316A900F0D6F81D
S315080015101090109B9BB10023F370142384F8463077
S3150800152041F206034EE5E76C00F058F9039000F027
S3150800153073F9039B00901EAA384616A9E6E701230D
S31508001540F37084F844307CE5002316AACDE900330D
S315080015502046042313A902F090F841F203031190E0
S31508001560119A9A4202D0119B059386E5D4F88820F1
S315080015702F4B9A4205D0142384F8463041F20503CE
S31508001580F2E70123F37094F84530DA0707D5EF68D8
S315080015902FB104222B68104604F18401B84794F849
S315080015A045309B0707D5EF682FB104222B681046F4
S315080015B004F18401B847236E6BB36F685FB34FF0CD
S315080015C0FF3304F18001042212A81293039102F05A
S315080015D0C6FB20B104222B6803991648B84704F1C4
S315080015E068090422494612A802F0B9FB98B14FF0DF
S315080015F000639B6A1422D3F8108004F16C0108F189
S315080016000800D5E90037B847D5E900370422494626
S3150800161008EB0200B8470123B3700E2384F846305E
S315080016200023A1E70023F37041F2070026E500BF77
S31508001630E320BBDE0480000830B50824094B0025EA
S315080016405C66012403F5FE235C6001449D601A6113
S31508001650DC60884201D1586A30BD10F8012B1A6245
S31508001660F7E700BF00900040F7B516464FF48062D2
S315080016701D46114B04469A6620300F46019002F02B
S315080016804FFBDDE90812019802F04EFB002384F8AF
S31508001690587063643368C4F859307368C4F85D30A9
S315080016A0B368C4F861302B0C6DBA84F86530A4F8B9
S315080016B0665003B0F0BD00BF009000402DE9F0432E
S315080016C015464FF480621C46364B99B0DDF880907B
S315080016D00E4607469A66002861D000295FD0002D7D
S315080016E05DD0002C58D0304B304AB9F1000F14BFEA
S315080016F0984690461C22002111A802F067FB2C4B45
S31508001700414610A8109302F0CFFA202110A802F043
S31508001710CBFA0122274B019402920393CDF810903D
S315080017200592069354B1B9F1000F07D001A910A884
S3150800173002F0A6FA04A910A802F0A2FA0797012750
S315080017401C4C07A910A80897099402F099FA0AA947
S3150800175010A80A960B970C940D950E970F9402F005
S315080017608FFA0DA910A802F08BFA10A802F0A5FAB4
S31508001770114B00934FF098435A6CD202FCD55B6D1F
S3150800178040F2046003F470230093009B002B08BF0B
S31508001790002019B0BDE8F083DFF81080AAE740F210
S315080017A00160F6E7009000401F2400801F24FC8497
S315080017B00000010620000020785634124FF480629B
S315080017C010B50446044B9A6601F0E2FF2046BDE8D0
S315080017D01040002101F0E0BF009000404FF4806205
S315080017E000B50B4B91B09A666946002340224FF428
S315080017F0807000F039FCB0F5A02F07D0B0F5302F77
S31508001800044818BF002011B05DF804FB0148FAE748
S31508001810009000404CE317084FF4806200B50B4B6C
S3150800182091B09A666946002340224FF4807000F012
S315080018301BFCB0F5A02F07D0B0F5302F044818BF11
S31508001840002011B05DF804FB0148FAE7009000405B
S315080018506CE317080048704786E217082DE9F34736
S3150800186099460A9B0C46196805463F29164642D8EA
S315080018705A68002A41D0224A002E14BFB046904624
S3150800188001F03F07091928BF5A68196024BF0132B9
S315080018905A60AFB1C7F1400AA24521D82946524637
S315080018A009EB070002F06BFA0123414600934A460A
S315080018B03346002000F086F8B046403C55443C4488
S315080018C03F2C0CD9A3092A460093414633460020EB
S315080018D000F078F824F03F031D4404F03F04002785
S315080018E02CB12246294609EB070002F048FA0020E7
S315080018F002B0BDE8F0879046C2E7DFF80480BFE78C
S31508001900643F000830B40546084611461A46DDE924
S31508001910023425B931B1029430BCFFF79FBF0248A3
S3150800192030BC70470846FBE780AFFFFF2DE9F04162
S315080019301746146886B01E46E3008DF80F30630913
S3150800194052688DF80E30630B8DF80D30630D8DF8E7
S315080019500C30D30003EB54738DF80B3004F03F04BE
S315080019605309372C8DF80A304FEA52334FEA525250
S3150800197005468DF80820884694BFC4F13802C4F19C
S315080019807802CDE900178DF809300D490346002085
S31508001990FFF7B8FF082143462A4600970DEB0100DA
S315080019A0FFF75CFF284605F1200350F8042B984200
S315080019B046F8042BF9D1002006B0BDE8F08100BF37
S315080019C0843F0008F0B517464FF480621D46254B44
S315080019D093B00E469A660446202200210AA802F011
S315080019E0F5F901204FF000520197029003920496F0
S315080019F005900692079508900992002C2FD1189CFD
S31508001A00194BA40121460AA80A9302F04DF9039935
S31508001A100AA80C430394069B04A943F020030693E3
S31508001A20099B43F02003099302F02AF901A90AA8A1
S31508001A3002F026F907A90AA802F02CF90AA802F06A
S31508001A403CF94FF098435A6CD202FCD55B6D13F4FF
S31508001A50702F0CBF00206FF06F0013B0F0BD6FF051
S31508001A607100FAE7009000400004010310B5ADF5D7
S31508001A700E7D4FF40D72002001A901F013FF40F20C
S31508001A800124002101A801F0DFFEA042F9D040F2AE
S31508001A90032398421FD19DF8043059070CD49DF8AA
S31508001AA004309A071CD4DB0715D504998A9800F0E8
S31508001AB03DF980B1002010E00B9800F088FC002862
S31508001AC0EDD08A9800F0F0F80028E8D00D48FEF727
S31508001AD0E7FC0028E3D140F205400DF50E7D10BD68
S31508001AE04FF00062926A029992689142DBD98A980D
S31508001AF000F0F8F80028EED00A990248FEF786FCAE
S31508001B00E9E700BF0080000831B10A4B5A688242F3
S31508001B1005D80023C1E9003340F20140704701307F
S31508001B2053F8302003EBC00043680A6000204B607E
S31508001B30704700BFE440000870B40C4611460C4AD2
S31508001B40556885420DD9013002EBC0067668E5185E
S31508001B50B5420AD852F830001A46204470BC01F043
S31508001B607BBF40F2014070BC704740F20240FAE782
S31508001B70E440000870B50D46002186B00DF1070354
S31508001B8002931F4B04461646116028461C22CDE9CF
S31508001B9003338DF80710059302F018F994F872309C
S31508001BA0132B28D0D4F830322BBBD4E98A219142A2
S31508001BB007D2204602A901F02AFE9DF80730002B1D
S31508001BC0ECD02278910744BF61683160D20709D505
S31508001BD004F1080204F1240152F8040B8A4245F87C
S31508001BE0040BF9D14BB9237840F20640002B18BFF5
S31508001BF0002006B070BD0023E3E70020F9E700BF28
S31508001C000938000870B40C4611460C4A55688542D6
S31508001C100DD9013002EBC0067668E518B5420AD838
S31508001C2052F830001A46204470BC01F037BF40F223
S31508001C30014070BC704740F20240FAE7E4400008F1
S31508001C40074B5A68824207D9013003EBC002516834
S31508001C5053F8300001F07CBF40F20140704700BFE6
S31508001C60E440000870B5054688B0C0B14FF440326C
S31508001C7000236C46C0E900230A4B05F114061A78BE
S31508001C805B680272C360684600F06EF80FCC0FC638
S31508001C9094E80F0086E80F0005F114032B6108B0DD
S31508001CA070BD00BFE440000800B5ADF5137D4FF4E4
S31508001CB00D7205A901F0F6FD78B904238DF81530E3
S31508001CC0074BCDE90100039001A905A8049301F08B
S31508001CD0FDFD0DF5137D5DF804FB0020F9E700BF57
S31508001CE0510200084FF0006300B59B6AADF5137DFD
S31508001CF09B688B4204D300200DF5137D5DF804FB29
S31508001D004FF40D7205A901F0CDFD0028F3D1022389
S31508001D108DF81530044BCDE90100039001A905A8FB
S31508001D20049301F0D3FDE7E75102000800B5ADF5CD
S31508001D30137D4FF40D7205A901F0B4FD78B901239E
S31508001D408DF81530074B0190CDE90230049001A9B2
S31508001D5005A801F0BBFD0DF5137D5DF804FB002019
S31508001D60F9E700BF7523000870B588B0064601F08C
S31508001D7047FE20220021684602F028F801F0C1FD3E
S31508001D800E280CD802280CD903380B2809D8DFE806
S31508001D9000F0110808081C08081F08080822172858
S31508001DA01CD035466C460FCC0FC594E80F0085E865
S31508001DB00F0007E034460B4D0FCD0FC495E80F0012
S31508001DC084E80F00304608B070BD3446064DF3E788
S31508001DD03446064DF0E73446054DEDE73446054DE5
S31508001DE0EAE700BFF4400008C4400008A440000821
S31508001DF0644000088440000810B5044601F000FE5F
S31508001E0054B901F07EFD0138C0B2162896BF064BBC
S31508001E10002053F8200010BD20780028F3D101F0E7
S31508001E2070FD2070EFE700BF08400008430905D0A1
S31508001E30012B0DD0022B094B18BF002300F01F0001
S31508001E4041B103F58053012202FA00F01860704789
S31508001E50034BF3E703F50053F5E700BF688000403E
S31508001E60648000402DE9F04105460F461E4690461F
S31508001E704AB101233022194C8B4002FB00443EB381
S31508001E8004F5825423600F21072F05EB450388BF0D
S31508001E90A7F108044FEA0313114895BFBC00A40034
S31508001EA004330C3308FA04F2A140184401F0CEFEBC
S31508001EB0B8F1000F0AD101213020084A01FA07F7C4
S31508001EC000FB05223EB102F582521760BDE8F0819B
S31508001ED004F50154D6E702F50152F6E700C00340BF
S31508001EE030C00340F0B5114A114C124E00F00105FE
S31508001EF0E3695F0713D40DB9334213D103EA000728
S31508001F008F4207D10B4A1A40002A14BF6FF001000E
S31508001F100020F0BD013AEBD16FF00200F9E74FF06F
S31508001F20FF30F6E76FF00100F3E700BF80969800F0
S31508001F3000000340020001004FF4803238B50E4B12
S31508001F400E4C9A66E56941F6713315400122E36342
S31508001F500B4B0021DA600223606121202361FFF721
S31508001F60C1FF10B92120FFF7BDFF0122054BDA603A
S31508001F700DB10023E36338BD009000400000034024
S31508001F8000100340002003402DE9F04F06464FF4A9
S31508001F9030250120B400DFF8C0C004F1402404F560
S31508001FA08024CCF804006560302500244FF480377F
S31508001FB0DFF8A8E0DFF8A89005FB06E5EC652C66D7
S31508001FC02C67234CDFF89CA0A76641F6713704F509
S31508001FD01C34D4F81C80E763E76800FA06F6074362
S31508001FE0E7604BB9E26818F4803F22F00102E2602C
S31508001FF000D0E363184628E001F5005000EA09001E
S31508002000401A984228BF18466161D4F81CB0870860
S315080020101BF0040F17D1013F3F0147F060576F6669
S31508002020AA66C5F86CA0CCF82460DEF834703E4287
S31508002030FBD0084F01447E630427CCF8286002448D
S3150800204027611B1ACDE74FF0FF30BDE8F08F00BFC0
S3150800205000900040002004400010044000000440A6
S3150800206000E0FFFF18000340F0B507460F4D104883
S315080020708DB0002B08BF05460E46144600211C22CB
S3150800208005A801F0A3FE012304A801A93D4344F0D5
S315080020900054019604950293039401F0FBFD01F0A8
S315080020A00CFE01F0E4FD0DB0F0BD00BF01000AFF13
S315080020B0010008FF4FF48062014B00209A667047C2
S315080020C0009000404FF48062014B00209A667047EA
S315080020D000A000402DE9F04104681E4624F04003A4
S315080020E0802B05468846174692B002D0B4F5807F05
S315080020F043D11C2200210BA801F068FE224A234B7B
S315080021000121B8F1010F18BF13460A932B1D01933D
S31508002110E4081F4B44F0005402910AA8039404975C
S31508002120059106930796089101A9099301F0A8FD60
S3150800213004A90AA801F0A4FD07A90AA801F0AAFDA6
S3150800214029680AA8C90801F0AFFD10210AA801F0FC
S31508002150ABFDFFF7AFFF98B90AA801F0AEFD4FF047
S3150800216098435A6CD202FCD55C6DFFF7ABFF04F4BA
S315080021707024204612B0BDE8F0816FF07100F9E7CF
S315080021804FF0FF30F6E700BF00010104000100042C
S31508002190100000202DE9F04F9BB007468946984667
S315080021A01646DDF894B072B115683B6823F0400214
S315080021B0802A03D0B3F5807F40F0A6800BEB090395
S315080021C0002400930DE01546EFE795B1249A1BF815
S315080021D00430525D01355340269A05F00F05135514
S315080021E001344C45F1D3002E00F091800020356073
S315080021F067E0A9EB040ABAF10F0F57D91C22294642
S3150800220013A801F0E3FD434B3A6812933B1D039371
S315080022100123D20842F00052049305923E4A2699B9
S31508002220CDF818802AF00F0A07930892CDF8248073
S315080022300A930B920BEB04020C9221444AF00052CB
S315080022400D9312A80E920F9103A91093119201F003
S3150800225017FD06A912A801F013FD0CA912A801F092
S315080022600FFD0FA912A801F015FD09A912A801F082
S3150800227011FD396812A8C90801F016FD514612A8C1
S3150800228001F012FDFFF716FFC8B912A801F015FDF7
S315080022904FF098435A6CD202FCD55B6D544403F454
S315080022A070230193FFF70EFF019B5BBB269B0BEB8D
S315080022B0040A1C44009B9A4506D14C4691E74FF008
S315080022C0FF301BB0BDE8F08F8DB942460121384674
S315080022D0249BFFF7FFFE0028F3D108F1100212F83D
S315080022E0013D0133DBB213700BB99045F7D1249A3F
S315080022F01AF8013B525D0135534004F8013B05F0DD
S315080023000F05D7E71846DCE76FF01F00D9E7304618
S31508002310D7E700BF0303000410000020FEE74FF0D4
S3150800232098435A6CD202FCD5586D00F47020704759
S31508002330C0F30C032DE9F04105460F4616460BB9C6
S31508002340FEF7F0F905F5005424F4FF5424F01F04B1
S3150800235005EB0608A04507D8324639462846BDE8A3
S31508002360F0410223FEF7ECB92046FEF7DBF904F547
S315080023700054EFE770B44FF00065AD6A03462E6966
S31508002380864206D86C6913449C4202D370BCFFF798
S31508002390CFBF70BC7047036913F0FE0F0CBF012056
S315080023A00020704738B504460D46FDF77FFF48B153
S315080023B06369012B09D12046FFF7EDFF08B1A36930
S315080023C02B6038BD01202C60FBE70020F9E74FF0B1
S315080023D0FF3313B5044601A80193FEF797F820B119
S315080023E0019BA3422CBF0020012002B010BD01F0C2
S315080023F0CDBA01F016BC4FF40170FEF77FB9B1F5FE
S315080024000D7F10B504460FD34FF40D72002101F06D
S31508002410DDFC04F5DE7204F5AA7104F12C00002334
S31508002420BDE81040FEF70ABD40F2052010BD13B501
S315080024300446009101462C30FEF73AFDC4F83002F6
S3150800244018B141F20703984209D1A3784BB140F27B
S31508002450032040F20223E278002A08BF184602B099
S3150800246010BD40F20120FAE72DE9F04387B00DF1DF
S31508002470080904460E4617460021102248461D46FE
S31508002480DDF8388001F0A2FC00211C22C8F80010F3
S31508002490284601F09BFC32463B462146CDF8009083
S315080024A004F12C00FEF704FD23789A0744BF6268FE
S315080024B0C8F80020DB0709D504F1080304F1240253
S315080024C053F8041B934245F8041BF9D1237840F2CC
S315080024D00640002B18BF002007B0BDE8F0834FF474
S315080024E00D7070474FF000534CF23C325A807047DB
S315080024F04FF000534AF6C0325A8070474FF00053E7
S315080025004FF20F025A8070474FF000534AF6C03018
S315080025105B8823F00F039BB21B1A58425841704739
S315080025204FF0005208B51080FFF7EEFF10B94FF2D2
S315080025300F03538008BD08B5FFF7E6FF20B14FF03B
S315080025400053588800F00F0008BD08B5FFF7DCFFF8
S3150800255050B14FF00052538803F00F010F2914BFF2
S31508002560013323F00F03538008BD4FF000534FF299
S315080025700F015A888A4201D1188870473AB91B88D0
S3150800258040F20220012B18BF4FF4007070474FF439
S3150800259000707047002303604FF480107047436D46
S315080025A0002B0CBF112001207047826CF0B5531E1A
S315080025B0B3F5887F18D8D0E9093CD0E90B47C91A82
S315080025C0914228BF11464569866B2FB9C768A7EBA4
S315080025D0040E8E4598BF07630C44521AC46282647F
S315080025E019448B4201D14362F0BDB34234BF6446FD
S315080025F000249A1B2A44125DEA540133F1E72DE9B7
S31508002600F04F93B008910E92036BD0F82CB0079355
S31508002610436A0093079B002B40F09D80C368089A85
S315080026200099A3EB0B03521A9A4240F294800B448A
S315080026304FF0FF37D0E90DA98568099307FA05F524
S31508002640ED430F954568C36B07FA05F5ED431095FD
S3150800265000250193036C04690293436C0C9503935C
S31508002660036804F244650D934369026A0493836A16
S3150800267005950693D0E906360F9DB6F1807F05EAE3
S315080026800B084FEA0A150A9508EB0A1C3CBF13F813
S31508002690015B360234F81C7038BF45EA0222F50A97
S315080026A07D43954240F2B480C7F5006607EB56169F
S315080026B024F81C60079E04F66C6C56EA0B0115D0CC
S315080026C0109E00990BEA06070D9EB740002944D1D3
S315080026D0069E013E04998E5D0D99C1F1080E46FAD3
S315080026E00EF637444FF4C06606FB07CCBAF1060F60
S315080026F00BF1010B3DD80126BAF1030F94BFAAEBE3
S315080027000A0AAAF1030AB5F1807F38BF13F801EB6C
S315080027104FEA460638BF2D023CF8067038BF4EEA27
S3150800272002224FEAD52E07FB0EFE96450CEB06084D
S3150800273016D9C7F5006507EB55177546BFB2FF2EC4
S31508002740A8F80070DFD90499009FCE5539462E4661
S3150800275001310091A1E1089B6AE700994E1EB9E78D
S31508002760A7EB5717A5EB0E05A2EB0E02BFB2013673
S31508002770E5E70099069FA1EB0906494528BF00270A
S315080027800499BAF10A0F0E44F15D34BF03260626F2
S315080027904FF48078AAEB060A01260A910A99B5F140
S315080027A0807F4FEA410108EB06070A9101EA080112
S315080027B038BF13F801EB0F4438BF2D020B910CEB11
S315080027C047013CF8177038BF4EEA02224FEAD52E69
S315080027D007FB0EFE964511914FEA46060DD9C7F539
S315080027E0006507EB551775460B99BFB228EA01082D
S315080027F01199FF2E0F80D1D9A5E7A7EB5717DDF85A
S315080028002C80A5EB0E05A2EB0E02BFB20136EFE750
S31508002810761BA7EB5717B6F1807F24F81C70A2EB3E
S3150800282005020AF1C00E3CBF13F8015B360234F804
S315080028301E7038BF45EA0222F50A7D4395424FEAE3
S315080028404E0C40F2D3800399C7F500660B910299A6
S3150800285007EB56160391019924F81E60CDE90191FC
S315080028600AF10C0A04F26467B5F1807F3CBF13F8DD
S31508002870016B2D02B7F800C038BF46EA0222EE0AFD
S315080028800CFB06F6964240F279814FF0000ECCF525
S3150800289000650CEB55153D8007EB081704374FF01C
S315080028A008094FF0010CB6F1807F38BF13F8018B89
S315080028B04FEA4C0C38BF360237F80C5038BF48EA96
S315080028C002224FEAD62805FB08F8904507EB0C01CB
S315080028D040F28481C5F5006605EB56154646ADB24D
S315080028E0CC450D80DFD3AEEB090E0EEB0C01BAF129
S315080028F00B0F0A9140F2A582032988BF4FF49C6EFC
S315080029004FF001059CBF4FEAC11E0EF5587EB6F181
S31508002910807F4FEA450538BF13F801CB05EB0E0853
S3150800292038BF360234F8087038BF4CEA02224FEA3C
S31508002930D62C07FB0CFC944540F25A81C7F5006675
S3150800294007EB56176646BFB23F2D24F80870DED946
S31508002950403D032D3BD905F0010C0D2D4FEA5507D7
S315080029604CF0020C00F25A814FF0010EC5F10049F5
S31508002970013F0CFA07FC09F2AF29E1444FEA490185
S315080029806546F1460B910B99B6F1807F4FEA4E0EDC
S3150800299038BF13F8018B714438BF360234F801C0CA
S315080029A038BF48EA02224FEAD6280CFB08F89045B9
S315080029B040F22781CCF500660CEB561C46461FFAFA
S315080029C08CFC013F24F801C04FEA4909DBD107997D
S315080029D005F10109002940F02082AB4500F220826A
S315080029E0009B4362012013B0BDE8F08F0799A7EB5F
S315080029F0571751EA0B01A6EB0506A2EB050224F8C8
S31508002A001E70EFD0B6F1807F38BF13F8015B0CF16A
S31508002A10180E38BF360234F80E7038BF45EA02225F
S31508002A20F50A7D4395425BD9C7F500660A9907EB17
S31508002A30561624F80E60B5F1807F01F1F00E38BF06
S31508002A4013F8016BC64438BF2D0234F81E7038BF20
S31508002A5046EA0222EE0A7E43964228D9C7F5006561
S31508002A60009907EB5515069F24F81E50494528BFBF
S31508002A700027A1EB09050499BAF1070F0D44ED5D8E
S31508002A80009F38BF4FF0090ACD55394628BF4FF089
S31508002A900B0A013100910BF1010B0999009DA9421E
S31508002AA040F281810E9999423FF6E6AD7BE1AD1B76
S31508002AB0921B019ECDF80490B146A7EB571724F850
S31508002AC01E700399BAF1070F0B91029934BF4FF0A4
S31508002AD0080A4FF00B0ACDE9029104F66827C3E607
S31508002AE0761BA7EB5717B6F1807F24F80E70A2EB7A
S31508002AF005020CF1300E3CBF13F8015B360234F8C0
S31508002B000E7038BF45EA0222F50A7D43954206D97A
S31508002B10C7F5006607EB561624F80E60D1E7761B54
S31508002B20A7EB5717B6F1807F24F80E70A2EB0502C3
S31508002B300CF1480C3CBF13F8015B360234F80C70F4
S31508002B4038BF45EA0222F50A7D4395420AD9C7F5F8
S31508002B50006607EB561624F80C60DDE90161019161
S31508002B600296AEE70399521B751B019E01910299C5
S31508002B70A7EB571724F80C700391F1E7AD1BACEBE4
S31508002B805C1CB5F1807FA7F800C0A2EB06023CBF2B
S31508002B9013F8016B2D02B7F802C038BF46EA0222C5
S31508002BA0EE0A0CFB06F696420BD9CCF500650CEB43
S31508002BB055157D8007EB08174FF0080E07F5827745
S31508002BC06DE6ACEB5C1C921BA7F802C04FF0100E2A
S31508002BD04FF4807907F50177AE1B62E6A5EB55152C
S31508002BE0A6EB0806A2EB0802ADB20CF1010C77E6DB
S31508002BF0A7EB5717A6EB0C06A2EB0C02BFB20135E2
S31508002C00A2E6ACEB5C1CA6EB0806A2EB08021FFAD0
S31508002C108CFC0EF1010E45EA0905D2E6053FB6F130
S31508002C20807F3EBF13F8015B360245EA022276082A
S31508002C30921B4FEA4C0C0CF1010C06EAE275013FB7
S31508002C400CEBE27C2A44EAD1B6F1807F38BF360223
S31508002C50B4F846E64FEA0C154FEAD62C0EFB0CFCE8
S31508002C603CBF13F8017B47EA022294455ED9022746
S31508002C70CEF500660EEB561E1FFA8EFE0599BCF1C0
S31508002C80807FA4F846E631F817E04FEA470601EBDD
S31508002C9047083EBF13F8017B4FEA0C2C47EA02228D
S31508002CA04FEADC270EFB07F797424BD9CEF5006CA7
S31508002CB00EEB5C1E1FFA8EFE0599A8F800E0B7F128
S31508002CC0807F31F816C04FEA460E01EB46083EBF34
S31508002CD013F8016B3F0246EA0222FE0A0CFB06F6CF
S31508002CE096423AD9CCF500670CEB571C1FFA8CFCB8
S31508002CF00599B6F1807FA8F800C031F81E704FEA32
S31508002D004E0C3EBF13F801EB36024EEA02224FEA9A
S31508002D10D62E07FB0EFE96452AD90599C7F50066F5
S31508002D2007EB561621F80C60764650E6AEEB5E1EAB
S31508002D30A2EB0C0203271FFA8EFE45F00105A6EB4F
S31508002D400C0C9BE7AEEB5E1ED21B1FFA8EFE0136FD
S31508002D5045F00205ACEB0707AEE7ACEB5C1C921B33
S31508002D601FFA8CFC0EF1010E45F00405BE1BBFE7E9
S31508002D700599A7EB571745F0080521F80C70691C4B
S31508002D80A6EB0E06A2EB0E027FF421AE0A99AAF173
S31508002D900C0A01F589710C91DDE9019101910399FC
S31508002DA002910B990391B6F1807F3CBF13F8014B52
S31508002DB03602C0E906360C9B38BF44EA0222836411
S31508002DC0009B02624362019BC0F82CB0C363029B5E
S31508002DD0C0F838900364039BC0F834A04364036BBF
S31508002DE01BB9C3685B4598BF03630899FFF7DDFB0A
S31508002DF0436A089A9342836C07D282690E998A427B
S31508002E0003D2B3F5897FFFF4FFABB3F5897F02D907
S31508002E104FF4897383640020E5E50799A942DDE547
S31508002E20BAF1130F34BF4FF0070A4FF00A0A0A998E
S31508002E30009D01F1020C0999B1EB050809D12B4651
S31508002E40CFE5DDE901910191039902910B9903916F
S31508002E50EDE7E04528BFE0460099069FA1EB090586
S31508002E60494528BF0027ACEB08010C9106993D445B
S31508002E704F1BB8450499009FC3440F440CD80099CA
S31508002E8007EB080C6D1A4144009117F805E007F89E
S31508002E9001EBBC45F9D100E608EB070C049911F8DB
S31508002EA005E0069907F801EB0135A94208BF002598
S31508002EB0BC45F3D1009941444BE42DE9F047D0E9EC
S31508002EC0075301278468D0F82C80A740D0F834C06F
S31508002ED0013F066907EA080707EB0C1EB5F1807F74
S31508002EE036F81E900A4407D2914280F0DC8111F828
S31508002EF0014B2D0244EA0323EC0A09FB04F4A3421E
S31508002F0078D2076B06F66C6658EA070519D0D0E939
S31508002F1000E70125BD40013D05EA080505FA0EF75B
S31508002F20456AD0F8148005B9856A013D18F8055038
S31508002F30CEF1080E45FA0EF53D444FF4C06707FB7F
S31508002F400566BCF1060F20D801204000B4F1807F49
S31508002F50375A07D2914280F0A68111F8015B240204
S31508002F6045EA0323E50A7D43AB4229BF01302C46D7
S31508002F70641B5B1BFF28E8D90120B4F1807F80F031
S31508002F802281914228BF00201DE1876BD0F824C01A
S31508002F904569BC45ACEB070E2CBF0027876A05EBD5
S31508002FA00E0010F807C001204FF480774FEA4C0C4A
S31508002FB007EA0C0E3D187544B4F1807F36F8158083
S31508002FC007D2914280F06F8111F8015B240245EA2D
S31508002FD00323E50A08FB05F54000AB422BBF013089
S31508002FE02C46774627EA0E0724BF641B5B1BFF287F
S31508002FF0DCD9C1E7281B0CF1C00CB0F1807FA3EB2C
S3150800300004034FEA4C0436F81CC007D2914280F0FC
S315080030104A8111F8015B000245EA0323C50A0CFB45
S3150800302005F5AB4280F0A08002204FF0000E06F2B4
S31508003030646CB5F1807FBCF8008007D2914280F0BD
S31508003040328111F8014B2D0244EA0323EC0A08FBEE
S3150800305004F4A34280F0EB800CEB071707F1040C8D
S3150800306000274FF008094FF001084FEA4808B4F165
S31508003070807F3CF808A007D2914280F0148111F8AD
S31508003080015B240245EA0323E50A0AFB05F5AB4280
S3150800309029BF08F101082C46641B5B1BC845E4D30D
S315080030A0BEF1030F3FF669AFA7EB09074744032FA5
S315080030B088BF4FF49C674FF001059CBFFF0107F5D9
S315080030C058776D0006EB050CB4F1807F3CF807E0F5
S315080030D007D2914280F0E78011F801CB24024CEA2E
S315080030E003234FEAD42C0EFB0CFC634529BF01359C
S315080030F06446A4EB0C04A3EB0C033F2DE1D9403D39
S31508003100032D7FF63AAF0D2D4FEA550700F2B18031
S3150800311005F0010C013F4CF0020CC5F100450CFA14
S3150800312007FC05F2AF25654406EB45064FF0010C92
S315080031304FEA4C0CB4F1807F36F80CE007D2914286
S3150800314080F0B18011F8015B240245EA0323E50A01
S315080031500EFB05F5AB4231BF2C46641B5B1B0CF11D
S31508003160010C013FE4D108E7401B3444B0F1807FED
S31508003170B4F818C0A3EB050307D2914280F09380F8
S3150800318011F8015B000245EA0323C50A0CFB05F5A5
S31508003190AB4222D20EF1F00EB5F1807F36F81E4012
S315080031A006D291427FD211F8010B2D0240EA032381
S315080031B0E80A6043834208D2B0F1807F71D2914217
S315080031C034BF03200020BDE8F0872D1A1B1A032000
S315080031D04FF00C0E06F6682C2BE7401BB0F1807FEB
S315080031E0B4F830C0A3EB050306D291425BD211F8BE
S315080031F0015B000245EA0323C50A0CFB05F5AB4251
S31508003200E5D3401BB0F1807FB4F84840A3EB050333
S3150800321006D2914247D211F8015B000245EA032320
S31508003220C50A6543AB4224BF5B1B451BCFE72D1B75
S31508003230B5F1807FBCF80280A3EB040306D2914265
S3150800324031D211F8014B2D0244EA0323EC0A08FB9C
S3150800325004F4A34205D20CEB071707F5827C08276E
S31508003260FFE61B1B10274FF480790CF5017C2C1BFD
S31508003270F9E6053FB4F1807F06D2914213D211F8E0
S31508003280015B240245EA032364081D1BED0F013D7B
S315080032902540013FA3EB0503ECD1042706F244665B
S315080032A044E703208FE700208DE700230122C0E9C9
S315080032B00B33C0E9123243628365026570472DE914
S315080032C0F04F98460025044685B09DF83830DDF85D
S315080032D03CB0D8F80070C8F8005007EE901A1646A9
S315080032E00293FFF762F98BF80050A36CB3F5897F58
S315080032F009D1236A13B901238BF80030256A003DEA
S3150800330018BF01251EE0E36C4BB3A36DA7B1042BD0
S3150800331004D994F85C30CBB1012513E05A1CA26598
S3150800332016F8012B234483F85C20D8F80030013FB7
S315080033300133C8F80030E8E7042BEAD80323002550
S315080033408BF80030284605B0BDE8F08FD4F85D202C
S31508003350E36412BA22624FF0FF32A365E26117EE08
S31508003360902A636A93420DD3A36C002B40F0B18078
S31508003370256A002D40F0B58004238BF80030E1E77C
S315080033800223DCE700230193236D9BB1D4E90032C5
S315080033901A444FF4407393400022216903F23673AE
S315080033A0934225D80123C4E91033C4E90E33002318
S315080033B063632365D4F85890B9F1000F5DD1132FD4
S315080033C001D9019B03B33A4631462046FFF775FDFE
S315080033D0054698B93A46314604F15C0000F0CFFC40
S315080033E0A765D8F800303B44C8F800300323C4E783
S315080033F04FF4806021F812000132D1E7019A0AB130
S3150800340002286AD1324602E0A7F11402324417EEC6
S31508003410901A2046A661FFF7F2F800287FF47CAFE1
S31508003420A169D8F800308E1B3344C8F80030BF1B9A
S315080034300E465AE716F80A2009F1010903F8092089
S315080034400AF1010AB9F1130F01D8BA45F2D1B9F157
S31508003450130FC4F8589004F15C0301D9019AAAB174
S3150800346019464A4620460393FFF727FD039B054660
S3150800347040B9D8F800305344B6E74FF0000A04F1D3
S315080034805B03DFE7019909B1022826D11A4617EE30
S31508003490901A2046A3610193FFF7B1F800287FF43C
S315080034A03BAFA269019BD31A994510D3A9EB030236
S315080034B092450CD3D8F800205344A3EB09010A44DB
S315080034C04F44C8F800203144FF1AA065B0E70B2521
S315080034D038E7029B002B3FF453AF02238BF80030EA
S315080034E01AE7029B002B3FF44BAF01234BE72DE96C
S315080034F0F04F89B099469DF84C3004460393002353
S3150800350088461646DDF848A01768DAF800B0136052
S31508003510CAF80030D4E909318B4204BF002363623C
S31508003520656A149A4B1BBB4232BF0023039B791969
S31508003530CDE9003220464A4607ABCDF81CB0FFF766
S31508003540BEFE079ADAF8003061691344CAF80030FB
S31508003550636A0290294440469144ABEB020B5A1B1E
S315080035600593049200F00BFC059B049AED1A336848
S31508003570904413443360029B2F4413B90AB1002FB9
S31508003580C8D1029809B0BDE8F08F10B504464B685B
S315080035900846216998470023236110BD70B5D1E913
S315080035A000532B444FF440759D4003690446164664
S315080035B005F2367523B1436DAB4201D1002070BDCB
S315080035C031462046FFF7E1FF3046336869009847E1
S315080035D0656520610028F1D10220F0E738B5044678
S315080035E00D46FFF7D2FF6B682846616998470023A6
S315080035F0636138BD042A01D804207047D1F8013028
S31508003600B3F5805F38BF4FF48053C3600A78E02A69
S31508003610F2D80923B2FBF3F303EBC301521AD2B271
S3150800362002600522B3FBF2F2826002EB82029B1A69
S31508003630DBB243600020704770B5D1E90152AA4257
S3150800364005D290F840302B449B1A402B10D9002005
S3150800365012E00A6890F84040D65C90F841200133A1
S31508003660224402F03F02013486548B6080F84040C1
S315080036708B689D42EDD8012070BD2DE9F8431D46A3
S315080036801746D1E901329B1A90F8402004461344A4
S315080036909D420E469DF820909DF8248056D9FFF746
S315080036A0CBFF00285CD1142341F2020084F846308F
S315080036B0BDE8F88394F84120A25CFA5494F84120B6
S315080036C00133013202F03F0284F8412094F8402089
S315080036D0013A84F8402094F840200AB19D42E9D185
S315080036E0D6E90121914201D29D4231D89D42DAD1D3
S315080036F029463846D4F88820FDF79EFFC4F8880086
S31508003700B9F1000F04D02A463946E06C00F03BF8C0
S31508003710B8F1000F08D094F843308BB12B463A46DF
S315080037203946A06C00F01EF894F8433043B1E36DB7
S31508003730A26D2B449342E36524BF002384F84330EB
S31508003740636D41F203002B446365B1E70023C2E7CA
S315080037503268525CFA54B26801330132B260BFE78C
S315080037600020A5E71FB50C46194600F14803CDE928
S315080037700142009300F1440200F158032030FEF79D
S3150800378009FD04B010BD00F00CB8014600F016B8EB
S315080037906822002100F01ABB0023C0E9003318464E
S315080037A0704707B500F128030190009300F108035C
S315080037B00020FEF7A7F803B05DF804FB02460B46A7
S315080037C000F128010830FEF7B1B810B500244A1EEA
S315080037D0A1424FEA82024FF0FF0108BF224640F895
S315080037E0044B00F0F3FA204610BD036840F204507B
S315080037F00133022B38BF0020704740F20250704751
S3150800380070477047FEF732B901221A70704730B513
S3150800381004460D46A3B0D0F82C1202AA8023D0F88D
S315080038202402FEF789F980232146009502AA04F1AD
S315080038302C00FDF73DFBD4F82C32C4F83002803357
S31508003840C4F82C3223B030BD1FB50023CDE90033B0
S31508003850CDE90213D0F83032044693B9D0E98A325A
S315080038609A420ED26946FFF7D2FFD4F8300298B1D1
S3150800387041F2070240F20123904208BF184604B0FD
S3150800388010BDA3785BB140F2022040F20323E27830
S31508003890002A18BF1846F2E740F20120EFE740F287
S315080038A00220ECE737B50C46054611462046FEF7DA
S315080038B0A6FD48B969462846FEF726F920B9019BB0
S315080038C0C4F82452C4F8283203B030BD38B500F520
S315080038D0DE7204460D46202300F5AA712C30FDF74A
S315080038E0ADFAD4F830321BB9D4E98A329A4203D3F6
S315080038F0A07800B1E07838BD29462046FFF787FF53
S31508003900EFE738B5FDF70CF89F20FCF7B7FFFCF793
S31508003910E1FF0546FCF7EAFF0446FDF70BF8C22D62
S315080039200FD005D81F2D17D09D2D1CD0002007E0DD
S31508003930EF2DFBD144F2140084420CBF0320002073
S3150800394038BD42F614039C4214D042F6160084424F
S315080039500CBF0A200020F3E748F2014084420CBF5E
S315080039600E200020ECE744F2130084420CBF172017
S315080039700020E5E70720E3E708B5FCF7D1FF0620B6
S31508003980FCF77CFFBDE80840FCF7D4BF08B5FCF798
S315080039901FFFFFF735FF42F21070FCF7F9FEFCF740
S315080039A0BFFFAB20FCF76AFFFCF7C4FF47F23050B5
S315080039B0FCF7EEFEFFF7A5FF88B10C38C0B2012868
S315080039C00BD8FFF7D9FFFCF7ABFF0120FCF756FF32
S315080039D00020FCF753FFFCF7ADFF002001E040F2A2
S315080039E0011008BD10B5FCF79BFF0520FCF746FF44
S315080039F0FCF770FF0446FCF79DFF04F0010010BDBC
S31508003A0008B5FFF7EFFF0028FBD108BD38B5054616
S31508003A1010460C46FEF7F0F9A04207D3A84205D394
S31508003A202C4484428CBF0020012038BD0020FCE7CE
S31508003A3013B50C460190FFF7E3FFFFF79DFFFCF770
S31508003A406FFF0198FCF71AFF2046FCF723FF02B028
S31508003A50BDE81040FCF76EBF70B514460D4600224F
S31508003A6021460646FFF7D2FFA8B1FFF7C9FFFCF7C4
S31508003A7057FF0320FCF702FF3046FCF70BFF2C44E8
S31508003A80A54203D1FCF756FF002070BDFCF722FFC4
S31508003A9005F8010BF4E740F20240F6E72DE9F0419C
S31508003AA014460F46002221460646FFF7AFFF0028B8
S31508003AB046D0FFF7A5FFFCF733FF0320FCF7DEFE31
S31508003AC03046FCF7E7FE25468DB9FCF733FFF3B21F
S31508003AD053B326F0FF0505F580753319AB4232BF9F
S31508003AE02546AD1BADB25CB92046BDE8F081FCF7B2
S31508003AF0F1FEFF2805F1FF35E6D040F20340F4E772
S31508003B00FFF77EFFFFF738FFFCF70AFF0220FCF7F6
S31508003B10B5FE3046FCF7BEFE07EB0508B8450AD1E8
S31508003B20FCF708FF641B2E44B4F5807F254628BFA2
S31508003B304FF48075D7E717F8010BFCF79FFEEDE702
S31508003B4040F20240D1E74FF0FF307047FEF722BD42
S31508003B5000232DE9F34105460DF107008DF80730DE
S31508003B600C46FEF749F99DF807300646A3F10F0201
S31508003B70032A2CD9133BDBB2012B47F6FF734FF60A
S31508003B80FF778EBF4FF480381F464FF4004840F643
S31508003B90FF7344EA05021A423DD1214628460DF133
S31508003BA00702FFF733FFC8B30DB9A64215D025445F
S31508003BB02E1BECB137421FD1444524D22644311B73
S31508003BC0B4B12020FFF734FFA4F58054F7E74FF689
S31508003BD0FF774FF480383B46DBE7FFF711FFFFF727
S31508003BE0CBFEFCF79DFEC720FCF748FEFCF7A2FEBD
S31508003BF0002002B0BDE8F08131462020FFF718FF0B
S31508003C00A4F58054D4E73146D820FFF711FF46447F
S31508003C10A4EB0804D0E740F20440EAE740F2024089
S31508003C20E7E708B5FFF7ECFEFCF77AFEB920FCF7E4
S31508003C3025FEFCF77FFEFFF7E4FD002008BDEFF345
S31508003C40108072B6704700B962B6704770B50546FF
S31508003C5014460E46FFF7F3FF296881EA040202EAD2
S31508003C6006044C402C60BDE87040FFF7ECBF4FF0EF
S31508003C7098435A6CD202FCD5586D00F470207047F0
S31508003C80436813B9416070475B685A68012AFBD1DB
S31508003C9059607047836813B9816070475B685A68D2
S31508003CA0012AFBD159607047C369032B9FBF00EBFC
S31508003CB083020133D160C3617047C369042B15D8E9
S31508003CC04FF09842116CC902FCD504339B0013656A
S31508003CD00168103B116041680C30116050F8041CF3
S31508003CE0034411604FF09842984200D1704750F84B
S31508003CF0041B1160F8E783691B06FCD5406AC0B24D
S31508003D00704783695A06FCD5C16383699B06FCD54F
S31508003D10406AC0B2704783695B06FCD5C1637047C9
S31508003D202422002100F052B870B515460E4624220A
S31508003D300021044600F04AF825F04003802B02D003
S31508003D40B5F5807F08D12046314640F8045BEA087D
S31508003D5000F015F8002070BD6FF01F00FBE7013971
S31508003D60024410B5904201D1002005E0037811F80D
S31508003D70014FA34201D0181B10BD0130F2E70A44D7
S31508003D80431E914200D1704710B511F8014B91427C
S31508003D9003F8014FF9D110BD884210B501EB0204B2
S31508003DA002D98442234607D8431EA14208D011F8F7
S31508003DB0012B03F8012FF8E7024401468A4200D195
S31508003DC010BD13F8014D02F8014DF7E7024403460A
S31508003DD0934200D1704703F8011BF9E7F8B500BF15
S31508003DE0F8BC08BC9E467047F8B500BFF8BC08BCCE
S31508003DF09E467047B814B6F1E0CFF3ADB7DD25C9D6
S31508003E00FA79B7130000000007B0CD5E0200000083
S31508003E100200020234410000006000080000180891
S31508003E20F0040100EF230008F3230008FD02000850
S31508003E30FF2300082F240008C43F0008692400084F
S31508003E40DF24000800000000650500085D0500087D
S31508003E5013B779FAC925DDB7ADF3CFE0F1B614B8D3
S31508003E600102000000000000304100004000000090
S31508003E70020002020000000000000000000000002E
S31508003E800000000000000000000000000000000024
S31508003E900000000000000000000000000000000014
S31508003EA00400000700000D1013001A2026303840C1
S31508003EB050000000FD0707FD0D0B00083D0B00082C
S31508003EC0D50B00089F250008EB17A6030201000082
S31508003ED003000000FA0606FA0F04000003000000BB
S31508003EE0F40A0AF40505000001000000EB17A65EB7
S31508003EF00A06000001000000F50909F5030700009D
S31508003F0001000000F60808F6060800000000000098
S31508003F10FE0101FE0808000000000000FD0303FD85
S31508003F200C08000000000000FD0707FD130800004C
S31508003F3000000000F90707F9100900000200000058
S31508003F40F30B0BF3110A000003000000F70A0AF747
S31508003F50120B000003000000FC0404FC0D0C00001A
S31508003F60030000006A09E667BB67AE853C6EF3721C
S31508003F70A54FF53A510E527F9B05688C1F83D9AB26
S31508003F805BE0CD1980000000000000000000000082
S31508003F900000000000000000000000000000000013
S31508003FA00000000000000000000000000000000003
S31508003FB000000000000000000000000000000000F3
S31508003FC00000000000010000651C0008091B00082D
S31508003FD0391B0008051C0008411C0008EB370008BF
S31508003FE0CB370008FB370008A53800084938000811
S31508003FF0751B0008E5390008593A00089D3A00087B
S31508004000513B0008473B0008000010000000040070
S315080040100000100000000400000008000000100066
S3150800402000001000000020000000200000004000F2
S3150800403000008000000008000000100000000800D2
S315080040400000040000000800000010000000200026
S3150800405000800000000001000000020000000400CB
S3150800406000000800100203009A010000003000005A
S315080040700010000000000800000000000100000019
S3150800408000020000100203009A010000000C000064
S3150800409000100000000008000000000001000000F9
S315080040A001000000100203009A01000000E0010070
S315080040B000100000000040000000000001000000A1
S315080040C000200000100203009A010000007800009A
S315080040D000100000000010000000000001000000B1
S315080040E000000100000000000100000000000000C0
S315080040F000001000100203009A01000000180000DA
S315080041000010000000001000000000000100000080
S30908004110000010008D
S31108004114204100080810002004000000EC
S31508004120DD090008150A00089D0100087901000844
S70508000205EB
