S02500004D61747465724C696768744F7665725468726561645F427265616B6F75742E733337DA
S3150800600000100020958300085122070839230A0842
S315080060106943070851220708512207085122070831
S315080060205122070851220708512207085162000821
S3150800603051220708F46D0B08F1610008074E07089E
S315080060409D8800085122070851220708512207088F
S31508006050512207085122070851220708512207082A
S31508006060512207085122070851220708F938030860
S31508006070512207085122070851220708512207080A
S3150800608051220708512207085122070851220708FA
S3150800609051220708CD8F0008512207085122070808
S315080060A0512207084991000825910008512207083E
S315080060B051220708C9EC0608ADF6060829600B0840
S315080060C025600B0895EE060835600B082D600B0851
S315080060D085F6060831600B080DF70608EDF6060882
S315080060E0512207085122070851220708512207089A
S315080060F06543070851220708512207085122070855
S315080061005122070851220708512207085122070879
S315080061105122070851220708512207085122070869
S315080061205122070851220708512207085122070859
S315080061305122070851220708512207085122070849
S315080061405122070805BC0008512207086B440708B6
S3150800615015D5060851220708515D0B08575D0B082F
S315080061605122070851220708512207085122070819
S31508006170013800D0FCE7704700000000000000006E
S315080061800B4A1168086806C881F30B88022181F357
S315080061901488203080F30988BFF36F8F4FF0000012
S315080061A080F31188104700BFAFF30080AFF300807B
S315080061B09C440120000000000000000000000000D0
S315080061C007480068006880F3088862B661B6BFF3BE
S315080061D04F8FBFF36F8F02DF00BF00BFAFF30080A2
S315080061E008ED00E0000000000000000000000000CC
S315080061F0EFF30980EFF30B82734620E9FC0F104A90
S31508006200116808604FF0300080F31188BFF34F8F94
S31508006210BFF36F8F0EF0D8FB4FF0000080F31188A4
S31508006220074A11680868B0E8FC0F82F30B8880F308
S3150800623009881847AFF30080AFF30080AFF30080FA
S315080062409C4401200000000000000000000000003F
S315080062501EF0040F0CBFEFF30880EFF30980044922
S31508006260084700BFAFF30080AFF30080AFF30080AC
S315080062706D580108000000002DE9F04F2DED028B46
S31508006280DFF8C0918DB0B9F800309A0706D440F20D
S31508006290F651654B654A66486AF0CCFBDFF8A8B14B
S315080062A0DBF8003023B940F2F751624B5F4AF2E758
S315080062B0614C0DF1180894E8070088E807009B88E8
S315080062C05E4D8DF817300123B9F800200DF117013E
S315080062D01A462868AFF0FFF89DF81720DBF800107B
S315080062E0023A0023096892B20C3428680DF1240A90
S315080062F0AFF0F1F894E807008AE80700DBF8003009
S315080063001B681C7814F0200421D02868AEF010FF12
S3150800631000286FD02868AEF00BFF04460B9869F08A
S31508006320C5FE064620460F4669F0C0FE02460B46E5
S3150800633039A1D1E900016AF05DF802460B463046FC
S31508006340394669F077FD6AF0C5F90B90012428688B
S31508006350AEF00AFF9DF8173000284FD0981DC000F0
S3150800636069F0B4FE2EA3D3E9002369F019FF41ECC6
S31508006370180B2868AEF0F8FE03900B9869F096FEA5
S31508006380039B064618460F4669F090FE02460B46E2
S3150800639051EC180B6AF02EF802460B463046394681
S315080063A069F048FD6AF096F90B90B9F8003028684C
S315080063B09B06DBF8001027D50B9B224603F5FA73DC
S315080063C00B9391F8203089798DF81A301C4B1B787D
S315080063D0CDF800A08DF81B304346AEF033FC20B153
S315080063E002200BF0CFFD46F0D7FC0DB0BDEC028BBA
S315080063F0BDE8F08F0B9BC0330B93A7E70B980633CA
S3150800640000EB43130B93D0E7534622468979AEF047
S3150800641003FCE4E7AFF300800000000060E3664198
S315080064200000000080842E4187950B08CF9A0B0840
S31508006430E5930B08AD950B08B4990B08E82C0120D9
S3150800644027170020A2B60120D02D01200000000049
S3150800645073B5754B198811F0010140F0DC8041F6DF
S315080064600B22724D724BC5E9003105F11003AB6082
S31508006470704B19609A80704B1B6ADB0706D440F292
S315080064809D316E4B6E4A6F486AF0D4FA28465FF023
S3150800649005FC044620B940F2A1316B4B684AF2E785
S315080064A061F038F820B140F2A531684B644AEAE752
S315080064B04FF001112046AEF0F6FF20B140F2A931A7
S315080064C0624B5F4ADFE702212046AEF012FE20B19A
S315080064D04FF46B715D4B5A4AD5E720465C4960F02C
S315080064E09DFD20B140F2AF31584B554ACBE701210B
S315080064F02046AFF08EF920B14FF46D71534B504AD8
S31508006500C1E701212046AFF09BF9064620B140F2CB
S31508006510B7314E4B4A4AB6E701463C224D48B0F0E1
S31508006520C5F880233246204605F11401AEF0E9FF8E
S31508006530802804D040F2BE31474B414AA3E7474D75
S315080065400120AEF064FB36A3D3E900232C60204675
S31508006550CDE900234FF0FF324FF0FF33AEF071FE66
S3150800656020B140F2FB21394B3D4A8CE731480BF00C
S31508006570B5FB012108460BF01FFC01212868AEF087
S3150800658008FD044620B140F25241304B354A7AE7BD
S31508006590354B364A98801A60354B364A98801A60C9
S315080065A0354B364A98801A60354A6FF063005A614F
S315080065B013F02EFA0B200BF04BFB324B186020B968
S315080065C040F26341304B274A5DE705F073FA2146EE
S315080065D02868AEF013FF20B140F2FD311B4B2B4A61
S315080065E051E7082228681146AEF046FE044620B157
S315080065F040F26741264B1B4A45E70CF001FC254B48
S3150800660025481C70254B1C70254B1C7002B0BDE834
S31508006610704073F0BDBE02B070BD00BFAFF300801E
S315080066200B6020FFE2030000A2B60120F42C012033
S3150800663079200108EC2C01200080E00FA1980B08B6
S31508006640449A0B08E5930B08BA980B084C930B0869
S31508006650549B0B08942D0120C9980B08E82C01209F
S31508006660379A0B08C09A0B08302000201BB9012066
S31508006670082000209BB80120582000209DB9012041
S3150800668080200020902D012001990B08FD990B0808
S315080066901C990B0890B80120A0990B089CB90120F9
S315080066A09BB90120000000002DE9F04F2DED028B6B
S315080066B0804600680C4691461D468DB030B90327C2
S315080066C038460DB0BDEC028BBDE8F08F0668766CD7
S315080066D0B0472D280746F3D16378202B01D1002730
S315080066E0EEE7934BD8F80000049358B103682246A6
S315080066F01B6C04A99847074630B1049803689B6841
S315080067009847DDE70327F8E78A4B8B4E05934FF446
S315080067108973EE40F643EB40DB43102D06F0010685
S3150800672088BF0126082D03F0010388BF01239FEDCA
S315080067307E8B6FF0010B0193049805A90368DB684B
S315080067409847002840F0ED808DF80E0005980DF169
S315080067500E010368DB6898470746002844D19DF870
S315080067600E30402B03D0802B01D003273CE0627803
S315080067709A42E1D1012305988DF80F3003680DF18F
S315080067800F015B699847074670BB9DF80F30082BC9
S3150800679018D8002BD0D0013B072BCDD801A252F830
S315080067A023F000BFF5670008CF67000839670008BF
S315080067B0F167000839670008396700083967000873
S315080067C0FB670008102BB7D1002EB5D102E06B1E6F
S315080067D0012BB1D8002305980693036806A95B6ABE
S315080067E09847824668B1074605A883F0F0FD84E716
S315080067F0042DEFD0012D9FD1ECE7019B002B9BD1F7
S31508006800E8E7069B002B46D08DED088B0598514688
S31508006810036808AA9B6A984707460028E4D1DDE979
S315080068200830591E40F1FF328B456FF0100171EBAD
S31508006830020210D39DF80E20402A96D1D4E90212FE
S31508006840904208BF8B4226D0069B0AF1010A53459F
S315080068507FF672AFD8E74FF0FF31C21C994277EB4B
S31508006860020231D39DF80E20402A7FF47EAF1F0C1A
S3150800687004F1100104F11C009BB28842E4D051F8DF
S31508006880042B002AF9D0B7EB124FF6D1002BF4D01F
S3150800689092B29342F1D8002305980793036807A993
S315080068A09B6B9847074600289ED1079B002B36D03E
S315080068B082460598CDF820A003683946DB6B08AAFE
S315080068C0984758B107468FE713F5803F70F1FF32B6
S315080068D0FFF44BAF9DF80E20802AAEE7089BD90738
S315080068E004D5D9F800200999914212D19A0705D5FD
S315080068F0BDF82810B9F8042091420AD15B070ED5D5
S31508006900D8F80400B9F8042003680B999B689847DF
S3150800691028B9079B0137BB427FF60EAFC9E70027A8
S3150800692062E7A52760E700BF00000000000000003E
S31508006930281200202C120020160101000000000079
S315080069402DE9F04F2DED028B884204460D46904600
S315080069501E4697B00AD1034601211D202E4A17B0BC
S31508006960BDEC028BBDE8F04F99F0D9BE9FED288BA0
S315080069700DF10C092A21484605AF39F073FF99E84D
S31508006980030087E80300DFF894A0DFF894B0BDF8A9
S315080069901400BDF81630834233D039F0E9FF337856
S315080069A081468DF824408DF825508DF826808DF87F
S315080069B028300BB173680B9309AB0893CDF81CA06C
S315080069C02EF008FC00230E9310938DF851302A23DD
S315080069D0ADF830904FF001090D930CAA6B4607A944
S315080069E08DED128B8DF8509085F096FA034620B1FE
S315080069F05A4649461D2099F092FE384691F02EF9DE
S31508006A00C5E717B0BDEC028BBDE8F08FAFF3008089
S31508006A1000000000000000009CFB0B0888FC0B0827
S31508006A20DCFB0B08000000002DE9F04F2DED028B72
S31508006A309FED2F8B9DB00DF108092A21054604AC60
S31508006A40484616461F46DDF8A48039F00BFF99E83C
S31508006A50030084E80300DFF8A0A0DFF8A0B0BDF8C3
S31508006A601000BDF8123083423DD039F081FF289BD3
S31508006A7081461B78CDE90A6708958DF830301BB139
S31508006A80289B5B788DF8313098F800308DF83830CF
S31508006A901BB1D8E90223CDE9102308AB0793CDF83B
S31508006AA018A02EF097FB00232A2216938DF869303A
S31508006AB00223ADF848904FF00109CDE9132306A942
S31508006AC06B4612AA8DED188B8DF8689085F024FA1E
S31508006AD0034620B15A4649461D2099F020FE204615
S31508006AE091F0BCF8BBE71DB0BDEC028BBDE8F08F9A
S31508006AF00000000000000000B0FC0B0833FC0B0887
S31508006B002DE9F04F2DED028B99460023CDB08DF877
S31508006B10C83049938DF828318D4B002700264FF64B
S31508006B20FF740C930123DFF834A2CDE92E67CDE973
S31508006B303067CDE93467054688461746CDF8D8A0AC
S31508006B40ADF820410D936AB1064600F53E74A6429B
S31508006B5000F0EF80304685F0BDFA002800F0EB80A3
S31508006B609836F4E793F0C8FE044630B9AC242046BC
S31508006B704DB0BDEC028BBDE8F08F05F53E7630468C
S31508006B8090F0D1FEB4F868308DF8C880ADF82031A1
S31508006B9094ED028B6A3420212046AFF0F0FECDE951
S31508006BA00C406C4B4FF4C8710E93002309A8CDE92D
S31508006BB009330F930B93CDF870A08EF046F9099B15
S31508006BC053B90B240BA883F0F5FF0AA883F0F2FF4C
S31508006BD009A883F0EFFFCAE74FF4C8710AA88EF038
S31508006BE034F90A9B002BECD04FF4C8710BA88EF031
S31508006BF02CF90B990029E4D0099B0A9A10934FF4B3
S31508006C00C8732846CDE91223CDE9141310AA4146C4
S31508006C10119393F0F1FE08B10446D3E7414628469E
S31508006C2012AA93F0CBFE0028F6D14146284614AAAC
S31508006C3093F07EFE0028EFD1109B0DF1B80A16934B
S31508006C40119B0DF1700B1793129B8DED008B18930A
S31508006C50139BCDE905AB1993149B1AAA1A93159B96
S31508006C6018A91B9336AB079330AB049334AB039345
S31508006C700EAB029316A83CF061FE0028CCD10BA8F7
S31508006C8083F098FF0AA883F095FF09A883F092FF7E
S31508006C90B9F1000F13D1D5F89403002847D003683B
S31508006CA09B689847D5F894331A68002837D05469F2
S31508006CB041465A461846A04798B1044657E7D9F8B8
S31508006CC0003048465B699847036859465B6A9847A7
S31508006CD008B9C5244BE79DF86031CDF824918DF8A5
S31508006CE028315146304694F01CF90028E5D10CA904
S31508006CF0304693F0CEFD0F9905F569703EF08CFF8E
S31508006D00034620B101211120134A99F008FD27B145
S31508006D1095F8B233013385F8B233002427E74146A4
S31508006D201846D26890470028DBD110241FE70324B1
S31508006D301DE70B241BE7BDF864319FED038BADF807
S31508006D4020318DF8C8802CE7000000000000000004
S31508006D503C7A0C086C2E0C08302E0C08204F0C08B8
S31508006D602A2110B57248ADF5956D029144F0DCFA0A
S31508006D7008B1AFF0F2FB029002A96D4844F07EF923
S31508006D800028F6D1029B2A2BF3D167A3D3E9002367
S31508006D906848CDE9082344F0E3FA0028E9D100223F
S31508006DA00023644808A9CDE9082344F08FF9002890
S31508006DB0DFD1DDE9080240F6FA035F499A4208BFC7
S31508006DC08842D6D101215D488DF8071044F090FA23
S31508006DD00028CED18DF807000DF10701574844F079
S31508006DE021F90028C5D19DF80730002BC1D050489D
S31508006DF044F0E4F80028BCD14D4803A944F03EF914
S31508006E0040F20124A042B4D14D494E489BF034F8D3
S31508006E100028AED140224B4804AB0AA944F082F9B7
S31508006E200028A6D1049B0E2BA3D10F2244490AA8F9
S31508006E30AFF005FC00289CD1434942489BF01CF85A
S31508006E40002896D104AB40223E480AA944F06AF9C4
S31508006E50049B03438DD19DF82810002989D1394810
S31508006E609BF00AF8002884D14022364805AB1AA9B7
S31508006E7044F058F9A0427FF47CAFF12233493448F4
S31508006E8044F0A8FA00287FF474AF4FF40072304833
S31508006E9006AB2AA944F098F900287FF46AAF069A47
S31508006EA0F12A7FF466AF29492AA8AFF0C8FB024643
S31508006EB000287FF45EAF0146254844F08BFA002887
S31508006EC07FF457AF4FF40072214807ABAAA944F0E4
S31508006ED07BF9A0427FF44DAF164844F07BF80028B2
S31508006EE03FF447AF154844F075F800283FF441AF22
S31508006EF0174844F06FF800287FF43BAF44F0C8FA0F
S31508006F0000287FF436AF0B4844F064F800283FF4B5
S31508006F1030AF0A4844F05EF800287FF42AAF0DF532
S31508006F20956D10BDAFF30080316EE595FA08000047
S31508006F300573080001720800316EE59506730800AE
S31508006F407E540C08027308007D540C088C530C08F8
S31508006F500272080000000000054B1868036899696A
S31508006F6001A3D3E90023084700E0373B015D03008E
S31508006F70281300200000000070B505463E4C8AB074
S31508006F8020B100230088236053F066FD3B48AEF02D
S31508006F909FF83B4E3B4B304633603B4B736053F098
S31508006FA037FF002130465EF079FE31A3D3E900238E
S31508006FB0A062C4E90623A8F0FDFDD4E90623194317
S31508006FC010434FF0FF33C4E90601CDE900014FF045
S31508006FD0FF32A06AAEF035F902224FF0FF31A06AFF
S31508006FE0AEF04AF9012053F07FFA4FF400730022FD
S31508006FF02649A06AAEF085FAB0F5007F36D100239F
S315080070009422CDE9073309933C23CDE9033205934E
S315080070109623A06A03A906935FF05CFA25B3287C39
S3150800702053F0B4FF0546E0B9A06AAEF044FC53F04D
S3150800703055FF53F03BFA20B14FF48070002150F011
S31508007040D9FD53F043FA20B14FF40060002150F007
S31508007050D1FD0120ADF0DBFD0D4A0E49A06AA8F06E
S31508007060A0FD28460AB070BDFF20D9E70725F8E736
S3150800707009D5015520000000F8190120690345ECDF
S31508007080A0B00120B1AC050894B0012094AE01204F
S315080070904BFB0A088BFB0A0810B5054C237833B955
S315080070A0044B13B1044800E000BF0123237010BD50
S315080070B0501F01200000000050E10C0808B5034BE2
S315080070C01BB10349034800E000BF08BD00000000EB
S315080070D0541F012050E10C08A3F5803A704700BF01
S315080070E0174B002B08BF134B9D46FFF7F5FF0021F2
S315080070F08B460F461348144A121AAFF0D7FA0E4BAE
S31508007100002B00D098470D4B002B00D09847002045
S31508007110002104000D000D48002802D00C4800E0AC
S3150800712000BF69F0C7FE200029004CF0C7FE69F0D1
S31508007130ADFC00BF000008000000000000000000D1
S3150800714000100020A8190020C8280220000000000E
S315080071500000000010B5224C03F0D0FB236F23F08B
S31508007160070343F0020323676BF01EFBD4F82031B4
S31508007170002023F0070343F00103C4F82031D4F8B4
S31508007180283123F0070343F00103C4F82831D4F863
S31508007190403123F0030343F00203C4F84031D4F826
S315080071A0603123F0030343F00203C4F86031D4F8D6
S315080071B0403223F0030343F00203C4F84032D4F804
S315080071C0003223F0070343F00203C4F80032D4F870
S315080071D0083223F0070343F00203C4F8083210BD4F
S315080071E00080005008B504486BF031F9BDE8084046
S315080071F002486BF02CB900BF106D0B08286D0B0800
S3150800720008B504486BF051F9BDE8084002486BF030
S315080072104CB900BF406D0B08586D0B0818B1034BED
S315080072201860002070472520704700BFCC1F01203A
S3150800723010B5054C0549206802F03EFB2068BDE8FC
S315080072401040FFF7EBBF00BF3010002004100020ED
S3150800725070B58B680546012B0C4616468CB01CD0BB
S31508007260022B29D0002B33D119461C2205A8AFF0D2
S315080072701DFA314605A8A2F00EF830B9214628466F
S3150800728005AA31F051FB002833D18522214628462C
S315080072900CB0BDE8704084F037B80023114605A845
S315080072A0ADF81430A2F041F80028EED12146284660
S315080072B005AA31F0B5FBE6E7114605A8A2F061F884
S315080072C00028E2D12146284605AA31F001FCDAE772
S315080072D0812284F019F8D4E9012391B2120C0192A3
S315080072E09AB20291009201211D20034A1B0C99F0C3
S315080072F016FA0CB070BD00BF706D0B0830B50C46A1
S31508007300A36805460A2B114689B037D9403B0C2B92
S3150800731014D981222146284683F0F6FFD4E90123B1
S3150800732091B2120C01929AB20291009201211D208B
S31508007330A44A1B0C99F0F3F909B030BD0C2BE8D818
S3150800734001A252F823F000BFB7740008D5740008EC
S31508007350F5740008137500083175000813730008E2
S31508007360137300085F750008137300081373000889
S315080073701373000881750008A37500085A1E0023B8
S315080073800593092A06D8DFE802F01A25323F4A573C
S3150800739064707D8905A8ADF81830A4F0F2FC30B900
S315080073A02146284605AA31F029FF0028C4D185229E
S315080073B02146284609B0BDE8304083F0A5BF05A898
S315080073C0A4F080FD0028F2D12146284605AA31F00E
S315080073D0FDFEEAE705A88DF81830A4F054FE00284B
S315080073E0E5D12146284605AA31F036FFDDE705A88E
S315080073F0ADF81830A2F0F7F90028D8D1214628466A
S3150800740005AA31F00FFFD0E705A8A2F02DFA00284B
S31508007410CDD12146284605AA31F0EAFEC5E705A8DA
S315080074208DF81830A2F06DFA0028C0D121462846FA
S3150800743005AA31F025FFB8E705A8ADF81830A2F07F
S31508007440AFFA0028B3D12146284605AA31F0F0FE46
S31508007450ABE705A80693A2F0E7FA0028A7D12146CC
S31508007460284605AA31F066FF9FE705A8ADF818304B
S31508007470A2F01EFB00289AD12146284605AA31F01B
S315080074805FFF92E705A80693A2F053FB00288ED16A
S315080074902146284605AA31F059FF86E705A8ADF822
S315080074A01830A2F08DFB002881D12146284605AA6E
S315080074B031F052FF79E7002305A8CDE90533A4F09A
S315080074C0A7FC00287FF473AF2146284605AA31F0A9
S315080074D0EFFE6AE7002305A80593ADF81830A4F077
S315080074E032FD00287FF463AF2146284605AA31F00D
S315080074F0CDFE5AE7002305A8CDE90533A4F007FE1B
S3150800750000287FF454AF2146284605AA31F0F8FE34
S315080075104BE7002305A8CDE90533A2F092FB002826
S315080075207FF445AF2146284605AA31F0D5FE3CE74B
S31508007530002305A8ADF814308DF81630ADF81830CC
S31508007540ADF81A30ADF81C30A2F0BFFB00287FF466
S315080075502EAF2146284605AA31F0E6FE25E7002388
S3150800756005A88DF814308DF81530A2F01BFC0028FC
S315080075707FF41DAF2146284605AA31F005FF14E71A
S31508007580002305A8CDE90533ADF81C30A4F01FFD8E
S3150800759000287FF40CAF2146284605AA31F0E2FE02
S315080075A003E7002305A8CDE905330793A4F0F6FD04
S315080075B000287FF4FCAE2146284605AA31F0D8FEFD
S315080075C0F3E600BF706D0B0830B58B6805460C46B0
S315080075D089B0ABB9114605A8CDE905330793A1F0E3
S315080075E026FD28B92146284605AA8AF0ADFBC0B96A
S315080075F085222146284609B0BDE8304083F084BE7E
S31508007600812283F081FED4E9012391B2120C019202
S315080076109AB20291009201211D20034A1B0C99F08F
S315080076207EF809B030BD00BF706D0B0830B58B68A9
S3150800763005460C4687B093B9114605A8A1F028FE61
S3150800764028B92146284605AA8AF0BFFBC0B9852273
S315080076502146284607B0BDE8304083F055BE812252
S3150800766083F052FED4E9012391B2120C01929AB228
S315080076700291009201211D20024A1B0C99F04FF835
S3150800768007B030BD706D0B0870B58B680546022BC8
S315080076900C4616468AB01DD0042B2CD0002B36D1AA
S315080076A00022ADF810300023314604A8CDE90623A0
S315080076B0A1F0C2FB30B92146284604AA31F0E6FEFD
S315080076C0002835D18522214628460AB0BDE87040F3
S315080076D083F01ABE0021182204A8AEF0E7FF31464F
S315080076E004A8A3F01AFF0028ECD12146284604AACC
S315080076F031F0D2FFE4E7114604A8A1F0D3FB002835
S31508007700E0D12146284604AA31F030FFD8E7812285
S3150800771083F0FAFDD4E9012391B2120C01929AB2D0
S315080077200291009201211D20024A1B0C98F0F7FFD6
S315080077300AB070BD706D0B0830B58B6805460C46EF
S3150800774089B0C3B900200021CDE90601114604A875
S31508007750CDE90433A1F0BAFC28B92146284604AA83
S3150800776032F048F8C0B985222146284609B0BDE856
S31508007770304083F0C9BD812283F0C6FDD4E90123D8
S3150800778091B2120C01929AB20291009201211D2027
S31508007790024A1B0C98F0C3FF09B030BD706D0B0888
S315080077A070B58B6805460C4616469CB0042B5AD80D
S315080077B0DFE803F00328593746000023314604A8BA
S315080077C0ADF810308DF812308DF814308DF8203061
S315080077D08DF830308DF840308DF850308DF86030A7
S315080077E0A4F042F830B92146284604AA32F06AFACB
S315080077F0002849D18522214628461CB0BDE870409C
S3150800780083F082BD0023314604A8ADF81030A1F0FC
S3150800781092FF0028EED12146284604AA8BF035F8B7
S31508007820E6E70023314604A8ADF81030A1F0AFFF13
S315080078300028DFD12146284604AA8AF052FED7E757
S31508007840002204A811468DF8482096F017FF314605
S3150800785004A8A4F042FD0028CCD12146284604AA53
S315080078608AF098FEC4E7812283F04EFDD4E901230D
S3150800787091B2120C01929AB20291009201211D2036
S31508007880024A1B0C98F04BFF1CB070BD706D0B08BC
S3150800789070B58B6805460C46164694B0052B6BD812
S315080078A0DFE803F0031C2B3E4D590023314604A89C
S315080078B0CDE90533ADF81030A0F086FD30B9214684
S315080078C0284604AA8BF002FB002866D185222146A9
S315080078D0284614B0BDE8704083F016BD0023314633
S315080078E004A8ADF81030A0F0CAFD0028EED1214654
S315080078F0284604AA8BF025FBE6E7002204A81146D1
S315080079008DF8482096F0BAFE314604A8A4F0B9FCD2
S315080079100028DBD12146284604AA8BF0F1FCD3E7E0
S315080079200023314604A8ADF81030A0F008FE002860
S31508007930CCD12146284604AA8BF029FCC4E7314657
S3150800794004A8A0F04EFE0028C0D12146284604AA65
S315080079508BF073FCB8E70023314604A8CDE905335C
S31508007960ADF81030A0F05BFE0028AFD121462846BE
S3150800797004AA8BF077FCA7E7812283F0C5FCD4E93B
S31508007980012391B2120C01929AB20291009201213E
S315080079901D20034A1B0C98F0C2FE14B070BD00BF30
S315080079A0706D0B0830B58B6805460C4687B0A3B1D9
S315080079B0402B28D0812283F0A7FCD4E9012391B279
S315080079C0120C01929AB20291009201211D20164AC8
S315080079D01B0C98F0A4FE07B030BD114605A8ADF8FB
S315080079E01430A0F077FC30B92146284605AA8BF05A
S315080079F0DAFC0028EFD185222146284607B0BDE8E3
S31508007A00304083F081BC0023114605A88DF8143058
S31508007A108DF81530A0F08AFC0028ECD121462846BE
S31508007A2005AA8BF0CCFCE4E7706D0B0830B50C4664
S31508007A30A3680546114687B0072B00F2A080DFE849
S31508007A4003F0041F334555677B8D002304A88DF882
S31508007A501030ADF81230ADF81630A2F0E9FA38B9A0
S31508007A602146284604AA8BF056FF002840F0998044
S31508007A7085222146284607B0BDE8304083F044BC3D
S31508007A80002304A88DF810308DF811308DF81330C6
S31508007A908DF81430A2F088FE0028E9D12146284640
S31508007AA004AA8BF0F3FDE0E7002304A8ADF8103034
S31508007AB0ADF81230ADF81630A2F05AFB0028D7D12F
S31508007AC02146284604AA8BF0F5FFCEE7002304A832
S31508007AD08DF810308DF81130A0F067FE0028C7D158
S31508007AE02146284604AA8BF023FDBEE7002304A8F6
S31508007AF08DF81030ADF81230ADF81630A2F0D9FA7C
S31508007B000028B5D12146284604AA8BF020FFACE709
S31508007B10002304A88DF810308DF811308DF8133035
S31508007B208DF81430A2F084FE0028A1D121462846FB
S31508007B3004AA8BF0C2FD98E7002304A8ADF810301C
S31508007B40ADF81230ADF81630A2F059FB00288FD1E7
S31508007B502146284604AA8BF0C6FF86E7002304A818
S31508007B608DF810308DF81130A0F051FE00287FF402
S31508007B707FAF2146284604AA8BF0E4FC75E78122EC
S31508007B80214683F0C1FBD4E9012391B2120C01927C
S31508007B909AB20291009201211D20034A1B0C98F00B
S31508007BA0BEFD07B030BD00BF706D0B0830B50C4682
S31508007BB0A368054611468DB0082B72D8DFE803F096
S31508007BC005711D2F3F714F715F00002304A88DF8C2
S31508007BD010308DF82030A3F0AAFD30B9214628468A
S31508007BE004AA8CF0C8FA00286DD1852221462846B9
S31508007BF00DB0BDE8304083F087BB002304A8CDE96B
S31508007C000433CDE906338DF82030A2F047FB00286F
S31508007C10EBD12146284604AA8CF0A7FAE3E700230D
S31508007C2004A8CDE904338DF81830A2F074FB0028B7
S31508007C30DBD12146284604AA8CF095FAD3E700231F
S31508007C4004A8CDE904338DF81830A2F09AFB002871
S31508007C50CBD12146284604AA8CF08BFAC3E7002329
S31508007C6004A8CDE904338DF81830A2F0C0FB00282B
S31508007C70BBD12146284604AA8CF079FAB3E700233B
S31508007C8004A8CDE904338DF818308DF82030A2F019
S31508007C90E4FB0028A9D12146284604AA8CF06DFAEF
S31508007CA0A1E78122214683F02FFBD4E9012391B273
S31508007CB0120C01929AB20291009201211D20034AE8
S31508007CC01B0C98F02CFD0DB030BD00BF706D0B0875
S31508007CD030B58B6805460C468DB0F3B900200021F7
S31508007CE0CDE90401114604A8ADF818308DF81A300C
S31508007CF08DF81C30ADF82830A3F0D7FA28B92146FC
S31508007D00284604AA35F0D4FCC0B98522214628465F
S31508007D100DB0BDE8304083F0F7BA812283F0F4FA5B
S31508007D20D4E9012391B2120C01929AB202910092FF
S31508007D3001211D20024A1B0C98F0F1FC0DB030BD44
S31508007D40706D0B0830B50C46A3680546402B1146E6
S31508007D5087B058D019D8012B3FD0022B48D04BB347
S31508007D6081222146284683F0CFFAD4E9012391B22D
S31508007D70120C01929AB20291009201211D202F4AFB
S31508007D801B0C98F0CCFC07B030BD412B4BD0422BD6
S31508007D90E6D1002304A88DF81030ADF81230ADF8FE
S31508007DA01430A0F0C1FC80B92146284604AA32F056
S31508007DB0E5FE08E004A8A0F067FC30B9214628468D
S31508007DC004AA32F0B9FE0028DDD1852221462846CC
S31508007DD007B0BDE8304083F097BA04A8A0F057FC76
S31508007DE00028F2D12146284604AA32F0ABFEEAE77B
S31508007DF004A8A0F04FFC0028E7D12146284604AA8B
S31508007E0032F0A6FEDFE7002304A88DF810308DF8BF
S31508007E101130A0F042FC0028D7D12146284604AAF2
S31508007E2032F09CFECFE704A8A0F07BFC0028CCD15A
S31508007E302146284604AA32F099FEC4E7706D0B085D
S31508007E40F0B50C46A3680546114691B00B2B00F217
S31508007E508F80DFE803F0068D1D8D2B8D3B538D63D8
S31508007E60717F002304A8CDE90433A1F08DFA38B94F
S31508007E702146284604AA33F0DFFB002840F08A8012
S31508007E8085222146284611B0BDE8F04083F03CBA69
S31508007E90002304A88DF81030A1F0D1FA0028EFD1FC
S31508007EA02146284604AA33F083FBE6E7002304A804
S31508007EB0CDE904338DF81830A3F0CFF80028DFD1C8
S31508007EC02146284604AA33F06DFCD6E7002300268F
S31508007ED0002704A8CDE90433CDE90933CDE90C67B9
S31508007EE08DF81830ADF83830A3F02DF90028C7D131
S31508007EF02146284604AA33F0A7F9BEE7002304A8BA
S31508007F00CDE904338DF81830A3F0E7F80028B7D187
S31508007F102146284604AA33F0A9F8AEE7002304A8A8
S31508007F20CDE90433A1F008FB0028A9D1214628464B
S31508007F3004AA33F029F8A0E7002304A88DF8103026
S31508007F40A1F026FB00289BD12146284604AA32F038
S31508007F50B7FF92E7002304A8CDE90433A1F044FB58
S31508007F6000288DD12146284604AA33F01FF984E754
S31508007F708122214683F0C8F9D4E9012391B2120C73
S31508007F8001929AB20291009201211D20024A1B0C0D
S31508007F9098F0C5FB11B0F0BD706D0B0830B58B6855
S31508007FA005460C4687B093B9114605A8A1F0E1F835
S31508007FB028B92146284605AA8EF04FF9C0B9852268
S31508007FC02146284607B0BDE8304083F09DB9812296
S31508007FD083F09AF9D4E9012391B2120C01929AB26C
S31508007FE00291009201211D20024A1B0C98F097FB72
S31508007FF007B030BD706D0B0830B58B6805460C466A
S3150800800087B093B9114605A8A1F0DCF828B921462E
S31508008010284605AA35F0D8FBC0B985222146284648
S3150800802007B0BDE8304083F06FB9812283F06CF960
S31508008030D4E9012391B2120C01929AB202910092EC
S3150800804001211D20024A1B0C98F069FB07B030BDC0
S31508008050706D0B0830B58B6805460C4687B093B92A
S31508008060114605A8A1F0B1F828B92146284605AA5F
S315080080708EF068FDC0B985222146284607B0BDE8BE
S31508008080304083F041B9812283F03EF9D4E90123D7
S3150800809091B2120C01929AB20291009201211D200E
S315080080A0024A1B0C98F03BFB07B030BD706D0B08FD
S315080080B073B504460E4601461046154638F0C2FE0C
S315080080C063683F2B58D8292B10D8DA1E052A41D9C0
S315080080D09AB2009201211D205E4A1B0C98F01FFBE4
S315080080E0C3222146284683F00FF953E0A3F12A025A
S315080080F0152AEDD801A151F822F000BF0B8200081D
S31508008100D1800008D1800008D1800008D1800008FD
S31508008110D1800008B7810008FF8100089F81000808
S31508008120C38100082F8200083B82000847820008A6
S31508008130AB810008D1800008D1800008D1800008F2
S31508008140D18000088B810008D180000823820008AE
S31508008150CF810008052ABBD801A151F822F000BF3B
S31508008160E7810008DB810008D18000081782000833
S31508008170D1800008F3810008B3F5407FA8D13246C4
S3150800818021462846FFF7BAF804E032462146284633
S31508008190FFF75EF802B0BDE8704038F0B5BE32466B
S315080081A021462846FFF710FAF4E7324621462846C4
S315080081B0FFF73CFAEEE7324621462846FFF764FA0F
S315080081C0E8E7324621462846FFF7B6FAE2E732469E
S315080081D021462846FFF7E4FADCE7324621462846D8
S315080081E0FFF756FBD6E7324621462846FFF7DAFB65
S315080081F0D0E7324621462846FFF718FCCAE732463A
S3150800820021462846FFF7D2FCC4E7324621462846CF
S31508008210FFF75EFDBEE7324621462846FFF792FD88
S31508008220B8E7324621462846FFF70AFEB2E7324645
S3150800823021462846FFF7B2FEACE7324621462846D5
S31508008240FFF7DAFEA6E7324621462846FFF702FF81
S31508008250A0E700BFA46D0B082DE9F041484C8EB08D
S31508008260264601AD0FCE0FC5336814342B6006AD14
S315080082700FCC0FC594E80F0085E80F0001213A20BE
S3150800828001F024FF0121572001F020FF4FF48073ED
S315080082903C4EADF81C303C4B3046039301A906AB67
S315080082A0059302F0D1FF012304220321022003F0E3
S315080082B0E1F8022100230846012203F0DBF8012336
S315080082C004221946022003F0D5F8042200210123CE
S315080082D0022003F0CFF82D4C2D4B0125C4F8C834E5
S315080082E04FF00213C4F8C43403F58033C4F8CC3411
S315080082F01C2304F50058C4F8B4344FF4487008F049
S31508008300ADFF04F580571420C8F8A05008F0A6FF62
S315080083102320C7F8A05008F0A1FFB9213046C8F8B5
S31508008320A0506AF0B0FA002303211A460220C7F8C3
S31508008330A05003F09FF8002302211A46084603F0CE
S3150800834099F82B4629460022022003F093F80022CA
S315080083502B461146022003F08DF8304602F09AFDAE
S3150800836000215720C4F8C814C4F8C414C4F8CC149F
S31508008370C4F8B41401F0AAFE0EB0BDE8F08100BF3F
S31508008380C06D0B0800000A50E070720000C0035070
S315080083900200010008B500F02DF8124B12498B4275
S315080083A012D30020114B12498B4218D3FEF798FEC0
S315080083B0186850F82240586840F8224001329868F8
S315080083C08242F5D30C33EAE70022F8E71C6844F842
S315080083D0220001325C68A242F8D30833E4E700229F
S315080083E0F8E700BF58E10C0864E10C0864E10C08E2
S315080083F064E10C084FF480414FF0FF3010B5114B83
S31508008400114A9A60D3F8882042F47002C3F888208B
S315080084100E4A91660E4901F5005210660D485066DF
S315080084200220C3F8D000BFF34F8FBFF36F8F01242C
S315080084304FF440330848C0F88041D36004600B61AC
S3150800844010BD00BF00ED00E000600008009000507D
S3150800845000800044F7FF370000E100E0014B186890
S31508008460704700BF38110020014B1860704700BFE5
S3150800847038110020084B1B6F03F00703022B04D0AA
S31508008480032B05D0012B05D0FEE7044B186870476F
S31508008490034BFBE703487047008000503811002063
S315080084A03C110020002D310108B5FFF7E3FF054B0D
S315080084B01B6FC3F303330133B0FBF3F0024B1860B1
S315080084C008BD00BF008000503411002000487047E6
S315080084D000B4C404014B1868704700BF3C11002063
S315080084E0054B1860054B1B6F03F00703032B01D1DF
S315080084F0FFF7DABF704700BF3C110020008000502C
S3150800850000487047002D31014FF0B4439868C0F316
S3150800851004400C2822D8DFE800F009212121212176
S31508008520071719211B1D1F000F4870479B6803F08A
S315080085304073B3F1807F13D0B3F1007F12D00B4A9A
S31508008540002B08BF1046704709487047094870470E
S31508008550094870470948704709487047002070471E
S315080085600848704708487047405DC60000093D0046
S315080085700024F400C0EA210180BA8C010048E80111
S31508008580005A620280841E0040420F00014B1868A0
S31508008590704700BF40110020BFF34F8F0549064BB7
S315080085A0CA6802F4E0621343CB60BFF34F8F00BF83
S315080085B0FDE700BF00ED00E00400FA054FF0006398
S315080085C09A6A02F17841B1F5C04F03D21168074A99
S315080085D0914203D000230370836070470122027022
S315080085E09A6A926842609B6A9B69F5E707B0CD5E16
S315080085F008B54FF00053024A1A60FFF7CDFF00BFD7
S3150800860002020FF073B54D4B04461A781AB10222CE
S315080086101A7002B070BDCDE900220028F9D00126F3
S315080086201E706AF0DDF8464D464B186063F0F6FC9E
S315080086302B785BB900F09AFD40B943480823434AB2
S31508008640434900685CF0D4FD00B92E70414B5A6E60
S3150800865022619B6E404A63614FF4804393663F4BA9
S315080086605968A1613E499960196E2160596E616029
S31508008670196CA160596CE1603A49086C1864496C38
S315080086805964012151661B6E9C043FD5364AD3684E
S31508008690D807FCD4354B1A68531C3CD04FF48013CA
S315080086A09340334A13660423314C23664FF4007310
S315080086B0236669F02FFE01300BD069F02BFE40F2DD
S315080086C0011398421FBF4FF4005323664FF48043AB
S315080086D023660823264C684623664FF48053236690
S315080086E04FF0006323664FF4002301A9636669F01F
S315080086F0B8FD009B2366019B63662B78002B88D008
S31508008700124B1A6822665B68636682E7194AD36861
S31508008710D907FCD4BEE7184B1B78002BC3D14FF4FE
S3150800872000720D4B5A6603F5A6235B68002BBAD177
S315080087304FF480120E4B1A66B5E700BF54B70120F6
S3150800874052B70120F41F012048110020EC1F012018
S31508008750007108000080005000900050008000441E
S3150800876055CEAC0000C0005400000440441100205F
S31508008770009000440000045053B7012070B5204D06
S3150800878004462E78012E02D001232B7070BD0028D6
S31508008790FCD069F0BFFD01300BD069F0BBFD40F29B
S315080087A00113984205D0174B174A5E66D368DE0751
S315080087B0FCD42268154B1A6662685A66A2681A645F
S315080087C0E2685A64A269D00744BF00229A60104B37
S315080087D01A68013207D10F4A127822B90E49496838
S315080087E0C90748BF1A6022690C4B5A6662699A66BD
S315080087F063F01CFC0A4B186869F0F8FF0023C4E70D
S3150800880054B7012000900040000004400080004456
S315080088104411002053B7012000C0055000800050C5
S31508008820F41F012070B54FF00064A36A03F1784283
S31508008830B2F5C04F21D21A68124B9A421DD1124E78
S31508008840337813F0FD0F1BD11048FFF7DBFE012527
S315080088504FF480330E4A0F49C2F88051CB60156039
S315080088600D4A1361A36ADB69984704460748FFF770
S3150800887085FF04B93570204670BD4FF48174FAE758
S315080088800024F8E707B0CD5E53B70120D01F0120BA
S3150800889000E100E000A000440090004413B51F4B1F
S315080088A01B7803B9FEE700231D4CCDE900336A4661
S315080088B008231C4920685CF09BFCF0B91A4AD2F8D8
S315080088C04031D2F840211F2B4FF0010310D9203A2E
S315080088D09340019A1343019308236A461149206875
S315080088E05CF03CFC4FF00053104A1A60FFF754FE48
S315080088F09340009A13430093EEE70D4B9842F1D14B
S31508008900094AD2F84031D2F840211F2B4FF0010313
S3150800891002D9203A9340DEE79340ECE754B70120AA
S315080089204811002000710800008000440B020FF077
S315080089300BE000F038B54FF00065AB6A044603F16A
S315080089407842B2F5C04F12D21B6B03F17843B3F5E8
S31508008950C04F0CD20648FFF755FEAB6A20461B6B84
S315080089605B689847BDE838400148FFF707BF38BD40
S31508008970F81F012013B54FF000640190A36A03F1B4
S315080089807842B2F5C04F15D21B6B03F17843B3F5A5
S31508008990C04F0FD20948FFF735FEA36A01211B6BAA
S315080089A001A89B69984704460448FFF7E7FE204656
S315080089B002B010BD4FF48174F9E700BFF81F01201B
S315080089C037B54FF00065CDE90021AB6A044603F1DF
S315080089D07840B0F5C04F12D21B6B83B10948FFF738
S315080089E011FEDDE90021AB6A20461B6B5B6A9847DE
S315080089F004460448FFF7C2FE204603B030BD4FF4D4
S31508008A000174F9E7F81F012037B54FF000650191A9
S31508008A10AB6A044603F17842B2F5C04F15D21B6B18
S31508008A2003F17843B3F5C04F0FD20948FFF7EAFDC3
S31508008A30AB6A20461B6B01999B6A98470446044813
S31508008A40FFF79CFE204603B030BD4FF40174F9E7EA
S31508008A50F81F012037B54FF00065CDE90021AB6A54
S31508008A60044603F17840B0F5C04F16D21B6B03F1EC
S31508008A707843B3F5C04F10D20948FFF7C3FDDDE9C7
S31508008A800021AB6A20461B6B9B6B9847044604483B
S31508008A90FFF774FE204603B030BD40F20114F9E733
S31508008AA0F81F012037B54FF000650191AB6A0446FF
S31508008AB003F17842B2F5C04F15D21B6B03F1784328
S31508008AC0B3F5C04F0FD20948FFF79CFDAB6A2046A5
S31508008AD01B6B0199DB6B984704460448FFF74EFE6B
S31508008AE0204603B030BD40F20114F9E7F81F012013
S31508008AF010B40A681378022B11D014203023147985
S31508008B0013FB040307481B585079C340DB4303F0A3
S31508008B100103137008465DF8044B4BF0EFB95DF896
S31508008B20044B704730C0035037B504680121054629
S31508008B303A2001F0CBFA002301226179207902F06C
S31508008B4099FC14223023217913FB01230E4A9B58E2
S31508008B506279D340DB4303F001032370A379022B28
S31508008B600ED100F089FA2A460849607900F0AEFA73
S31508008B700123024661792079CDE9003302F022FC0F
S31508008B80002003B030BD00BF30C00350F18A000892
S31508008B9002681378022B24D014213023107913FB92
S31508008BA0001310495B585179CB40917903F00103C2
S31508008BB0012912D1508843EA40034FF6E07063F06A
S31508008BC03F039BB2834202D11170538070474FF620
S31508008BD0DF718B42F9D10021F6E711B983F0010361
S31508008BE01370704730C0035010B5012243780178DE
S31508008BF0847830209A40054B00FB01331CB903F5F5
S31508008C0001531A6010BD03F58253FAE700C00350FA
S31508008C1010B5012243780178847830209A40054BB4
S31508008C2000FB01331CB903F582531A6010BD03F526
S31508008C300153FAE700C003500122437801789A40AD
S31508008C4030235943014B5A50704700BF40F0035038
S31508008C50102130230246007813FB0013054950788B
S31508008C605B58C34003F0010093780BB980F001000C
S31508008C70704700BF30C003502DE9F04F9A46554B58
S31508008C8085B01B7806460F461546DDF83C909DF8DC
S31508008C9044B0DDF85080002B00F08C80072A00F2E3
S31508008CA08B800E9B002B00F08780B9F1000F00F037
S31508008CB08380129BB3F5006F7EDC012802D1109BDE
S31508008CC0002B79D0444B03EB05131B7B002B75D087
S31508008CD0424C102200216846ADF0E8FC04EB45142E
S31508008CE01022002F58D139462046ADF0DFFC43F25A
S31508008CF010036380BBF1000F03D1E37843F003034D
S31508008D00E370364A0E9B02EB451CCCE90193129B95
S31508008D10CDF800A0013BC3F30A009DF84C30690169
S31508008D2003F003039B0643EA001E53582C48012E02
S31508008D3000EA03004EEA0003535041D113230CF115
S31508008D40100ECCF80C309CE80F008EE80F006FF080
S31508008D500301DCF81C20109B61F39F02012FCCF85D
S31508008D601C20CCF8143003D1CCF81890CCF8043079
S31508008D700027194A290102EB051342F80180159AC2
S31508008D8028465A60694622469F605E7302F0F2FBE7
S31508008D90384605B0BDE8F08F00212046ADF086FCC8
S31508008DA04FF444736380BBF1000FAAD1E37843F014
S31508008DB03003A5E70B48ECE70B48EAE70B48E8E77A
S31508008DC0B8F1000FD4D19CF8023068F304138CF87C
S31508008DD00230CDE755B70120142001209420012048
S31508008DE00F80FFF3028000F0018000F0078000F09A
S31508008DF038B5124B05461B78DBB1E0B169F0F0FCDB
S31508008E000F4A00231146147B54B92B6001251A0119
S31508008E1001EB03131D738C5069F0E8FC204638BD3E
S31508008E200133082B02F11002EDD169F0DFFC054889
S31508008E30F5E70548F3E70548F1E700BF55B7012010
S31508008E4014200120048000F0028000F0018000F068
S31508008E50154B13B51868002301908DF8043069F096
S31508008E60BFFC124B1C7824B169F0C0FC104802B054
S31508008E7010BD01221A7069F0B9FC0E4B01A81C73CB
S31508008E801C7783F82C4083F83C4083F84C4083F8E1
S31508008E905C4083F86C4083F87C4008238DF80730E3
S31508008EA002F036FB2046E2E7446E0B0855B7012070
S31508008EB0038000F01420012008B50A4A12785AB136
S31508008EC007280BD8084A02EB00131B7B43B1002185
S31508008ED002F010FB002008BD0448FCE70448FAE746
S31508008EE00448F8E755B7012014200120028000F055
S31508008EF0018000F0078000F008B50A4A12785AB1D6
S31508008F0007280BD8084A02EB00131B7B43B1012143
S31508008F1002F0F0FA002008BD0448FCE70448FAE726
S31508008F200448F8E755B7012014200120028000F014
S31508008F30018000F0078000F00D4B1B7893B10728DD
S31508008F4012D889B10B4B03EB00131B7B73B10A4B89
S31508008F50DA6A012303FA00F010401ABF00200B70EA
S31508008F6008707047054870470548704705487047B8
S31508008F7055B701201420012000000450028000F09B
S31508008F80018000F0078000F010B50B4A0C461278F5
S31508008F9062B107280CD859B1084A02EB00131B7BAB
S31508008FA043B102F059FB2060002010BD0448FCE7DD
S31508008FB00448FAE70448F8E755B7012014200120C9
S31508008FC0028000F0018000F0078000F02DE9F843E8
S31508008FD0174B1F6D5B6D1F4000D5FEE70126002568
S31508008FE0144CDFF85480DFF85490374217D0C8F88D
S31508008FF0506023689BB1A168284601316268A16068
S315080090009847637B012B0AD148B909EB45131A7BAC
S3150800901060F341021A731A7F60F341021A77013529
S31508009020082D4FEA460604F11004DED1BDE8F883A0
S315080090300000045014200120002004509420012030
S3150800904070B5044601250B4E04B970BD94FAA4F018
S31508009050B0FA80F005FA00F306EB001224EA0304DE
S315080090605368002BF0D0117B11B191689847EBE754
S315080090709847E9E79421012008B5192001F05CFD1D
S3150800908028B14FF00072074BC3F880211A601A20E6
S3150800909001F052FD28B14FF08062024BC3F88021DF
S315080090A01A6008BD00E100E038B505460C4669F0CF
S315080090B097FB0022044B03EB05135C601A73BDE8AB
S315080090C0384069F093BB00BF94210120F8B50546E6
S315080090D00F46164669F084FB104B05F0FC02D3F8E0
S315080090E024140023EC1804F00304144321FA04FCA6
S315080090F01CF0010F07D00133042BF3D1FF2469F0CC
S3150800910075FB2046F8BDFF2CF9D00122044B03EB72
S315080091100413C3E901761A73F1E700BF00C00350D0
S3150800912094210120074BD3F82404D3F8202403F50F
S315080091300053104000F0553020F05020C3F82004AA
S31508009140FFF77EBF00C00350074BD3F82404D3F8BB
S31508009150202403F50053104000F0AA3020F0A02088
S31508009160C3F82004FFF76CBF00C00350024B196810
S31508009170024B18685BF01CBF4C11002048110020F8
S3150800918037B5920004460D460192ADF099FC431C92
S315080091900BD060B929462046019AADF050FA00284E
S315080091A0044808BF002003B030BD0348FBE7034866
S315080091B0F9E700BF10E000F021E000F024E000F03D
S315080091C013B5044601A802F0D5FA9DF80630012227
S315080091D023804FF4807300206380054B9B680A3315
S315080091E003F01F0302FA03F3636002B010BD00BF69
S315080091F00080E00F10B50446ADF06AFC431C15D09C
S31508009200B0B90C4B20469B680A3303F01F020123B2
S31508009210934023F003032344984201D1002010BD54
S3150800922050F8042B0132F7D00348F8E70348F6E76D
S315080092300348F4E70080E00F0EE000F021E000F0BC
S3150800924024E000F008B569F0C4FA014B186008BDBF
S31508009250D4290120014B186869F0BFBAD429012026
S3150800926038B141B1013AB2F5006F044838BF002061
S315080092707047034870470148704700BF037000F005
S31508009280027000F038B504460D4669F0A9FAA388BD
S315080092909BB223B92B6069F0A9FA064838BD142297
S315080092A063889BB202FB034408342C6069F09EFA7B
S315080092B00020F3E70B7000F0F8B5044616460F4693
S315080092C069F08EFAA388E2889BB29A42054605D8C9
S315080092D00023336069F08AFA1748F8BD14222388F8
S315080092E007F1100C9BB202FB03433A4608331746B4
S315080092F003CF6745186059603A4603F10803F6D16B
S31508009300142238681860238828469BB202FB034358
S31508009310083333602388E2889BB20133B3FBF2F14A
S3150800932002FB11339BB22380A38801339BB2A3802F
S3150800933069F05CFA0020D0E70A7000F090F8353042
S31508009340022B0DD114223023417F90F8210013FB04
S315080093500123044A9B5823FA00F000F001007047E5
S315080093600020704730C00350002313B51D4A52F839
S31508009370044B94F8211081420ED00133042BF6D108
S3150800938002B010BD0028FBD19DF80730002BF7D09E
S31508009390A068FFF791FDF3E794F83530022BEFD17B
S315080093A02046FFF7CBFF637E2076022BE8D194F8A0
S315080093B0323003F0FF02002BE2D1A0680DF107015D
S315080093C08DF80720FFF7B8FD237E1BB194F83330DC
S315080093D0002BD7D00023A06884F83330FFF78CFD24
S315080093E0CEE700BF882A012030B51049104A0B780D
S315080093F02BB9C2E90033C2E9023301230B700C4CC6
S315080094000023214651F8045B854208D00133042B1A
S31508009410F8D1002154F8043B1BB942F8210000207A
S3150800942003E001310429F5D1024830BD56B70120C1
S31508009430882A0120027000F010B50446FFF708FDDF
S31508009440002104F10800FFF7D3FC014620B904F116
S315080094500C00FFF7CDFC00B1004810BD0E7000F0FF
S3150800946090F8363053B9042103790A4A03F23913BE
S315080094705B01D150022203685A617047022B07D15B
S315080094800068816C11F0020118BF062169F0F1B974
S31508009490704700BF00C0035090F836306BB9012200
S315080094A003685A6102689369D907FCD504210379D0
S315080094B0074AB9335B01D1507047022B07D10068C0
S315080094C0836C9B074CBF0521092169F0D2B9704707
S315080094D000C0035010B590F8363004466BB9042224
S315080094E003685A61026893699907FCD523790C4A7F
S315080094F0B9335B011021995010BD022BFCD10068CD
S31508009500836CDB074CBF0521062169F0B2F9237984
S3150800951041F294425B0103F1A04303F57033E9E796
S3150800952000C00350012370B580F8303090F836300B
S3150800953004460E4686B0A3B905682435204669F068
S315080095409CF80D4B32680393002302937368616994
S3150800955001930123E068009304942B4668F0C5FF45
S3150800956007E0022B02D105683C35E7E7002380F8BF
S31508009570303006B070BD00BFAD970008F8B5074695
S315080095800D461646FFF76CFE00286BD1152001F034
S31508009590E1FA0446FA6A93889BB213B197F8323017
S315080095A0E3B197F83630F3B93B689C6904F00204D6
S315080095B01CB93846FFF78EFF0024012387F834309C
S315080095C097F83630CBB92E44B542386810D183693E
S315080095D09A06FCD51CB300242046F8BD002CDAD028
S315080095E0FFF7F4FCD6E7022BE3D13B689C6CDDE77A
S315080095F015F8011B69F0C9F9E6E7022BEAD12E44F2
S31508009600B542386806D142F22003826C33EA020278
S31508009610FBD1DFE715F8011B69F030F9F0E797F899
S31508009620363053B910213B790F4A03F239135B01DF
S31508009630D15008223B685A61CEE7022BCCD1386854
S31508009640836CDB074CBF0921214669F012F942F207
S31508009650944210213B795B0103F1A04303F5703373
S315080096609950B9E70446B7E700C0035010B5044659
S3150800967080B190F832302BB9FFF760FE10B9A068B8
S31508009680FFF71AFC002094F832300133DBB284F875
S31508009690323010BD0048FCE7027000F010B50446F1
S315080096A0A0B190F832309BB190F83230012B05D139
S315080096B0FFF744FE10B9A068FFF71EFC002094F8D7
S315080096C03230013BDBB284F8323010BD0148FCE78A
S315080096D00148FAE7027000F0057000F037B590F817
S315080096E035500446022D1DD1012290F82230457EC0
S315080096F0817F9A403020164B25B900FB013303F5CC
S31508009700015305E0012D07D100FB013303F5825310
S315080097101A60002003B030BD247E00FB0133002C04
S31508009720F4D1ECE7012DF4D1037E73B911238DF83A
S315080097300730FFF79BFF2A4620460DF10701FFF782
S315080097401DFF2046FFF7AAFFE3E71323EFE700BF55
S3150800975000C00350F0B587B005461646FFF780FDF2
S315080097600446F0B90493104BCDE901166A46A86A77
S3150800977001A903960593FFF79FFD044688B995F856
S31508009780303073B92846FFF787FE28460099FFF759
S31508009790C9FE95F83530032B03D028462C76FFF7FB
S315080097A09DFF204607B0F0BD017000F073B5906AC2
S315080097B001A91446FFF766FD0546204668F043FFF3
S315080097C03A4B9D4232D094F83610019B00293CD181
S315080097D02068826C12F400722BD0354A99601A619F
S315080097E04FF40072236803F500539A6468F0F8FF93
S315080097F001990646CD6835B14A688B682046D31A62
S315080098000A680969A847A06A01A968F04FFFA06A13
S315080098108588ADB2002D3AD001A9FFF733FD204661
S315080098200199FFF77FFE304668F0E0FF012002B09D
S3150800983070BD816CC80526D51E499A6019612368D2
S315080098404FF4807203F50053CFE702291BD1216834
S31508009850CA6C12F400720AD0154A1A6100229A607C
S315080098604FF40072236803F50053DA64BEE7C96C47
S31508009870C90508D50F499A60196123684FF48072A3
S3150800988003F50053F1E700221A619A60AEE7012357
S3150800989020462376FFF722FF94F8353084F83050B7
S315080098A0032BC0D02046FFF7DBFDBCE70B7000F0AA
S315080098B00D7000F00C7000F02DE9F04104468CB0F4
S315080098C0884F04AE0D460FCF0FC697E80F0086E8FF
S315080098D00F00102200216846ACF0E8FE002C00F0CC
S315080098E0FE8025B9804E30460CB0BDE8F081602276
S315080098F000212046ACF0DAFE2B68204623600223BE
S3150800990084F836302B7C2371FFF76EFD0646002857
S31508009910E9D12B7F754A84F835302B68934240F09D
S31508009920B88056236362724B23614FF470236361D8
S315080099300123ADF80630002384F8316084F83060DE
S31508009940D5E90912A1620B80A16A3A204B80A16A67
S31508009950684E8B8084F83030E2621380E26A012117
S315080099605380E26A938084F8313084F833300223D6
S315080099708DF81D30AB6806936B8AADF82030AB8A3C
S31508009980ADF81E30AB7D8DF81C30AB690993CDF868
S315080099902CD000F09BFB0121606A00F097FB2B7925
S315080099A0002B00F081800121362000F08FFBD6F8CD
S315080099B0203223F0070343F003031022C6F82032AF
S315080099C02B7C4D4F204607EB4313C3F89424A97B01
S315080099D02B7C2A7B07EB431342EA0142C3F8AC24EB
S315080099E02B7CE97B6A7B253342EA014207EB43136A
S315080099F05A602B7B0121E376AB7BE3776B7B23777E
S31508009A00EB7B84F820306B7F6377AB7F84F821305B
S31508009A10EB7FA37795F8203084F8223068F0A3FD11
S31508009A20064600287FF45FAF68F0DAFE2A7F804694
S31508009A30032A40D141F2944102202B7C07EB4313C1
S31508009A4058502B7C95F82000E97F07EB431341EA31
S31508009A50004103F5A5531960297CA87F07EB411738
S31508009A6041F29C416B7F43EA00437B508DF800200E
S31508009A7006238DF810302B79286804A963B368F09B
S31508009A8010FF2046FFF7D8FC0646404668F0AEFEB3
S31508009A9029E71A4A93427FF425AF57236362184B86
S31508009AA023614FF4801342E7D6F8203223F00703E8
S31508009AB043F0010381E7022ADAD194F8210011491B
S31508009AC0FFF7F2FAFFF7D8FA4FF40073204623831C
S31508009AD0A676FFF703FECBE768F0DFFED1E70A4E6E
S31508009AE001E700BF886E0B08037000F00000015BF9
S31508009AF001000F000080005000C0035000000A500B
S31508009B000100100069930008027000F0044BD3F8B6
S31508009B108420D206FBD4D3F88400C0F381107047A2
S31508009B20004000502E4B98424AD022D82D4B9842DE
S31508009B3040D014D82C4B984239D00AD82B4B98428F
S31508009B4032D02B4B98422FD02A4B98422CD000204B
S31508009B507047294B9842FAD1284B186F7047284B03
S31508009B6098422AD0274B9842F1D1244BD3F880004B
S31508009B707047254B98422BD009D8244B984223D0BE
S31508009B80234B9842E3D11D4BD3F88C007047214BE9
S31508009B90984221D003F5740303F510539842D6D1A1
S31508009BA0164BD3F898007047144B986D7047134BB3
S31508009BB0586E7047114B586F7047104B986F704727
S31508009BC00E4BD3F8840070470C4BD3F888007047C7
S31508009BD00A4BD3F890007047084BD3F894007047A7
S31508009BE00048E8010024F400C0CF6A0080841E0003
S31508009BF000093D0040420F00405DC6000080E00FAE
S31508009C00C0EA210180BA8C01007E560380D5430242
S31508009C10006CDC020090D00338B5104B0546D3F82B
S31508009C2080300C4603F00303022B0BD0032B0DD018
S31508009C30012B0FD1FEF71EFC0E2305B1286004B1D7
S31508009C40236038BDFEF760FC0723F6E7FEF706FC3F
S31508009C500623F2E700231846EFE700BF008000500E
S31508009C6038B5174B0546D3F820310C4603F00703E1
S31508009C70013B052B20D8DFE803F0030B130F171B56
S31508009C80FEF7ECFB052305B1286004B1236038BD57
S31508009C90FEF720FC0323F6E7FEF736FC0723F2E778
S31508009CA0FEF72EFC0223EEE7FEF7D8FB0623EAE7CB
S31508009CB0FEF710FC0423E6E700231846E3E700BF97
S31508009CC00080005038B5174B0546D3F828310C46A6
S31508009CD003F00703013B052B20D8DFE803F0031345
S31508009CE01B0F0B17FEF7BAFB052305B1286004B155
S31508009CF0236038BDFEF7B2FB0623F6E7FEF704FC41
S31508009D000723F2E7FEF7E6FB0323EEE7FEF7E2FB9F
S31508009D100423EAE7FEF7F4FB0223E6E700231846E6
S31508009D20E3E700BF0080005073B50D460021114BD4
S31508009D300191D3F88041064604F00304022C13D09F
S31508009D40032C0CD0012C13D101A8FFF789FF10248E
S31508009D500EB1019B336005B12C6002B070BDFEF7F1
S31508009D60D3FB07240190F3E7FEF7CAFB0190EFE760
S31508009D700C46EDE700800050002337B50193154BDC
S31508009D800546D3F820320C4603F00703013B032BA4
S31508009D901ED8DFE803F0020E1318002101A8FFF70A
S31508009DA091FF12230DB1019A2A6004B1236003B012
S31508009DB030BDFEF7A9FB07230190F3E768F04BFADD
S31508009DC00A230190EEE7FEF7E1FB09230190E9E794
S31508009DD00023E7E70080005038B5104B0546D3F856
S31508009DE040310C4603F00303022B0BD0032B0DD096
S31508009DF0012B0FD168F02FFA0A2305B1286004B1A8
S31508009E00236038BDFEF7C2FB0923F6E768F026FA99
S31508009E100C23F2E700231846EFE700BF0080005046
S31508009E20002337B50193164B0546D3F860320C4626
S31508009E3003F00703013B032B1FD8DFE803F0020EEC
S31508009E401914002101A8FFF70BFF10230DB1019A81
S31508009E502A6004B1236003B030BD002101A8FFF7D2
S31508009E60BBFF1123F2E7FEF74FFB07230190EDE74F
S31508009E70FEF746FB02230190E8E70023E6E700BF6A
S31508009E8000800050002337B50193164B0546D3F8DA
S31508009E9094320C4603F00703013B032B1FD8DFE877
S31508009EA003F0020E1914002101A8FFF7D9FE1023AA
S31508009EB00DB1019A2A6004B1236003B030BD0021B8
S31508009EC001A8FFF789FF1123F2E7FEF71DFB072319
S31508009ED00190EDE7FEF714FB02230190E8E7002363
S31508009EE0E6E700BF0080005038B5134B0546D3F8A7
S31508009EF000320C4603F00703013B032B18D8DFE8B2
S31508009F0003F0020A0E1268F0A6F90A2305B12860C2
S31508009F1004B1236038BDFEF739FB0923F6E768F07C
S31508009F209DF90C23F2E7FEF7BFFA0F23800AEDE747
S31508009F3000231846EAE700BF0080005038B5134BE7
S31508009F400546D3F808320C4603F00703013B032BFA
S31508009F5018D8DFE803F0020A0E1268F07CF90A2323
S31508009F6005B1286004B1236038BDFEF70FFB09234D
S31508009F70F6E768F073F90C23F2E7FEF795FA0F2374
S31508009F80800AEDE700231846EAE700BF0080005084
S31508009F9038B5104B0546D3F840320C4603F0030398
S31508009FA0022B0BD0032B0DD0012B0FD168F053F9E0
S31508009FB00A2305B1286004B1236038BDFEF7E6FA26
S31508009FC00923F6E768F04AF90C23F2E70023184656
S31508009FD0EFE700BF0080005038B5104B0546D3F8B0
S31508009FE060310C4603F00303022B0BD0032B0DD074
S31508009FF0012B0FD168F02FF90A2305B1286004B1A7
S3150800A000236038BDFEF7C2FA0923F6E768F026F999
S3150800A0100C23F2E700231846EFE700BF0080005044
S3150800A020B0F5207F1FD009D8B0F5007F15D003D82A
S3150800A03068B1B0F5C07F0AD000200CE0B0F5607FAB
S3150800A040FAD10B4BD3F88000C0F3011003E0084B9C
S3150800A050186FC0F3033001307047054BD3F89000F2
S3150800A060C0F30460F7E7024B186FC0F38020F2E7ED
S3150800A0700080005002464FF48030104B10B59866A9
S3150800A0800020FFF7CDFF504341F671320C4BDC69D7
S3150800A090DA635A6804F4803422F4401259B909493B
S3150800A0A088428CBF4FF480100020104358600CB1D2
S3150800A0B00022DA6310BD0449F2E700BF00900050A1
S3150800A0C000000350005A6202002D3101430905D0F1
S3150800A0D0012B0DD0022B094B18BF002300F01F00DF
S3150800A0E041B103F58053012202FA00F01860704767
S3150800A0F0034BF3E703F50053F5E700BF688000500C
S3150800A100648000501FB5002180280446CDE900115F
S3150800A11000F0A58035D85E2846D85E2844D8DFE802
S3150800A12000F0A24343434343434343434343434328
S3150800A13043434343434343434343434343434343E1
S3150800A1404343A2AAA2AAB9B9B9B9B9AAC34DD97142
S3150800A1504DAAAAAA4343434343434343AAAAAA7917
S3150800A160E3AA43434343434343434343434343B934
S3150800A170A2A2A2DE4D4DE8885EBE434343434399FF
S3150800A180A200B0F5B06F00F08F802DD8B0F5207F13
S3150800A19071D00CD8B0F5C07F65D0B0F5007F65D01A
S3150800A1A0B0F5807F00F08580009804B010BDB0F54A
S3150800A1B0607F6AD00DD8B0F5407FF5D1FEF774F907
S3150800A1C002464FF42070FFF72BFFB2FBF0F0400871
S3150800A1D047E0B0F5806F5DD0B0F5A06FE4D10021FF
S3150800A1E06846FFF7C9FDDFE7B0F5106F77D016D8D8
S3150800A1F0B0F5E06F78D00AD8B0F5C06F6AD0B0F580
S3150800A200D06FD1D100216846FFF76EFECCE7B0F5D6
S3150800A210F06FC9D100216846FFF7DEFEC4E7B0F546
S3150800A220406F3CD013D8B0F5206F62D0B0F5286FD8
S3150800A230BAD10021314B0391D3F8703203F00303EE
S3150800A240012B02D103A8FFF7C7FD039B3BE0B0F53E
S3150800A250486FA9D100216846FFF714FEA4E7FEF768
S3150800A26009F90090A0E7FEF71FF9FAE7FEF702F9E9
S3150800A2700246204604E0FEF717F902464FF420701E
S3150800A280FFF7CEFEB2FBF0F0EBE701A8FFF7C4FC40
S3150800A290019AEEE700216846FFF7E2FC84E7002111
S3150800A2A06846FFF70FFD7FE700216846FFF73CFD8C
S3150800A2B07AE74FF0E02302911B695B0705D5FEF7A5
S3150800A2C0F3F80290029B00936EE703A902A8FFF732
S3150800A2D083FDF7E700216846FFF77EFD64E7002166
S3150800A2E06846FFF72BFE5FE700216846FFF750FE3A
S3150800A2F05AE700216846FFF793FD55E700800050AE
S3150800A30008B58020FFF7FEFE034B98429EBF4FF428
S3150800A3108032024B1A6708BD005A620200A000503C
S3150800A3201FB50023B0F5807F019300F0C38064D881
S3150800A3305D2855D84C2807D82D2847D823282BD848
S3150800A340019805B05DF804FB4D381028F8D801A32C
S3150800A35053F820F0ABA4000841A3000841A3000865
S3150800A36041A300085DA4000841A3000841A3000812
S3150800A37031A500087BA4000821A4000827A5000829
S3150800A38041A3000841A3000841A3000841A300080F
S3150800A39041A300083BA5000824380928D0D801A302
S3150800A3A053F820F0ABA40008ABA40008ABA400083F
S3150800A3B0ABA40008ABA4000841A30008A1A40008A8
S3150800A3C041A300083DA40008E1A400083D2800F0C8
S3150800A3D082803E28B4D1002001A9FFF7D9FDAFE756
S3150800A3E08028ADD15A4B1B6F03F00703013B032BA3
S3150800A3F0A6D8DFE803F05350878FB0F5F06F6AD020
S3150800A40021D8B0F5B06F4BD00FD8B0F5607F00F00B
S3150800A410858095D3B0F5806F47D0B0F5A06F8FD102
S3150800A420002001A9FFF7A8FC8AE7B0F5D06F57D03E
S3150800A430B0F5E06FCFD0B0F5C06F81D1002001A98B
S3150800A440FFF7CAFC7CE7B0F5206F71D00BD8B0F5E2
S3150800A450086F4AD0B0F5106F7FF472AF002001A9DB
S3150800A460FFF76CFD6CE7B0F5406F5CD0B0F5486F50
S3150800A47063D0B0F5286F7FF463AF0021344B0391A6
S3150800A480D3F8703203F00303012B5BD0022B14BF01
S3150800A4900B46152300E00523019351E70223FBE74A
S3150800A4A0002001A9FFF740FC4AE7002001A9FFF7B1
S3150800A4B0D7FB45E702934FF0E0231B695B0705D5F9
S3150800A4C0FDF7F2FF0D230393039BE5E703A902A813
S3150800A4D0FFF782FCF8E7002001A9FFF77DFD2FE7CB
S3150800A4E0002001A9FFF700FD2AE7194BD3F8003130
S3150800A4F003F00303022B07D0032B09D0012B0BD142
S3150800A500FDF7E8FF0323C7E7FEF740F80923C3E78B
S3150800A51067F09FFE0823BFE70123BDE7184601A998
S3150800A520FFF77AFB0CE7002001A9FFF7CBFB07E74B
S3150800A530002001A9FFF774FC02E7002001A9FFF734
S3150800A540A1FCFDE603A8FFF747FC1123A4E700BF1B
S3150800A5500080005008B5FFF7E3FE092811D00A3835
S3150800A560012811D84FF48002094B4FF6FF705A663E
S3150800A57003F5D8335B6A13F0010F18BF4FF4FA706E
S3150800A58008BD044B1888FBE74FF6FF70F8E700BFD5
S3150800A590009000500817002038B504468020FFF7C1
S3150800A5A0BFFE032800F083804FF48012504B4FF013
S3150800A5B0A0615A6645F60E034E4AC2F880304E4BE5
S3150800A5C099624FF4803103F580539962916D11F4C5
S3150800A5D08031FBD1D4E900031B0543EA0063E07B25
S3150800A5E00343207B43EA0043607B43EA0033A07BB6
S3150800A5F043EA801313619069D4E904531B0643EABE
S3150800A600856300F000400343A07E0343207E43EAAF
S3150800A6100043607E43EA00239361136AE269E57E9C
S3150800A620002A0CBF0020082023F00F03134343EA37
S3150800A6308503304A03431362E369304D002B37D153
S3150800A64094F82430916A94F82000DB000D4043EA20
S3150800A650401394F821102B4343EA011343F4803343
S3150800A6609362274B916D33EA0101FBD14FF080715C
S3150800A670214881621369A56823F4700343EA0553E8
S3150800A68013614FF00043836194F822300BB91D4BD8
S3150800A690996294F823301BB94FF48032194B9A62A9
S3150800A6A094F825301BB1134B174AC3F8802038BDE0
S3150800A6B0022B08D11161154891614FF408524FF4E5
S3150800A6C07F4168F04DF80B4994F822308A6A94F86D
S3150800A6D020001B06154043EA401394F824202B4318
S3150800A6E043EAC20394F8232043EA02438B62D7E77E
S3150800A6F0009000500040005A0050005AC7FFFEFE66
S3150800A700030001000060005AF1A7FFFF3440005A19
S3150800A710014B93F900007047241700204FF40001FD
S3150800A7201B4A437810B551664FF4D151022402F5FD
S3150800A730B832516217494F2B4C604FF0010428BFBD
S3150800A7404F2301F580514C601169C903FCD4017887
S3150800A75043EA01235361D0E901131B0143EA0123AC
S3150800A760417B0B43017B43EA41039360C37B817BB7
S3150800A7701B0143EA4113417C0B43017C43EA410335
S3150800A7805360837C13B16FF4D153536210BD00BF7D
S3150800A7900090005000100250014B1880704700BF0F
S3150800A7A0081700204FF4800208B5184B5A66022392
S3150800A7B0174A5360936813F48033FBD1012822D1DA
S3150800A7C0FDF788FE134B984215D003F5122303F5BF
S3150800A7D0F863984213D0104B00EB8002400AB3FB93
S3150800A7E0F0F0520A0A4BDA62012218635A62002212
S3150800A7F0074B5A6008BD45F67A10084AF2E745F64F
S3150800A8001A00074AEEE75362F1E700BF00900050CE
S3150800A8100040025000F0490264666666D8B8050032
S3150800A820BBCF0500B0F5207F10B50C4657D008D829
S3150800A830B0F5007F48D003D830B3B0F5C07F23D039
S3150800A84010BDB0F5607FFBD129492A48D1F8FC2014
S3150800A85012F080721EBFD1F8FC3023F08073C1F865
S3150800A860FC30D0F88030611E23F0300444EA01142D
S3150800A870C0F88040002AE3D01D4AD2F8FC3043F0E5
S3150800A8808073C2F8FC30DBE767F07BFF67F087FF71
S3150800A8904FF48031184B174A1967136F611E23F45A
S3150800A8A0704444EA01341467FDF7FEFD0446FFF7D9
S3150800A8B02DF9C0F10201204667F06BFF00F02EF873
S3150800A8C0BDE81040FFF71CBD0A4A0139D2F890309E
S3150800A8D023F0F85444EA0164C2F89040B0E7054B07
S3150800A8E0013C196F21F4806141EA84241C67A7E7BB
S3150800A8F000ED00E0008000500090005008B50121EE
S3150800A900022000F09BF967F03CFF67F048FF4FF420
S3150800A9108032014B1A6708BD0090005008B54FF405
S3150800A920C070FFF7EFFBBDE80840044988428CBFBA
S3150800A930022101214FF42070FFF774BF80F0FA025C
S3150800A9404FF4C02201212DE9F04105466A4B5A66AB
S3150800A9506A4A03F598335C6851605E6816F0020629
S3150800A960FBD1FFF7D3F80128286805D1644B984234
S3150800A97002D90020BDE8F081624A00231146176813
S3150800A980B84202D35768B84205D90133192B02F1E8
S3150800A9901002F4D1002301EB0313D3E9028028B196
S3150800A9A0FFF7C0F800F07F0048EA00088020FFF7AC
S3150800A9B0B7FC05285FD167F0E4FE67F0F0FE4FF4B8
S3150800A9C080324D4B4FF4C0701A67FFF729FB0128F8
S3150800A9D006464CD102214FF4C070FFF723FF01272A
S3150800A9E04948C16811F00601FBD1D0F808C0C0F883
S3150800A9F00880836808F4F81203F4F8139A424ED1D3
S3150800AA00AA88EB8843EA0243404AD360AB68032B23
S3150800AA1033D1A2F5A032D2F8003123F0030343F074
S3150800AA200103C2F800312B7D287B002B6B7D14BFF8
S3150800AA3004220022002B18BF40212B694FF0000882
S3150800AA4043EA40031343314A0B4393602868FDF7F2
S3150800AA500BFD0722294B1A610122A3F580535A6080
S3150800AA60A3F580531C6914F00704FBD01EE00228E6
S3150800AA7001D10421AFE70027B2E7092B07D1244A01
S3150800AA80D2F8003123F0030343F00203C9E7082B89
S3150800AA90C9D11F4AD2F8003143F00303C1E714F0C5
S3150800AAA001044FF00108C0F808C0D2D18020FFF792
S3150800AAB037FC052817D127B131464FF4C070FFF788
S3150800AAC0B1FEFDF7F1FC0546FDF7C8FCFDF7C6FC2F
S3150800AAD0FFF71CF8C0F10201284667F05AFEFFF797
S3150800AAE01DFFFFF70DFCB8F1000F7FF442AF631EA0
S3150800AAF0584258413EE700BF0090005000E0015020
S3150800AB00005A6202A86E0B080000015000C00150EE
S3150800AB10008000500028ABBF00F16040054B00F5EF
S3150800AB20614000F00F00ACBF90F80003185C000904
S3150800AB30704700BF14ED00E0054B420953F8223078
S3150800AB4000F01F0023FA00F0C04300F00100704730
S3150800AB5000E100E0014608B5EFF31083DB0702D5F4
S3150800AB600122104608BDFFF7E7FF02460028F7D185
S3150800AB700846FFF7CFFF0146EFF3118313B1B0EB99
S3150800AB80131FEDD2074B5B68C3F30803002BE8D00D
S3150800AB90103B58B2FFF7BEFF88428CBF0022012245
S3150800ABA0DFE700BF00ED00E0024A536B0342FCD129
S3150800ABB0704700BF00400950044A4178536F23F498
S3150800ABC0407343EA01235367704700BF00400050B3
S3150800ABD010B50A4A0446136943F00403136105F0E5
S3150800ABE037FF67F006FE30BF67F004FE05F044FF46
S3150800ABF01CB9BDE81040FDF757BC10BD00ED00E0DC
S3150800AC0010B5084A0446136943F00403136105F0B6
S3150800AC101FFF30BF05F030FF1CB9BDE81040FDF737
S3150800AC2043BC10BD00ED00E0034A0179D36E23F062
S3150800AC3030030B43D366704700400050F8B504460E
S3150800AC401C4BD3F88420D106FBD4D3F88430C3F345
S3150800AC5081139C422CD0FDF70DFC012C064602D12F
S3150800AC60214667F096FD67F0B4FD4FF00072124B6F
S3150800AC7007465A66204667F0C0FD4FF480630D4DBF
S3150800AC80621E93402B676B6E9A0103D4D5F8843005
S3150800AC909B060AD5384667F0A0FD022C08D1304637
S3150800ACA0BDE8F840002167F074BDD5F88430EAE7BE
S3150800ACB0F8BD00BF004000500060005007B518B945
S3150800ACC00191FDF7D7FB0199064B1B7843B1064B5B
S3150800ACD0984205D8012003B05DF804EBFFF7AEBF34
S3150800ACE00220F8E757B70120005A62020278034BA0
S3150800ACF0012100201A70FFF7E1BF00BF57B70120F6
S3150800AD004FF00042154B10B55A664AF6CD33144932
S3150800AD104C6C0B6404F0010488B90120FFF744FF6A
S3150800AD204B68DB0704D50F4B58600B6BD807FCD56F
S3150800AD3014B10B4B0C4A1A64AAF0D1FA10BD0B6B6E
S3150800AD401A07FCD42022074B9A620122A3F58053E6
S3150800AD505A60034A936A9B06FCD5E9E700900050BF
S3150800AD6000400950006009503254FFFF4FF000427E
S3150800AD7038B5164B01465A664AF6CD33144C154A71
S3150800AD80656C236443780B205B0043F00103D363AF
S3150800AD90FFF70AFF63688A7823F4F87343EA021315
S3150800ADA06360CA784B7943EA0223A3600A798B79F0
S3150800ADB043EA022323610878FFF7A2FFEB0744BFA3
S3150800ADC0054B2364AAF08BFA012038BD0090005089
S3150800ADD000400950004000503254FFFF4FF0004237
S3150800ADE070B5124B04465D6E03F580535A664AF6F3
S3150800ADF0CD330F4980204E6C0B64FFF7D5FE0B6AE6
S3150800AE0023F00F030F2C94BF234343F00F030B6269
S3150800AE10F30744BF074B0B64002DA2BF4FF0004257
S3150800AE20054B5A66AAF05BFA70BD00BF0080005059
S3150800AE30004009503254FFFF00A000504FF0004276
S3150800AE4070B5104B04465D6E03F580535A664AF694
S3150800AE50CD330D4980204E6C0B64FFF7A5FE0B6AB7
S3150800AE6023F4F85343EA04230B62F30744BF074B62
S3150800AE700B64002DA2BF4FF00042054B5A66AAF09C
S3150800AE802EFA70BD00800050004009503254FFFF72
S3150800AE9000A0005010B567F0B5FC042300F58051FA
S3150800AEA000F500520B6113610B6113610B611361AD
S3150800AEB00B611361202341F2020103610023C36081
S3150800AEC0836041614FF4A02183618365416205492E
S3150800AED0C36103628362C36243630365D164036328
S3150800AEE010BD00BFFF3F0D03F8B5054614460846DA
S3150800AEF041B9344B9D422FD0334B9D4208BF572052
S3150800AF00FFF700F9AB68DE072ED5B0FBF4F46E68E0
S3150800AF10013C16F0010625D02821284667F06EFC6C
S3150800AF20AB6C99071AD1AB6CDA0719D4AB6C13F072
S3150800AF30020F0CBF00270627284667F063FC28691E
S3150800AF4020F07F4040EA04642C61DEB13946284689
S3150800AF50BDE8F84067F08DBC5620D1E70527EBE73A
S3150800AF600927E9E73746EAE76B68AB6DAF68DB07A1
S3150800AF7007F0E00748BF6400402F1BD003D8DFB1B5
S3150800AF80202F1BD0F8BD602F1AD0802FFAD10126AA
S3150800AF9004FB06F34101B1FBF3F30C4A203B02EA3A
S3150800AFA0C3022846012167F029FC2A63BDE8F84058
S3150800AFB067F024BC0626EBE71026E9E70826E7E74C
S3150800AFC00426E5E70000015B00000A50F8FF7F0051
S3150800AFD0F8B51E46436804460D4617461BB140F6AB
S3150800AFE0FF7167F00BFC2046FFF754FFE9896B7B7E
S3150800AFF062690B43298A22F44C520B4322F00F0252
S3150800B00013436361A368297B2A7E23F0804323F0D8
S3150800B010E203114319436B691943A160AB681BB975
S3150800B020A36843F00043A360EA69002A6BD0A368CB
S3150800B030127A43EA8253A360EA69A368927A43EADA
S3150800B0404243A360EB69A2689B8803F4C043134399
S3150800B050A360EA69A368527843EA8203A360EA69AF
S3150800B060A368527B43EAC203A360EA69A368927B9A
S3150800B07043EA0213A360EA69A368927843EA822343
S3150800B080A360EA69D37991795B0243EA8123E36095
S3150800B090EB69674A1B7803F0FD03012B02BFE368DF
S3150800B0A043F00403E360EB691B78023B012B614B19
S3150800B0B07AD8944276D0604A94420CBF01224FF067
S3150800B0C0FF3203EB421341F2944202219950EB6995
S3150800B0D05A7A04F580539A62EB695B7A1BB1E36886
S3150800B0E043F40063E360EB69DB7A63B1E36843F436
S3150800B0F00043E3604E4B9C4265D1EB694F4A1B7B8C
S3150800B10003F00F0353673FB197F8203004F58050DA
S3150800B110002B63D001230362002E30D02B7E04F56A
S3150800B120805013B14FF40043836596F82120404BB5
S3150800B130102A434961D89C425DD03F4B9C420CBFC4
S3150800B14001234FF0FF330127CF54768C3849B6F5E3
S3150800B150006F3C4B5FD88C425BD037498C420CBFA2
S3150800B16001214FF0FF3101275F54A36D324323F4C9
S3150800B170F95323F01E031343A365012383650521B1
S3150800B180204667F059FBAA6812B16968FFF7ACFE5A
S3150800B1902046297867F06DFBA36CDB4313F4405F08
S3150800B1A0FAD1F8BD00228CE794420AD0224A94428A
S3150800B1B00CBF01224FF0FF3203EB421342F29442D6
S3150800B1C083E70022F8E71C4B9C429CD1EB691B4A9B
S3150800B1D01B7B03F00F03C2F8803094E7E36997F806
S3150800B1E0221097F8212023F009030A431A4342F054
S3150800B1F00102C26190E70023A5E79C4207D00E4BE7
S3150800B2009C420CBF01234FF0FF3302279CE7002323
S3150800B210FBE70021A7E78C4207D007498C420CBF01
S3150800B22001214FF0FF3102279EE70021FBE700BF0F
S3150800B2300000015B00C0035000000A500090035054
S3150800B2405AB7012058B7012070B5436804460D4621
S3150800B2500E691BB140F6FF7167F0D0FA2046FFF77A
S3150800B26019FE22696B7BA97B22F087020B431343E5
S3150800B27043F0800323611EB32A692369117823F0FA
S3150800B280F8030B43117F43EAC113117943EA4113CB
S3150800B290517AD27B43EA011343EA82132361E268B7
S3150800B2A0296922F0F04222F47022D1E905300343DD
S3150800B2B013430A7B43EA82234A7B43EAC233E360A9
S3150800B2C0A368EA7B23F00303134343F00103A36057
S3150800B2D03EB32B69A2685B8803F4C0431343A3609B
S3150800B2E02A69A368527943EA8223A3602969626AB4
S3150800B2F08B79C8791B01000203F0700300F4E06043
S3150800B30022F4772222F4EE62034313430A7A1203E5
S3150800B31002F4E04213434A7F120402F470221343F4
S3150800B320636263692A7B23F00F0313436361C6B123
S3150800B3302B695B89A3612B695A7B3AB11E4A9442F1
S3150800B34025D19B7B1D4A03F00F0353672B69DA7BD4
S3150800B3503AB1194A944225D11B7C184A03F00F03C7
S3150800B3601367D5E901122046FFF7BEFD05212046E1
S3150800B37067F062FA282167F041FA2B78A36367F031
S3150800B3803DFAA36CDB4313F4405FFAD170BD0C4A57
S3150800B390944201BF9B7BA2F5CE2203F00F03C2F8AD
S3150800B3A08030D3E7064A944201BF1B7CA2F5CE2221
S3150800B3B003F00F03D367D4E70000015B0090035046
S3150800B3C000000A50072AF7B501F0030614461F467F
S3150800B3D04FF003012CD89500A94000FA05F21C4845
S3150800B3E0019167F060FA01991A4806FA05F267F0C2
S3150800B3F05AFA194B19499DF82000002F08BF19461B
S3150800B400012303FA04F40C60154B1649002808BFFB
S3150800B4100B461C60144B1031C3F820449DF82400D9
S3150800B420A3F6DC33002808BF0B461C6003B0F0BD4A
S3150800B430A2F10805AD00A94000FA05F20B480191F2
S3150800B44067F031FA01990A4806FA05F2CFE700BF14
S3150800B45000C4035008C4035010E4035010D403502A
S3150800B46014D4035014E4035000E0035004C40350FA
S3150800B4700CC403502DE9F04105460F461E4690467A
S3150800B4804AB101233022194C8B4002FB00443EB3DB
S3150800B49004F5825423600F21072F05EB450388BF67
S3150800B4A0A7F108044FEA0313114895BFBC00A4008E
S3150800B4B004330C3308FA04F2A140184467F0F3F990
S3150800B4C0B8F1000F0AD101213020084A01FA07F71E
S3150800B4D000FB05223EB102F582521760BDE8F081F5
S3150800B4E004F50154D6E702F50152F6E700C0035009
S3150800B4F030C00350044A054B002918BF13460122E1
