S02500004D61747465724C696768744F7665725468726561645F427265616B6F75742E733337DA
S31508006000001000204D770008B3B60608B3B6060898
S31508006010CBD70608B3B60608B3B60608B3B606085D
S31508006020B3B60608B3B60608B3B606085162000842
S31508006030B3B606086C430B08F161000869E2060866
S31508006040557C0008B3B60608B3B60608B3B6060804
S31508006050B3B60608B3B60608B3B60608B3B6060856
S31508006060B3B60608B3B60608B3B60608FD2A03088B
S31508006070B3B60608B3B60608B3B60608B3B6060836
S31508006080B3B60608B3B60608B3B60608B3B6060826
S31508006090B3B6060885830008B3B60608B3B606087D
S315080060A0B3B6060801850008DD840008B3B60608FD
S315080060B0B3B60608E9770608CD810608F3350B0856
S315080060C0EF350B08B5790608FF350B08F7350B08C9
S315080060D0A5810608FB350B082D8206080D820608E1
S315080060E0B3B60608B3B60608B3B60608B3B60608C6
S315080060F0C7D70608B3B60608B3B60608B3B6060881
S31508006100B3B60608B3B60608B3B60608B3B60608A5
S31508006110B3B60608B3B60608B3B60608B3B6060895
S31508006120B3B60608B3B60608B3B60608B3B6060885
S31508006130B3B60608B3B60608B3B60608B3B6060875
S31508006140B3B60608BDAF0008B3B60608CDD806082C
S3150800615035600608B3B606081B330B0821330B084F
S31508006160B3B60608B3B60608B3B60608B3B6060845
S31508006170013800D0FCE7704700000000000000006E
S315080061800B4A1168086806C881F30B88022181F357
S315080061901488203080F30988BFF36F8F4FF0000012
S315080061A080F31188104700BFAFF30080AFF300807B
S315080061B09C3E0120000000000000000000000000D6
S315080061C007480068006880F3088862B661B6BFF3BE
S315080061D04F8FBFF36F8F02DF00BF00BFAFF30080A2
S315080061E008ED00E0000000000000000000000000CC
S315080061F0EFF30980EFF30B82734620E9FC0F104A90
S31508006200116808604FF0300080F31188BFF34F8F94
S31508006210BFF36F8F0DF0B4FD4FF0000080F31188C7
S31508006220074A11680868B0E8FC0F82F30B8880F308
S3150800623009881847AFF30080AFF30080AFF30080FA
S315080062409C3E012000000000000000000000000045
S315080062501EF0040F0CBFEFF30880EFF30980044922
S31508006260084700BFAFF30080AFF30080AFF30080AC
S31508006270254C0108000000002DE9F04F2DED028B9A
S31508006280DFF8C0918DB0B9F800309A0706D440F20D
S31508006290F651654B654A664863F05CF9DFF8A8B1C4
S315080062A0DBF8003023B940F2F751624B5F4AF2E758
S315080062B0614C0DF1180894E8070088E807009B88E8
S315080062C05E4D8DF817300123B9F800200DF117013E
S315080062D01A462868ACF0E4FB9DF81720DBF8001096
S315080062E0023A0023096892B20C3428680DF1240A90
S315080062F0ACF0D6FB94E807008AE80700DBF8003024
S315080063001B681C7814F0200421D02868ACF0F5F935
S3150800631000286FD02868ACF0F0F904460B9862F0B4
S3150800632055FC064620460F4662F050FC02460B46D0
S3150800633039A1D1E9000162F0EDFD02460B4630466F
S31508006340394662F007FB62F055FF0B900124286876
S31508006350ACF0EFF99DF8173000284FD0981DC00013
S3150800636062F044FC2EA3D3E9002362F0A9FC41ECB9
S31508006370180B2868ACF0DDF903900B9862F026FC40
S31508006380039B064618460F4662F020FC02460B465B
S3150800639051EC180B62F0BEFD02460B4630463946F4
S315080063A062F0D8FA62F026FF0B90B9F80030286838
S315080063B09B06DBF8001027D50B9B224603F5FA73DC
S315080063C00B9391F8203089798DF81A301C4B1B787D
S315080063D0CDF800A08DF81B304346ABF018FF20B16E
S315080063E002200AF0ABFF40F0DDFC0DB0BDEC028BDD
S315080063F0BDE8F08F0B9BC0330B93A7E70B980633CA
S3150800640000EB43130B93D0E7534622468979ABF04A
S31508006410E8FEE4E7AFF300800000000060E36641B1
S315080064200000000080842E41FF6A0B0847700B08A5
S315080064305D690B08256B0B082C6F0B08E8260120F5
S31508006440271700209EB00120D02701200000000059
S3150800645073B5754B198811F0010140F0DC8041F6DF
S315080064600B22724D724BC5E9003105F11003AB6082
S31508006470704B19609A80704B1B6ADB0706D440F292
S315080064809D316E4B6E4A6F4863F064F8284658F0A3
S3150800649095F9044620B940F2A1316B4B684AF2E7F8
S315080064A059F0C8FD20B140F2A531684B644AEAE7C5
S315080064B04FF001112046ACF0DBFA20B140F2A931C9
S315080064C0624B5F4ADFE702212046ACF0F7F820B1BD
S315080064D04FF46B715D4B5A4AD5E720465C4959F033
S315080064E02DFB20B140F2AF31584B554ACBE701217D
S315080064F02046ACF073FC20B14FF46D71534B504AF3
S31508006500C1E701212046ACF080FC064620B140F2E6
S31508006510B7314E4B4A4AB6E701463C224D48ADF0E4
S31508006520AAFB80233246204605F11401ACF0CEFAC8
S31508006530802804D040F2BE31474B414AA3E7474D75
S315080065400120ABF049FE36A3D3E900232C60204690
S31508006550CDE900234FF0FF324FF0FF33ACF056F988
S3150800656020B140F2FB21394B3D4A8CE731480AF00D
S3150800657091FD012108460AF0FBFD01212868ABF0D0
S31508006580EDFF044620B140F25241304B354A7AE7D6
S31508006590354B364A98801A60354B364A98801A60C9
S315080065A0354B364A98801A60354A6FF063005A614F
S315080065B012F00AFC0B200AF027FD324B186020B9AE
S315080065C040F26341304B274A5DE704F04FFC214611
S315080065D02868ACF0F8F920B140F2FD311B4B2B4A84
S315080065E051E7082228681146ACF02BF9044620B179
S315080065F040F26741264B1B4A45E70BF0DDFD254B6C
S3150800660025481C70254B1C70254B1C7002B0BDE834
S3150800661070406DF0E1B802B070BD00BFAFF3008006
S315080066200B6020FFE20300009EB00120F426012043
S3150800663031140108EC2601200080E00F196E0B08C2
S31508006640BC6F0B085D690B08326E0B08C4680B0833
S31508006650CC700B0894270120416E0B08E826012010
S31508006660AF6F0B0838700B08301A002017B30120DB
S31508006670081A002097B20120581A002099B3012061
S31508006680801A002090270120796E0B08756F0B0879
S31508006690946E0B088CB20120186F0B0898B3012072
S315080066A097B30120000000002DE9F04F2DED028B75
S315080066B0804600680C4691461D468DB030B90327C2
S315080066C038460DB0BDEC028BBDE8F08F0668766CD7
S315080066D0B0472D280746F3D16378202B01D1002730
S315080066E0EEE7934BD8F80000049358B103682246A6
S315080066F01B6C04A99847074630B1049803689B6841
S315080067009847DDE70327F8E78A4B8B4E05934FF446
S315080067108973EE40F643EB40DB43102D06F0010685
S3150800672088BF0126082D03F0010388BF01239FEDCA
S315080067307E8B6FF0010B0193049805A90368DB684B
S315080067409847002840F0ED808DF80E0005980DF169
S315080067500E010368DB6898470746002844D19DF870
S315080067600E30402B03D0802B01D003273CE0627803
S315080067709A42E1D1012305988DF80F3003680DF18F
S315080067800F015B699847074670BB9DF80F30082BC9
S3150800679018D8002BD0D0013B072BCDD801A252F830
S315080067A023F000BFF5670008CF67000839670008BF
S315080067B0F167000839670008396700083967000873
S315080067C0FB670008102BB7D1002EB5D102E06B1E6F
S315080067D0012BB1D8002305980693036806A95B6ABE
S315080067E09847824668B1074605A87CF0EEFF84E71D
S315080067F0042DEFD0012D9FD1ECE7019B002B9BD1F7
S31508006800E8E7069B002B46D08DED088B0598514688
S31508006810036808AA9B6A984707460028E4D1DDE979
S315080068200830591E40F1FF328B456FF0100171EBAD
S31508006830020210D39DF80E20402A96D1D4E90212FE
S31508006840904208BF8B4226D0069B0AF1010A53459F
S315080068507FF672AFD8E74FF0FF31C21C994277EB4B
S31508006860020231D39DF80E20402A7FF47EAF1F0C1A
S3150800687004F1100104F11C009BB28842E4D051F8DF
S31508006880042B002AF9D0B7EB124FF6D1002BF4D01F
S3150800689092B29342F1D8002305980793036807A993
S315080068A09B6B9847074600289ED1079B002B36D03E
S315080068B082460598CDF820A003683946DB6B08AAFE
S315080068C0984758B107468FE713F5803F70F1FF32B6
S315080068D0FFF44BAF9DF80E20802AAEE7089BD90738
S315080068E004D5D9F800200999914212D19A0705D5FD
S315080068F0BDF82810B9F8042091420AD15B070ED5D5
S31508006900D8F80400B9F8042003680B999B689847DF
S3150800691028B9079B0137BB427FF60EAFC9E70027A8
S3150800692062E7A52760E700BF00000000000000003E
S31508006930281200202C120020160101000000000079
S315080069402DE9F04F2DED028B884204460D469146FF
S315080069501E4697B040D09FED248B0DF10C082A21D6
S31508006960404605AF36F01CFA98E8030087E80300AE
S31508006970DFF87CB00DF1240ABDF81400BDF8163016
S31508006980834229D036F092FA337880468DF824402F
S315080069908DF825508DF826908DF828300BB1736840
S315080069A00B93CDE907BA2DF015FC00230E9310932F
S315080069B08DF851302A230D9301230CAA8DF85030F7
S315080069C007A96B468DED128BADF830807EF0A7FDDA
S315080069D038468CF07AFACFE717B0BDEC028BBDE8E3
S315080069E0F08F00BFAFF30080000000000000000039
S315080069F0F0BA0B08000000002DE9F04F2DED028BD0
S31508006A009FED2B8B9DB00DF1080A2A21054604AC93
S31508006A10504616461F46DDF8A49036F0C1F99AE8A6
S31508006A20030084E80300DFF890B00DF1200ABDF8F2
S31508006A301000BDF81230834232D036F037FA289B60
S31508006A4080461A78CDE90A6708958DF8302012B184
S31508006A505A788DF8312099F800208DF838201AB127
S31508006A60D9E90201CDE91001CDE906BA2DF0B2FB4C
S31508006A700022022316928DF869202A22CDE91323D3
S31508006A80012312AA8DF8683006A96B468DED188B7E
S31508006A90ADF848807EF043FD20468CF016FAC6E72E
S31508006AA01DB0BDEC028BBDE8F08F00BFAFF30080D0
S31508006AB0000000000000000018BB0B0800000000E2
S31508006AC02DE9F04F2DED028B99460023CDB08DF8B8
S31508006AD0C83049938DF82831894B002700264FF690
S31508006AE0FF740C930123DFF820A2CDE92E67CDE9C8
S31508006AF03067CDE93467054688461746CDF8D8A0ED
S31508006B00ADF820410D936AB1064600F53E74A642DB
S31508006B1000F0E78030467EF0DEFD002800F0E380D6
S31508006B209836F4E78FF013FC044630B9AC242046B7
S31508006B304DB0BDEC028BBDE8F08F05F53E763046CC
S31508006B408BF08BFFB4F868308DF8C880ADF820312B
S31508006B5094ED028B6A3420212046ADF0F5F9CDE993
S31508006B600C40684B4FF4C8710E93002309A8CDE971
S31508006B7009330F930B93CDF870A088F09FFA099B01
S31508006B8053B90B240BA87DF013FA0AA87DF010FA66
S31508006B9009A87DF00DFACAE74FF4C8710AA888F06B
S31508006BA08DFA0A9B002BECD04FF4C8710BA888F01D
S31508006BB085FA0B990029E4D0099B0A9A10934FF499
S31508006BC0C8732846CDE91223CDE9141310AA414605
S31508006BD011938FF03CFC08B10446D3E7414628469A
S31508006BE012AA8FF016FC0028F6D14146284614AAA8
S31508006BF08FF0C9FB0028EFD1109B0DF1B80A169348
S31508006C00119B0DF1700B1793129B8DED008B18934A
S31508006C10139BCDE905AB1993149B1AAA1A93159BD6
S31508006C2018A91B9336AB079330AB049334AB039385
S31508006C300EAB029316A88FF046FB0028CCD10BA802
S31508006C407DF0B6F90AA87DF0B3F909A87DF0B0F988
S31508006C50B9F1000F12D1D5F8940300283FD0036884
S31508006C609B689847D5F894331A6880B354694146A7
S31508006C705A461846A04798B1044658E7D9F800304E
S31508006C8048465B699847036859465B6A984708B956
S31508006C90C5244CE79DF86031CDF824918DF828314C
S31508006CA05146304690F06DF80028E5D10CA93046DB
S31508006CB08FF0D6FA0F9905F569703AF079F927B188
S31508006CC095F8B233013385F8B23300242FE74146ED
S31508006CD01846D26890470028E2D1102427E70324F3
S31508006CE025E70B2423E7BDF864319FED038BADF848
S31508006CF020318DF8C88034E700000000000000004D
S31508006D0034010C0898D80B08CCEE0B0800000000DC
S31508006D102A2110B57248ADF5956D02913EF056FEE2
S31508006D2008B1ACF0FFFE029002A96D483EF0F8FCEF
S31508006D300028F6D1029B2A2BF3D167A3D3E90023B7
S31508006D406848CDE908233EF05DFE0028E9D1002217
S31508006D500023644808A9CDE908233EF009FD002868
S31508006D60DFD1DDE9080240F6FA035F499A4208BF17
S31508006D708842D6D101215D488DF807103EF00AFEFB
S31508006D800028CED18DF807000DF1070157483EF0CF
S31508006D909BFC0028C5D19DF80730002BC1D0504870
S31508006DA03EF05EFC0028BCD14D4803A93EF0B8FC75
S31508006DB040F20124A042B4D14D494E4897F016FB43
S31508006DC00028AED140224B4804AB0AA93EF0FCFC91
S31508006DD00028A6D1049B0E2BA3D10F2244490AA84A
S31508006DE0ACF012FF00289CD14349424897F0FEFABE
S31508006DF0002896D104AB40223E480AA93EF0E4FC9E
S31508006E00049B03438DD19DF82810002989D1394860
S31508006E1097F0ECFA002884D14022364805AB1AA927
S31508006E203EF0D2FCA0427FF47CAFF12233493448CD
S31508006E303EF022FE00287FF474AF4FF4007230480B
S31508006E4006AB2AA93EF012FD00287FF46AAF069A1F
S31508006E50F12A7FF466AF29492AA8ACF0D5FE024686
S31508006E6000287FF45EAF014625483EF005FE00285F
S31508006E707FF457AF4FF40072214807ABAAA93EF03A
S31508006E80F5FCA0427FF44DAF16483EF0F5FB00280E
S31508006E903FF447AF15483EF0EFFB00283FF441AFFB
S31508006EA017483EF0E9FB00287FF43BAF3EF042FE70
S31508006EB000287FF436AF0B483EF0DEFB00283FF48F
S31508006EC030AF0A483EF0D8FB00287FF42AAF0DF50C
S31508006ED0956D10BDAFF30080316EE595FA08000098
S31508006EE00573080001720800316EE59506730800FF
S31508006EF0DAF30B0802730800D9F30B08E8F20B085B
S31508006F000272080000000000054B186803689969BA
S31508006F1001A3D3E90023084700E0373B015D0300DE
S31508006F20281300200000000070B505463E4C8AB0C4
S31508006F3020B10023008823604CF01EFB3B48ABF0D1
S31508006F40ACFB3B4E3B4B304633603B4B73604CF0DF
S31508006F50EFFC0021304657F031FC31A3D3E900237A
S31508006F60A062C4E90623A6F00AF9D4E90623194360
S31508006F7010434FF0FF33C4E90601CDE900014FF095
S31508006F80FF32A06AABF042FC02224FF0FF31A06A42
S31508006F90ABF057FC01204CF037F84FF40073002291
S31508006FA02649A06AABF092FDB0F5007F36D10023E2
S31508006FB09422CDE9073309933C23CDE9033205939F
S31508006FC09623A06A03A9069358F014F825B3287CDB
S31508006FD04CF06CFD0546E0B9A06AABF051FF4CF0E9
S31508006FE00DFD4BF0F3FF20B14FF48070002149F0FE
S31508006FF091FB4BF0FBFF20B14FF40060002149F0F4
S3150800700089FB0120ABF0E8F80D4A0E49A06AA6F004
S31508007010ADF828460AB070BDFF20D9E70725F8E77E
S3150800702009D5015520000000F8130120690345EC35
S315080070309CAA0120D137050890AA012090A8012012
S3150800704015D10A0855D10A0810B5054C237833B965
S31508007050044B13B1044800E000BF0123237010BDA0
S31508007060501901200000000048680C0808B5034BB9
S315080070701BB10349034800E000BF08BD000000003B
S315080070805419012048680C08A3F5803A704700BFD8
S31508007090174B002B08BF134B9D46FFF7F5FF002142
S315080070A08B460F461348144A121AACF0E4FD0E4BF1
S315080070B0002B00D098470D4B002B00D09847002096
S315080070C0002104000D000D48002802D00C4800E0FD
S315080070D000BF62F07FFC2000290045F07FFC62F0CB
S315080070E065FA00BF0000080000000000000000006C
S315080070F000100020A8190020A82202200000000085
S315080071000000000010B5224C02F0D4FD236F23F0D6
S31508007110070343F00203236764F077FDD4F82031B0
S31508007120002023F0070343F00103C4F82031D4F804
S31508007130283123F0070343F00103C4F82831D4F8B3
S31508007140403123F0030343F00203C4F84031D4F876
S31508007150603123F0030343F00203C4F86031D4F826
S31508007160403223F0030343F00203C4F84032D4F854
S31508007170003223F0070343F00203C4F80032D4F8C0
S31508007180083223F0070343F00203C4F8083210BD9F
S315080071900080005008B5044864F08AFBBDE8084042
S315080071A0024864F085BB00BFD8420B08F0420B08C2
S315080071B008B5044864F0AAFBBDE80840024864F034
S315080071C0A5BB00BF08430B0820430B0818B1034BA7
S315080071D01860002070472520704700BFCC19012091
S315080071E010B5054C0549206801F042FD2068BDE848
S315080071F01040FFF7EBBF00BF30100020041000203E
S3150800720030B50C46A36805460A2B114685B029D920
S31508007210403B0C2B07D981222146284605B0BDE8FC
S3150800722030407DF06FBA0C2BF5D801A252F823F046
S3150800723095730008B3730008D3730008F173000848
S315080072400F74000817720008177200083D740008CA
S315080072501772000817720008177200085F74000892
S31508007260817400085A1E00230193092A06D8DFE80C
S3150800727002F015202D3A45525F6B788401A8ADF8C7
S315080072800830A2F063F838B92146284601AA30F03A
S3150800729063F9002840F004818522BDE701A8A2F021
S315080072A0F6F80028F8D12146284601AA30F03CF91C
S315080072B0EFE701A88DF80830A2F0CAF90028EBD14B
S315080072C02146284601AA30F075F9E2E701A8ADF88B
S315080072D008309FF06DFD0028DED12146284601AA18
S315080072E030F04EF9D5E701A89FF0A3FD0028D3D1C9
S315080072F02146284601AA30F029F9CAE701A88DF8DF
S3150800730008309FF0E3FD0028C6D12146284601AA89
S3150800731030F064F9BDE701A8ADF808309FF025FE06
S315080073200028B9D12146284601AA30F02FF9B0E73E
S3150800733001A802939FF05DFE0028ADD1214628469C
S3150800734001AA30F0A5F9A4E701A8ADF808309FF026
S3150800735094FE0028A0D12146284601AA30F09EF9BD
S3150800736097E701A802939FF0C9FE002894D1214609
S31508007370284601AA30F098F98BE701A8ADF808303D
S315080073809FF003FF002887D12146284601AA30F03E
S3150800739091F97EE7002301A8CDE90133A2F01DF893
S315080073A000287FF479AF2146284601AA30F02EF945
S315080073B06FE7002301A80193ADF80830A2F0A8F8FA
S315080073C000287FF469AF2146284601AA30F00CF957
S315080073D05FE7002301A8CDE90133A2F07DF9002873
S315080073E07FF45AAF2146284601AA30F037F950E70C
S315080073F0002301A8CDE901339FF008FF00287FF498
S315080074004BAF2146284601AA30F014F941E700237C
S3150800741001A8ADF804308DF80630ADF80830ADF89F
S315080074200A30ADF80C309FF035FF00287FF434AFF2
S315080074302146284601AA30F025F92AE7002301A8A3
S315080074408DF804308DF805309FF091FF00287FF401
S3150800745023AF2146284601AA30F044F919E700234C
S3150800746001A8CDE90133ADF80C30A2F095F8002853
S315080074707FF412AF2146284601AA30F021F908E721
S31508007480002301A8CDE901330393A2F06CF9002883
S315080074907FF402AF2146284601AA30F017F9F8E62C
S315080074A005B030BD37B504460D4610462146019253
S315080074B035F046FF636801983F2B4DD8292B07D82E
S315080074C0033B052B36D9C32221467DF01BF94FE035
S315080074D02A3B152BF7D801A252F823F0D5750008D8
S315080074E0C7740008C7740008C7740008C774000882
S315080074F0C77400088F750008CB7500087B750008EF
S3150800750099750008F3750008FD75000807760008E8
S3150800751085750008C7740008C7740008C774000892
S31508007520C774000869750008C7740008E97500087B
S31508007530A3750008052BC6D801A252F823F000BF90
S31508007540B7750008AD750008C7740008DF75000830
S31508007550C7740008C1750008B3F5407FB3D12A4641
S315080075602146FFF74DFE03E02A46214663F044FB19
S3150800757003B0BDE8304035F045BF2A46214663F0E2
S315080075807DFBF5E72A46214663F098FBF0E72A4695
S31508007590214663F0AFFBEBE72A46214663F0EFFB93
S315080075A0E6E72A46214663F00DFCE1E72A4621462E
S315080075B063F06FFCDCE72A46214663F0E2FCD7E776
S315080075C02A46214663F00EFDD2E72A46214663F095
S315080075D0B4FDCDE72A46214663F02EFEC8E72A46C3
S315080075E0214663F052FEC3E72A46214663F0B6FEFB
S315080075F0BEE72A46214663F04CFFB9E72A462146EC
S3150800760063F063FFB4E72A46214663F07AFFAFE7E3
S315080076102DE9F041484C8EB0264601AD0FCE0FC578
S31508007620336814342B6006AD0FCC0FC594E80F00F1
S3150800763085E80F0001213A2001F024FF0121572097
S3150800764001F020FF4FF480733C4EADF81C303C4BE4
S315080076503046039301A906AB059302F0D1FF012337
S3150800766004220321022003F0E1F802210023084640
S31508007670012203F0DBF8012304221946022003F055
S31508007680D5F8042200210123022003F0CFF82D4C5F
S315080076902D4B0125C4F8C8344FF00213C4F8C4347E
S315080076A003F58033C4F8CC341C2304F50058C4F819
S315080076B0B4344FF4487008F0ADFF04F58057142031
S315080076C0C8F8A05008F0A6FF2320C7F8A05008F075
S315080076D0A1FFB9213046C8F8A05064F005FB002385
S315080076E003211A460220C7F8A05003F09FF800238A
S315080076F002211A46084603F099F82B462946002225
S31508007700022003F093F800222B461146022003F0CC
S315080077108DF8304602F09AFD00215720C4F8C814A7
S31508007720C4F8C414C4F8CC14C4F8B41401F0AAFEFE
S315080077300EB0BDE8F08100BF38430B0800000A50C0
S31508007740E070720000C003500200010008B500F0A6
S315080077502DF8124B12498B4212D30020114B1249B5
S315080077608B4218D3FFF794FC186850F822405868E3
S3150800777040F82240013298688242F5D30C33EAE792
S315080077800022F8E71C6844F8220001325C68A2422D
S31508007790F8D30833E4E70022F8E700BF50680C087E
S315080077A05C680C085C680C085C680C084FF480413F
S315080077B04FF0FF3010B5114B114A9A60D3F8882064
S315080077C042F47002C3F888200E4A91660E4901F504
S315080077D0005210660D4850660220C3F8D000BFF369
S315080077E04F8FBFF36F8F01244FF440330848C0F81A
S315080077F08041D36004600B6110BD00BF00ED00E05E
S31508007800006000080090005000800044F7FF370031
S3150800781000E100E0014B1868704700BF38110020EE
S31508007820014B1860704700BF38110020084B1B6FCA
S3150800783003F00703022B04D0032B05D0012B05D038
S31508007840FEE7044B18687047034BFBE7034870478D
S3150800785000800050381100203C110020002D310115
S3150800786008B5FFF7E3FF054B1B6FC3F3033301337B
S31508007870B0FBF3F0024B186008BD00BF0080005053
S31508007880341100200048704700B4C404014B18683E
S31508007890704700BF3C110020054B1860054B1B6F55
S315080078A003F00703032B01D1FFF7DABF704700BFC8
S315080078B03C1100200080005000487047002D31011F
S315080078C04FF0B4439868C0F304400C2822D8DFE888
S315080078D000F0092121212121071719211B1D1F004D
S315080078E00F4870479B6803F04073B3F1807F13D04D
S315080078F0B3F1007F12D00B4A002B08BF1046704721
S315080079000948704709487047094870470948704749
S31508007910094870470020704708487047084870476C
S31508007920405DC60000093D000024F400C0EA2101BC
S3150800793080BA8C010048E801005A620280841E0061
S3150800794040420F00014B1868704700BF40110020E5
S31508007950BFF34F8F0549064BCA6802F4E06213432A
S31508007960CB60BFF34F8F00BFFDE700BF00ED00E01F
S315080079700400FA054FF000639A6A02F17841B1F5FE
S31508007980C04F03D21168074A914203D000230370FF
S3150800799083607047012202709A6A926842609B6A05
S315080079A09B69F5E707B0CD5E08B54FF00053024A6C
S315080079B01A60FFF7CDFF00BF02020FF073B54D4BFB
S315080079C004461A781AB102221A7002B070BDCDE9BF
S315080079D000220028F9D001261E7064F032F9464DBF
S315080079E0464B18605DF0AAF82B785BB900F09AFD53
S315080079F040B943480823434A4349006856F088F982
S31508007A0000B92E70414B5A6E22619B6E404A6361E3
S31508007A104FF4804393663F4B5968A1613E4999608C
S31508007A20196E2160596E6160196CA160596CE1602C
S31508007A303A49086C1864496C5964012151661B6EF1
S31508007A409C043FD5364AD368D807FCD4354B1A6808
S31508007A50531C3CD04FF480139340334A13660423D7
S31508007A60314C23664FF40073236663F084FE0130BD
S31508007A700BD063F080FE40F2011398421FBF4FF40B
S31508007A80005323664FF4804323660823264C684632
S31508007A9023664FF4805323664FF0006323664FF442
S31508007AA0002301A9636663F00DFE009B2366019B14
S31508007AB063662B78002B88D0124B1A6822665B689F
S31508007AC0636682E7194AD368D907FCD4BEE7184B20
S31508007AD01B78002BC3D14FF400720D4B5A6603F581
S31508007AE0A6235B68002BBAD14FF480120E4B1A6698
S31508007AF0B5E700BF50B101204EB10120F4190120AD
S31508007B0048110020EC19012000710800008000507F
S31508007B10009000500080004455CEAC0000C00054D0
S31508007B200000044044110020009000440000045066
S31508007B304FB1012070B5204D04462E78012E02D093
S31508007B4001232B7070BD0028FCD063F014FE0130B1
S31508007B500BD063F010FE40F20113984205D0174B84
S31508007B60174A5E66D368DE07FCD42268154B1A6688
S31508007B7062685A66A2681A64E2685A64A269D007FB
S31508007B8044BF00229A60104B1A68013207D10F4A87
S31508007B90127822B90E494968C90748BF1A6022698E
S31508007BA00C4B5A6662699A665CF0D0FF0A4B1868F5
S31508007BB064F04DF80023C4E750B10120009000405E
S31508007BC00000044000800044441100204FB1012009
S31508007BD000C0055000800050F419012070B54FF020
S31508007BE00064A36A03F17842B2F5C04F21D21A683D
S31508007BF0124B9A421DD1124E337813F0FD0F1BD14A
S31508007C001048FFF7DBFE01254FF480330E4A0F4973
S31508007C10C2F88051CB6015600D4A1361A36ADB690F
S31508007C20984704460748FFF785FF04B9357020468C
S31508007C3070BD4FF48174FAE70024F8E707B0CD5E0B
S31508007C404FB10120D019012000E100E000A0004456
S31508007C500090004413B51F4B1B7803B9FEE70023B9
S31508007C601D4CCDE900336A4608231C49206856F0A6
S31508007C704FF8F0B91A4AD2F84031D2F840211F2BF2
S31508007C804FF0010310D9203A9340019A1343019308
S31508007C9008236A461149206855F0F0FF4FF0005353
S31508007CA0104A1A60FFF754FE9340009A1343009354
S31508007CB0EEE70D4B9842F1D1094AD2F84031D2F895
S31508007CC040211F2B4FF0010302D9203A9340DEE7EB
S31508007CD09340ECE750B101204811002000710800DC
S31508007CE0008000440B020FF00BE000F038B54FF0AF
S31508007CF00065AB6A044603F17842B2F5C04F12D26A
S31508007D001B6B03F17843B3F5C04F0CD20648FFF757
S31508007D1055FEAB6A20461B6B5B689847BDE8384042
S31508007D200148FFF707BF38BDF819012013B54FF012
S31508007D3000640190A36A03F17842B2F5C04F15D2E8
S31508007D401B6B03F17843B3F5C04F0FD20948FFF711
S31508007D5035FEA36A01211B6B01A89B699847044657
S31508007D600448FFF7E7FE204602B010BD4FF48174C1
S31508007D70F9E700BFF819012037B54FF00065CDE9DE
S31508007D800021AB6A044603F17840B0F5C04F12D221
S31508007D901B6B83B10948FFF711FEDDE90021AB6AC9
S31508007DA020461B6B5B6A984704460448FFF7C2FEE9
S31508007DB0204603B030BD4FF40174F9E7F8190120E5
S31508007DC037B54FF000650191AB6A044603F1784276
S31508007DD0B2F5C04F15D21B6B03F17843B3F5C04F0C
S31508007DE00FD20948FFF7EAFDAB6A20461B6B0199DB
S31508007DF09B6A984704460448FFF79CFE204603B052
S31508007E0030BD4FF40174F9E7F819012037B54FF082
S31508007E100065CDE90021AB6A044603F17840B0F568
S31508007E20C04F16D21B6B03F17843B3F5C04F10D27F
S31508007E300948FFF7C3FDDDE90021AB6A20461B6B45
S31508007E409B6B984704460448FFF774FE204603B028
S31508007E5030BD40F20114F9E7F819012037B54FF0A3
S31508007E6000650191AB6A044603F17842B2F5C04F4A
S31508007E7015D21B6B03F17843B3F5C04F0FD20948EF
S31508007E80FFF79CFDAB6A20461B6B0199DB6B984795
S31508007E9004460448FFF74EFE204603B030BD40F2C4
S31508007EA00114F9E7F819012010B40A681378022BAF
S31508007EB011D014203023147913FB040307481B58E8
S31508007EC05079C340DB4303F00103137008465DF89D
S31508007ED0044B44F0A3BD5DF8044B704730C0035013
S31508007EE037B50468012105463A2001F0CBFA00238C
S31508007EF001226179207902F099FC14223023217934
S31508007F0013FB01230E4A9B586279D340DB4303F0E7
S31508007F1001032370A379022B0ED100F089FA2A46B1
S31508007F200849607900F0AEFA0123024661792079A2
S31508007F30CDE9003302F022FC002003B030BD00BFBB
S31508007F4030C00350A97E000802681378022B24D09B
S31508007F5014213023107913FB001310495B5851790B
S31508007F60CB40917903F00103012912D1508843EAE5
S31508007F7040034FF6E07063F03F039BB2834202D1A1
S31508007F801170538070474FF6DF718B42F9D100218B
S31508007F90F6E711B983F001031370704730C0035038
S31508007FA010B5012243780178847830209A40054B31
S31508007FB000FB01331CB903F501531A6010BD03F524
S31508007FC08253FAE700C0035010B5012243780178BE
S31508007FD0847830209A40054B00FB01331CB903F521
S31508007FE082531A6010BD03F50153FAE700C0035027
S31508007FF00122437801789A4030235943014B5A505D
S31508008000704700BF40F00350102130230246007825
S3150800801013FB0013054950785B58C34003F0010071
S3150800802093780BB980F00100704700BF30C0035049
S315080080302DE9F04F9A46554B85B01B7806460F46F4
S315080080401546DDF83C909DF844B0DDF85080002BCD
S3150800805000F08C80072A00F28B800E9B002B00F024
S315080080608780B9F1000F00F08380129BB3F5006F8B
S315080080707EDC012802D1109B002B79D0444B03EB00
S3150800808005131B7B002B75D0424C10220021684635
S31508008090ABF0F1FD04EB45141022002F58D13946F8
S315080080A02046ABF0E8FD43F210036380BBF1000FF6
S315080080B003D1E37843F00303E370364A0E9B02EBE1
S315080080C0451CCCE90193129BCDF800A0013BC3F3F4
S315080080D00A009DF84C30690103F003039B0643EA46
S315080080E0001E53582C48012E00EA03004EEA0003EE
S315080080F0535041D113230CF1100ECCF80C309CE8E8
S315080081000F008EE80F006FF00301DCF81C20109BAF
S3150800811061F39F02012FCCF81C20CCF8143003D150
S31508008120CCF81890CCF804300027194A290102EB3C
S31508008130051342F80180159A28465A606946224670
S315080081409F605E7302F0F2FB384605B0BDE8F08F1B
S3150800815000212046ABF08FFD4FF444736380BBF1DA
S31508008160000FAAD1E37843F03003A5E70B48ECE704
S315080081700B48EAE70B48E8E7B8F1000FD4D19CF8BA
S31508008180023068F304138CF80230CDE751B10120B0
S31508008190141A0120941A01200F80FFF3028000F0C0
S315080081A0018000F0078000F038B5124B05461B78B1
S315080081B0DBB1E0B163F045FD0F4A00231146147B9D
S315080081C054B92B6001251A0101EB03131D738C505A
S315080081D063F03DFD204638BD0133082B02F110023D
S315080081E0EDD163F034FD0548F5E70548F3E70548A2
S315080081F0F1E700BF51B10120141A0120048000F0F4
S31508008200028000F0018000F0154B13B518680023B2
S3150800821001908DF8043063F014FD124B1C7824B1DC
S3150800822063F015FD104802B010BD01221A7063F004
S315080082300EFD0E4B01A81C731C7783F82C4083F89F
S315080082403C4083F84C4083F85C4083F86C4083F8E4
S315080082507C4008238DF8073002F036FB2046E2E71B
S31508008260BC430B0851B10120038000F0141A012009
S3150800827008B50A4A12785AB107280BD8084A02EBF9
S3150800828000131B7B43B1002102F010FB002008BD40
S315080082900448FCE70448FAE70448F8E751B1012026
S315080082A0141A0120028000F0018000F0078000F017
S315080082B008B50A4A12785AB107280BD8084A02EBB9
S315080082C000131B7B43B1012102F0F0FA002008BD20
S315080082D00448FCE70448FAE70448F8E751B10120E6
S315080082E0141A0120028000F0018000F0078000F0D7
S315080082F00D4B1B7893B1072812D889B10B4B03EBAA
S3150800830000131B7B73B10A4BDA6A012303FA00F0E8
S3150800831010401ABF00200B70087070470548704758
S31508008320054870470548704751B10120141A0120C5
S3150800833000000450028000F0018000F0078000F081
S3150800834010B50B4A0C46127862B107280CD859B1F9
S31508008350084A02EB00131B7B43B102F059FB20606D
S31508008360002010BD0448FCE70448FAE70448F8E78B
S3150800837051B10120141A0120028000F0018000F09A
S31508008380078000F02DE9F843174B1F6D5B6D1F4002
S3150800839000D5FEE701260025144CDFF85480DFF8E7
S315080083A05490374217D0C8F8506023689BB1A1682B
S315080083B0284601316268A1609847637B012B0AD180
S315080083C048B909EB45131A7B60F341021A731A7F01
S315080083D060F341021A770135082D4FEA460604F183
S315080083E01004DED1BDE8F88300000450141A0120F9
S315080083F000200450941A012070B5044601250B4E3E
S3150800840004B970BD94FAA4F0B0FA80F005FA00F346
S3150800841006EB001224EA03045368002BF0D0117B04
S3150800842011B191689847EBE79847E9E7941B012053
S3150800843008B5192001F05CFD28B14FF00072074B12
S31508008440C3F880211A601A2001F052FD28B14FF0B6
S315080084508062024BC3F880211A6008BD00E100E083
S3150800846038B505460C4663F0ECFB0022044B03EBDB
S3150800847005135C601A73BDE8384063F0E8BB00BFBB
S31508008480941B0120F8B505460F46164663F0D9FB3E
S31508008490104B05F0FC02D3F824140023EC1804F062
S315080084A00304144321FA04FC1CF0010F07D001331E
S315080084B0042BF3D1FF2463F0CAFB2046F8BDFF2C3A
S315080084C0F9D00122044B03EB0413C3E901761A73AE
S315080084D0F1E700BF00C00350941B0120074BD3F8F7
S315080084E02404D3F8202403F50053104000F0553037
S315080084F020F05020C3F82004FFF77EBF00C00350C9
S31508008500074BD3F82404D3F8202403F5005310406E
S3150800851000F0AA3020F0A020C3F82004FFF76CBFB3
S3150800852000C00350024B1968024B186855F0D0BAC0
S315080085304C1100204811002037B5920004460D461C
S315080085400192ABF0A1FD431C0BD060B92946204629
S31508008550019AABF059FB0028044808BF002003B075
S3150800856030BD0348FBE70348F9E700BF10E000F019
S3150800857021E000F024E000F013B5044601A802F05B
S31508008580D5FA9DF80630012223804FF48073002027
S315080085906380054B9B680A3303F01F0302FA03F353
S315080085A0636002B010BD00BF0080E00F10B504463E
S315080085B0ABF072FD431C15D0B0B90C4B20469B6836
S315080085C00A3303F01F020123934023F003032344D5
S315080085D0984201D1002010BD50F8042B0132F7D083
S315080085E00348F8E70348F6E70348F4E70080E00F96
S315080085F00EE000F021E000F024E000F008B563F09A
S3150800860019FB014B186008BDD4230120014B1868DB
S3150800861063F014BBD423012038B141B1013AB2F555
S31508008620006F044838BF0020704703487047014868
S31508008630704700BF037000F0027000F038B50446BA
S315080086400D4663F0FEFAA3889BB223B92B6063F04C
S31508008650FEFA064838BD142263889BB202FB03441F
S3150800866008342C6063F0F3FA0020F3E70B7000F08F
S31508008670F8B5044616460F4663F0E3FAA388E2887F
S315080086809BB29A42054605D80023336063F0DFFAA9
S315080086901748F8BD1422238807F1100C9BB202FB79
S315080086A003433A460833174603CF674518605960AF
S315080086B03A4603F10803F6D114223868186023886D
S315080086C028469BB202FB0343083333602388E288BB
S315080086D09BB20133B3FBF2F102FB11339BB2238049
S315080086E0A38801339BB2A38063F0B1FA0020D0E7D8
S315080086F00A7000F090F83530022B0DD11422302381
S31508008700417F90F8210013FB0123044A9B5823FA62
S3150800871000F000F0010070470020704730C0035099
S31508008720002313B51D4A52F8044B94F821108142D0
S315080087300ED00133042BF6D102B010BD0028FBD1B0
S315080087409DF80730002BF7D0A068FFF791FDF3E7F7
S3150800875094F83530022BEFD12046FFF7CBFF637E26
S315080087602076022BE8D194F8323003F0FF02002B72
S31508008770E2D1A0680DF107018DF80720FFF7B8FDD3
S31508008780237E1BB194F83330002BD7D00023A06882
S3150800879084F83330FFF78CFDCEE700BF882401202C
S315080087A030B51049104A0B782BB9C2E90033C2E933
S315080087B0023301230B700C4C0023214651F8045B4D
S315080087C0854208D00133042BF8D1002154F8043B24
S315080087D01BB942F82100002003E001310429F5D134
S315080087E0024830BD52B1012088240120027000F0F1
S315080087F010B50446FFF708FD002104F10800FFF74D
S31508008800D3FC014620B904F10C00FFF7CDFC00B1FA
S31508008810004810BD0E7000F090F8363053B90421A8
S3150800882003790A4A03F239135B01D150022203681D
S315080088305A617047022B07D10068816C11F002015A
S3150800884018BF062163F046BA704700BF00C0035040
S3150800885090F836306BB9012203685A610268936949
S31508008860D907FCD504210379074AB9335B01D150EE
S315080088707047022B07D10068836C9B074CBF052104
S31508008880092163F027BA704700C0035010B590F865
S31508008890363004466BB9042203685A610268936944
S315080088A09907FCD523790C4AB9335B0110219950F5
S315080088B010BD022BFCD10068836CDB074CBF052179
S315080088C0062163F007FA237941F294425B0103F12A
S315080088D0A04303F57033E9E700C00350012370B5E0
S315080088E080F8303090F8363004460E4686B0A3B984
S315080088F005682435204663F0F1F80D4B326803937A
S31508008900002302937368616901930123E068009369
S3150800891004942B4663F01AF807E0022B02D1056887
S315080089203C35E7E7002380F8303006B070BD00BF5D
S31508008930658B0008F8B507460D461646FFF76CFE28
S3150800894000286BD1152001F0E1FA0446FA6A9388EB
S315080089509BB213B197F83230E3B197F83630F3B9D2
S315080089603B689C6904F002041CB93846FFF78EFF81
S315080089700024012387F8343097F83630CBB92E44D3
S31508008980B542386810D183699A06FCD51CB3002411
S315080089902046F8BD002CDAD0FFF7F4FCD6E7022B08
S315080089A0E3D13B689C6CDDE715F8011B63F01EFA02
S315080089B0E6E7022BEAD12E44B542386806D142F2E0
S315080089C02003826C33EA0202FBD1DFE715F8011BAC
S315080089D063F085F9F0E797F8363053B910213B79FB
S315080089E00F4A03F239135B01D15008223B685A61DA
S315080089F0CEE7022BCCD13868836CDB074CBF092144
S31508008A00214663F067F942F2944210213B795B01F3
S31508008A1003F1A04303F570339950B9E70446B7E765
S31508008A2000C0035010B5044680B190F832302BB917
S31508008A30FFF760FE10B9A068FFF71AFC002094F84B
S31508008A4032300133DBB284F8323010BD0048FCE71F
S31508008A50027000F010B50446A0B190F832309BB110
S31508008A6090F83230012B05D1FFF744FE10B9A06803
S31508008A70FFF71EFC002094F83230013BDBB284F885
S31508008A80323010BD0148FCE70148FAE7027000F0F1
S31508008A90057000F037B590F835500446022D1DD103
S31508008AA0012290F82230457E817F9A403020164B6D
S31508008AB025B900FB013303F5015305E0012D07D164
S31508008AC000FB013303F582531A60002003B030BD62
S31508008AD0247E00FB0133002CF4D1ECE7012DF4D100
S31508008AE0037E73B911238DF80730FFF79BFF2A46DB
S31508008AF020460DF10701FFF71DFF2046FFF7AAFFE5
S31508008B00E3E71323EFE700BF00C00350F0B587B0D3
S31508008B1005461646FFF780FD0446F0B90493104B48
S31508008B20CDE901166A46A86A01A903960593FFF7D7
S31508008B309FFD044688B995F8303073B92846FFF783
S31508008B4087FE28460099FFF7C9FE95F83530032BAE
S31508008B5003D028462C76FFF79DFF204607B0F0BDC8
S31508008B60017000F073B5906A01A91446FFF766FD17
S31508008B700546204662F098FF3A4B9D4232D094F85B
S31508008B803610019B00293CD12068826C12F40072D1
S31508008B902BD0354A99601A614FF40072236803F5A1
S31508008BA000539A6463F04DF801990646CD6835B1CD
S31508008BB04A688B682046D31A0A680969A847A06AD2
S31508008BC001A962F0A4FFA06A8588ADB2002D3AD04B
S31508008BD001A9FFF733FD20460199FFF77FFE3046CE
S31508008BE063F035F8012002B070BD816CC80526D542
S31508008BF01E499A60196123684FF4807203F5005381
S31508008C00CFE702291BD12168CA6C12F400720AD078
S31508008C10154A1A6100229A604FF40072236803F518
S31508008C200053DA64BEE7C96CC90508D50F499A60CE
S31508008C30196123684FF4807203F50053F1E70022A7
S31508008C401A619A60AEE7012320462376FFF722FFD2
S31508008C5094F8353084F83050032BC0D02046FFF7FF
S31508008C60DBFDBCE70B7000F00D7000F00C7000F037
S31508008C702DE9F04104468CB0884F04AE0D460FCF5F
S31508008C800FC697E80F0086E80F00102200216846F5
S31508008C90AAF0F1FF002C00F0FE8025B9804E304680
S31508008CA00CB0BDE8F081602200212046AAF0E3FF5F
S31508008CB02B6820462360022384F836302B7C2371E8
S31508008CC0FFF76EFD06460028E9D12B7F754A84F822
S31508008CD035302B68934240F0B88056236362724B56
S31508008CE023614FF4702363610123ADF80630002336
S31508008CF084F8316084F83060D5E90912A1620B80E6
S31508008D00A16A3A204B80A16A684E8B8084F830307D
S31508008D10E2621380E26A01215380E26A938084F852
S31508008D20313084F8333002238DF81D30AB68069352
S31508008D306B8AADF82030AB8AADF81E30AB7D8DF866
S31508008D401C30AB690993CDF82CD000F09BFB0121B0
S31508008D50606A00F097FB2B79002B00F081800121D7
S31508008D60362000F08FFBD6F8203223F0070343F0B5
S31508008D7003031022C6F820322B7C4D4F204607EB02
S31508008D804313C3F89424A97B2B7C2A7B07EB431354
S31508008D9042EA0142C3F8AC242B7CE97B6A7B253383
S31508008DA042EA014207EB43135A602B7B0121E37623
S31508008DB0AB7BE3776B7B2377EB7B84F820306B7F89
S31508008DC06377AB7F84F82130EB7FA37795F8203063
S31508008DD084F8223062F0F8FD064600287FF45FAF7B
S31508008DE062F02FFF2A7F8046032A40D141F2944140
S31508008DF002202B7C07EB431358502B7C95F8200058
S31508008E00E97F07EB431341EA004103F5A5531960CF
S31508008E10297CA87F07EB411741F29C416B7F43EA07
S31508008E2000437B508DF8002006238DF810302B79EF
S31508008E30286804A963B362F065FF2046FFF7D8FCEB
S31508008E400646404662F003FF29E71A4A93427FF432
S31508008E5025AF57236362184B23614FF4801342E70B
S31508008E60D6F8203223F0070343F0010381E7022AEC
S31508008E70DAD194F821001149FFF7F2FAFFF7D8FA88
S31508008E804FF4007320462383A676FFF703FECBE74D
S31508008E9062F034FFD1E70A4E01E700BF00440B0831
S31508008EA0037000F00000015B01000F000080005015
S31508008EB000C0035000000A50010010002187000876
S31508008EC0027000F0044BD3F88420D206FBD4D3F802
S31508008ED08400C0F381107047004000502E4B984222
S31508008EE04AD022D82D4B984240D014D82C4B9842C1
S31508008EF039D00AD82B4B984232D02B4B98422FD0D8
S31508008F002A4B98422CD000207047294B9842FAD118
S31508008F10284B186F7047284B98422AD0274B9842FF
S31508008F20F1D1244BD3F880007047254B98422BD0BB
S31508008F3009D8244B984223D0234B9842E3D11D4BA2
S31508008F40D3F88C007047214B984221D003F574035F
S31508008F5003F510539842D6D1164BD3F898007047AC
S31508008F60144B986D7047134B586E7047114B586FDA
S31508008F707047104B986F70470E4BD3F884007047B4
S31508008F800C4BD3F8880070470A4BD3F8900070470B
S31508008F90084BD3F8940070470048E8010024F40011
S31508008FA0C0CF6A0080841E0000093D0040420F00C1
S31508008FB0405DC6000080E00FC0EA210180BA8C013E
S31508008FC0007E560380D54302006CDC020090D00375
S31508008FD038B5104B0546D3F880300C4603F003032A
S31508008FE0022B0BD0032B0DD0012B0FD1FEF71EFC45
S31508008FF00E2305B1286004B1236038BDFEF760FC76
S315080090000723F6E7FEF706FC0623F2E700231846D1
S31508009010EFE700BF0080005038B5174B0546D3F878
S3150800902020310C4603F00703013B052B20D8DFE867
S3150800903003F0030B130F171BFEF7ECFB052305B113
S31508009040286004B1236038BDFEF720FC0323F6E749
S31508009050FEF736FC0723F2E7FEF72EFC0223EEE7BF
S31508009060FEF7D8FB0623EAE7FEF710FC0423E6E73B
S3150800907000231846E3E700BF0080005038B5174BB9
S315080090800546D3F828310C4603F00703013B052BA8
S3150800909020D8DFE803F003131B0F0B17FEF7BAFB04
S315080090A0052305B1286004B1236038BDFEF7B2FB7D
S315080090B00623F6E7FEF704FC0723F2E7FEF7E6FBCE
S315080090C00323EEE7FEF7E2FB0423EAE7FEF7F4FBE9
S315080090D00223E6E700231846E3E700BF00800050B6
S315080090E073B50D460021114B0191D3F88041064610
S315080090F004F00304022C13D0032C0CD0012C13D13A
S3150800910001A8FFF789FF10240EB1019B336005B152
S315080091102C6002B070BDFEF7D3FB07240190F3E77D
S31508009120FEF7CAFB0190EFE70C46EDE7008000501A
S31508009130002337B50193154B0546D3F820320C4664
S3150800914003F00703013B032B1ED8DFE803F0020EEA
S315080091501318002101A8FFF791FF12230DB1019AF8
S315080091602A6004B1236003B030BDFEF7A9FB0723CC
S315080091700190F3E762F0A0FA0A230190EEE7FEF702
S31508009180E1FB09230190E9E70023E7E700800050A7
S3150800919038B5104B0546D3F840310C4603F00303A7
S315080091A0022B0BD0032B0DD0012B0FD162F084FAC2
S315080091B00A2305B1286004B1236038BDFEF7C2FB57
S315080091C00923F6E762F07BFA0C23F2E70023184638
S315080091D0EFE700BF00800050002337B50193164B18
S315080091E00546D3F860320C4603F00703013B032B10
S315080091F01FD8DFE803F0020E1914002101A8FFF7B3
S315080092000BFF10230DB1019A2A6004B1236003B045
S3150800921030BD002101A8FFF7BBFF1123F2E7FEF7D7
S315080092204FFB07230190EDE7FEF746FB022301906B
S31508009230E8E70023E6E700BF00800050002337B5C3
S315080092400193164B0546D3F894320C4603F00703F0
S31508009250013B032B1FD8DFE803F0020E1914002187
S3150800926001A8FFF7D9FE10230DB1019A2A6004B1AF
S31508009270236003B030BD002101A8FFF789FF112341
S31508009280F2E7FEF71DFB07230190EDE7FEF714FB57
S3150800929002230190E8E70023E6E700BF00800050BC
S315080092A038B5134B0546D3F800320C4603F00703CE
S315080092B0013B032B18D8DFE803F0020A0E1262F00E
S315080092C0FBF90A2305B1286004B1236038BDFEF70F
S315080092D039FB0923F6E762F0F2F90C23F2E7FEF709
S315080092E0BFFA0F23800AEDE700231846EAE700BF16
S315080092F00080005038B5134B0546D3F808320C46A3
S3150800930003F00703013B032B18D8DFE803F0020A32
S315080093100E1262F0D1F90A2305B1286004B1236060
S3150800932038BDFEF70FFB0923F6E762F0C8F90C23F0
S31508009330F2E7FEF795FA0F23800AEDE700231846B1
S31508009340EAE700BF0080005038B5104B0546D3F851
S3150800935040320C4603F00303022B0BD0032B0DD02F
S31508009360012B0FD162F0A8F90A2305B1286004B1D0
S31508009370236038BDFEF7E6FA0923F6E762F09FF99F
S315080093800C23F2E700231846EFE700BF00800050E1
S3150800939038B5104B0546D3F860310C4603F0030385
S315080093A0022B0BD0032B0DD0012B0FD162F084F9C1
S315080093B00A2305B1286004B1236038BDFEF7C2FA56
S315080093C00923F6E762F07BF90C23F2E70023184637
S315080093D0EFE700BF00800050B0F5207F1FD009D806
S315080093E0B0F5007F15D003D868B1B0F5C07F0AD0B4
S315080093F000200CE0B0F5607FFAD10B4BD3F8800063
S31508009400C0F3011003E0084B186FC0F303300130B6
S315080094107047054BD3F89000C0F30460F7E7024B9A
S31508009420186FC0F38020F2E70080005002464FF420
S315080094308030104B10B598660020FFF7CDFF5043DB
S3150800944041F671320C4BDC69DA635A6804F48034ED
S3150800945022F4401259B9094988428CBF4FF480104A
S315080094600020104358600CB10022DA6310BD04498D
S31508009470F2E700BF0090005000000350005A620255
S31508009480002D3101430905D0012B0DD0022B094BC4
S3150800949018BF002300F01F0041B103F580530122D5
S315080094A002FA00F018607047034BF3E703F5005320
S315080094B0F5E700BF68800050648000501FB50021A2
S315080094C080280446CDE9001100F0A58035D85E282D
S315080094D046D85E2844D8DFE800F0A2434343434316
S315080094E0434343434343434343434343434343433E
S315080094F043434343434343434343A2AAA2AAB9B9B6
S31508009500B9B9B9AAC34DD9714DAAAAAA43434343C7
S3150800951043434343AAAAAA79E3AA4343434343439B
S3150800952043434343434343B9A2A2A2DE4D4DE888D1
S315080095305EBE434343434399A200B0F5B06F00F0C3
S315080095408F802DD8B0F5207F71D00CD8B0F5C07FAC
S3150800955065D0B0F5007F65D0B0F5807F00F08580D6
S31508009560009804B010BDB0F5607F6AD00DD8B0F58C
S31508009570407FF5D1FEF774F902464FF42070FFF7E5
S315080095802BFFB2FBF0F0400847E0B0F5806F5DD0E6
S31508009590B0F5A06FE4D100216846FFF7C9FDDFE703
S315080095A0B0F5106F77D016D8B0F5E06F78D00AD836
S315080095B0B0F5C06F6AD0B0F5D06FD1D1002168463A
S315080095C0FFF76EFECCE7B0F5F06FC9D1002168460B
S315080095D0FFF7DEFEC4E7B0F5406F3CD013D8B0F510
S315080095E0206F62D0B0F5286FBAD10021314B0391B4
S315080095F0D3F8703203F00303012B02D103A8FFF757
S31508009600C7FD039B3BE0B0F5486FA9D1002168462A
S31508009610FFF714FEA4E7FEF709F90090A0E7FEF7A6
S315080096201FF9FAE7FEF702F90246204604E0FEF7BC
S3150800963017F902464FF42070FFF7CEFEB2FBF0F0A2
S31508009640EBE701A8FFF7C4FC019AEEE7002168469C
S31508009650FFF7E2FC84E700216846FFF70FFD7FE786
S3150800966000216846FFF73CFD7AE74FF0E0230291B8
S315080096701B695B0705D5FEF7F3F80290029B00937A
S315080096806EE703A902A8FFF783FDF7E700216846FE
S31508009690FFF77EFD64E700216846FFF72BFE5FE7CC
S315080096A000216846FFF750FE5AE700216846FFF793
S315080096B093FD55E70080005008B58020FFF7FEFEB1
S315080096C0034B98429EBF4FF48032024B1A6708BD7F
S315080096D0005A620200A000501FB50023B0F5807F33
S315080096E0019300F0C38064D85D2855D84C2807D864
S315080096F02D2847D823282BD8019805B05DF804FBF8
S315080097004D381028F8D801A353F820F063980008BC
S31508009710F9960008F9960008F996000815980008C1
S31508009720F9960008F9960008E998000833980008A1
S31508009730D9970008DF980008F9960008F9960008F6
S31508009740F9960008F9960008F9960008F3980008B3
S3150800975024380928D0D801A353F820F063980008C4
S3150800976063980008639800086398000863980008DF
S31508009770F996000859980008F9960008F597000820
S31508009780999800083D2800F082803E28B4D1002030
S3150800979001A9FFF7D9FDAFE78028ADD15A4B1B6F5A
S315080097A003F00703013B032BA6D8DFE803F0535069
S315080097B0878FB0F5F06F6AD021D8B0F5B06F4BD06F
S315080097C00FD8B0F5607F00F0858095D3B0F5806F2F
S315080097D047D0B0F5A06F8FD1002001A9FFF7A8FCEC
S315080097E08AE7B0F5D06F57D0B0F5E06FCFD0B0F5B7
S315080097F0C06F81D1002001A9FFF7CAFC7CE7B0F54C
S31508009800206F71D00BD8B0F5086F4AD0B0F5106F3D
S315080098107FF472AF002001A9FFF76CFD6CE7B0F585
S31508009820406F5CD0B0F5486F63D0B0F5286F7FF411
S3150800983063AF0021344B0391D3F8703203F003036E
S31508009840012B5BD0022B14BF0B46152300E0052322
S31508009850019351E70223FBE7002001A9FFF740FC2B
S315080098604AE7002001A9FFF7D7FB45E702934FF027
S31508009870E0231B695B0705D5FDF7F2FF0D2303936C
S31508009880039BE5E703A902A8FFF782FCF8E7002097
S3150800989001A9FFF77DFD2FE7002001A9FFF700FDCD
S315080098A02AE7194BD3F8003103F00303022B07D03C
S315080098B0032B09D0012B0BD1FDF7E8FF0323C7E7DC
S315080098C0FEF740F80923C3E761F0F4FE0823BFE773
S315080098D00123BDE7184601A9FFF77AFB0CE700202C
S315080098E001A9FFF7CBFB07E7002001A9FFF774FCE6
S315080098F002E7002001A9FFF7A1FCFDE603A8FFF790
S3150800990047FC1123A4E700BF0080005008B5FFF705
S31508009910E3FE092811D00A38012811D84FF480022D
S31508009920094B4FF6FF705A6603F5D8335B6A13F096
S31508009930010F18BF4FF4FA7008BD044B1888FBE7EF
S315080099404FF6FF70F8E700BF009000500817002098
S3150800995038B504468020FFF7BFFE032800F0838051
S315080099604FF48012504B4FF0A0615A6645F60E032D
S315080099704E4AC2F880304E4B99624FF4803103F557
S3150800998080539962916D11F48031FBD1D4E90003BB
S315080099901B0543EA0063E07B0343207B43EA00435D
S315080099A0607B43EA0033A07B43EA80131361906926
S315080099B0D4E904531B0643EA856300F000400343D9
S315080099C0A07E0343207E43EA0043607E43EA0023E9
S315080099D09361136AE269E57E002A0CBF002008201D
S315080099E023F00F03134343EA8503304A0343136204
S315080099F0E369304D002B37D194F82430916A94F8F6
S31508009A002000DB000D4043EA401394F821102B4355
S31508009A1043EA011343F480339362274B916D33EA8B
S31508009A200101FBD14FF08071214881621369A56855
S31508009A3023F4700343EA055313614FF0004383612F
S31508009A4094F822300BB91D4B996294F823301BB950
S31508009A504FF48032194B9A6294F825301BB1134B98
S31508009A60174AC3F8802038BD022B08D11161154862
S31508009A7091614FF408524FF47F4162F0A2F80B4906
S31508009A8094F822308A6A94F820001B06154043EAA7
S31508009A90401394F824202B4343EAC20394F8232066
S31508009AA043EA02438B62D7E7009000500040005A11
S31508009AB00050005AC7FFFEFE030001000060005A6E
S31508009AC0F1A7FFFF3440005A014B93F90000704795
S31508009AD0241700204FF400011B4A437810B551663D
S31508009AE04FF4D151022402F5B832516217494F2B6F
S31508009AF04C604FF0010428BF4F2301F580514C609C
S31508009B001169C903FCD4017843EA01235361D0E9FA
S31508009B1001131B0143EA0123417B0B43017B43EA03
S31508009B2041039360C37B817B1B0143EA4113417C5C
S31508009B300B43017C43EA41035360837C13B16FF402
S31508009B40D153536210BD00BF009000500010025060
S31508009B50014B1880704700BF081700204FF4800299
S31508009B6008B5184B5A660223174A5360936813F4CC
S31508009B708033FBD1012822D1FDF788FE134B98428A
S31508009B8015D003F5122303F5F863984213D0104B4A
S31508009B9000EB8002400AB3FBF0F0520A0A4BDA6285
S31508009BA0012218635A620022074B5A6008BD45F61F
S31508009BB07A10084AF2E745F61A00074AEEE75362B2
S31508009BC0F1E700BF009000500040025000F0490243
S31508009BD064666666D8B80500BBCF0500B0F5207F79
S31508009BE010B50C4657D008D8B0F5007F48D003D832
S31508009BF030B3B0F5C07F23D010BDB0F5607FFBD180
S31508009C0029492A48D1F8FC2012F080721EBFD1F8E3
S31508009C10FC3023F08073C1F8FC30D0F88030611E28
S31508009C2023F0300444EA0114C0F88040002AE3D047
S31508009C301D4AD2F8FC3043F08073C2F8FC30DBE7EB
S31508009C4061F0D0FF61F0DCFF4FF48031184B174A02
S31508009C501967136F611E23F4704444EA01341467CC
S31508009C60FDF7FEFD0446FFF72DF9C0F10201204677
S31508009C7061F0C0FF00F02EF8BDE81040FFF71CBDEC
S31508009C800A4A0139D2F8903023F0F85444EA0164BC
S31508009C90C2F89040B0E7054B013C196F21F480618A
S31508009CA041EA84241C67A7E700ED00E00080005025
S31508009CB00090005008B50121022000F09BF961F0E0
S31508009CC091FF61F09DFF4FF48032014B1A6708BD82
S31508009CD00090005008B54FF4C070FFF7EFFBBDE8E1
S31508009CE00840044988428CBF022101214FF42070A4
S31508009CF0FFF774BF80F0FA024FF4C02201212DE964
S31508009D00F04105466A4B5A666A4A03F598335C6819
S31508009D1051605E6816F00206FBD1FFF7D3F80128FA
S31508009D20286805D1644B984202D90020BDE8F08125
S31508009D30624A002311461768B84202D35768B842E8
S31508009D4005D90133192B02F11002F4D1002301EBD6
S31508009D500313D3E9028028B1FFF7C0F800F07F00AB
S31508009D6048EA00088020FFF7B7FC05285FD161F0B4
S31508009D7039FF61F045FF4FF480324D4B4FF4C07008
S31508009D801A67FFF729FB012806464CD102214FF432
S31508009D90C070FFF723FF01274948C16811F0060183
S31508009DA0FBD1D0F808C0C0F80880836808F4F81218
S31508009DB003F4F8139A424ED1AA88EB8843EA024381
S31508009DC0404AD360AB68032B33D1A2F5A032D2F850
S31508009DD0003123F0030343F00103C2F800312B7D61
S31508009DE0287B002B6B7D14BF04220022002B18BF92
S31508009DF040212B694FF0000843EA40031343314AD8
S31508009E000B4393602868FDF70BFD0722294B1A615F
S31508009E100122A3F580535A60A3F580531C6914F0F8
S31508009E200704FBD01EE0022801D10421AFE7002772
S31508009E30B2E7092B07D1244AD2F8003123F00303ED
S31508009E4043F00203C9E7082BC9D11F4AD2F80031EB
S31508009E5043F00303C1E714F001044FF00108C0F80A
S31508009E6008C0D2D18020FFF737FC052817D127B1C3
S31508009E7031464FF4C070FFF7B1FEFDF7F1FC054619
S31508009E80FDF7C8FCFDF7C6FCFFF71CF8C0F1020198
S31508009E90284661F0AFFEFFF71DFFFFF70DFCB8F18E
S31508009EA0000F7FF442AF631E584258413EE700BF99
S31508009EB00090005000E00150005A620220440B084E
S31508009EC00000015000C00150008000500028ABBFC0
S31508009ED000F16040054B00F5614000F00F00ACBF93
S31508009EE090F80003185C0009704700BF14ED00E005
S31508009EF0054B420953F8223000F01F0023FA00F000
S31508009F00C04300F00100704700E100E0014608B5D3
S31508009F10EFF31083DB0702D50122104608BDFFF7D1
S31508009F20E7FF02460028F7D10846FFF7CFFF0146AC
S31508009F30EFF3118313B1B0EB131FEDD2074B5B6838
S31508009F40C3F30803002BE8D0103B58B2FFF7BEFF57
S31508009F5088428CBF00220122DFE700BF00ED00E047
S31508009F60024A536B0342FCD1704700BF00400950B8
S31508009F70044A4178536F23F4407343EA0123536735
S31508009F80704700BF0040005010B50A4A04461369DE
S31508009F9043F00403136105F037FF61F05BFE30BF41
S31508009FA061F059FE05F044FF1CB9BDE81040FDF705
S31508009FB057BC10BD00ED00E010B5084A0446136909
S31508009FC043F00403136105F01FFF30BF05F030FFAF
S31508009FD01CB9BDE81040FDF743BC10BD00ED00E01C
S31508009FE0034A0179D36E23F030030B43D3667047D7
S31508009FF000400050F8B504461C4BD3F88420D1061F
S3150800A000FBD4D3F88430C3F381139C422CD0FDF7DC
S3150800A0100DFC012C064602D1214661F0EBFD61F0EC
S3150800A02009FE4FF00072124B07465A66204661F049
S3150800A03015FE4FF480630D4D621E93402B676B6EC1
S3150800A0409A0103D4D5F884309B060AD5384661F0C0
S3150800A050F5FD022C08D13046BDE8F840002161F034
S3150800A060C9BDD5F88430EAE7F8BD00BF0040005006
S3150800A0700060005007B518B90191FDF7D7FB0199A3
S3150800A080064B1B7843B1064B984205D8012003B00E
S3150800A0905DF804EBFFF7AEBF0220F8E753B10120E5
S3150800A0A0005A62020278034B012100201A70FFF75A
S3150800A0B0E1BF00BF53B101204FF00042154B10B568
S3150800A0C05A664AF6CD3314494C6C0B6404F0010405
S3150800A0D088B90120FFF744FF4B68DB0704D50F4B0F
S3150800A0E058600B6BD807FCD514B10B4B0C4A1A6495
S3150800A0F0A8F0DAFB10BD0B6B1A07FCD42022074B1D
S3150800A1009A620122A3F580535A60034A936A9B0612
S3150800A110FCD5E9E70090005000400950006009505E
S3150800A1203254FFFF4FF0004238B5164B01465A66C7
S3150800A1304AF6CD33144C154A656C236443780B20D4
S3150800A1405B0043F00103D363FFF70AFF63688A786D
S3150800A15023F4F87343EA02136360CA784B7943EA37
S3150800A1600223A3600A798B7943EA022323610878DC
S3150800A170FFF7A2FFEB0744BF054B2364A8F094FB47
S3150800A180012038BD009000500040095000400050A2
S3150800A1903254FFFF4FF0004270B5124B04465D6E15
S3150800A1A003F580535A664AF6CD330F4980204E6C24
S3150800A1B00B64FFF7D5FE0B6A23F00F030F2C94BF31
S3150800A1C0234343F00F030B62F30744BF074B0B64AB
S3150800A1D0002DA2BF4FF00042054B5A66A8F064FB5B
S3150800A1E070BD00BF00800050004009503254FFFF88
S3150800A1F000A000504FF0004270B5104B04465D6E4B
S3150800A20003F580535A664AF6CD330D4980204E6CC5
S3150800A2100B64FFF7A5FE0B6A23F4F85343EA0423FD
S3150800A2200B62F30744BF074B0B64002DA2BF4FF028
S3150800A2300042054B5A66A8F037FB70BD00800050F7
S3150800A240004009503254FFFF00A0005010B561F0DD
S3150800A2500AFD042300F5805100F500520B611361D5
S3150800A2600B6113610B6113610B611361202341F2CA
S3150800A270020103610023C360836041614FF4A0219A
S3150800A2808361836541620549C36103628362C36270
S3150800A29043630365D164036310BD00BFFF3F0D032D
S3150800A2A0F8B505461446084641B9344B9D422FD0A9
S3150800A2B0334B9D4208BF5720FFF700F9AB68DE070E
S3150800A2C02ED5B0FBF4F46E68013C16F0010625D0D5
S3150800A2D02821284661F0C3FCAB6C99071AD1AB6CF0
S3150800A2E0DA0719D4AB6C13F0020F0CBF0027062748
S3150800A2F0284661F0B8FC286920F07F4040EA0464EB
S3150800A3002C61DEB139462846BDE8F84061F0E2BC6A
S3150800A3105620D1E70527EBE70927E9E73746EAE7B5
S3150800A3206B68AB6DAF68DB0707F0E00748BF6400F2
S3150800A330402F1BD003D8DFB1202F1BD0F8BD602FCC
S3150800A3401AD0802FFAD1012604FB06F34101B1FB8E
S3150800A350F3F30C4A203B02EAC3022846012161F0C6
S3150800A3607EFC2A63BDE8F84061F079BC0626EBE777
S3150800A3701026E9E70826E7E70426E5E70000015B7B
S3150800A38000000A50F8FF7F00F8B51E4643680446E9
S3150800A3900D4617461BB140F6FF7161F060FC20467A
S3150800A3A0FFF754FFE9896B7B62690B43298A22F41C
S3150800A3B04C520B4322F00F0213436361A368297BB7
S3150800A3C02A7E23F0804323F0E203114319436B6985
S3150800A3D01943A160AB681BB9A36843F00043A360A7
S3150800A3E0EA69002A6BD0A368127A43EA8253A3600B
S3150800A3F0EA69A368927A43EA4243A360EB69A268D2
S3150800A4009B8803F4C0431343A360EA69A3685278A0
S3150800A41043EA8203A360EA69A368527B43EAC2035C
S3150800A420A360EA69A368927B43EA0213A360EA6918
S3150800A430A368927843EA8223A360EA69D37991797B
S3150800A4405B0243EA8123E360EB69674A1B7803F002
S3150800A450FD03012B02BFE36843F00403E360EB69E5
S3150800A4601B78023B012B614B7AD8944276D0604A1E
S3150800A47094420CBF01224FF0FF3203EB421341F224
S3150800A480944202219950EB695A7A04F580539A62EC
S3150800A490EB695B7A1BB1E36843F40063E360EB693D
S3150800A4A0DB7A63B1E36843F40043E3604E4B9C42B6
S3150800A4B065D1EB694F4A1B7B03F00F0353673FB126
S3150800A4C097F8203004F58050002B63D001230362EF
S3150800A4D0002E30D02B7E04F5805013B14FF4004384
S3150800A4E0836596F82120404B102A434961D89C423F
S3150800A4F05DD03F4B9C420CBF01234FF0FF33012731
S3150800A500CF54768C3849B6F5006F3C4B5FD88C42F1
S3150800A5105BD037498C420CBF01214FF0FF31012730
S3150800A5205F54A36D324323F4F95323F01E031343F8
S3150800A530A365012383650521204661F0AEFBAA6861
S3150800A54012B16968FFF7ACFE2046297861F0C2FBB4
S3150800A550A36CDB4313F4405FFAD1F8BD00228CE705
S3150800A56094420AD0224A94420CBF01224FF0FF328D
S3150800A57003EB421342F2944283E70022F8E71C4BAE
S3150800A5809C429CD1EB691B4A1B7B03F00F03C2F864
S3150800A590803094E7E36997F8221097F8212023F092
S3150800A5A009030A431A4342F00102C26190E70023F5
S3150800A5B0A5E79C4207D00E4B9C420CBF01234FF0E7
S3150800A5C0FF3302279CE70023FBE70021A7E78C421D
S3150800A5D007D007498C420CBF01214FF0FF310227F3
S3150800A5E09EE70021FBE700BF0000015B00C00350A7
S3150800A5F000000A500090035056B1012054B10120C2
S3150800A60070B5436804460D460E691BB140F6FF71E6
S3150800A61061F025FB2046FFF719FE22696B7BA97BB3
S3150800A62022F087020B43134343F0800323611EB3D2
S3150800A6302A692369117823F0F8030B43117F43EA4B
S3150800A640C113117943EA4113517AD27B43EA0113C4
S3150800A65043EA82132361E268296922F0F04222F470
S3150800A6607022D1E90530034313430A7B43EA822368
S3150800A6704A7B43EAC233E360A368EA7B23F0030319
S3150800A680134343F00103A3603EB32B69A2685B88BA
S3150800A69003F4C0431343A3602A69A368527943EAC3
S3150800A6A08223A3602969626A8B79C8791B01000233
S3150800A6B003F0700300F4E06022F4772222F4EE62DD
S3150800A6C0034313430A7A120302F4E04213434A7F10
S3150800A6D0120402F470221343636263692A7B23F02F
S3150800A6E00F0313436361C6B12B695B89A3612B69A9
S3150800A6F05A7B3AB11E4A944225D19B7B1D4A03F0E8
S3150800A7000F0353672B69DA7B3AB1194A944225D16C
S3150800A7101B7C184A03F00F031367D5E9011220467C
S3150800A720FFF7BEFD0521204661F0B7FA282161F042
S3150800A73096FA2B78A36361F092FAA36CDB4313F4C1
S3150800A740405FFAD170BD0C4A944201BF9B7BA2F5CB
S3150800A750CE2203F00F03C2F88030D3E7064A9442AC
S3150800A76001BF1B7CA2F5CE2203F00F03D367D4E703
S3150800A7700000015B0090035000000A50072AF7B555
S3150800A78001F0030614461F464FF003012CD8950026
S3150800A790A94000FA05F21C48019161F0B5FA019941
S3150800A7A01A4806FA05F261F0AFFA194B19499DF8ED
S3150800A7B02000002F08BF1946012303FA04F40C6091
S3150800A7C0154B1649002808BF0B461C60144B103160
S3150800A7D0C3F820449DF82400A3F6DC33002808BFFC
S3150800A7E00B461C6003B0F0BDA2F10805AD00A940F8
S3150800A7F000FA05F20B48019161F086FA01990A48B8
S3150800A80006FA05F2CFE700BF00C4035008C4035098
S3150800A81010E4035010D4035014D4035014E4035026
S3150800A82000E0035004C403500CC403502DE9F04162
S3150800A83005460F461E4690464AB101233022194C5A
S3150800A8408B4002FB00443EB304F5825423600F217B
S3150800A850072F05EB450388BFA7F108044FEA031342
S3150800A860114895BFBC00A40004330C3308FA04F25F
S3150800A870A140184461F048FAB8F1000F0AD1012145
S3150800A8803020084A01FA07F700FB05223EB102F517
S3150800A89082521760BDE8F08104F50154D6E702F547
S3150800A8A00152F6E700C0035030C00350044A054B76
S3150800A8B0002918BF1346012202FA00F018607047F3
S3150800A8C0402004504010045010B5012104462020B1
S3150800A8D0FEF7D8FD01212120FEF7D4FD0122114BF8
S3150800A8E05A60227812069A606178A27842EA014292
S3150800A8F09A61FF229A6200229A631A644FF0004214
S3150800A9005A654FF0FF324FF4001103F500531A65EC
S3150800A910054AC2F88011E3781B01DBB282F81533C9
S3150800A920116010BD0000045000E100E070B501257B
S3150800A930C3B29D401E4B0C461D658300096803F192
S3150800A940A04303F58823596030211A4E637B01FB27
S3150800A95000600366E37AA17A1B0543EA0143217B7B
S3150800A96022F0030243EA4153C365026761F069F9BD
S3150800A970736D2B437365237A13B1336C2B4333649E
S3150800A980637A13B1B36B2B43B3632279A37943EA92
S3150800A9900243074A93616179E37943EA0143064929
S3150800A9A08B61044B55639D64BDE8704061F04FB9F7
S3150800A9B000200450000004500010045010B5012473
S3150800A9C0C0B2844061F03DF9044B5A6D22EA040294
S3150800A9D05A659C62BDE8104061F039B90000045020
S3150800A9E010B50124C0B2844061F02BF9074BDA6A2E
S3150800A9F0224209D15B6B34EA03030CBF012400240D
S3150800AA0061F025F9204610BD0024F9E7000004503E
S3150800AA10F8B50125C3B204469D4061F012F930220B
S3150800AA20094B1E6D5F6B02FB04335C6E61F00FF918
S3150800AA303D4206D1C4F30A1008B9354200D10130A7
S3150800AA40F8BD0020FCE700BF000004504FF4803238
S3150800AA50054B9A6641F6713203F51C33DA63012217
S3150800AA6003F50053DA6070470090005041F67132E2
S3150800AA700121064BDA6303F50052D1600022DA633E
S3150800AA804FF48032A3F518339A66704700000350D6
S3150800AA90013831289ABF024B185C0020704700BF66
S3150800AAA0B0450B08021E30B54FF000000CBF10254C
S3150800AAB0042547F60774084952B9831D51F823300F
S3150800AAC0234023B101308542F6D14FF0FF3030BD27
S3150800AAD000F11603F2E700BF0080035010B5C2F379
S3150800AAE00623044602F0070241B942EA03220B4B49
S3150800AAF042F44022063443F8242010BD1846114675
S3150800AB0061F013F901461846FFF7C2FF034B41EA05
S3150800AB100020163443F82400EFE700BF00800350F6
S3150800AB20014BD3F894007047004000504FF4803230
S3150800AB30064B5A6603F5E6239B69C3F385128270B2
S3150800AB4003F03F021B0B42700370704700900050E1
S3150800AB5040F6B732064B5B689BB293429FBF4FF4F1
S3150800AB607A72B3FBF2F3034AD05C88BF00207047C1
S3150800AB700080E00FE2450B08054B9A689107FCD464
S3150800AB805A689207F9D4DA69002AF6D1704700BFE5
S3150800AB9000800A5008B5FFF7EFFF0122024B03F5C4
S3150800ABA080514A601A6108BD00800A50074B5A68EE
S3150800ABB0012A0AD15A68D20702D5DA69002AF9D1D8
S3150800ABC002221A610122024B5A60704700800A501D
S3150800ABD000A00A5010B5064CFFF7CEFF6368012B9C
S3150800ABE003D1FFF7E3FFFFF7C7FF0378E36010BD64
S3150800ABF000800A50E8B94A680B7812B1127843EA1D
S3150800AC00C2034A78002A14BF0222002213438A6824
S3150800AC1012B1127843EA82138A78002A14BF0422F2
S3150800AC2000221343CA6812B1127843EA4223014A42
S3150800AC309364704700800A5008B9014B59647047FD
S3150800AC4000900A5008B9014B5964704700A00A5091
S3150800AC5008B9014B1964704700A00A5010B9024B95
S3150800AC60186C70470020704700800A5048B911B127
S3150800AC70012903D07047044BD86C7047024B186DF6
S3150800AC8070470020704700BF00800A5040B911B1D4
S3150800AC90012903D07047034BDA647047014B1A65E4
S3150800ACA0704700BF00800A5038B50446054DA7F026
S3150800ACB077FE0FCC0FC594E8030085E80300002053
S3150800ACC038BD00BF9824012047F6FF739A42F0B5B5
S3150800ACD067D0022967D8354DCF0015F8313005EB16
S3150800ACE0C100012B847813D10025C3781B1B9D4214
S3150800ACF002D3E018C0B2F0BD591B4668A3EB510158
S3150800AD0036F911609642D4BF0D4601F1FF33EEE7DE
S3150800AD1040680028EFD0B0F90030934204DBB0F960
S3150800AD2002309342B8BF134682883D44FF2A19BFB2
S3150800AD30C8214FF0280CB0F90610B0F908C0A1EBED
S3150800AD4003020CBF0126002692FBFCF26D78324402
S3150800AD5012B2954201DD002A01DA6A1E12B24FF4D8
S3150800AD607A7700EBC206F188B668013213FB0161F7
S3150800AD7012B221EAE17101F5FA719542B1FBF7F1D8
S3150800AD8004DD00EBC206B6888E42EAD200EBC202A8
S3150800AD9032F8040C884228BF0846A04238BF20462D
S3150800ADA0A8E7FF20A7E70020A5E700BF9824012011
S3150800ADB00229F0B553D82B4800EBC10410F831101E
S3150800ADC0636801290FD1E078A478904294BFC4EB58
S3150800ADD00001C4EB0201001BCAB28242C8BF0022AE
S3150800ADE033F91200F0BD002B39D0A178914202D375
S3150800ADF0B3F90200F6E7E178B3F900009142F1D918
S3150800AE0099886478A1F1FF06013C714203F10405B3
S3150800AE10E4B2714103F10C071FFA82FCCEB2B442C8
S3150800AE2016D805EBC1014FF47A756A43B1F90240A9
S3150800AE304968521A04EBD47102EB610292FBF4F2F0
S3150800AE409042CFDBB3F902009042CBDC10B2C9E7DF
S3150800AE5037F831E04E1CE645E3D33146DEE70248D3
S3150800AE60C0E700BF982401200080FFFF0148FFF7D4
S3150800AE701BBF00BFE8450B08004870470A170020AB
S3150800AE807FB50222084B0949CDE901234FF000732B
S3150800AE90CDE90313072301A94FF0FF300593A7F067
S3150800AEA074FE07B05DF804FB006A1800000206008D
S3150800AEB02DE9F84307F0D2F90128074605D907F026
S3150800AEC001FA061E02DA01241EE00026DFF8808059
S3150800AED098F8003003F0FF0493BB4FF05009194D62
S3150800AEE005F110032846C5E90044AB60C5F80C9087
S3150800AEF007F08AFB286650B90124012F04D9304689
S3150800AF0007F002FA0028DEDB2046BDE8F8830E4D7E
S3150800AF10214605F110032A460120C5E90044C5E982
S3150800AF20023907F031FC28660028E5D03022074BA5
S3150800AF3083F8412302229A60012388F80030DCE76F
S3150800AF400024DAE714250120B024012000E100E0FE
S3150800AF5058B1012008B507F081F902280FD1094B2D
S3150800AF604FF0FF31186E07F091FB002814BF01203F
S3150800AF70002003D14FF48062034B9A6608BD002077
S3150800AF80F8E700BF14250120009000504FF48062B6
S3150800AF9008B5084B9A6607F061F9022807D1064BEF
S3150800AFA0186E07F0A3FB003818BF012008BD002063
S3150800AFB0F9E700BF00A000501425012008B54FF09E
S3150800AFC098435B6CD90208D507F048F9023801287E
S3150800AFD003D8094B186E07F063FC4FF098435A6C78
S3150800AFE0D202FCD55B6D054A03F470231360022276
S3150800AFF0034BC3F8882108BDB02401206C1100203A
S3150800B00000E100E038B5054600283AD0FFF7A2FF70
S3150800B0100446002836D1284660F0C8FE95F8203048
S3150800B02043B94FF098435A6CD202FCD55D6D05F4CE
S3150800B03070251BE04FF09842936D43F00203936529
S3150800B04007F00CF902281AD1104B4FF0FF31186E91
S3150800B05007F0F0FB4FF09842936D23F002039365D7
S3150800B06090B94FF4A0220A4B1D681A60FFF78EFFAD
S3150800B07004463DB12846BDE8384060F0C1BE2046CA
S3150800B080E8E72124204638BD0124FBE7B024012047
S3150800B0906C1100202DE9F0418CB08846DDE9127666
S3150800B0A01D460446002847D0002945D0002F43D026
S3150800B0B0002E41D013F00F033ED120482049A3604B
S3150800B0C0002A18BF0146E361C4E90013404609A9EE
S3150800B0D061F006F868BB2046099960F05EFE2946CD
S3150800B0E0204660F05AFE6946404600F0CBFF00BB9A
S3150800B0F06946204660F03DFE404603A961F0BEF869
S3150800B100B8B9204603A960F034FE06970127204601
S3150800B11045F0005506A90797089560F02AFE2046CF
S3150800B12009A909960A970B9560F02DFE2046FFF7A8
S3150800B13069FF0CB0BDE8F0812120FAE7000101049F
S3150800B140000100042DE9F04792B08846DDE91A5758
S3150800B1501C460646DDF87090002864D0002962D0A7
S3150800B160002F60D0B9F1000F5DD0002D5BD013F031
S3150800B1700F0358D12D482E49B360002A18BF01463F
S3150800B180F361C6E9001340460FA960F0A9FF00283D
S3150800B19046D130460F9960F000FE2146304660F0F1
S3150800B1A0FCFD6946404600F06DFF002838D1694627
S3150800B1B0304660F0DEFD404603A961F05FF878BBD3
S3150800B1C04FF001083046DFF86CA003A960F0D1FD06
S3150800B1D044F00054304606A90695CDF81C80CDF8F3
S3150800B1E020A00997CDF828800B9460F0C2FD304660
S3150800B1F009A960F0BEFD30460CA9CDF83090CDF80F
S3150800B20034800E940F95CDF84080CDF844A060F0B8
S3150800B210BAFD30460FA960F0B6FD3046FFF7F2FEDC
S3150800B22012B0BDE8F0872120FAE700BF0302010447
S3150800B23003020004100000202DE9F04F97B089465C
S3150800B24090461F460546DDF880A0002800F0BD8020
S3150800B250002900F0BA803AB1229B002B00F0B58095
S3150800B260239B002B00F0B180BAF1000F00F0AD80EF
S3150800B270219B002B00F0A98077B13C680026229B11
S3150800B28043440293464509D3002F00F0A0800020CE
S3150800B2903C6017B0BDE8F08F3C46EFE75CB1229BF7
S3150800B2A0219A9B5D125D01345340239A04F00F04E2
S3150800B2B093550136E6E7A8EB060BBBF10F0F58D9F5
S3150800B2C0444B4846C5E90034AC60EC6113A960F00C
S3150800B2D007FF0028DDD1284613992BF00F0B60F0E5
S3150800B2E05CFD5946284660F058FD484604A900F01A
S3150800B2F0C9FE0028CDD1284604A960F03AFD484683
S3150800B30007A960F0BBFF0028C3D1284607A960F04B
S3150800B31030FD01232299304ACDF828A00B930C92D0
S3150800B3208A190D9228464BF000520AA90E930392E9
S3150800B3300F9260F01EFD28460DA960F01AFD239BAA
S3150800B340039A99190123109111931292224A2846B9
S3150800B35010A9CDF84CA01493159260F014FD284658
S3150800B36013A960F010FD2846FFF74CFE5E4400283E
S3150800B3708FD1229B03EB060B239B1E44029B5B4546
S3150800B38001D146467EE7ACB9219B2246CDE900A30A
S3150800B390494610232846FFF77DFE00287FF479AF3B
S3150800B3A00AF1100212F8013D0133DBB213700BB932
S3150800B3B09245F7D1219A1BF8013B125D013453409F
S3150800B3C006F8013B04F00F04D8E7212061E7384668
S3150800B3D05FE700BF03030004100000202DE9F04FCB
S3150800B3E097B00F46144699468346209EDDF8888016
S3150800B3F0DDF890A0269D002800F09F80002900F027
S3150800B4009C801DB1259B002B00F09780B9F1000F99
S3150800B41000F09380B8F1000F03D0219B002B00F0B9
S3150800B4208C803CB1239B002B00F08780BAF1000F7B
S3150800B43000F08380C6F10F02D2B2032A05D8012193
S3150800B440D20001FA02F2A24277D9022D75D0102D48
S3150800B45073D815F0010270D1F11F06296DD8384945
S3150800B4600AEB0400884268D836493846CBE9001208
S3150800B470CBF80820CBF81C2013A960F031FE002871
S3150800B48058D15846139960F088FC584645EA064153
S3150800B49060F083FC4146584660F07FFC21465846DA
S3150800B4A060F07BFC384601A900F0ECFD002841D18C
S3150800B4B0584601A960F05DFC384604A960F0DEFE36
S3150800B4C0002837D10127584604A960F052FC239B6F
S3150800B4D048F000520793219B584644F000540DA9A2
S3150800B4E046F00056089709940A930B970C92CDF8E4
S3150800B4F034900E970F9660F03CFC58460AA960F007
