S02B00004D61747465724C696768745377697463684F7665725468726561645F427265616B6F75742E73333762
S3150800600000100020FD7D000859270708170F0A0809
S3150800601071480708592707085927070859270708FD
S3150800602059270708592707085927070851620008FA
S31508006030592707080C450B08F16100080F53070894
S315080060400583000859270708592707085927070805
S3150800605059270708592707085927070859270708F6
S315080060605927070859270708592707083133030806
S3150800607059270708592707085927070859270708D6
S3150800608059270708592707085927070859270708C6
S3150800609059270708358A000859270708592707087E
S315080060A059270708B18B00088D8B00085927070860
S315080060B059270708D9F10608BDFB06083D370B081E
S315080060C039370B08A5F3060849370B0841370B087B
S315080060D095FB060845370B081DFC0608FDFB060858
S315080060E05927070859270708592707085927070866
S315080060F06D48070859270708592707085927070821
S315080061005927070859270708592707085927070845
S315080061105927070859270708592707085927070835
S315080061205927070859270708592707085927070825
S315080061305927070859270708592707085927070815
S31508006140592707086DB6000859270708734907082D
S3150800615025DA06085927070865340B086B340B0837
S3150800616059270708592707085927070859270708E5
S31508006170013800D0FCE7704700000000000000006E
S315080061800B4A1168086806C881F30B88022181F357
S315080061901488203080F30988BFF36F8F4FF0000012
S315080061A080F31188104700BFAFF30080AFF300807B
S315080061B06C44012000000000000000000000000000
S315080061C007480068006880F3088862B661B6BFF3BE
S315080061D04F8FBFF36F8F02DF00BF00BFAFF30080A2
S315080061E008ED00E0000000000000000000000000CC
S315080061F0EFF30980EFF30B82734620E9FC0F104A90
S31508006200116808604FF0300080F31188BFF34F8F94
S31508006210BFF36F8F0EF00CF94FF0000080F3118872
S31508006220074A11680868B0E8FC0F82F30B8880F308
S3150800623009881847AFF30080AFF30080AFF30080FA
S315080062406C4401200000000000000000000000006F
S315080062501EF0040F0CBFEFF30880EFF30980044922
S31508006260084700BFAFF30080AFF30080AFF30080AC
S31508006270A5520108000000002DE9F04F2DED028B14
S31508006280DFF8C0918DB0B9F800309A0706D440F20D
S31508006290F651654B654A66486AF054FEDFF8A8B1C0
S315080062A0DBF8003023B940F2F751624B5F4AF2E758
S315080062B0614C0DF1180894E8070088E807009B88E8
S315080062C05E4D8DF817300123B9F800200DF117013E
S315080062D01A462868ACF089FC9DF81720DBF80010F0
S315080062E0023A0023096892B20C3428680DF1240A90
S315080062F0ACF07BFC94E807008AE80700DBF800307E
S315080063001B681C7814F0200421D02868ACF09AFA8F
S3150800631000286FD02868ACF095FA04460B986AF006
S315080063204DF9064620460F466AF048F902460B46DE
S3150800633039A1D1E900016AF0E5FA02460B46304672
S31508006340394669F0FFFF6AF04DFC0B900124286876
S31508006350ACF094FA9DF8173000284FD0981DC0006D
S315080063606AF03CF92EA3D3E900236AF0A1F941ECBF
S31508006370180B2868ACF082FA03900B986AF01EF99D
S31508006380039B064618460F466AF018F902460B465E
S3150800639051EC180B6AF0B6FA02460B4630463946F7
S315080063A069F0D0FF6AF01EFC0B90B9F80030286837
S315080063B09B06DBF8001027D50B9B224603F5FA73DC
S315080063C00B9391F8203089798DF81A301C4B1B787D
S315080063D0CDF800A08DF81B304346ABF0BDFF20B1C9
S315080063E002200BF003FB46F06BFD0DB0BDEC028BF3
S315080063F0BDE8F08F0B9BC0330B93A7E70B980633CA
S3150800640000EB43130B93D0E7534622468979ABF04A
S315080064108DFFE4E7AFF300800000000060E366410B
S315080064200000000080842E419F6C0B08E7710B0862
S31508006430FD6A0B08C56C0B08CC700B08B82C01203C
S315080064404317002032B60120A02D012000000000CD
S3150800645073B5754B198811F0010140F0DC8041F6DF
S315080064600B22724D724BC5E9003105F11003AB6082
S31508006470704B19609A80704B1B6ADB0706D440F292
S315080064809D316E4B6E4A6F486AF05CFD28465FF098
S315080064908DFE044620B940F2A1316B4B684AF2E7FB
S315080064A061F0C0FA20B140F2A531684B644AEAE7C8
S315080064B04FF001112046ACF080FB20B140F2A93123
S315080064C0624B5F4ADFE702212046ACF09CF920B117
S315080064D04FF46B715D4B5A4AD5E720465C4961F02B
S315080064E025F820B140F2AF31584B554ACBE7012188
S315080064F02046ACF018FD20B14FF46D71534B504A4D
S31508006500C1E701212046ACF025FD064620B140F240
S31508006510B7314E4B4A4AB6E701463C224D48ADF0E4
S315080065204FFC80233246204605F11401ACF073FB7C
S31508006530802804D040F2BE31474B414AA3E7474D75
S315080065400120ABF0EEFE36A3D3E900232C602046EB
S31508006550CDE900234FF0FF324FF0FF33ACF0FBF9E3
S3150800656020B140F2FB21394B3D4A8CE731480BF00C
S31508006570E9F8012108460BF053F901212868ACF027
S3150800658092F8044620B140F25241304B354A7AE738
S31508006590354B364A98801A60354B364A98801A60C9
S315080065A0354B364A98801A60354A6FF063005A614F
S315080065B012F04AFF0B200BF07FF8324B186020B917
S315080065C040F26341304B274A5DE704F0A7FF2146B6
S315080065D02868ACF09DFA20B140F2FD311B4B2B4ADE
S315080065E051E7082228681146ACF0D0F9044620B1D4
S315080065F040F26741264B1B4A45E70CF035F9254B17
S3150800660025481C70254B1C70254B1C7002B0BDE834
S31508006610704074F041B902B070BD00BFAFF300809E
S315080066200B6020FFE203000032B60120C42C0120D3
S31508006630E11A0108BC2C01200080E00FB96F0B0895
S315080066405C710B08FD6A0B08D26F0B08646A0B08AD
S315080066506C720B08642D0120E16F0B08B82C012021
S315080066604F710B08D8710B0830200020ABB80120F9
S31508006670082000202BB80120582000202DB9012021
S3150800668080200020602D012019700B0815710B0859
S3150800669034700B0820B80120B8700B082CB90120FB
S315080066A02BB90120000000002DE9F04F2DED028BDB
S315080066B0804600680C4691461D468DB030B90327C2
S315080066C038460DB0BDEC028BBDE8F08F0668766CD7
S315080066D0B0472D280746F3D16378202B01D1002730
S315080066E0EEE7934BD8F80000049358B103682246A6
S315080066F01B6C04A99847074630B1049803689B6841
S315080067009847DDE70327F8E78A4B8B4E05934FF446
S315080067108973EE40F643EB40DB43102D06F0010685
S3150800672088BF0126082D03F0010388BF01239FEDCA
S315080067307E8B6FF0010B0193049805A90368DB684B
S315080067409847002840F0ED808DF80E0005980DF169
S315080067500E010368DB6898470746002844D19DF870
S315080067600E30402B03D0802B01D003273CE0627803
S315080067709A42E1D1012305988DF80F3003680DF18F
S315080067800F015B699847074670BB9DF80F30082BC9
S3150800679018D8002BD0D0013B072BCDD801A252F830
S315080067A023F000BFF5670008CF67000839670008BF
S315080067B0F167000839670008396700083967000873
S315080067C0FB670008102BB7D1002EB5D102E06B1E6F
S315080067D0012BB1D8002305980693036806A95B6ABE
S315080067E09847824668B1074605A884F074F884E796
S315080067F0042DEFD0012D9FD1ECE7019B002B9BD1F7
S31508006800E8E7069B002B46D08DED088B0598514688
S31508006810036808AA9B6A984707460028E4D1DDE979
S315080068200830591E40F1FF328B456FF0100171EBAD
S31508006830020210D39DF80E20402A96D1D4E90212FE
S31508006840904208BF8B4226D0069B0AF1010A53459F
S315080068507FF672AFD8E74FF0FF31C21C994277EB4B
S31508006860020231D39DF80E20402A7FF47EAF1F0C1A
S3150800687004F1100104F11C009BB28842E4D051F8DF
S31508006880042B002AF9D0B7EB124FF6D1002BF4D01F
S3150800689092B29342F1D8002305980793036807A993
S315080068A09B6B9847074600289ED1079B002B36D03E
S315080068B082460598CDF820A003683946DB6B08AAFE
S315080068C0984758B107468FE713F5803F70F1FF32B6
S315080068D0FFF44BAF9DF80E20802AAEE7089BD90738
S315080068E004D5D9F800200999914212D19A0705D5FD
S315080068F0BDF82810B9F8042091420AD15B070ED5D5
S31508006900D8F80400B9F8042003680B999B689847DF
S3150800691028B9079B0137BB427FF60EAFC9E70027A8
S3150800692062E7A52760E700BF00000000000000003E
S31508006930281200202C120020160101000000000079
S315080069402DE9F04F2DED028B884204460D46904600
S315080069501E4697B00AD1034601211D202E4A17B0BC
S31508006960BDEC028BBDE8F04F98F0C8BC9FED288BB4
S315080069700DF10C092A21484605AF39F047FD99E87B
S31508006980030087E80300DFF894A0DFF894B0BDF8A9
S315080069901400BDF81630834233D039F073FD3378CE
S315080069A081468DF824408DF825508DF826808DF87F
S315080069B028300BB173680B9309AB0893CDF81CA06C
S315080069C02EF05AF900230E9310938DF851302A238E
S315080069D0ADF830904FF001090D930CAA6B4607A944
S315080069E08DED128B8DF8509085F090FD034620B101
S315080069F05A4649461D2098F081FC38468FF0E4FE39
S31508006A00C5E717B0BDEC028BBDE8F08FAFF3008089
S31508006A10000000000000000014D30B0800D40B0887
S31508006A2054D30B08000000002DE9F04F2DED028B22
S31508006A309FED2F8B9DB00DF108092A21054604AC60
S31508006A40484616461F46DDF8A48039F0DFFC99E86B
S31508006A50030084E80300DFF8A0A0DFF8A0B0BDF8C3
S31508006A601000BDF8123083423DD039F00BFD289B4B
S31508006A7081461B78CDE90A6708958DF830301BB139
S31508006A80289B5B788DF8313098F800308DF83830CF
S31508006A901BB1D8E90223CDE9102308AB0793CDF83B
S31508006AA018A02EF0E9F800232A2216938DF86930EB
S31508006AB00223ADF848904FF00109CDE9132306A942
S31508006AC06B4612AA8DED188B8DF8689085F01EFD21
S31508006AD0034620B15A4649461D2098F00FFC204629
S31508006AE08FF072FEBBE71DB0BDEC028BBDE8F08FE0
S31508006AF0000000000000000028D40B08ABD30B08E8
S31508006B002DE9F04F2DED028B99460023CDB08DF877
S31508006B10C83049938DF828318D4B002700264FF64B
S31508006B20FF740C930123DFF834A2CDE92E67CDE973
S31508006B303067CDE93467054688461746CDF8D8A0AC
S31508006B40ADF820410D936AB1064600F53E74A6429B
S31508006B5000F0EF80304685F0B7FD002800F0EB80A6
S31508006B609836F4E792F0B7FC044630B9AC242046D0
S31508006B704DB0BDEC028BBDE8F08F05F53E7630468C
S31508006B808FF083FCB4F868308DF8C880ADF82031F2
S31508006B9094ED028B6A3420212046ADF07AFACDE9CD
S31508006BA00C406C4B4FF4C8710E93002309A8CDE92D
S31508006BB009330F930B93CDF870A08CF0F8FE099B60
S31508006BC053B90B240BA884F079FA0AA884F076FA4C
S31508006BD009A884F073FACAE74FF4C8710AA88CF0BA
S31508006BE0E6FE0A9B002BECD04FF4C8710BA88CF07C
S31508006BF0DEFE0B990029E4D0099B0A9A10934FF4FC
S31508006C00C8732846CDE91223CDE9141310AA4146C4
S31508006C10119392F0E0FC08B10446D3E741462846B2
S31508006C2012AA92F0BAFC0028F6D14146284614AAC0
S31508006C3092F06DFC0028EFD1109B0DF1B80A16935F
S31508006C40119B0DF1700B1793129B8DED008B18930A
S31508006C50139BCDE905AB1993149B1AAA1A93159B96
S31508006C6018A91B9336AB079330AB049334AB039345
S31508006C700EAB029316A83CF0F5FE0028CCD10BA863
S31508006C8084F01CFA0AA884F019FA09A884F016FAFE
S31508006C90B9F1000F13D1D5F89403002847D003683B
S31508006CA09B689847D5F894331A68002837D05469F2
S31508006CB041465A461846A04798B1044657E7D9F8B8
S31508006CC0003048465B699847036859465B6A9847A7
S31508006CD008B9C5244BE79DF86031CDF824918DF8A5
S31508006CE028315146304692F00BFF0028E5D10CA911
S31508006CF0304692F0BDFB0F9905F569703FF020F814
S31508006D00034620B101211120134A98F0F7FA27B15A
S31508006D1095F8B233013385F8B233002427E74146A4
S31508006D201846D26890470028DBD110241FE70324B1
S31508006D301DE70B241BE7BDF864319FED038BADF807
S31508006D4020318DF8C8802CE7000000000000000004
S31508006D50BA4E0C0844030C0808030C08F8230C0860
S31508006D602A2110B57248ADF5956D029144F070FB75
S31508006D7008B1ACF07CFF029002A96D4844F012FA03
S31508006D800028F6D1029B2A2BF3D167A3D3E9002367
S31508006D906848CDE9082344F077FB0028E9D10022AA
S31508006DA00023644808A9CDE9082344F023FA0028FB
S31508006DB0DFD1DDE9080240F6FA035F499A4208BFC7
S31508006DC08842D6D101215D488DF8071044F024FB8E
S31508006DD00028CED18DF807000DF10701574844F079
S31508006DE0B5F90028C5D19DF80730002BC1D0504809
S31508006DF044F078F90028BCD14D4803A944F0D2F9EB
S31508006E0040F20124A042B4D14D494E4899F023FEE0
S31508006E100028AED140224B4804AB0AA944F016FA22
S31508006E200028A6D1049B0E2BA3D10F2244490AA8F9
S31508006E30ACF08FFF00289CD14349424899F00BFEDD
S31508006E40002896D104AB40223E480AA944F0FEF930
S31508006E50049B03438DD19DF82810002989D1394810
S31508006E6099F0F9FD002884D14022364805AB1AA9C5
S31508006E7044F0ECF9A0427FF47CAFF1223349344860
S31508006E8044F03CFB00287FF474AF4FF4007230489E
S31508006E9006AB2AA944F02CFA00287FF46AAF069AB2
S31508006EA0F12A7FF466AF29492AA8ACF052FF0246B8
S31508006EB000287FF45EAF0146254844F01FFB0028F2
S31508006EC07FF457AF4FF40072214807ABAAA944F0E4
S31508006ED00FFAA0427FF44DAF164844F00FF9002888
S31508006EE03FF447AF154844F009F900283FF441AF8D
S31508006EF0174844F003F900287FF43BAF44F05CFBE5
S31508006F0000287FF436AF0B4844F0F8F800283FF421
S31508006F1030AF0A4844F0F2F800287FF42AAF0DF59E
S31508006F20956D10BDAFF30080316EE595FA08000047
S31508006F300573080001720800316EE59506730800AE
S31508006F4056290C080273080055290C0864280C08F1
S31508006F500272080000000000054B1868036899696A
S31508006F6001A3D3E90023084700E0373B015D03008E
S31508006F70441300200000000070B505463E4C8AB058
S31508006F8020B100230088236053F0EEFF3B48ABF0A6
S31508006F9029FC3B4E3B4B304633603B4B736054F009
S31508006FA0BFF9002130465FF001F931A3D3E9002388
S31508006FB0A062C4E90623A6F087F9D4E90623194393
S31508006FC010434FF0FF33C4E90601CDE900014FF045
S31508006FD0FF32A06AABF0BFFC02224FF0FF31A06A75
S31508006FE0ABF0D4FC012053F007FD4FF400730022E8
S31508006FF02649A06AABF00FFEB0F5007F36D1002314
S315080070009422CDE9073309933C23CDE9033205934E
S315080070109623A06A03A906935FF0E4FC25B3287CAF
S3150800702054F03CFA0546E0B9A06AABF0CEFF54F03E
S31508007030DDF953F0C3FC20B14FF48070002151F004
S3150800704061F853F0CBFC20B14FF40060002151F0F9
S3150800705059F80120ABF065F90D4A0E49A06AA6F069
S315080070602AF928460AB070BDFF20D9E70725F8E7B0
S3150800707009D5015520000000C8190120690345EC0F
S3150800708030B00120C1B1050824B0012024AE01208A
S315080070905FD20A089FD20A0810B5054C237833B97F
S315080070A0044B13B1044800E000BF0123237010BD50
S315080070B0201F012000000000D0B50C0808B5034BBE
S315080070C01BB10349034800E000BF08BD00000000EB
S315080070D0241F0120D0B50C08A3F5803A704700BFDD
S315080070E0174B002B08BF134B9D46FFF7F5FF0021F2
S315080070F08B460F461348144A121AACF061FE0E4B23
S31508007100002B00D098470D4B002B00D09847002045
S31508007110002104000D000D48002802D00C4800E0AC
S3150800712000BF6AF04FF9200029004DF04FF969F0C9
S3150800713035FF00BF00000800000000000000000046
S3150800714000100020C819002018280220000000009E
S315080071500000000010B5224C03F004F9236F23F059
S31508007160070343F0020323676BF0A2FDD4F820312E
S31508007170002023F0070343F00103C4F82031D4F8B4
S31508007180283123F0070343F00103C4F82831D4F863
S31508007190403123F0030343F00203C4F84031D4F826
S315080071A0603123F0030343F00203C4F86031D4F8D6
S315080071B0403223F0030343F00203C4F84032D4F804
S315080071C0003223F0070343F00203C4F80032D4F870
S315080071D0083223F0070343F00203C4F8083210BD4F
S315080071E00080005008B504486BF0B5FBBDE80840C0
S315080071F002486BF0B0BB00BF28440B0840440B089C
S3150800720008B504486BF0D5FBBDE8084002486BF0AA
S31508007210D0BB00BF58440B0870440B0818B1034B89
S315080072201860002070472520704700BF9C1F01206A
S3150800723010B5054C0549206802F072F82068BDE8CB
S315080072401040FFF7EBBF00BF3010002004100020ED
S3150800725070B58B680546012B0C4616468CB01CD0BB
S31508007260022B29D0002B33D119461C2205A8ACF0D5
S31508007270A7FD314605A8A0F054F930B9214628469D
S3150800728005AA31F0A3F8002833D1852221462846DD
S315080072900CB0BDE8704084F0BFBA0023114605A8BB
S315080072A0ADF81430A0F087F90028EED1214628461B
S315080072B005AA31F007F9E6E7114605A8A0F0A7F9EF
S315080072C00028E2D12146284605AA31F053F9DAE723
S315080072D0812284F0A1FAD4E9012391B2120C019219
S315080072E09AB20291009201211D20034A1B0C98F0C4
S315080072F005F80CB070BD00BF88440B0830B58B6824
S3150800730005460C4689B0ABB9114605A8CDE9053343
S3150800731007939FF0D2FF28B92146284605AA8AF086
S315080073206AF8C0B985222146284609B0BDE830402A
S3150800733084F072BA812284F06FFAD4E9012391B2FB
S31508007340120C01929AB20291009201211D20034A61
S315080073501B0C97F0D3FF09B030BD00BF88440B085B
S3150800736030B58B6805460C4687B093B9114605A813
S31508007370A0F0D4F828B92146284605AA8AF07CF850
S31508007380C0B985222146284607B0BDE8304084F0BA
S3150800739043BA812284F040FAD4E9012391B2120C4F
S315080073A001929AB20291009201211D20024A1B0CF9
S315080073B097F0A4FF07B030BD88440B0870B58B68FA
S315080073C00546022B0C4616468AB01DD0042B2CD037
S315080073D0002B36D10022ADF810300023314604A820
S315080073E0CDE906239FF06EFE30B92146284604AA49
S315080073F032F072F8002835D18522214628460AB08F
S31508007400BDE8704084F008BA0021182204A8ACF040
S31508007410D7FC314604A8A1F09CFD0028ECD12146F2
S31508007420284604AA32F05EF9E4E7114604A89FF05C
S315080074307FFE0028E0D12146284604AA32F0BCF88F
S31508007440D8E7812284F0E8F9D4E9012391B2120C35
S3150800745001929AB20291009201211D20024A1B0C48
S3150800746097F04CFF0AB070BD88440B0830B58B689E
S3150800747005460C4689B0C3B900200021CDE90601AE
S31508007480114604A8CDE904339FF066FF28B92146C2
S31508007490284604AA32F0D4F9C0B9852221462846DE
S315080074A009B0BDE8304084F0B7B9812284F0B4F958
S315080074B0D4E9012391B2120C01929AB20291009278
S315080074C001211D20024A1B0C97F018FF09B030BD98
S315080074D088440B0870B58B6805460C4616469CB062
S315080074E0042B5AD8DFE803F003285937460000234F
S315080074F0314604A8ADF810308DF812308DF81430E6
S315080075008DF820308DF830308DF840308DF85030B9
S315080075108DF86030A1F0C4FE30B92146284604AA89
S3150800752032F0F6FB002849D18522214628461CB0B0
S31508007530BDE8704084F070B90023314604A8ADF860
S315080075401030A0F03EFA0028EED12146284604AABB
S315080075508AF0F2FCE6E70023314604A8ADF81030BD
S31508007560A0F05BFA0028DFD12146284604AA8AF053
S315080075700FFBD7E7002204A811468DF8482095F09E
S315080075806CFE314604A8A2F059F90028CCD1214650
S31508007590284604AA8AF055FBC4E7812284F03CF900
S315080075A0D4E9012391B2120C01929AB20291009287
S315080075B001211D20024A1B0C97F0A0FE1CB070BDCD
S315080075C088440B0870B58B6805460C46164694B079
S315080075D0052B6BD8DFE803F0031C2B3E4D5900231F
S315080075E0314604A8CDE90533ADF810309FF01EF9F1
S315080075F030B92146284604AA8AF0BFFF002866D17A
S3150800760085222146284614B0BDE8704084F004B9A6
S315080076100023314604A8ADF810309FF062F900281F
S31508007620EED12146284604AA8AF0E2FFE6E70022C0
S3150800763004A811468DF8482095F00FFE314604A897
S31508007640A2F0D0F80028DBD12146284604AA8BF000
S31508007650AEF9D3E70023314604A8ADF810309FF001
S31508007660A0F90028CCD12146284604AA8BF0E6F8D2
S31508007670C4E7314604A89FF0E6F90028C0D12146A0
S31508007680284604AA8BF030F9B8E70023314604A847
S31508007690CDE90533ADF810309FF0F3F90028AFD1E6
S315080076A02146284604AA8BF034F9A7E7812284F0FC
S315080076B0B3F8D4E9012391B2120C01929AB202915D
S315080076C0009201211D20034A1B0C97F017FE14B0E7
S315080076D070BD00BF88440B0830B58B6805460C465C
S315080076E087B0A3B1402B28D0812284F095F8D4E93D
S315080076F0012391B2120C01929AB2029100920121D1
S315080077001D20164A1B0C97F0F9FD07B030BD11462F
S3150800771005A8ADF814309FF00FF830B92146284671
S3150800772005AA8BF097F90028EFD18522214628462D
S3150800773007B0BDE8304084F06FB80023114605A8AD
S315080077408DF814308DF815309FF022F80028ECD10A
S315080077502146284605AA8BF089F9E4E788440B08F0
S3150800776030B50C46A368054611468DB0082B72D86D
S31508007770DFE803F005711D2F3F714F715F0000238D
S3150800778004A88DF810308DF82030A1F0ECFC30B943
S315080077902146284604AA8BF046FC00286DD185228E
S315080077A0214628460DB0BDE8304084F035B80023A0
S315080077B004A8CDE90433CDE906338DF82030A0F0CE
S315080077C032FB0028EBD12146284604AA8BF025FC7B
S315080077D0E3E7002304A8CDE904338DF81830A0F0B8
S315080077E05FFB0028DBD12146284604AA8BF013FC50
S315080077F0D3E7002304A8CDE904338DF81830A0F0A8
S3150800780085FB0028CBD12146284604AA8BF009FC23
S31508007810C3E7002304A8CDE904338DF81830A0F097
S31508007820ABFB0028BBD12146284604AA8BF0F7FB00
S31508007830B3E7002304A8CDE904338DF818308DF892
S315080078402030A0F0CFFB0028A9D12146284604AA5B
S315080078508BF0EBFBA1E78122214683F0DDFFD4E91B
S31508007860012391B2120C01929AB20291009201215F
S315080078701D20034A1B0C97F041FD0DB030BD00BF1B
S3150800788088440B0830B58B6805460C468DB0F3B9AD
S3150800789000200021CDE90401114604A8ADF81830EE
S315080078A08DF81A308DF81C30ADF82830A1F019FA89
S315080078B028B92146284604AA35F008FDC0B985220C
S315080078C0214628460DB0BDE8304083F0A5BF812289
S315080078D083F0A2FFD4E9012391B2120C01929AB265
S315080078E00291009201211D20024A1B0C97F006FD09
S315080078F00DB030BD88440B08F0B50C46A3680546A4
S31508007900114691B00B2B00F28F80DFE803F0068D4D
S315080079101D8D2B8D3B538D63717F002304A8CDE904
S3150800792004339FF077FE38B92146284604AA33F077
S3150800793091FC002840F08A8085222146284611B00D
S31508007940BDE8F04083F068BF002304A88DF8103026
S315080079509FF0BBFE0028EFD12146284604AA33F043
S3150800796035FCE6E7002304A8CDE904338DF8183082
S31508007970A1F08FF80028DFD12146284604AA33F063
S315080079801FFDD6E700230026002704A8CDE9043307
S31508007990CDE90933CDE90C678DF81830ADF83830E4
S315080079A0A1F0EDF80028C7D12146284604AA33F0ED
S315080079B059FABEE7002304A8CDE904338DF8183038
S315080079C0A1F0A7F80028B7D12146284604AA33F023
S315080079D05BF9AEE7002304A8CDE904339FF0F2FE75
S315080079E00028A9D12146284604AA33F0DBF8A0E7E7
S315080079F0002304A88DF810309FF010FF00289BD1B3
S31508007A002146284604AA33F069F892E7002304A819
S31508007A10CDE904339FF02EFF00288DD12146284654
S31508007A2004AA33F0D1F984E78122214683F0F4FED3
S31508007A30D4E9012391B2120C01929AB202910092F2
S31508007A4001211D20024A1B0C97F058FC11B0F0BD0D
S31508007A5088440B0830B58B6805460C4687B093B941
S31508007A60114605A89FF0CBFC28B92146284605AA49
S31508007A708DF0A5F9C0B985222146284607B0BDE88C
S31508007A80304083F0C9BE812283F0C6FED4E90123C3
S31508007A9091B2120C01929AB20291009201211D2014
S31508007AA0024A1B0C97F02AFC07B030BD88440B0825
S31508007AB030B58B6805460C4687B093B9114605A8BC
S31508007AC09FF0C6FC28B92146284605AA35F08AFC47
S31508007AD0C0B985222146284607B0BDE8304083F064
S31508007AE09BBE812283F098FED4E9012391B2120C41
S31508007AF001929AB20291009201211D20024A1B0CA2
S31508007B0097F0FCFB07B030BD88440B0830B58B688E
S31508007B1005460C4687B093B9114605A89FF09BFC0D
S31508007B2028B92146284605AA8DF0BEFDC0B985228A
S31508007B302146284607B0BDE8304083F06DBE812255
S31508007B4083F06AFED4E9012391B2120C01929AB22B
S31508007B500291009201211D20024A1B0C97F0CEFBD0
S31508007B6007B030BD88440B0873B504460E46014677
S31508007B701046154639F0F8F963683F2B05D8292BC6
S31508007B8011D8032B70D0042B68D09AB20092012129
S31508007B901D204A4A1B0C97F0B1FBC32221462846F2
S31508007BA083F03AFE37E0A3F12A02152AEDD801A19F
S31508007BB051F822F0817C00088B7B00088B7B00083B
S31508007BC08B7B00088B7B00088B7B0008397C0008C0
S31508007BD0757C0008217C0008457C0008997C000813
S31508007BE0A57C0008B17C00082D7C00088B7B00086A
S31508007BF08B7B00088B7B00088B7B00080D7C0008BC
S31508007C008B7B00088D7C0008517C00083246214693
S31508007C102846FFF71DFB02B0BDE8704039F006BAEA
S31508007C20324621462846FFF769FBF4E732462146E5
S31508007C302846FFF795FBEEE7324621462846FFF72A
S31508007C40BDFBE8E7324621462846FFF70FFCE2E788
S31508007C50324621462846FFF73DFCDCE732462146F8
S31508007C602846FFF7AFFCD6E7324621462846FFF7F7
S31508007C7033FDD0E7324621462846FFF771FDCAE7AD
S31508007C80324621462846FFF7FDFDC4E7324621461F
S31508007C902846FFF731FEBEE7324621462846FFF75B
S31508007CA0D9FEB8E7324621462846FFF701FFB2E774
S31508007CB0324621462846FFF729FFACE7BC440B08A5
S31508007CC02DE9F041484C8EB0264601AD0FCE0FC5C2
S31508007CD0336814342B6006AD0FCC0FC594E80F003B
S31508007CE085E80F0001213A2001F024FF01215720E1
S31508007CF001F020FF4FF480733C4EADF81C303C4B2E
S31508007D003046039301A906AB059302F0D1FF012380
S31508007D1004220321022003F0E1F802210023084689
S31508007D20012203F0DBF8012304221946022003F09E
S31508007D30D5F8042200210123022003F0CFF82D4CA8
S31508007D402D4B0125C4F8C8344FF00213C4F8C434C7
S31508007D5003F58033C4F8CC341C2304F50058C4F862
S31508007D60B4344FF4487008F0ADFF04F5805714207A
S31508007D70C8F8A05008F0A6FF2320C7F8A05008F0BE
S31508007D80A1FFB9213046C8F8A0506BF000F80023CF
S31508007D9003211A460220C7F8A05003F09FF80023D3
S31508007DA002211A46084603F099F82B46294600226E
S31508007DB0022003F093F800222B461146022003F016
S31508007DC08DF8304602F09AFD00215720C4F8C814F1
S31508007DD0C4F8C414C4F8CC14C4F8B41401F0AAFE48
S31508007DE00EB0BDE8F08100BFD8440B0800000A5069
S31508007DF0E070720000C003500200010008B500F0F0
S31508007E002DF8124B12498B4212D30020114B1249FE
S31508007E108B4218D3FFF764F9186850F8224058685F
S31508007E2040F82240013298688242F5D30C33EAE7DB
S31508007E300022F8E71C6844F8220001325C68A24276
S31508007E40F8D30833E4E70022F8E700BFD8B50C08F2
S31508007E50E4B50C08E4B50C08E4B50C084FF4804109
S31508007E604FF0FF3010B5114B114A9A60D3F88820AD
S31508007E7042F47002C3F888200E4A91660E4901F54D
S31508007E80005210660D4850660220C3F8D000BFF3B2
S31508007E904F8FBFF36F8F01244FF440330848C0F863
S31508007EA08041D36004600B6110BD00BF00ED00E0A7
S31508007EB0006000080090005000800044F7FF37007B
S31508007EC000E100E0014B1868704700BF3811002038
S31508007ED0014B1860704700BF38110020084B1B6F14
S31508007EE003F00703022B04D0032B05D0012B05D082
S31508007EF0FEE7044B18687047034BFBE703487047D7
S31508007F0000800050381100203C110020002D31015E
S31508007F1008B5FFF7E3FF054B1B6FC3F303330133C4
S31508007F20B0FBF3F0024B186008BD00BF008000509C
S31508007F30341100200048704700B4C404014B186887
S31508007F40704700BF3C110020054B1860054B1B6F9E
S31508007F5003F00703032B01D1FFF7DABF704700BF11
S31508007F603C1100200080005000487047002D310168
S31508007F704FF0B4439868C0F304400C2822D8DFE8D1
S31508007F8000F0092121212121071719211B1D1F0096
S31508007F900F4870479B6803F04073B3F1807F13D096
S31508007FA0B3F1007F12D00B4A002B08BF104670476A
S31508007FB00948704709487047094870470948704793
S31508007FC009487047002070470848704708487047B6
S31508007FD0405DC60000093D000024F400C0EA210106
S31508007FE080BA8C010048E801005A620280841E00AB
S31508007FF040420F00014B1868704700BF401100202F
S31508008000BFF34F8F0549064BCA6802F4E062134373
S31508008010CB60BFF34F8F00BFFDE700BF00ED00E068
S315080080200400FA054FF000639A6A02F17841B1F547
S31508008030C04F03D21168074A914203D00023037048
S3150800804083607047012202709A6A926842609B6A4E
S315080080509B69F5E707B0CD5E08B54FF00053024AB5
S315080080601A60FFF7CDFF00BF02020FF073B54D4B44
S3150800807004461A781AB102221A7002B070BDCDE908
S3150800808000220028F9D001261E706AF02DFE464D02
S31508008090464B186064F04AFA2B785BB900F09AFDF3
S315080080A040B943480823434A434900685DF028FB22
S315080080B000B92E70414B5A6E22619B6E404A63612D
S315080080C04FF4804393663F4B5968A1613E499960D6
S315080080D0196E2160596E6160196CA160596CE16076
S315080080E03A49086C1864496C5964012151661B6E3B
S315080080F09C043FD5364AD368D807FCD4354B1A6852
S31508008100531C3CD04FF480139340334A1366042320
S31508008110314C23664FF4007323666AF07FFB013007
S315080081200BD06AF07BFB40F2011398421FBF4FF455
S31508008130005323664FF4804323660823264C68467B
S3150800814023664FF4805323664FF0006323664FF48B
S31508008150002301A963666AF008FB009B2366019B5E
S3150800816063662B78002B88D0124B1A6822665B68E8
S31508008170636682E7194AD368D907FCD4BEE7184B69
S315080081801B78002BC3D14FF400720D4B5A6603F5CA
S31508008190A6235B68002BBAD14FF480120E4B1A66E1
S315080081A0B5E700BFE4B60120E2B60120C41F0120EE
S315080081B048110020BC1F01200071080000800050F3
S315080081C0009000500080004455CEAC0000C000541A
S315080081D000000440441100200090004400000450B0
S315080081E0E3B6012070B5204D04462E78012E02D044
S315080081F001232B7070BD0028FCD06AF00FFB0130FC
S315080082000BD06AF00BFB40F20113984205D0174BCE
S31508008210174A5E66D368DE07FCD42268154B1A66D1
S3150800822062685A66A2681A64E2685A64A269D00744
S3150800823044BF00229A60104B1A68013207D10F4AD0
S31508008240127822B90E494968C90748BF1A602269D7
S315080082500C4B5A6662699A6664F070F90A4B18689C
S315080082606AF048FD0023C4E7E4B601200090004008
S31508008270000004400080004444110020E3B60120B9
S3150800828000C0055000800050C41F012070B54FF093
S315080082900064A36A03F17842B2F5C04F21D21A6886
S315080082A0124B9A421DD1124E337813F0FD0F1BD193
S315080082B01048FFF7DBFE01254FF480330E4A0F49BD
S315080082C0C2F88051CB6015600D4A1361A36ADB6959
S315080082D0984704460748FFF785FF04B935702046D6
S315080082E070BD4FF48174FAE70024F8E707B0CD5E55
S315080082F0E3B60120A01F012000E100E000A0004431
S315080083000090004413B51F4B1B7803B9FEE7002302
S315080083101D4CCDE900336A4608231C4920685DF0E8
S31508008320EFF9F0B91A4AD2F84031D2F840211F2B9A
S315080083304FF0010310D9203A9340019A1343019351
S3150800834008236A46114920685DF090F94FF00053FA
S31508008350104A1A60FFF754FE9340009A134300939D
S31508008360EEE70D4B9842F1D1094AD2F84031D2F8DE
S3150800837040211F2B4FF0010302D9203A9340DEE734
S315080083809340ECE7E4B6012048110020007108008C
S31508008390008000440B020FF00BE000F038B54FF0F8
S315080083A00065AB6A044603F17842B2F5C04F12D2B3
S315080083B01B6B03F17843B3F5C04F0CD20648FFF7A1
S315080083C055FEAB6A20461B6B5B689847BDE838408C
S315080083D00148FFF707BF38BDC81F012013B54FF086
S315080083E000640190A36A03F17842B2F5C04F15D232
S315080083F01B6B03F17843B3F5C04F0FD20948FFF75B
S3150800840035FEA36A01211B6B01A89B6998470446A0
S315080084100448FFF7E7FE204602B010BD4FF481740A
S31508008420F9E700BFC81F012037B54FF00065CDE951
S315080084300021AB6A044603F17840B0F5C04F12D26A
S315080084401B6B83B10948FFF711FEDDE90021AB6A12
S3150800845020461B6B5B6A984704460448FFF7C2FE32
S31508008460204603B030BD4FF40174F9E7C81F012058
S3150800847037B54FF000650191AB6A044603F17842BF
S31508008480B2F5C04F15D21B6B03F17843B3F5C04F55
S315080084900FD20948FFF7EAFDAB6A20461B6B019924
S315080084A09B6A984704460448FFF79CFE204603B09B
S315080084B030BD4FF40174F9E7C81F012037B54FF0F6
S315080084C00065CDE90021AB6A044603F17840B0F5B2
S315080084D0C04F16D21B6B03F17843B3F5C04F10D2C9
S315080084E00948FFF7C3FDDDE90021AB6A20461B6B8F
S315080084F09B6B984704460448FFF774FE204603B072
S3150800850030BD40F20114F9E7C81F012037B54FF016
S3150800851000650191AB6A044603F17842B2F5C04F93
S3150800852015D21B6B03F17843B3F5C04F0FD2094838
S31508008530FFF79CFDAB6A20461B6B0199DB6B9847DE
S3150800854004460448FFF74EFE204603B030BD40F20D
S315080085500114F9E7C81F012010B40A681378022B22
S3150800856011D014203023147913FB040307481B5831
S315080085705079C340DB4303F00103137008465DF8E6
S31508008580044B4BF043BF5DF8044B704730C00350B3
S3150800859037B50468012105463A2001F0CBFA0023D5
S315080085A001226179207902F099FC1422302321797D
S315080085B013FB01230E4A9B586279D340DB4303F031
S315080085C001032370A379022B0ED100F089FA2A46FB
S315080085D00849607900F0AEFA0123024661792079EC
S315080085E0CDE9003302F022FC002003B030BD00BF05
S315080085F030C003505985000802681378022B24D02E
S3150800860014213023107913FB001310495B58517954
S31508008610CB40917903F00103012912D1508843EA2E
S3150800862040034FF6E07063F03F039BB2834202D1EA
S315080086301170538070474FF6DF718B42F9D10021D4
S31508008640F6E711B983F001031370704730C0035081
S3150800865010B5012243780178847830209A40054B7A
S3150800866000FB01331CB903F501531A6010BD03F56D
S315080086708253FAE700C0035010B501224378017807
S31508008680847830209A40054B00FB01331CB903F56A
S3150800869082531A6010BD03F50153FAE700C0035070
S315080086A00122437801789A4030235943014B5A50A6
S315080086B0704700BF40F0035010213023024600786F
S315080086C013FB0013054950785B58C34003F00100BB
S315080086D093780BB980F00100704700BF30C0035093
S315080086E02DE9F04F9A46554B85B01B7806460F463E
S315080086F01546DDF83C909DF844B0DDF85080002B17
S3150800870000F08C80072A00F28B800E9B002B00F06D
S315080087108780B9F1000F00F08380129BB3F5006FD4
S315080087207EDC012802D1109B002B79D0444B03EB49
S3150800873005131B7B002B75D0424C1022002168467E
S31508008740ABF03EFB04EB45141022002F58D13946F6
S315080087502046ABF035FB43F210036380BBF1000FF4
S3150800876003D1E37843F00303E370364A0E9B02EB2A
S31508008770451CCCE90193129BCDF800A0013BC3F33D
S315080087800A009DF84C30690103F003039B0643EA8F
S31508008790001E53582C48012E00EA03004EEA000337
S315080087A0535041D113230CF1100ECCF80C309CE831
S315080087B00F008EE80F006FF00301DCF81C20109BF9
S315080087C061F39F02012FCCF81C20CCF8143003D19A
S315080087D0CCF81890CCF804300027194A290102EB86
S315080087E0051342F80180159A28465A6069462246BA
S315080087F09F605E7302F0F2FB384605B0BDE8F08F65
S3150800880000212046ABF0DCFA4FF444736380BBF1D9
S31508008810000FAAD1E37843F03003A5E70B48ECE74D
S315080088200B48EAE70B48E8E7B8F1000FD4D19CF803
S31508008830023068F304138CF80230CDE7E5B6012060
S31508008840E41F0120642001200F80FFF3028000F05E
S31508008850018000F0078000F038B5124B05461B78FA
S31508008860DBB1E0B16AF040FA0F4A00231146147BE7
S3150800887054B92B6001251A0101EB03131D738C50A3
S315080088806AF038FA204638BD0133082B02F1100287
S31508008890EDD16AF02FFA0548F5E70548F3E70548EC
S315080088A0F1E700BFE5B60120E41F0120048000F0CF
S315080088B0028000F0018000F0154B13B518680023FC
S315080088C001908DF804306AF00FFA124B1C7824B127
S315080088D06AF010FA104802B010BD01221A706AF048
S315080088E009FA0E4B01A81C731C7783F82C4083F8F1
S315080088F03C4083F84C4083F85C4083F86C4083F82E
S315080089007C4008238DF8073002F036FB2046E2E764
S315080089105C450B08E5B60120038000F0E41F012042
S3150800892008B50A4A12785AB107280BD8084A02EB42
S3150800893000131B7B43B1002102F010FB002008BD89
S315080089400448FCE70448FAE70448F8E7E5B60120D6
S31508008950E41F0120028000F0018000F0078000F08B
S3150800896008B50A4A12785AB107280BD8084A02EB02
S3150800897000131B7B43B1012102F0F0FA002008BD69
S315080089800448FCE70448FAE70448F8E7E5B6012096
S31508008990E41F0120028000F0018000F0078000F04B
S315080089A00D4B1B7893B1072812D889B10B4B03EBF3
S315080089B000131B7B73B10A4BDA6A012303FA00F032
S315080089C010401ABF00200B700870704705487047A2
S315080089D00548704705487047E5B60120E41F0120A1
S315080089E000000450028000F0018000F0078000F0CB
S315080089F010B50B4A0C46127862B107280CD859B143
S31508008A00084A02EB00131B7B43B102F059FB2060B6
S31508008A10002010BD0448FCE70448FAE70448F8E7D4
S31508008A20E5B60120E41F0120028000F0018000F075
S31508008A30078000F02DE9F843174B1F6D5B6D1F404B
S31508008A4000D5FEE701260025144CDFF85480DFF830
S31508008A505490374217D0C8F8506023689BB1A16874
S31508008A60284601316268A1609847637B012B0AD1C9
S31508008A7048B909EB45131A7B60F341021A731A7F4A
S31508008A8060F341021A770135082D4FEA460604F1CC
S31508008A901004DED1BDE8F88300000450E41F01206D
S31508008AA0002004506420012070B5044601250B4EB1
S31508008AB004B970BD94FAA4F0B0FA80F005FA00F390
S31508008AC006EB001224EA03045368002BF0D0117B4E
S31508008AD011B191689847EBE79847E9E764210120C7
S31508008AE008B5192001F05CFD28B14FF00072074B5C
S31508008AF0C3F880211A601A2001F052FD28B14FF000
S31508008B008062024BC3F880211A6008BD00E100E0CC
S31508008B1038B505460C466AF0E7F80022044B03EB25
S31508008B2005135C601A73BDE838406AF0E3B800BF05
S31508008B3064210120F8B505460F4616466AF0D4F8B2
S31508008B40104B05F0FC02D3F824140023EC1804F0AB
S31508008B500304144321FA04FC1CF0010F07D0013367
S31508008B60042BF3D1FF246AF0C5F82046F8BDFF2C84
S31508008B70F9D00122044B03EB0413C3E901761A73F7
S31508008B80F1E700BF00C0035064210120074BD3F86A
S31508008B902404D3F8202403F50053104000F0553080
S31508008BA020F05020C3F82004FFF77EBF00C0035012
S31508008BB0074BD3F82404D3F8202403F500531040B8
S31508008BC000F0AA3020F0A020C3F82004FFF76CBFFD
S31508008BD000C00350024B1968024B18685CF070BC61
S31508008BE04C1100204811002037B5920004460D4666
S31508008BF00192ABF0F9FA431C0BD060B9294620461E
S31508008C00019AABF0A6F80028044808BF002003B074
S31508008C1030BD0348FBE70348F9E700BF10E000F062
S31508008C2021E000F024E000F013B5044601A802F0A4
S31508008C30D5FA9DF80630012223804FF48073002070
S31508008C406380054B9B680A3303F01F0302FA03F39C
S31508008C50636002B010BD00BF0080E00F10B5044687
S31508008C60ABF0BAFA431C15D0B0B90C4B20469B683A
S31508008C700A3303F01F020123934023F0030323441E
S31508008C80984201D1002010BD50F8042B0132F7D0CC
S31508008C900348F8E70348F6E70348F4E70080E00FDF
S31508008CA00EE000F021E000F024E000F008B56AF0DC
S31508008CB014F8014B186008BDA4290120014B186857
S31508008CC06AF00FB8A429012038B141B1013AB2F5CA
S31508008CD0006F044838BF00207047034870470148B2
S31508008CE0704700BF037000F0027000F038B5044604
S31508008CF00D4669F0F9FFA3889BB223B92B6069F08A
S31508008D00F9FF064838BD142263889BB202FB034468
S31508008D1008342C6069F0EEFF0020F3E70B7000F0D2
S31508008D20F8B5044616460F4669F0DEFFA388E288C2
S31508008D309BB29A42054605D80023336069F0DAFFEC
S31508008D401748F8BD1422238807F1100C9BB202FBC2
S31508008D5003433A460833174603CF674518605960F8
S31508008D603A4603F10803F6D11422386818602388B6
S31508008D7028469BB202FB0343083333602388E28804
S31508008D809BB20133B3FBF2F102FB11339BB2238092
S31508008D90A38801339BB2A38069F0ACFF0020D0E71B
S31508008DA00A7000F090F83530022B0DD114223023CA
S31508008DB0417F90F8210013FB0123044A9B5823FAAC
S31508008DC000F000F0010070470020704730C00350E3
S31508008DD0002313B51D4A52F8044B94F8211081421A
S31508008DE00ED00133042BF6D102B010BD0028FBD1FA
S31508008DF09DF80730002BF7D0A068FFF791FDF3E741
S31508008E0094F83530022BEFD12046FFF7CBFF637E6F
S31508008E102076022BE8D194F8323003F0FF02002BBB
S31508008E20E2D1A0680DF107018DF80720FFF7B8FD1C
S31508008E30237E1BB194F83330002BD7D00023A068CB
S31508008E4084F83330FFF78CFDCEE700BF582A01209F
S31508008E5030B51049104A0B782BB9C2E90033C2E97C
S31508008E60023301230B700C4C0023214651F8045B96
S31508008E70854208D00133042BF8D1002154F8043B6D
S31508008E801BB942F82100002003E001310429F5D17D
S31508008E90024830BDE6B60120582A0120027000F0CB
S31508008EA010B50446FFF708FD002104F10800FFF796
S31508008EB0D3FC014620B904F10C00FFF7CDFC00B144
S31508008EC0004810BD0E7000F090F8363053B90421F2
S31508008ED003790A4A03F239135B01D1500222036867
S31508008EE05A617047022B07D10068816C11F00201A4
S31508008EF018BF062169F041BF704700BF00C0035084
S31508008F0090F836306BB9012203685A610268936992
S31508008F10D907FCD504210379074AB9335B01D15037
S31508008F207047022B07D10068836C9B074CBF05214D
S31508008F30092169F022BF704700C0035010B590F8A8
S31508008F40363004466BB9042203685A61026893698D
S31508008F509907FCD523790C4AB9335B01102199503E
S31508008F6010BD022BFCD10068836CDB074CBF0521C2
S31508008F70062169F002FF237941F294425B0103F16D
S31508008F80A04303F57033E9E700C00350012370B529
S31508008F9080F8303090F8363004460E4686B0A3B9CD
S31508008FA005682435204669F0ECFD0D4B32680393BD
S31508008FB0002302937368616901930123E0680093B3
S31508008FC004942B4669F015FD07E0022B02D10568CB
S31508008FD03C35E7E7002380F8303006B070BD00BFA7
S31508008FE015920008F8B507460D461646FFF76CFEBB
S31508008FF000286BD1152001F0E1FA0446FA6A938835
S315080090009BB213B197F83230E3B197F83630F3B91B
S315080090103B689C6904F002041CB93846FFF78EFFCA
S315080090200024012387F8343097F83630CBB92E441C
S31508009030B542386810D183699A06FCD51CB300245A
S315080090402046F8BD002CDAD0FFF7F4FCD6E7022B51
S31508009050E3D13B689C6CDDE715F8011B69F019FF45
S31508009060E6E7022BEAD12E44B542386806D142F229
S315080090702003826C33EA0202FBD1DFE715F8011BF5
S3150800908069F080FEF0E797F8363053B910213B793E
S315080090900F4A03F239135B01D15008223B685A6123
S315080090A0CEE7022BCCD13868836CDB074CBF09218D
S315080090B0214669F062FE42F2944210213B795B0137
S315080090C003F1A04303F570339950B9E70446B7E7AF
S315080090D000C0035010B5044680B190F832302BB961
S315080090E0FFF760FE10B9A068FFF71AFC002094F895
S315080090F032300133DBB284F8323010BD0048FCE769
S31508009100027000F010B50446A0B190F832309BB159
S3150800911090F83230012B05D1FFF744FE10B9A0684C
S31508009120FFF71EFC002094F83230013BDBB284F8CE
S31508009130323010BD0148FCE70148FAE7027000F03A
S31508009140057000F037B590F835500446022D1DD14C
S31508009150012290F82230457E817F9A403020164BB6
S3150800916025B900FB013303F5015305E0012D07D1AD
S3150800917000FB013303F582531A60002003B030BDAB
S31508009180247E00FB0133002CF4D1ECE7012DF4D149
S31508009190037E73B911238DF80730FFF79BFF2A4624
S315080091A020460DF10701FFF71DFF2046FFF7AAFF2E
S315080091B0E3E71323EFE700BF00C00350F0B587B01D
S315080091C005461646FFF780FD0446F0B90493104B92
S315080091D0CDE901166A46A86A01A903960593FFF721
S315080091E09FFD044688B995F8303073B92846FFF7CD
S315080091F087FE28460099FFF7C9FE95F83530032BF8
S3150800920003D028462C76FFF79DFF204607B0F0BD11
S31508009210017000F073B5906A01A91446FFF766FD60
S315080092200546204669F093FC3A4B9D4232D094F8A5
S315080092303610019B00293CD12068826C12F400721A
S315080092402BD0354A99601A614FF40072236803F5EA
S3150800925000539A6469F048FD01990646CD6835B110
S315080092604A688B682046D31A0A680969A847A06A1B
S3150800927001A969F09FFCA06A8588ADB2002D3AD095
S3150800928001A9FFF733FD20460199FFF77FFE304617
S3150800929069F030FD012002B070BD816CC80526D585
S315080092A01E499A60196123684FF4807203F50053CA
S315080092B0CFE702291BD12168CA6C12F400720AD0C2
S315080092C0154A1A6100229A604FF40072236803F562
S315080092D00053DA64BEE7C96CC90508D50F499A6018
S315080092E0196123684FF4807203F50053F1E70022F1
S315080092F01A619A60AEE7012320462376FFF722FF1C
S3150800930094F8353084F83050032BC0D02046FFF748
S31508009310DBFDBCE70B7000F00D7000F00C7000F080
S315080093202DE9F04104468CB0884F04AE0D460FCFA8
S315080093300FC697E80F0086E80F001022002168463E
S31508009340AAF03EFD002C00F0FE8025B9804E30467E
S315080093500CB0BDE8F081602200212046AAF030FD5D
S315080093602B6820462360022384F836302B7C237131
S31508009370FFF76EFD06460028E9D12B7F754A84F86B
S3150800938035302B68934240F0B88056236362724B9F
S3150800939023614FF4702363610123ADF8063000237F
S315080093A084F8316084F83060D5E90912A1620B802F
S315080093B0A16A3A204B80A16A684E8B8084F83030C7
S315080093C0E2621380E26A01215380E26A938084F89C
S315080093D0313084F8333002238DF81D30AB6806939C
S315080093E06B8AADF82030AB8AADF81E30AB7D8DF8B0
S315080093F01C30AB690993CDF82CD000F09BFB0121FA
S31508009400606A00F097FB2B79002B00F08180012120
S31508009410362000F08FFBD6F8203223F0070343F0FE
S3150800942003031022C6F820322B7C4D4F204607EB4B
S315080094304313C3F89424A97B2B7C2A7B07EB43139D
S3150800944042EA0142C3F8AC242B7CE97B6A7B2533CC
S3150800945042EA014207EB43135A602B7B0121E3766C
S31508009460AB7BE3776B7B2377EB7B84F820306B7FD2
S315080094706377AB7F84F82130EB7FA37795F82030AC
S3150800948084F8223069F0F3FA064600287FF45FAFC5
S3150800949069F02AFC2A7F8046032A40D141F294418A
S315080094A002202B7C07EB431358502B7C95F82000A1
S315080094B0E97F07EB431341EA004103F5A553196019
S315080094C0297CA87F07EB411741F29C416B7F43EA51
S315080094D000437B508DF8002006238DF810302B7939
S315080094E0286804A963B369F060FC2046FFF7D8FC36
S315080094F00646404669F0FEFB29E71A4A93427FF47E
S3150800950025AF57236362184B23614FF4801342E754
S31508009510D6F8203223F0070343F0010381E7022A35
S31508009520DAD194F821001149FFF7F2FAFFF7D8FAD1
S315080095304FF4007320462383A676FFF703FECBE796
S3150800954069F02FFCD1E70A4E01E700BFA0450B08DA
S31508009550037000F00000015B01000F00008000505E
S3150800956000C0035000000A5001001000D18D000809
S31508009570027000F0044BD3F88420D206FBD4D3F84B
S315080095808400C0F381107047004000502E4B98426B
S315080095904AD022D82D4B984240D014D82C4B98420A
S315080095A039D00AD82B4B984232D02B4B98422FD021
S315080095B02A4B98422CD000207047294B9842FAD162
S315080095C0284B186F7047284B98422AD0274B984249
S315080095D0F1D1244BD3F880007047254B98422BD005
S315080095E009D8244B984223D0234B9842E3D11D4BEC
S315080095F0D3F88C007047214B984221D003F57403A9
S3150800960003F510539842D6D1164BD3F898007047F5
S31508009610144B986D7047134B586E7047114B586F23
S315080096207047104B986F70470E4BD3F884007047FD
S315080096300C4BD3F8880070470A4BD3F89000704754
S31508009640084BD3F8940070470048E8010024F4005A
S31508009650C0CF6A0080841E0000093D0040420F000A
S31508009660405DC6000080E00FC0EA210180BA8C0187
S31508009670007E560380D54302006CDC020090D003BE
S3150800968038B5104B0546D3F880300C4603F0030373
S31508009690022B0BD0032B0DD0012B0FD1FEF71EFC8E
S315080096A00E2305B1286004B1236038BDFEF760FCBF
S315080096B00723F6E7FEF706FC0623F2E7002318461B
S315080096C0EFE700BF0080005038B5174B0546D3F8C2
S315080096D020310C4603F00703013B052B20D8DFE8B1
S315080096E003F0030B130F171BFEF7ECFB052305B15D
S315080096F0286004B1236038BDFEF720FC0323F6E793
S31508009700FEF736FC0723F2E7FEF72EFC0223EEE708
S31508009710FEF7D8FB0623EAE7FEF710FC0423E6E784
S3150800972000231846E3E700BF0080005038B5174B02
S315080097300546D3F828310C4603F00703013B052BF1
S3150800974020D8DFE803F003131B0F0B17FEF7BAFB4D
S31508009750052305B1286004B1236038BDFEF7B2FBC6
S315080097600623F6E7FEF704FC0723F2E7FEF7E6FB17
S315080097700323EEE7FEF7E2FB0423EAE7FEF7F4FB32
S315080097800223E6E700231846E3E700BF00800050FF
S3150800979073B50D460021114B0191D3F88041064659
S315080097A004F00304022C13D0032C0CD0012C13D183
S315080097B001A8FFF789FF10240EB1019B336005B19C
S315080097C02C6002B070BDFEF7D3FB07240190F3E7C7
S315080097D0FEF7CAFB0190EFE70C46EDE70080005064
S315080097E0002337B50193154B0546D3F820320C46AE
S315080097F003F00703013B032B1ED8DFE803F0020E34
S315080098001318002101A8FFF791FF12230DB1019A41
S315080098102A6004B1236003B030BDFEF7A9FB072315
S315080098200190F3E768F09BFF0A230190EEE7FEF745
S31508009830E1FB09230190E9E70023E7E700800050F0
S3150800984038B5104B0546D3F840310C4603F00303F0
S31508009850022B0BD0032B0DD0012B0FD168F07FFF05
S315080098600A2305B1286004B1236038BDFEF7C2FBA0
S315080098700923F6E768F076FF0C23F2E7002318467B
S31508009880EFE700BF00800050002337B50193164B61
S315080098900546D3F860320C4603F00703013B032B59
S315080098A01FD8DFE803F0020E1914002101A8FFF7FC
S315080098B00BFF10230DB1019A2A6004B1236003B08F
S315080098C030BD002101A8FFF7BBFF1123F2E7FEF721
S315080098D04FFB07230190EDE7FEF746FB02230190B5
S315080098E0E8E70023E6E700BF00800050002337B50D
S315080098F00193164B0546D3F894320C4603F007033A
S31508009900013B032B1FD8DFE803F0020E19140021D0
S3150800991001A8FFF7D9FE10230DB1019A2A6004B1F8
S31508009920236003B030BD002101A8FFF789FF11238A
S31508009930F2E7FEF71DFB07230190EDE7FEF714FBA0
S3150800994002230190E8E70023E6E700BF0080005005
S3150800995038B5134B0546D3F800320C4603F0070317
S31508009960013B032B18D8DFE803F0020A0E1268F051
S31508009970F6FE0A2305B1286004B1236038BDFEF758
S3150800998039FB0923F6E768F0EDFE0C23F2E7FEF74C
S31508009990BFFA0F23800AEDE700231846EAE700BF5F
S315080099A00080005038B5134B0546D3F808320C46EC
S315080099B003F00703013B032B18D8DFE803F0020A7C
S315080099C00E1268F0CCFE0A2305B1286004B12360A4
S315080099D038BDFEF70FFB0923F6E768F0C3FE0C2334
S315080099E0F2E7FEF795FA0F23800AEDE700231846FB
S315080099F0EAE700BF0080005038B5104B0546D3F89B
S31508009A0040320C4603F00303022B0BD0032B0DD078
S31508009A10012B0FD168F0A3FE0A2305B1286004B113
S31508009A20236038BDFEF7E6FA0923F6E768F09AFEE2
S31508009A300C23F2E700231846EFE700BF008000502A
S31508009A4038B5104B0546D3F860310C4603F00303CE
S31508009A50022B0BD0032B0DD0012B0FD168F07FFE04
S31508009A600A2305B1286004B1236038BDFEF7C2FA9F
S31508009A700923F6E768F076FE0C23F2E7002318467A
S31508009A80EFE700BF00800050B0F5207F1FD009D84F
S31508009A90B0F5007F15D003D868B1B0F5C07F0AD0FD
S31508009AA000200CE0B0F5607FFAD10B4BD3F88000AC
S31508009AB0C0F3011003E0084B186FC0F30330013000
S31508009AC07047054BD3F89000C0F30460F7E7024BE4
S31508009AD0186FC0F38020F2E70080005002464FF46A
S31508009AE08030104B10B598660020FFF7CDFF504325
S31508009AF041F671320C4BDC69DA635A6804F4803437
S31508009B0022F4401259B9094988428CBF4FF4801093
S31508009B100020104358600CB10022DA6310BD0449D6
S31508009B20F2E700BF0090005000000350005A62029E
S31508009B30002D3101430905D0012B0DD0022B094B0D
S31508009B4018BF002300F01F0041B103F5805301221E
S31508009B5002FA00F018607047034BF3E703F5005369
S31508009B60F5E700BF68800050648000501FB50021EB
S31508009B7080280446CDE9001100F0A58035D85E2876
S31508009B8046D85E2844D8DFE800F0A243434343435F
S31508009B904343434343434343434343434343434387
S31508009BA043434343434343434343A2AAA2AAB9B9FF
S31508009BB0B9B9B9AAC34DD9714DAAAAAA4343434311
S31508009BC043434343AAAAAA79E3AA434343434343E5
S31508009BD043434343434343B9A2A2A2DE4D4DE8881B
S31508009BE05EBE434343434399A200B0F5B06F00F00D
S31508009BF08F802DD8B0F5207F71D00CD8B0F5C07FF6
S31508009C0065D0B0F5007F65D0B0F5807F00F085801F
S31508009C10009804B010BDB0F5607F6AD00DD8B0F5D5
S31508009C20407FF5D1FEF774F902464FF42070FFF72E
S31508009C302BFFB2FBF0F0400847E0B0F5806F5DD02F
S31508009C40B0F5A06FE4D100216846FFF7C9FDDFE74C
S31508009C50B0F5106F77D016D8B0F5E06F78D00AD87F
S31508009C60B0F5C06F6AD0B0F5D06FD1D10021684683
S31508009C70FFF76EFECCE7B0F5F06FC9D10021684654
S31508009C80FFF7DEFEC4E7B0F5406F3CD013D8B0F559
S31508009C90206F62D0B0F5286FBAD10021314B0391FD
S31508009CA0D3F8703203F00303012B02D103A8FFF7A0
S31508009CB0C7FD039B3BE0B0F5486FA9D10021684674
S31508009CC0FFF714FEA4E7FEF709F90090A0E7FEF7F0
S31508009CD01FF9FAE7FEF702F90246204604E0FEF706
S31508009CE017F902464FF42070FFF7CEFEB2FBF0F0EC
S31508009CF0EBE701A8FFF7C4FC019AEEE700216846E6
S31508009D00FFF7E2FC84E700216846FFF70FFD7FE7CF
S31508009D1000216846FFF73CFD7AE74FF0E023029101
S31508009D201B695B0705D5FEF7F3F80290029B0093C3
S31508009D306EE703A902A8FFF783FDF7E70021684647
S31508009D40FFF77EFD64E700216846FFF72BFE5FE715
S31508009D5000216846FFF750FE5AE700216846FFF7DC
S31508009D6093FD55E70080005008B58020FFF7FEFEFA
S31508009D70034B98429EBF4FF48032024B1A6708BDC8
S31508009D80005A620200A000501FB50023B0F5807F7C
S31508009D90019300F0C38064D85D2855D84C2807D8AD
S31508009DA02D2847D823282BD8019805B05DF804FB41
S31508009DB04D381028F8D801A353F820F0139F00084F
S31508009DC0A99D0008A99D0008A99D0008C59E000830
S31508009DD0A99D0008A99D0008999F0008E39E000810
S31508009DE0899E00088F9F0008A99D0008A99D000864
S31508009DF0A99D0008A99D0008A99D0008A39F000821
S31508009E0024380928D0D801A353F820F0139F000856
S31508009E10139F0008139F0008139F0008139F00084C
S31508009E20A99D0008099F0008A99D0008A59E00088D
S31508009E30499F00083D2800F082803E28B4D10020C2
S31508009E4001A9FFF7D9FDAFE78028ADD15A4B1B6FA3
S31508009E5003F00703013B032BA6D8DFE803F05350B2
S31508009E60878FB0F5F06F6AD021D8B0F5B06F4BD0B8
S31508009E700FD8B0F5607F00F0858095D3B0F5806F78
S31508009E8047D0B0F5A06F8FD1002001A9FFF7A8FC35
S31508009E908AE7B0F5D06F57D0B0F5E06FCFD0B0F500
S31508009EA0C06F81D1002001A9FFF7CAFC7CE7B0F595
S31508009EB0206F71D00BD8B0F5086F4AD0B0F5106F87
S31508009EC07FF472AF002001A9FFF76CFD6CE7B0F5CF
S31508009ED0406F5CD0B0F5486F63D0B0F5286F7FF45B
S31508009EE063AF0021344B0391D3F8703203F00303B8
S31508009EF0012B5BD0022B14BF0B46152300E005236C
S31508009F00019351E70223FBE7002001A9FFF740FC74
S31508009F104AE7002001A9FFF7D7FB45E702934FF070
S31508009F20E0231B695B0705D5FDF7F2FF0D230393B5
S31508009F30039BE5E703A902A8FFF782FCF8E70020E0
S31508009F4001A9FFF77DFD2FE7002001A9FFF700FD16
S31508009F502AE7194BD3F8003103F00303022B07D085
S31508009F60032B09D0012B0BD1FDF7E8FF0323C7E725
S31508009F70FEF740F80923C3E768F0EFFB0823BFE7BD
S31508009F800123BDE7184601A9FFF77AFB0CE7002075
S31508009F9001A9FFF7CBFB07E7002001A9FFF774FC2F
S31508009FA002E7002001A9FFF7A1FCFDE603A8FFF7D9
S31508009FB047FC1123A4E700BF0080005008B5FFF74F
S31508009FC0E3FE092811D00A38012811D84FF4800277
S31508009FD0094B4FF6FF705A6603F5D8335B6A13F0E0
S31508009FE0010F18BF4FF4FA7008BD044B1888FBE739
S31508009FF04FF6FF70F8E700BF0090005024170020C6
S3150800A00038B504468020FFF7BFFE032800F083809A
S3150800A0104FF48012504B4FF0A0615A6645F60E0376
S3150800A0204E4AC2F880304E4B99624FF4803103F5A0
S3150800A03080539962916D11F48031FBD1D4E9000304
S3150800A0401B0543EA0063E07B0343207B43EA0043A6
S3150800A050607B43EA0033A07B43EA8013136190696F
S3150800A060D4E904531B0643EA856300F00040034322
S3150800A070A07E0343207E43EA0043607E43EA002332
S3150800A0809361136AE269E57E002A0CBF0020082066
S3150800A09023F00F03134343EA8503304A034313624D
S3150800A0A0E369304D002B37D194F82430916A94F83F
S3150800A0B02000DB000D4043EA401394F821102B439F
S3150800A0C043EA011343F480339362274B916D33EAD5
S3150800A0D00101FBD14FF08071214881621369A5689F
S3150800A0E023F4700343EA055313614FF00043836179
S3150800A0F094F822300BB91D4B996294F823301BB99A
S3150800A1004FF48032194B9A6294F825301BB1134BE1
S3150800A110174AC3F8802038BD022B08D111611548AB
S3150800A12091614FF408524FF47F4168F09DFD0B4949
S3150800A13094F822308A6A94F820001B06154043EAF0
S3150800A140401394F824202B4343EAC20394F82320AF
S3150800A15043EA02438B62D7E7009000500040005A5A
S3150800A1600050005AC7FFFEFE030001000060005AB7
S3150800A170F1A7FFFF3440005A014B93F900007047DE
S3150800A180401700204FF400011B4A437810B551666A
S3150800A1904FF4D151022402F5B832516217494F2BB8
S3150800A1A04C604FF0010428BF4F2301F580514C60E5
S3150800A1B01169C903FCD4017843EA01235361D0E944
S3150800A1C001131B0143EA0123417B0B43017B43EA4D
S3150800A1D041039360C37B817B1B0143EA4113417CA6
S3150800A1E00B43017C43EA41035360837C13B16FF44C
S3150800A1F0D153536210BD00BF0090005000100250AA
S3150800A200014B1880704700BF241700204FF48002C6
S3150800A21008B5184B5A660223174A5360936813F415
S3150800A2208033FBD1012822D1FDF788FE134B9842D3
S3150800A23015D003F5122303F5F863984213D0104B93
S3150800A24000EB8002400AB3FBF0F0520A0A4BDA62CE
S3150800A250012218635A620022074B5A6008BD45F668
S3150800A2607A10084AF2E745F61A00074AEEE75362FB
S3150800A270F1E700BF009000500040025000F049028C
S3150800A28064666666D8B80500BBCF0500B0F5207FC2
S3150800A29010B50C4657D008D8B0F5007F48D003D87B
S3150800A2A030B3B0F5C07F23D010BDB0F5607FFBD1C9
S3150800A2B029492A48D1F8FC2012F080721EBFD1F82D
S3150800A2C0FC3023F08073C1F8FC30D0F88030611E72
S3150800A2D023F0300444EA0114C0F88040002AE3D091
S3150800A2E01D4AD2F8FC3043F08073C2F8FC30DBE735
S3150800A2F068F0CBFC68F0D7FC4FF48031184B174A4E
S3150800A3001967136F611E23F4704444EA0134146715
S3150800A310FDF7FEFD0446FFF72DF9C0F102012046C0
S3150800A32068F0BBFC00F02EF8BDE81040FFF71CBD36
S3150800A3300A4A0139D2F8903023F0F85444EA016405
S3150800A340C2F89040B0E7054B013C196F21F48061D3
S3150800A35041EA84241C67A7E700ED00E0008000506E
S3150800A3600090005008B50121022000F09BF968F022
S3150800A3708CFC68F098FC4FF48032014B1A6708BDD4
S3150800A3800090005008B54FF4C070FFF7EFFBBDE82A
S3150800A3900840044988428CBF022101214FF42070ED
S3150800A3A0FFF774BF80F0FA024FF4C02201212DE9AD
S3150800A3B0F04105466A4B5A666A4A03F598335C6863
S3150800A3C051605E6816F00206FBD1FFF7D3F8012844
S3150800A3D0286805D1644B984202D90020BDE8F0816F
S3150800A3E0624A002311461768B84202D35768B84232
S3150800A3F005D90133192B02F11002F4D1002301EB20
S3150800A4000313D3E9028028B1FFF7C0F800F07F00F4
S3150800A41048EA00088020FFF7B7FC05285FD168F0F6
S3150800A42034FC68F040FC4FF480324D4B4FF4C0705A
S3150800A4301A67FFF729FB012806464CD102214FF47B
S3150800A440C070FFF723FF01274948C16811F00601CC
S3150800A450FBD1D0F808C0C0F80880836808F4F81261
S3150800A46003F4F8139A424ED1AA88EB8843EA0243CA
S3150800A470404AD360AB68032B33D1A2F5A032D2F899
S3150800A480003123F0030343F00103C2F800312B7DAA
S3150800A490287B002B6B7D14BF04220022002B18BFDB
S3150800A4A040212B694FF0000843EA40031343314A21
S3150800A4B00B4393602868FDF70BFD0722294B1A61A9
S3150800A4C00122A3F580535A60A3F580531C6914F042
S3150800A4D00704FBD01EE0022801D10421AFE70027BC
S3150800A4E0B2E7092B07D1244AD2F8003123F0030337
S3150800A4F043F00203C9E7082BC9D11F4AD2F8003135
S3150800A50043F00303C1E714F001044FF00108C0F853
S3150800A51008C0D2D18020FFF737FC052817D127B10C
S3150800A52031464FF4C070FFF7B1FEFDF7F1FC054662
S3150800A530FDF7C8FCFDF7C6FCFFF71CF8C0F10201E1
S3150800A540284668F0AAFBFFF71DFFFFF70DFCB8F1D8
S3150800A550000F7FF442AF631E584258413EE700BFE2
S3150800A5600090005000E00150005A6202C0450B08F6
S3150800A5700000015000C00150008000500028ABBF09
S3150800A58000F16040054B00F5614000F00F00ACBFDC
S3150800A59090F80003185C0009704700BF14ED00E04E
S3150800A5A0054B420953F8223000F01F0023FA00F049
S3150800A5B0C04300F00100704700E100E0014608B51D
S3150800A5C0EFF31083DB0702D50122104608BDFFF71B
S3150800A5D0E7FF02460028F7D10846FFF7CFFF0146F6
S3150800A5E0EFF3118313B1B0EB131FEDD2074B5B6882
S3150800A5F0C3F30803002BE8D0103B58B2FFF7BEFFA1
S3150800A60088428CBF00220122DFE700BF00ED00E090
S3150800A610024A536B0342FCD1704700BF0040095001
S3150800A620044A4178536F23F4407343EA012353677E
S3150800A630704700BF0040005010B50A4A0446136927
S3150800A64043F00403136105F037FF68F056FB30BF8B
S3150800A65068F054FB05F044FF1CB9BDE81040FDF74F
S3150800A66057BC10BD00ED00E010B5084A0446136952
S3150800A67043F00403136105F01FFF30BF05F030FFF8
S3150800A6801CB9BDE81040FDF743BC10BD00ED00E065
S3150800A690034A0179D36E23F030030B43D366704720
S3150800A6A000400050F8B504461C4BD3F88420D10668
S3150800A6B0FBD4D3F88430C3F381139C422CD0FDF726
S3150800A6C00DFC012C064602D1214668F0E6FA68F030
S3150800A6D004FB4FF00072124B07465A66204668F094
S3150800A6E010FB4FF480630D4D621E93402B676B6E13
S3150800A6F09A0103D4D5F884309B060AD5384668F003
S3150800A700F0FA022C08D13046BDE8F840002168F07E
S3150800A710C4BAD5F88430EAE7F8BD00BF0040005057
S3150800A7200060005007B518B90191FDF7D7FB0199EC
S3150800A730064B1B7843B1064B984205D8012003B057
S3150800A7405DF804EBFFF7AEBF0220F8E7E7B6012095
S3150800A750005A62020278034B012100201A70FFF7A3
S3150800A760E1BF00BFE7B601204FF00042154B10B518
S3150800A7705A664AF6CD3314494C6C0B6404F001044E
S3150800A78088B90120FFF744FF4B68DB0704D50F4B58
S3150800A79058600B6BD807FCD514B10B4B0C4A1A64DE
S3150800A7A0A8F027F910BD0B6B1A07FCD42022074B1B
S3150800A7B09A620122A3F580535A60034A936A9B065C
S3150800A7C0FCD5E9E7009000500040095000600950A8
S3150800A7D03254FFFF4FF0004238B5164B01465A6611
S3150800A7E04AF6CD33144C154A656C236443780B201E
S3150800A7F05B0043F00103D363FFF70AFF63688A78B7
S3150800A80023F4F87343EA02136360CA784B7943EA80
S3150800A8100223A3600A798B7943EA02232361087825
S3150800A820FFF7A2FFEB0744BF054B2364A8F0E1F846
S3150800A830012038BD009000500040095000400050EB
S3150800A8403254FFFF4FF0004270B5124B04465D6E5E
S3150800A85003F580535A664AF6CD330F4980204E6C6D
S3150800A8600B64FFF7D5FE0B6A23F00F030F2C94BF7A
S3150800A870234343F00F030B62F30744BF074B0B64F4
S3150800A880002DA2BF4FF00042054B5A66A8F0B1F85A
S3150800A89070BD00BF00800050004009503254FFFFD1
S3150800A8A000A000504FF0004270B5104B04465D6E94
S3150800A8B003F580535A664AF6CD330D4980204E6C0F
S3150800A8C00B64FFF7A5FE0B6A23F4F85343EA042347
S3150800A8D00B62F30744BF074B0B64002DA2BF4FF072
S3150800A8E00042054B5A66A8F084F870BD00800050F7
S3150800A8F0004009503254FFFF00A0005010B568F020
S3150800A90005FA042300F5805100F500520B61136126
S3150800A9100B6113610B6113610B611361202341F213
S3150800A920020103610023C360836041614FF4A021E3
S3150800A9308361836541620549C36103628362C362B9
S3150800A94043630365D164036310BD00BFFF3F0D0376
S3150800A950F8B505461446084641B9344B9D422FD0F2
S3150800A960334B9D4208BF5720FFF700F9AB68DE0757
S3150800A9702ED5B0FBF4F46E68013C16F0010625D01E
S3150800A9802821284668F0BEF9AB6C99071AD1AB6C3A
S3150800A990DA0719D4AB6C13F0020F0CBF0027062791
S3150800A9A0284668F0B3F9286920F07F4040EA046435
S3150800A9B02C61DEB139462846BDE8F84068F0DDB9B5
S3150800A9C05620D1E70527EBE70927E9E73746EAE7FF
S3150800A9D06B68AB6DAF68DB0707F0E00748BF64003C
S3150800A9E0402F1BD003D8DFB1202F1BD0F8BD602F16
S3150800A9F01AD0802FFAD1012604FB06F34101B1FBD8
S3150800AA00F3F30C4A203B02EAC3022846012168F008
S3150800AA1079F92A63BDE8F84068F074B90626EBE7C9
S3150800AA201026E9E70826E7E70426E5E70000015BC4
S3150800AA3000000A50F8FF7F00F8B51E464368044632
S3150800AA400D4617461BB140F6FF7168F05BF92046C4
S3150800AA50FFF754FFE9896B7B62690B43298A22F465
S3150800AA604C520B4322F00F0213436361A368297B00
S3150800AA702A7E23F0804323F0E203114319436B69CE
S3150800AA801943A160AB681BB9A36843F00043A360F0
S3150800AA90EA69002A6BD0A368127A43EA8253A36054
S3150800AAA0EA69A368927A43EA4243A360EB69A2681B
S3150800AAB09B8803F4C0431343A360EA69A3685278EA
S3150800AAC043EA8203A360EA69A368527B43EAC203A6
S3150800AAD0A360EA69A368927B43EA0213A360EA6962
S3150800AAE0A368927843EA8223A360EA69D3799179C5
S3150800AAF05B0243EA8123E360EB69674A1B7803F04C
S3150800AB00FD03012B02BFE36843F00403E360EB692E
S3150800AB101B78023B012B614B7AD8944276D0604A67
S3150800AB2094420CBF01224FF0FF3203EB421341F26D
S3150800AB30944202219950EB695A7A04F580539A6235
S3150800AB40EB695B7A1BB1E36843F40063E360EB6986
S3150800AB50DB7A63B1E36843F40043E3604E4B9C42FF
S3150800AB6065D1EB694F4A1B7B03F00F0353673FB16F
S3150800AB7097F8203004F58050002B63D00123036238
S3150800AB80002E30D02B7E04F5805013B14FF40043CD
S3150800AB90836596F82120404B102A434961D89C4288
S3150800ABA05DD03F4B9C420CBF01234FF0FF3301277A
S3150800ABB0CF54768C3849B6F5006F3C4B5FD88C423B
S3150800ABC05BD037498C420CBF01214FF0FF3101277A
S3150800ABD05F54A36D324323F4F95323F01E03134342
S3150800ABE0A365012383650521204668F0A9F8AA68AC
S3150800ABF012B16968FFF7ACFE2046297868F0BDF8FF
S3150800AC00A36CDB4313F4405FFAD1F8BD00228CE74E
S3150800AC1094420AD0224A94420CBF01224FF0FF32D6
S3150800AC2003EB421342F2944283E70022F8E71C4BF7
S3150800AC309C429CD1EB691B4A1B7B03F00F03C2F8AD
S3150800AC40803094E7E36997F8221097F8212023F0DB
S3150800AC5009030A431A4342F00102C26190E700233E
S3150800AC60A5E79C4207D00E4B9C420CBF01234FF030
S3150800AC70FF3302279CE70023FBE70021A7E78C4266
S3150800AC8007D007498C420CBF01214FF0FF3102273C
S3150800AC909EE70021FBE700BF0000015B00C00350F0
S3150800ACA000000A5000900350EAB60120E8B60120D9
S3150800ACB070B5436804460D460E691BB140F6FF7130
S3150800ACC068F020F82046FFF719FE22696B7BA97BFE
S3150800ACD022F087020B43134343F0800323611EB31C
S3150800ACE02A692369117823F0F8030B43117F43EA95
S3150800ACF0C113117943EA4113517AD27B43EA01130E
S3150800AD0043EA82132361E268296922F0F04222F4B9
S3150800AD107022D1E90530034313430A7B43EA8223B1
S3150800AD204A7B43EAC233E360A368EA7B23F0030362
S3150800AD30134343F00103A3603EB32B69A2685B8803
S3150800AD4003F4C0431343A3602A69A368527943EA0C
S3150800AD508223A3602969626A8B79C8791B0100027C
S3150800AD6003F0700300F4E06022F4772222F4EE6226
S3150800AD70034313430A7A120302F4E04213434A7F59
S3150800AD80120402F470221343636263692A7B23F078
S3150800AD900F0313436361C6B12B695B89A3612B69F2
S3150800ADA05A7B3AB11E4A944225D19B7B1D4A03F031
S3150800ADB00F0353672B69DA7B3AB1194A944225D1B6
S3150800ADC01B7C184A03F00F031367D5E901122046C6
S3150800ADD0FFF7BEFD0521204667F0B2FF282167F080
S3150800ADE091FF2B78A36367F08DFFA36CDB4313F405
S3150800ADF0405FFAD170BD0C4A944201BF9B7BA2F515
S3150800AE00CE2203F00F03C2F88030D3E7064A9442F5
S3150800AE1001BF1B7CA2F5CE2203F00F03D367D4E74C
S3150800AE200000015B0090035000000A50072AF7B59E
S3150800AE3001F0030614461F464FF003012CD895006F
S3150800AE40A94000FA05F21C48019167F0B0FF019984
S3150800AE501A4806FA05F267F0AAFF194B19499DF830
S3150800AE602000002F08BF1946012303FA04F40C60DA
S3150800AE70154B1649002808BF0B461C60144B1031A9
S3150800AE80C3F820449DF82400A3F6DC33002808BF45
S3150800AE900B461C6003B0F0BDA2F10805AD00A94041
S3150800AEA000FA05F20B48019167F081FF01990A48FB
S3150800AEB006FA05F2CFE700BF00C4035008C40350E2
S3150800AEC010E4035010D4035014D4035014E4035070
S3150800AED000E0035004C403500CC403502DE9F041AC
S3150800AEE005460F461E4690464AB101233022194CA4
S3150800AEF08B4002FB00443EB304F5825423600F21C5
S3150800AF00072F05EB450388BFA7F108044FEA03138B
S3150800AF10114895BFBC00A40004330C3308FA04F2A8
S3150800AF20A140184467F043FFB8F1000F0AD1012188
S3150800AF303020084A01FA07F700FB05223EB102F560
S3150800AF4082521760BDE8F08104F50154D6E702F590
S3150800AF500152F6E700C0035030C00350044A054BBF
S3150800AF60002918BF1346012202FA00F0186070473C
S3150800AF70402004504010045010B5012104462020FA
S3150800AF80FEF7D8FD01212120FEF7D4FD0122114B41
S3150800AF905A60227812069A606178A27842EA0142DB
S3150800AFA09A61FF229A6200229A631A644FF000425D
S3150800AFB05A654FF0FF324FF4001103F500531A6536
S3150800AFC0054AC2F88011E3781B01DBB282F8153313
S3150800AFD0116010BD0000045000E100E070B50125C5
S3150800AFE0C3B29D401E4B0C461D658300096803F1DC
S3150800AFF0A04303F58823596030211A4E637B01FB71
S3150800B00000600366E37AA17A1B0543EA0143217BC4
S3150800B01022F0030243EA4153C365026767F064FE00
S3150800B020736D2B437365237A13B1336C2B433364E7
S3150800B030637A13B1B36B2B43B3632279A37943EADB
S3150800B0400243074A93616179E37943EA0143064972
S3150800B0508B61044B55639D64BDE8704067F04ABE3A
S3150800B06000200450000004500010045010B50124BC
S3150800B070C0B2844067F038FE044B5A6D22EA0402D7
S3150800B0805A659C62BDE8104067F034BE0000045063
S3150800B09010B50124C0B2844067F026FE074BDA6A71
S3150800B0A0224209D15B6B34EA03030CBF0124002456
S3150800B0B067F020FE204610BD0024F9E70000045082
S3150800B0C0F8B50125C3B204469D4067F00DFE30224F
S3150800B0D0094B1E6D5F6B02FB04335C6E67F00AFE5C
S3150800B0E03D4206D1C4F30A1008B9354200D10130F1
S3150800B0F0F8BD0020FCE700BF000004504FF4803282
S3150800B100054B9A6641F6713203F51C33DA63012260
S3150800B11003F50053DA6070470090005041F671322B
S3150800B1200121064BDA6303F50052D1600022DA6387
S3150800B1304FF48032A3F518339A667047000003501F
S3150800B140013831289ABF024B185C0020704700BFAF
S3150800B15050470B08021E30B54FF000000CBF1025F3
S3150800B160042547F60774084952B9831D51F8233058
S3150800B170234023B101308542F6D14FF0FF3030BD70
S3150800B18000F11603F2E700BF0080035010B5C2F3C2
S3150800B1900623044602F0070241B942EA03220B4B92
S3150800B1A042F44022063443F8242010BD18461146BE
S3150800B1B067F00EFE01461846FFF7C2FF034B41EA49
S3150800B1C00020163443F82400EFE700BF0080035040
S3150800B1D0014BD3F894007047004000504FF480327A
S3150800B1E0064B5A6603F5E6239B69C3F385128270FC
S3150800B1F003F03F021B0B427003707047009000502B
S3150800B20040F6B732064B5B689BB293429FBF4FF43A
S3150800B2107A72B3FBF2F3034AD05C88BF002070470A
S3150800B2200080E00F82470B08054B9A689107FCD40B
S3150800B2305A689207F9D4DA69002AF6D1704700BF2E
S3150800B24000800A5008B5FFF7EFFF0122024B03F50D
S3150800B25080514A601A6108BD00800A50074B5A6837
S3150800B260012A0AD15A68D20702D5DA69002AF9D121
S3150800B27002221A610122024B5A60704700800A5066
S3150800B28000A00A5010B5064CFFF7CEFF6368012BE5
S3150800B29003D1FFF7E3FFFFF7C7FF0378E36010BDAD
S3150800B2A000800A50E8B94A680B7812B1127843EA66
S3150800B2B0C2034A78002A14BF0222002213438A686E
S3150800B2C012B1127843EA82138A78002A14BF04223C
S3150800B2D000221343CA6812B1127843EA4223014A8C
S3150800B2E09364704700800A5008B9014B5964704747
S3150800B2F000900A5008B9014B5964704700A00A50DB
S3150800B30008B9014B1964704700A00A5010B9024BDE
S3150800B310186C70470020704700800A5048B911B170
S3150800B320012903D07047044BD86C7047024B186D3F
S3150800B33070470020704700BF00800A5040B911B11D
S3150800B340012903D07047034BDA647047014B1A652D
S3150800B350704700BF00800A5038B50446054DA7F06F
S3150800B360C4FB0FCC0FC594E8030085E80300002052
S3150800B37038BD00BF682A012047F6FF739A42F0B528
S3150800B38067D0022967D8354DCF0015F8313005EB5F
S3150800B390C100012B847813D10025C3781B1B9D425D
S3150800B3A002D3E018C0B2F0BD591B4668A3EB5101A1
S3150800B3B036F911609642D4BF0D4601F1FF33EEE728
S3150800B3C040680028EFD0B0F90030934204DBB0F9AA
S3150800B3D002309342B8BF134682883D44FF2A19BFFC
S3150800B3E0C8214FF0280CB0F90610B0F908C0A1EB37
S3150800B3F003020CBF0126002692FBFCF26D7832444C
S3150800B40012B2954201DD002A01DA6A1E12B24FF421
S3150800B4107A7700EBC206F188B668013213FB016140
S3150800B42012B221EAE17101F5FA719542B1FBF7F121
S3150800B43004DD00EBC206B6888E42EAD200EBC202F1
S3150800B44032F8040C884228BF0846A04238BF204676
S3150800B450A8E7FF20A7E70020A5E700BF682A012084
S3150800B4600229F0B553D82B4800EBC10410F8311067
S3150800B470636801290FD1E078A478904294BFC4EBA1
S3150800B4800001C4EB0201001BCAB28242C8BF0022F7
S3150800B49033F91200F0BD002B39D0A178914202D3BE
S3150800B4A0B3F90200F6E7E178B3F900009142F1D961
S3150800B4B099886478A1F1FF06013C714203F10405FD
S3150800B4C0E4B2714103F10C071FFA82FCCEB2B44212
S3150800B4D016D805EBC1014FF47A756A43B1F90240F3
S3150800B4E04968521A04EBD47102EB610292FBF4F23A
