S01B00006F742D7263702D6D6732312D757362737469636B2E7333378B
S21400400000100020614600006929010069290100AE
S21400401003300100692901006929010069290100AE
S214004020692901006929010069290100692901003F
S21400403069290100548101006929010069290100EC
S214004040692901006929010069290100692901001F
S214004050692901006929010069290100692901000F
S214004060692901006929010011730000692901000E
S21400407069290100692901006929010069290100EF
S21400408069290100692901006929010069290100DF
S214004090692901000D4D0000692901006929010008
S2140040A0692901002D4E00000D4E0000692901000F
S2140040B0692901006B7B010069290100B913010021
S2140040C0717B01006D7B0100A90B01007D7B010067
S2140040D0757B01007D130100797B010039F4000037
S2140040E0F913010069290100692901006929010005
S2140040F0692901006929010069290100692901006F
S214004100692901006929010069290100692901005E
S214004110692901006929010069290100692901004E
S214004120692901006929010069290100692901003E
S21400413069290100000000006B4BF7B5198811F0E3
S214004140010140F0C880694D694B6A4FC5E90031EE
S21400415041F60B232846A9603960BB8006F00EFEA8
S214004160044630B940F2A131634B644A64480DF00E
S21400417041FB4FF0011113F09FF820B140F2A93136
S214004180604B5E4AF2E70221204612F055FF20B14E
S2140041904FF46B715B4B594AE8E720465A4907F0E3
S2140041A03BFB20B140F2AF31564B544ADEE70121CB
S2140041B0204613F077F920B14FF46D71514B4F4AFA
S2140041C0D4E70121204613F07DF9064620B140F2DF
S2140041D0B7314C4B494AC9E701463C224B4813F0DD
S2140041E05EFD80233246204605F1100113F06DF87F
S2140041F0802804D040F2BE31454B404AB6E7454DD4
S214004200012006F00FFE36A3D3E900232C602046DB
S214004210CDE900234FF0FF324FF0FF3312F067FF77
S21400422020B140F2FB21374B3B4A9FE7384603F06C
S21400423035FA0121084603F09FFA0121286812F09A
S214004240A3FE20B140F252412E4B344A8EE70024A2
S214004250334B344A9C801A60334B344A9C801A6035
S214004260334B344A6FF063001A60334A9C805A61BD
S21400427004F0E0FC0B2003F0CBF9304B186020B9BB
S21400428040F263412E4B254A70E702F0CDFA2146F4
S214004290286812F06AFF20B140F2FD31194B294A16
S2140042A064E708222868114612F026FF044620B16B
S2140042B040F26741244B194A58E704F0FBFA234BB7
S2140042C023481C70234B1C70234B1C7003B0BDE8A6
S2140042D0F0400FF09EBA03B0F0BD00BFAFF3008011
S2140042E00B6020FF22020000FE3D00204C3A00201A
S2140042F03D7A0000443A0020818601000C880100C7
S214004300028401009C8301001C890100E83A002019
S21400431090860100403A0020FF870100888801004F
S214004320201800209A3F0020F81700201A3F00208F
S214004330481800201C40002070180020E43A002096
S214004340C8860100C5870100E38601000F3F0020F4
S214004350678701001B4000201A40002010B5054C5E
S214004360237833B9044B13B1044800E000BF01239F
S214004370237010BDE02E00200000000014B40100E1
S21400438008B5034B1BB10349034800E000BF08BD56
S21400439000000000E42E002014B40100A3F5803ACB
S2140043A0704700BF174B002B08BF134B9D46FFF707
S2140043B0F5FF00218B460F461348144A121A13F0D5
S2140043C06EFC0E4B002B00D098470D4B002B00D0F8
S2140043D098470020002104000D000D48002802D058
S2140043E00C4800E000BF0DF049FA2000290000F05C
S2140043F03BF80DF01DFA00BF0000080000000000AA
S2140044000000000000100020C0130020BC43002065
S214004410000000000000000008B50FF0B1F9054BE1
S214004420186028B93F21044B044A05480DF0E2F90C
S21400443008BD00BFFC2E0020108101002381010072
S2140044401A810100014B186804F0A8BBFC2E00205E
S21400445010B5044C20680FF0E2F92068BDE8104063
S21400446004F030BAFC2E002008B50EF017FE054802
S2140044700EF092FA0EF0F8F90EF01DFEFFF7E8FFC8
S214004480FAE700BF3C81010010B51E4C0EF0E8FBB9
S214004490236F23F0070343F0020323670EF0E7FBC6
S2140044A0D4F82031002023F0070343F00103C4F8BA
S2140044B02031D4F8403123F0030343F00203C4F85C
S2140044C04031D4F8603123F0030343F00203C4F80C
S2140044D06031D4F8403223F0030343F00203C4F8FB
S2140044E04032D4F8003223F0070343F00203C4F846
S2140044F00032D4F8083223F0070343F00203C4F86E
S214004500083210BD0080005007B501A801F062FF18
S2140045109DF80530012B27D1214A936DDB0313D478
S214004520536B23F4FF0323F4FE4343F4BC1343F41A
S214004530A0635363136B23F4704343F44043136345
S214004540136B43F4E06313639DF8043063B94FF0D4
S21400455000531B68134B1B68134B1B68134B1B68DD
S214004560134B1B68134B1B68134AD2F8803043F07A
S2140045700303C2F8803002F013FB0EF0C4F902F019
S214004580BBFA02F0C1FA02F0F5FAFFF77DFF02F07F
S214004590A1FA0EF0B6F903B05DF804EB00F056BCD5
S2140045A000C00050004000200080002000C0002016
S2140045B000000120004001200080005001480EF05D
S2140045C0E8B900BF3C81010018B1034B1860002019
S2140045D070472520704700BF5C2F002010B5054CA3
S2140045E00549206800F048FE2068BDE81040FFF747
S2140045F0EBBF00BF2410002000100020014B1868FD
S214004600704700BF5C2F002013B508200EF0B5F9E8
S214004610FFF7F4FF01238DF800300F4C90F832308E
S2140046202060BBB900680EF097FB236820F07F403F
S21400463093F8313040EA8370019068460EF064F9D2
S21400464002238DF80030054B684601930EF05CF9A6
S21400465002B010BD0020E8E7602F0020006A1810A6
S21400466008B500F02DF8124B12498B4212D30020E9
S214004670114B12498B4218D3FFF794FE186850F876
S2140046802240586840F82240013298688242F5D3AA
S2140046900C33EAE70022F8E71C6844F822000132EF
S2140046A05C68A242F8D30833E4E70022F8E700BFCC
S2140046B01CB4010028B4010028B4010028B401008D
S2140046C06FF00100104B114A10B59A60D3F888209D
S2140046D00F4942F47002C3F8882001F500521066B4
S2140046E041F2FF7050660220C3F8D000BFF34F8F30
S2140046F0BFF36F8F08244FF440330648C0F880415C
S214004700D36004600B6110BD00ED00E000400000C7
S2140047100080004400E100E0014B1868704700BFCD
S2140047202C110020014B1860704700BF2C11002090
S214004730084B1B6F03F00703022B04D0032B05D096
S214004740012B05D0FEE7044B18687047034BFBE7C8
S21400475003487047008000502C11002030110020C4
S214004760002D310108B5FFF7E3FF054B1B6FC3F3C0
S21400477001330133B0FBF3F0024B186008BD00BFF5
S21400478000800050281100200048704700B4C40480
S214004790014B1868704700BF30110020054B1860A9
S2140047A0054B1B6F03F00703032B01D1FFF7DABF9E
S2140047B0704700BF3011002000800050004870474E
S2140047C0002D3101174B9868C0F304400C2822D8FE
S2140047D0DFE800F0092121212121071719211B1DDF
S2140047E01F00114870479B6803F04073B3F1807F49
S2140047F013D0B3F1007F12D00C4A002B08BF10462E
S21400480070470B4870470B4870470B4870470B487B
S21400481070470B487047002070470A4870470A48A0
S214004820704700BF0040015A405DC60000093D00C9
S2140048300024F400C0EA210180BA8C010048E80197
S214004840005A620280841E0040420F00014B186826
S214004850704700BF3411002005490A681318054840
S21400486083428CBF4FF0FF320B601046704700BF8C
S214004870381100200080012008B5032101230422FE
S214004880002001F037FC00200EF01CFA01221C4B21
S2140048900C20C3F844241B4AD2F8803043F00303AC
S2140048A0C2F8803001F012F9174B00F5D520D3F886
S2140048B0F02000F2FC4042F00102C3F8F020D3F8EA
S2140048C0FC2042F08072C3F8FC20104AA3F55D433A
S2140048D01A600F4B0222B0FBF3F00E4B0138186142
S2140048E0C3F8F0204FF48072C3F804234FF06043FF
S2140048F0094A0020C3F8B02F084AC3F8802E08BD26
S21400490000D003500080005000ED00E0FF030040A0
S214004910F8590D00000004E055CEACC509000100B2
S2140049204FF06043D3F8802E30B5D20715D501245A
S2140049300B4D8440D5F8FC2042F08072C5F8FC2070
S214004940D3F8002E2243C3F8002E53F82020002A66
S214004950F0D003F82010002030BD1120FCE700BF87
S21400496000ED00E010B5012243780178847830200D
S2140049709A40054B00FB01331CB942F210015A5015
S21400498010BD41F21001FAE700C0035010B5012235
S21400499043780178847830209A40054B00FB013339
S2140049A01CB941F210015A5010BD42F21001FAE74C
S2140049B000C003502DE9F04F9A46564B85B01B7841
S2140049C006460F461546DDF83C909DF844B0DDF8E7
S2140049D05080002B00F08D80072A00F28C800E9B02
S2140049E0002B00F08880B9F1000F00F08480129B45
S2140049F0B3F5006F7FDC012802D1109B002B7AD024
S214004A00454B03EB05131B7B002B76D0434C102243
S214004A100021684613F043F904EB45141022002FDA
S214004A2059D13946204613F03AF943F21003638011
S214004A30BBF1000F03D1E37843F00303E370374A7A
S214004A400E9B02EB451CCCE90193129B6901013BCE
S214004A50C3F30A009DF84C30012E03F003034FEA1F
S214004A60836343EA001E53582D48CDF800A000EAA1
S214004A7003004EEA0003535041D113230CF1100EED
S214004A80CCF80C309CE80F008EE80F006FF00301A6
S214004A90DCF81C20109B61F39F02012FCCF81C2031
S214004AA0CCF8143003D1CCF81890CCF8043000279A
S214004AB0194A290102EB051342F80180159A284687
S214004AC05A60694622469F605E7301F08DFB384649
S214004AD005B0BDE8F08F0021204613F0E0F84FF453
S214004AE044736380BBF1000FA9D1E37843F0300331
S214004AF0A4E70C48ECE70C48EAE70C48E8E7B8F10E
S214004B00000FD4D19CF8023068F304138CF80230FE
S214004B10CDE700BFF43E0020642F0020E42F0020E5
S214004B200F80FFF3028000F0018000F0078000F0A5
S214004B3038B5124B05461B78DBB1E0B10EF0A8F88D
S214004B400F4A00231146147B54B92B6001251A0125
S214004B5001EB03131D738C500EF0A0F8204638BDF1
S214004B600133082B02F11002EDD10EF097F805483C
S214004B70F5E70548F3E70548F1E700BFF43E0020F7
S214004B80642F0020048000F0028000F0018000F016
S214004B90154B13B51868002301908DF804300EF0FD
S214004BA077F8124B1C7824B10EF078F8104802B053
S214004BB010BD01221A700EF071F80E4B01A81C737E
S214004BC01C7783F82C4083F83C4083F84C4083F8ED
S214004BD05C4083F86C4083F87C4008238DF80730EF
S214004BE001F0D8FA2046E2E7A4810100F43E002056
S214004BF0038000F0642F00200A4A08B512785AB1E4
S214004C0007280BD8084A02EB00131B7B43B1002190
S214004C1001F0B2FA002008BD0448FCE70448FAE7B1
S214004C200448F8E7F43E0020642F0020028000F0DD
S214004C30018000F0078000F00A4A08B512785AB1E1
S214004C4007280BD8084A02EB00131B7B43B101214F
S214004C5001F092FA002008BD0448FCE70448FAE791
S214004C600448F8E7F43E0020642F0020028000F09D
S214004C70018000F0078000F00D4B1B7893B10728E9
S214004C8012D889B10B4B03EB00131B7B73B10A4B95
S214004C90DA6A012303FA00F010401ABF00200B70F6
S214004CA008707047054870470548704705487047C4
S214004CB0F43E0020642F002000000450028000F024
S214004CC0018000F0078000F00B4A10B512780C4601
S214004CD062B107280CD859B1084A02EB00131B7BB7
S214004CE043B101F0CFFA2060002010BD0448FCE775
S214004CF00448FAE70448F8E7F43E0020642F002052
S214004D00028000F0018000F0078000F02DE9F843F3
S214004D10174B1F6D5B6D1F4000D5FEE70126002573
S214004D20144CDFF85480DFF85490374217D02368CD
S214004D30C8F850609BB1A168284601316268A1603E
S214004D409847637B012B0AD148B909EB45131A7BB8
S214004D5060F341021A731A7F60F341021A77013535
S214004D60082D4FEA460604F11004DED1BDE8F883AC
S214004D7000000450642F002000200450E42F002080
S214004D8070B5044601250B4E04B970BD94FAA4F024
S214004D90B0FA80F005FA00F306EB001224EA0304EA
S214004DA05368002BF0D0117B11B191689847EBE760
S214004DB09847E9E7E430002008B5192001F014F917
S214004DC028B14FF00072074BC3F880211A601A20F2
S214004DD001F00AF928B14FF08062024BC3F8802137
S214004DE01A6008BD00E100E038B505460C460DF037
S214004DF04FFF0022044B03EB05135C601A73BDE8FB
S214004E0038400DF04BBF00BFE4300020064BD3F80F
S214004E102404D3F8202403F50053104000F0553046
S214004E20C3F82004FFF7ACBF00C00350064BD3F80E
S214004E302404D3F8202403F50053104000F0AA30D1
S214004E40C3F82004FFF79CBF00C00350024B19684C
S214004E50024B186805F07CBD401100203C11002074
S214004E6037B5920004460D46019213F041F9431CF3
S214004E700BD060B929462046019A12F0D9FE0028C8
S214004E80044808BF002003B030BD0348FBE70348D2
S214004E90F9E700BF10E000F021E000F024E000F0A9
S214004EA013B5044601A801F095FA9DF806300122D4
S214004EB023804FF4807300206380054B9B680A3381
S214004EC003F01F0302FA03F3636002B010BD00BFD5
S214004ED00080E00F10B5044613F012F9431C15D0FD
S214004EE0B0B90C4B20469B680A3303F01F0201231F
S214004EF0934023F003032344984201D1002010BDC1
S214004F0050F8042B0132F7D00348F8E70348F6E7D9
S214004F100348F4E70080E00F0EE000F021E000F028
S214004F2024E000F008B50DF0ACFE014B186008BD9B
S214004F3024390020014B18680DF0A7BE2439002044
S214004F4038B141B1013AB2F5006F044838BF0020CD
S214004F507047034870470148704700BF037000F071
S214004F60027000F038B504460D460DF091FEA38899
S214004F709BB223B92B600DF091FE064838BD142273
S214004F8063889BB202FB034408342C600DF086FE57
S214004F900020F3E70B7000F0F8B5044616460F46FF
S214004FA00DF076FEA388E2889BB29A42054605D8A5
S214004FB0002333600DF072FE1748F8BD14222388D4
S214004FC007F1100C9BB202FB03433A460833174620
S214004FD003CF6745186059603A4603F10803F6D1D7
S214004FE0142238681860238828469BB202FB0343C5
S214004FF0083333602388E2889BB20133B3FBF2F1B7
S21400500002FB11339BB22380A38801339BB2A3809B
S2140050100DF044FE0020D0E70A7000F0002313B520
S2140050201D4A52F8044B94F8211081420ED00133E9
S214005030042BF6D102B010BD0028FBD19DF8073036
S214005040002BF7D0A068FFF7D7FDF3E794F83130D0
S214005050022BEFD120460DF04AFD637E2076022B10
S214005060E8D194F82E3003F0FF02002BE2D1A068BE
S2140050700DF107018DF80720FFF7FEFD237E1BB11B
S21400508094F82F30002BD7D00023A06884F82F3058
S214005090FFF7D2FDCEE700BFAC39002030B50124C3
S2140050A090F8325087B080F82C4095B9426B036870
S2140050B022444263094A0490CDE902524A682433E6
S2140050C0CDE900420A684169C0680DF0B0FC07B03F
S2140050D030BD002380F82C30F9E700BF8D55000066
S2140050E030B5012490F8325087B080F82D4095B93D
S2140050F0436B026823444363094B0490CDE9025393
S2140051004B683C32CDE900430B68016980680DF0BE
S21400511074FC07B030BD002380F82D30F9E700BFDF
S21400512025510000F7B51446906A01A9FFF71AFF4B
S214005130636B636B013B6363144B984220D000267D
S214005140019B1E619E600DF0A3FD019A0546D7687F
S21400515027B1D2E9002331462046B847A06A01A904
S2140051600DF0DCFCA06A83889BB263B101A9FFF74F
S214005170F9FE20460199FFF7B3FF28460DF08EFD95
S214005180012003B0F0BD84F82D30F6E70B7000F078
S21400519010B5044680B190F82E302BB90DF0A7FC60
S2140051A010B9A068FFF728FD002094F82E300133D0
S2140051B0DBB284F82E3010BD0048FCE7027000F029
S2140051C010B50446A0B190F82E309BB190F82E3062
S2140051D0012B05D10DF08BFC10B9A068FFF72CFD54
S2140051E0002094F82E30013BDBB284F82E3010BD40
S2140051F00148FCE70148FAE7027000F0057000F08D
S21400520037B590F831500446022D1DD1012290F892
S2140052102230457E817F9A403020164B25B900FB10
S214005220013342F2100105E0012D07D100FB0133E6
S21400523041F210015A50002003B030BD247E00FB1E
S2140052400133002CF4D1ECE7012DF4D1037E73B9C1
S21400525011238DF80730FFF79BFF2A4620460DF1F5
S21400526007010DF0A8FC2046FFF7AAFFE3E713238B
S214005270EFE700BF00C00350F0B504469F4F8BB069
S21400528003AE0D460FCF0FC697E8070086E8070067
S2140052901CB99B4C20460BB0F0BD0DB9994CF9E7F4
S2140052A05C220021204612F0FAFC9749974B0A78B8
S2140052B02AB9C3E90022C3E9022201220A709349EF
S2140052C00022084650F8046BB4420AD00132042A81
S2140052D0F8D1002251F8040B002840F0CF8043F8A4
S2140052E022402B7D84F83130286820602B7B237188
S2140052F0874B984240F0C780212384F82330854BA3
S21400530023614FF4802300266361D5E90723626298
S21400531016805680968084F82C60A3621E805E807D
S2140053209E806B6884F82D600593EB8984F82F6067
S214005330ADF81C302B8A03A9ADF81A30AB7C8DF87B
S2140053400C608DF81830EB7C8DF81E3005238DF838
S214005350193001F005F914212A7B6F4B03EB421735
S214005360C7F8AC15287AA97A2E3240EA014C03EB2E
S2140053704213C3F804C06A7AEB7A42EA034CC7F8D1
S214005380BCC5E076E177227784F820306B7D042276
S2140053906377AB7D84F82130EB7DA3772B7E84F892
S2140053A02230012300F0A6FE0123022294F82010EA
S2140053B0207F00F09FFE94F83130022B7AD13346DE
S2140053C0012294F82110607F00F094FE33460422F8
S2140053D094F82210A07F00F08DFE012394F821207F
S2140053E0CDE900331146607F00F040FE0DF050FC22
S2140053F02B7D0646032B6ED141F2AC5202212B7B4D
S2140054005B0103F1A04303F57033995004212A6829
S21400541002F58052D165297EEA7D42EA014241F2D8
S214005420B8515A50A97D6A7D42EA014241F2B45110
S2140054305A504FF0FF32286800F500539A642B7DCF
S214005440032B0CBF052104210DF096FC4FF440629F
S2140054502B685A61FFF79CFB002104F10800FFF758
S21400546067FB014628B904F10C00FFF761FB044610
S21400547000B12A4C30460DF011FC0BE70132042A2D
S2140054807FF428AF05E7264B984207D1222384F8FD
S2140054902330244B23614FF4A02334E7224B984259
S2140054A07FF4FCAE232384F82330204B23614FF493
S2140054B0C02328E7032B99D1334694F82110607F48
S2140054C0012200F017FE3346042294F82210A07F33
S2140054D000F010FE8AE7022BABD194F821001449A5
S2140054E0FFF782FCFFF768FC4FF40073238300236A
S2140054F02046A376FFF784FE9BE700BFCC81010021
S214005500027000F0037000F0F53E0020AC39002079
S214005510008005500200040000C003500E7000F02A
S21400552000C00550020005000000065002000600FC
S2140055301D500000F0B587B005461646FFF700FD83
S2140055400446E8B90493104BCDE901166A46686A2A
S21400555001A903960593FFF71FFD044680B995F849
S2140055602C306BB928460DF0B1FA0099FFF796FD7E
S21400557095F83130032B03D028462C76FFF740FEF3
S214005580204607B0F0BD00BF017000F073B51446AA
S214005590506A01A9FFF7E6FC636B636B013B63632C
S2140055A02F4B984230D094F83200019A002839D117
S2140055B02368996C11F4007129D02A499060116112
S2140055C04FF4007203F500539A640DF061FB0199E5
S2140055D00646CD6835B14A688B682046D31A0A68F5
S2140055E00969A847606A01A90DF098FA606A85887B
S2140055F0ADB2DDB101A9FFF7B5FC20460199FFF772
S2140056004DFD30460DF04AFB012002B070BD986C8F
S214005610C00507D514489160106103F500534FF498
S2140056208072D1E7002313619360CEE70123204602
S2140056302376FFF7E5FD94F8313084F82C50032BE1
S214005640DFD042F2AC52042123795B0103F1A04380
S21400565003F570339950022223685A61D1E700BFE0
S2140056600B7000F00D7000F00C7000F0F0B587B015
S21400567004461646FFF764FC054638BB0493154BF4
S214005680039605932368CDE901169B699B0702D410
S21400569020460DF00AFA6A46A06A01A9FFF77CFCCC
S2140056A0054698B994F82D3083B90DF0F1FAA36A3F
S2140056B006469B889BB233B120460099FFF710FD43
S2140056C0012384F8303030460DF0E8FA284607B05B
S2140056D0F0BD00BF017000F041F6713310B5104CFC
S2140056E0104AA0428CBF4FF480140024D169D363C3
S2140056F0936801F4803123F44013234393600A4BEC
S21400570098420A4BD3F818228CBF42F0020222F0CD
S2140057100202C3F8182211B10022024BDA6310BD50
S214005720005A62020000035080F0FA0200C00750E0
S2140057302E4B98424AD022D82D4B984240D014D8AF
S2140057402C4B984239D00AD82B4B984232D02B4B50
S21400575098422FD02A4B98422CD000207047294BD5
S2140057609842FAD1284B186F7047284B98422AD097
S214005770274B9842F1D1244BD3F880007047254B35
S21400578098422BD009D8244B984223D0234B9842DA
S214005790E3D11D4BD3F88C007047214B984221D0A3
S2140057A003F5740303F510539842D6D1164BD3F87D
S2140057B098007047144B986D7047134B586E70479F
S2140057C0114B586F7047104B986F70470E4BD3F8BD
S2140057D0840070470C4BD3F8880070470A4BD3F808
S2140057E090007047084BD3F8940070470048E801D3
S2140057F00024F400C0CF6A0080841E0000093D002B
S21400580040420F00405DC6000080E00FC0EA210164
S21400581080BA8C01007E560380D54302006CDC0201
S2140058200090D00338B5124B0546D3F820310C460D
S21400583003F00703013B032B17D8DFE803F0020A47
S2140058400E12FEF769FF042305B1286004B1236039
S21400585038BDFEF79DFF0323F6E7FEF7B3FF0523EB
S214005860F2E7FEF7ABFF0223EEE700231846EBE76E
S2140058700080005037B50C460021124A0191D2F83C
S2140058808021054602F00302022A0ED0032A11D018
S214005890012A14D101A8FFF7C5FF0D230DB1019A07
S2140058A02A6004B1236003B030BDFEF78BFF0523EA
S2140058B00190F3E7FEF782FF02230190EEE70B4626
S2140058C0ECE700BF0080005038B5104B0546D3F813
S2140058D040310C4603F00303022B0BD0032B0DD0F4
S2140058E0012B0FD10DF043F8082305B1286004B151
S2140058F0236038BDFEF7AAFF0723F6E70DF03AF857
S2140059000923F2E700231846EFE700BF00800050A7
S21400591038B5104B0546D3F860310C4603F0030348
S214005920022B0BD0032B0DD0012B0FD10DF01FF83F
S214005930082305B1286004B1236038BDFEF786FF52
S2140059400723F6E70DF016F80923F2E700231846BA
S214005950EFE700BF0080005038B5134B0546D3F87C
S21400596000320C4603F00703013B032B18D8DFE890
S21400597003F0020A0E120CF0FAFF082305B12860A5
S21400598004B1236038BDFEF761FF0723F6E70CF08D
S214005990F1FF0923F2E7FEF7E5FE0C23800AEDE7A8
S2140059A000231846EAE700BF0080005038B5134BC6
S2140059B00546D3F808320C4603F00703013B032BD9
S2140059C018D8DFE803F0020A0E120CF0D0FF082306
S2140059D005B1286004B1236038BDFEF737FF072302
S2140059E0F6E70CF0C7FF0923F2E7FEF7BBFE0C2331
S2140059F0800AEDE700231846EAE700BF0080005063
S214005A0038B5104B0546D3F840320C4603F0030376
S214005A10022B0BD0032B0DD0012B0FD10CF0A7FFC0
S214005A20082305B1286004B1236038BDFEF70EFFD9
S214005A300723F6E70CF09EFF0923F2E7002318463B
S214005A40EFE700BF0080005038B5104B0546D3F88E
S214005A5000310C4603F00303022B0BD0032B0DD0B2
S214005A60012B0FD1FEF794FE032305B1286004B185
S214005A70236038BDFEF7EAFE0723F6E70CF075FF55
S214005A800623F2E701230020EFE700BF0080005066
S214005A90032814D005D8012805D0022809D00020F4
S214005AA005E00F28FBD1084B186FC0F3013001301A
S214005AB07047054BD3F89000C0F30460F7E7024B3D
S214005AC0186FC0F38020F2E7008000501FB5002357
S214005AD00193252817D8DFE800F0131A1D262B356A
S214005AE03A50555A5F646977161A3F1616551A26A5
S214005AF02B26351A5026773A3A3A3A2626265A5F01
S214005B00FEF716FE0190019805B05DF804FBFEF75F
S214005B1029FEF7E7FEF70CFE02460220FFF7B8FF65
S214005B20B2FBF0F0EEE7FEF71DFE02460320F5E7B7
S214005B30FEF718FE02460320FFF7AAFFB2FBF0F0BE
S214005B404008DFE7002101A8FFF794FEDBE700210D
S214005B5001A8FFF767FED6E702934FF0E0231B6924
S214005B605B0705D5FEF7FEFD0290029B0193CAE790
S214005B7003A902A8FFF7A8FEF7E7002101A8FFF790
S214005B80A3FEC0E7002101A8FFF7C2FEBBE7002185
S214005B9001A8FFF7E1FEB6E7002101A8FFF706FF20
S214005BA0B1E7002101A8FFF74FFFACE7094BD3F898
S214005BB0803003F00303022BA9D0032B01D0002072
S214005BC0A0E7FEF7FFFD9DE7002101A8FFF718FFFD
S214005BD099E700BF0080005008B50120FFF776FF68
S214005BE0BDE80840034988428CBF022101210320FA
S214005BF000F002B880F0FA02032810B50C4627D051
S214005C0004D8012804D0022817D010BD0F28FCD1D4
S214005C100DF01AF80DF020F8124B013C196F21F424
S214005C20405141EA04341C67FEF79CFD0021FFF753
S214005C3053FDBDE81040FFF7CFBF0A4B013CD3F839
S214005C40901021F0F85141EA0464C3F89040DCE774
S214005C50044B013C196F21F4806141EA84241C67DF
S214005C60D3E700BF008000501FB50023019325280E
S214005C7021D8DFE800F013202020202A2F454A4FA5
S214005C8054595E7120203420204A202020202A20CB
S214005C904520712F2F2F2F2020204F54314B1B6F64
S214005CA003F00703013B032B05D8DFE803F00C02E3
S214005CB0080A04230193019805B05DF804FB03234A
S214005CC0F8E70623F6E70223F4E7002001A9FFF72A
S214005CD0D1FDF0E7002001A9FFF7A4FDEBE7029352
S214005CE04FF0E0231B695B0705D5FEF73BFD0B2352
S214005CF00393039BDEE703A902A8FFF7E5FDF8E799
S214005D00002001A9FFF7E0FDD5E7002001A9FFF775
S214005D10FFFDD0E7002001A9FFF71EFECBE700201D
S214005D2001A9FFF743FEC6E7002001A9FFF78CFE96
S214005D30C1E70C4BD3F8803003F00303022B03D0EB
S214005D40032B05D00023B5E7FEF70CFD0B23B1E7C8
S214005D50FEF738FD0523ADE7002001A9FFF750FE4A
S214005D60A9E700BF0080005038B50546FFF7E0FC05
S214005D70214B04465A68012A04D120494A609A6990
S214005D809207FCD10020FFF76FFF042803D10CF028
S214005D905BFF0CF061FF1A4A24F04073954221D055
S214005DA0184A954221D0184AD16811F0060FFBD147
S214005DB090689360916803F4F81301F4F8118B422D
S214005DC016D12846FEF7AEFC0020FFF74DFF04284C
S214005DD010D1FEF7C7FC0021FFF77EFCBDE8384077
S214005DE0FFF7FABE43F00073DDE743F08073DAE7AF
S214005DF09060E9E738BD00BF00C0015000E00150E8
S214005E0040420F0080841E000000015070B504461A
S214005E100020FFF729FF03287CD045F60E03022159
S214005E20414AC2F88030414B9962012103F5805304
S214005E309962936DD903FCD4D4E900131B0543EA99
S214005E400163E17B94F822500B43217B94F8236096
S214005E5043EA0143617B43EA0133A17B43EA8113B2
S214005E6013619169D4E904031B0643EA806301F0D9
S214005E7000410B43A17EE07E0B43217E43EA0143B3
S214005E80617E43EA01239361136AE26923F00D03FE
S214005E90002A0CBF0021082143EA020343EA8003DC
S214005EA0214A43EA0103136294F820304FEA431371
S214005EB031D1906A94F8211020F0330043EA0113A0
S214005EC0034343F001039362194B916D33EA0101DA
S214005ED0FBD10221154B9962936D5B00FCD41069CF
S214005EE0A36820F4700040EA035010614FF00042AF
S214005EF00E4B9A611DB9022203F580539A6216B9B9
S214005F0001220C4B9A6294F824301BB1064B0A4AC5
S214005F10C3F8802070BD916A21F0330131430B43F2
S214005F2043EA45039362EEE700C0005000D00050FD
S214005F300300014000E00050F1A7FFFF014B93F97A
S214005F4000007047F63E0020F0B5D0E901434FF45C
S214005F50D1560227164A417805785662154E4F29C3
S214005F6077604FF0010728BF4F2106F5805677600F
S214005F701669F603FCD441EA052151611B01417BF9
S214005F8043EA04230B43017B43EA41039360C37B4C
S214005F90817B1B0143EA4113417C0B43017C43EAAE
S214005FA041035360837C13B16FF4D1535362F0BD49
S214005FB00000025000100250014B1880704700BFCE
S214005FC0001200200028ABBF00F16040054B00F532
S214005FD0614000F00F00ACBF90F80003185C0009A9
S214005FE0704700BF14ED00E0054B420953F822301D
S214005FF000F01F0023FA00F0C04300F001007047D5
S21400600000E100E0014608B5EFF31083DB0702D598
S2140060100122104608BDFFF7E7FF02460028F7D129
S2140060200846FFF7CFFF0146EFF3118313B1B0EB3D
S214006030131FEDD2074B5B68C3F30803002BE8D0B1
S214006040103B58B2FFF7BEFF88428CBF00220122E9
S214006050DFE700BF00ED00E0034A0179D36E23F0CE
S21400606030030B43D366704700400050072AF7B54D
S2140060700D4614461F460FD803219600B14000FA7D
S21400608006F2154801910CF00CFE05F0030201998A
S2140060901248B2400CF005FE114B12499DF8200044
S2140060A0002F08BF1946012303FA04F40C600E4BB8
S2140060B00E49002808BF0B461C600D4B9DF82400B7
S2140060C0C3F820441031A3F6DC33002808BF0B4683
S2140060D01C6003B0F0BD00BF00C4035008C40350EA
S2140060E010E4035010D4035014D4035014E40350A7
S2140060F000E00350F8B504460D461F4616464AB162
S21400610001238B403021194A01FB0022FFB141F2E6
S2140061101001535004EB4403072D4FF00F014FEAD4
S214006120031317D8A80006FA00F281401048184456
S2140061300CF0B7FD56B9012130230C4801FA05F5DD
S21400614003FB040077B141F21003C550F8BD42F2DC
S2140061501001DEE7A5F10800800006FA00F2814093
S2140061600448E4E742F21003EFE700BF00C0035024
S21400617004C003500CC00350044A054B002918BF46
S2140061801346012202FA00F01860704740200450BF
S2140061904010045030B5047845788178C2780120E4
S2140061A00F4B41EA0541240658609C609961FF2127
S2140061B099620021996319644FF0004159654FF0C8
S2140061C0FF314FF4001003F500531965054913011C
S2140061D0DBB2C1F8800181F81533086030BD00BF1E
S2140061E00000045000E100E02DE9F04101250C46D6
S2140061F0C3B2DFF888E0D1F800809D408F7ACB7A72
S21400620094F80DC0097BCEF850500EF5005E4EF89F
S21400621020804FF0300E184E1B050EFB006043EA40
S214006220074343EA415322F00302C0F860C0C36547
S21400623002670CF02DFD736D2B437365237A13B143
S214006240336C2B433364637A13B1B36B2B43B36362
S2140062502279A37943EA0243084A93616179E37994
S21400626043EA014306498B61034B55639D64BDE8D1
S214006270F0410CF013BD00BF000004500020045095
S21400628000100450F8B50125C3B204469D400CF03A
S214006290FFFC3022094B1E6D5F6B02FB04335C6E05
S2140062A00CF0FCFC3D4206D1C4F30A1008B9354296
S2140062B000D10130F8BD0020FCE700BF000004500C
S2140062C041F67132034BDA63012203F50053DA60BC
S2140062D0704700BF0000035041F671320121044BA5
S2140062E0DA6303F50052D1600022DA63704700BF1C
S2140062F000000350014BD3F8940070470040005054
S214006300CB784A7810B55B010C7843EA82030A79A9
S214006310234343EA02130C22424302F1B0421363C2
S214006320012C02BF8A78024B43F8202010BD00BF24
S214006330D080035008B54FF0B0435A6802B960B138
S2140063405B680BB10CF0C5FC4FF0B04130B10120DA
S214006350074B58600CF0BDFCC86008BD0CF0B9FCDB
S2140063600223CB600CF0B5FC0122024B5A60F4E726
S21400637000100058002000584FF0B0435B6870B51E
S2140063800BB10CF0A6FC0121104B457859608378C0
S2140063900679002BC37814BF02240024002B14BFF8
S2140063A0042200224379DB0043EA06132B432343EF
S2140063B013434FF0B0429360054B59600378002BAF
S2140063C014BF0B460223D36070BD00BF00200058E8
S2140063D000100058054B5B69C3F38512827003F00A
S2140063E03F021B0B42700370704700BF00C007508F
S2140063F00D4B984208D1A3F50033C3F88411C36D42
S21400640043F08003C3657047084B984204D1A3F558
S2140064101033C3F89411F2E7054B984204BFA3F576
S2140064202033C3F8A411EAE70080055000C00550E9
S2140064300000065070B5054616461C4619B90320DE
S214006440FFF744FB0146402C1BD003D8DCB1202CC0
S2140064501BD070BD602CFCD1042303FB06F256084B
S21400646006EB4113B3FBF2F3094A203B02EAC303EF
S214006470AA6822F06002AA60AA681443AC60EB61C6
S214006480E7E70623E9E71023E7E70823E5E700BF89
S214006490F8FF7F002DE9B841154F15460F40FAB9B1
S2140064A0202B20D0402B20D0002B14BF40241024BB
S2140064B0012307F580775F4300233A4619460BF021
S2140064C009F8554300FB04F804FB0351A2FB04043F
S2140064D000233A4621440AF0FDFF4044BDE8B88157
S2140064E080240025E4E71C46E2E780240323E0E757
S2140064F0F8FF7F00012200F5805310B55A6040F681
S214006500AA6341F205024361002312498360C36512
S214006510C26000F500520361C361C36491640E4912
S2140065208365884206D00D4CA04203D004F5804413
S214006530A0420BD18842036506D0084B984203D090
S21400654003F58043984201D100234365012353603D
S21400655010BD00BFFFFF01000080055000C00550C1
S21400656070B50D46FFF7C6FF012300F58056736031
S214006570AB7C04461BB1836843F080438360EB7CAE
S2140065801BB12046297DFFF733FF2A8A6B7B204606
S2140065901343EA891343E3602B7BD5E90112FFF727
S2140065A049FF6B7D1BB1A36843F48033A360AB7DCA
S2140065B01BB1A36843F40043A360EB7D2A7E1B0750
S2140065C0120502F4E00203F0E0431343A3656A7E7B
S2140065D0931E012B214B20D89C421AD003F58043F2
S2140065E09C4218D003F580439C420CBF02234FF018
S2140065F0FF3341F2AC5102205B0103F1A04303F5E7
S21400660070335850032A23D10423F3652B78636133
S21400661070BD0023EDE70123EBE79C4214D0104B3E
S2140066209C4213D003F580439C420CBF02234FF0DC
S214006630FF3342F2AC5102205B0103F1A04303F5A5
S21400664070335850012ADEE70023F2E70123F0E713
S214006650042204F50053DA65D8E700BF0080055031
S21400666000C0055038B50446054D10F07AFD0FCC35
S2140066700FC594E80F0085E80F00002038BD00BF66
S214006680BC39002047F6FF739A42F0B567D003295D
S21400669067D8354DCF0015F8313005EBC100012B1A
S2140066A0847813D10025C3781B1B9D4202D3E018C3
S2140066B0C0B2F0BD591B4668A3EB510136F9116014
S2140066C09642D4BF0D4601F1FF33EEE7406800283E
S2140066D0EFD0B0F90030934204DBB0F902309342B9
S2140066E0B8BF134682883D44FF2A19BFC8214FF021
S2140066F0280CB0F90610B0F908C0A1EB03020CBFD5
S2140067000126002692FBFCF26D78324412B29542C6
S21400671001DD002A01DA6A1E12B24FF47A7700EB26
S214006720C206F188B668013213FB016112B221EA93
S214006730E17101F5FA719542B1FBF7F104DD00EB6A
S214006740C206B6888E42EAD200EBC20232F8040CC9
S214006750884228BF0846A04238BF2046A8E7FF2048
S214006760A7E70020A5E700BFBC3900200329F0B545
S21400677053D82B4800EBC10410F831106368012988
S2140067800FD1E078A478904294BFC4EB0001C4EB2C
S2140067900201001BCAB28242C8BF002233F91200AF
S2140067A0F0BD002B39D0A178914202D3B3F9020094
S2140067B0F6E7E178B3F900009142F1D99988647858
S2140067C0A1F1FF06013C714203F10405E4B27141F8
S2140067D003F10C071FFA82FCCEB2B44216D805EBC2
S2140067E0C1014FF47A756A43B1F902404968521AFA
S2140067F004EBD47102EB610292FBF4F29042CFDB21
S214006800B3F902009042CBDC10B2C9E737F831E0AA
S2140068104E1CE645E3D33146DEE70248C0E700BF3C
S214006820BC3900200080FFFF08B50448FFF71AFFB8
S214006830BDE80840012010F0B7BC00BFE8810100A9
S2140068407FB50222084B0949CDE901234FF00073BA
S214006850CDE90313052301A94FF0FF30059310F08F
S21400686048FD07B05DF804FB006A1800000204004B
S2140068702DE9FF4700230E461746044600930028DE
S2140068805BD00AB1002958D037F0030807F0030A96
S21400689025D04FF000094FF0E063C4E9003901232A
S2140068A001962046029301A948F00053C4F80890C8
S2140068B0C4F81C9003930CF01EFA414620460CF0D8
S2140068C024FA20460CF0B7FA054640B1424649463F
S2140068D0304611F0E4F9284604B0BDE8F0874FF0E2
S2140068E00009BAF1000F2AD04FF0E063C4E900397E
S2140068F00123CDF804D00293124B204601A9C4F818
S2140069000890C4F81C9003930CF0F5F90421204677
S2140069100CF0FBF920460CF08EFA054608B13A4614
S214006920D5E7034600994644DA00013321FA02F21D
S2140069309A4506F8012BF7D1CDE72125CBE755463A
S214006940C9E700BF040000202DE9F04104681E4698
S21400695024F04003802B05468846174692B002D0A6
S214006960B4F5807F43D11C2200210BA811F097F9C3
S214006970224A234B0121B8F1010F18BF13460A9390
S2140069802B1D0193E4081F4B44F0005402910AA803
S21400699003940497059106930796089101A9099315
S2140069A00CF09FF904A90AA80CF09BF907A90AA8FD
S2140069B00CF0A1F929680AA8C9080CF0A6F910215C
S2140069C00AA80CF0A2F90CF032FA98B90AA80CF052
S2140069D0A5F94FF098435A6CD202FCD55C6D0CF0CA
S2140069E028FA04F47024204612B0BDE8F0816FF057
S2140069F07100F9E74FF0FF30F6E700BF0001010431
S214006A00000100041000002030B5154B87B002933B
S214006A10144B0390049346F611030D46059300F0BD
S214006A2023F81428044616D168460CF091FA4FF065
S214006A30A843032202A95A6319601D619A63DA6BA0
S214006A409207FCD1142C02D168460CF08FFA00F0A5
S214006A503BF8044601E00028E9D0204607B030BDE8
S214006A60DC39002004000020144A38B5D2F8803201
S214006A7043F00103C2F88032114B5B68C3F308038E
S214006A8043B14FF0A842D36B13F0430FFBD114244D
S214006A90204638BD4FF0A843DC6B14F04304FBD10E
S214006AA0084D2B681BB90421284602F001F82B6814
S214006AB0013343F000432B60EAE700BF008000503C
S214006AC000ED00E0DC390020014B00205B687047D9
S214006AD000ED00E013B50024064A6846536F43F005
S214006AE00103536700948DF80440FFF7B5FA20467B
S214006AF002B010BD0040005008B50248FFF734F958
S214006B00002008BD00B4C40430B58BB06C46154DEB
S214006B100FCD0FC40FCD0FC495E8030084E8030023
S214006B20114BD3F84C21120314D4D3F85041E4B2DD
S214006B308DF81940FFF702FA204480F308008DF81C
S214006B4018000A48FDF72AFE6846FFF75FF900209E
S214006B500BB030BD064B1C884FF6FF739C4208BF37
S214006B608224E5E7D48201000080E00F00F04902AD
S214006B700001E00F30B5094D87B001AC0FCD0FC452
S214006B802B6801A8236025238DF80530FFF7DCF974
S214006B906420FFF711FA002007B030BDFC82010028
S214006BA06FF00402502110B50A480B4C12F0800F0B
S214006BB0D3B21BBF03F00F03043BA3181B1802F14C
S214006BC001020CBF83F8001319763D2AEED100208F
S214006BD010BD00BF00ED00E000E100E0BFF35F8FF6
S214006BE0074B5A6A22F480325A62D3F8942022F075
S214006BF00102C3F89420BFF34F8FBFF36F8F704727
S214006C0000ED00E070B52648264CFFF7E7FF84420B
S214006C1008BF4FF08043244A18BF20F01F03D2F865
S214006C20C01018BF203B21F0FF0141F0A001B3F1D6
S214006C30005FC2F8C0100CD31C4D1D4E296843F0EF
S214006C400103C2F898100131C2F89C60C2F8A03067
S214006C502960844210D01548164B0268124923F06A
S214006C601F0343F00303C1F89820C1F89C30124B71
S214006C700132C1F8A0300260BFF35F8F05220A4BD5
S214006C80C3F894205A6A42F480325A62BFF34F8F98
S214006C90BFF36F8FBFF34F8FBFF36F8F70BD00BF13
S214006CA01C120020B813002000ED00E0E0390020A0
S214006CB003000020D7130020E1FFFF3F10B5144665
S214006CC0FFF78CFF1F2C24D91C4A1D4CD2F8C0306D
S214006CD023F47F4343F48073C2F8C030C2061CBF5F
S214006CE020F01F002030CB06144A236818BF21F07E
S214006CF01F0120F01F0021F01F01C2F8983040F05D
S214006D00030041F003010133C2F89C00C2F8A01052
S214006D102360BFF35F8F0522084BC3F894205A6A9E
S214006D2042F480325A62BFF34F8FBFF36F8FBFF3C8
S214006D304F8FBFF36F8F002010BD00BF00ED00E047
S214006D40E0390020BFF34F8F0549064BCA6802F4AE
S214006D50E0621343CB60BFF34F8F00BFFDE700BF79
S214006D6000ED00E00400FA0530B50F4C41612368E1
S214006D70ABB92060836011E0891A9A681D464161AC
S214006D802AB113465A698A42F6D955B11A461346AD
S214006D90A860836013B15A69511A596130BD002545
S214006DA0F0E72060F5E700BFF039002010B50CF0E2
S214006DB050F90A4C0A4B19682368C31A01B10BB97B
S214006DC0206010BD4A699A423ABF9B1A0022D21A26
S214006DD04A6128BF00238968F0E700BFE439002035
S214006DE0F039002038B5134D2B685B6993B1124A11
S214006DF0022014681C440CF033F9204600F036FAE2
S214006E0000230E492A680B70D088800709D5012315
S214006E100B7038BD02200CF023F9022000F070FA47
S214006E20EEE79268002AF4D050690344012BEBD9B0
S214006E30EFE700BFF0390020E4390020F83E0020DC
S214006E4070B516469DF81420C0E903360271049A00
S214006E50BDF8183002600022C380826004460D46EA
S214006E600CF0F7F83044A0613DB9E368656113B1F2
S214006E7020462168984796B135460BF002FF064635
S214006E80FFF794FF29462046FFF76EFF054B1B6869
S214006E90A34201D1FFF7A6FF30460BF0F6FE002016
S214006EA070BD00BFF039002000220C490B687BB192
S214006EB083420AD183687AB1936083681BB15A69AA
S214006EC041690A445A61002070471A469B68EEE7FB
S214006ED00028EFD0022070470B60EEE7F039002064
S214006EE070B50BF0D5FE144E05463478FCB9134B3E
S214006EF01C60134B1C60134B1C8000F07DF90120B6
S214006F000CF0AEF80CF0C7F80F4B0246186020B92C
S214006F1028460BF0C3FE232070BD234640F2E7311F
S214006F200A480AF0D7FA0A4B18600123337028463D
S214006F300BF0B4FE0020EFE7F73E0020F03900200B
S214006F40E4390020FC3D0020EC39002018FCFFFF4F
S214006F50E83900202DE9F0410546F8B10BF091FE26
S214006F600F4F0646FFF722FF2846D7F80080FFF7A8
S214006F709BFF044628B130460BF087FE2046BDE84E
S214006F80F081A8453B6803D123B1FFF72BFFF2E75A
S214006F90002BF0D1022000F09BF9ECE72224EDE76D
S214006FA0F039002038B50C46054698B191B100235B
S214006FB00B700BF06DFE0121074B1B680BB122789E
S214006FC01AB10BF06BFE002038BDAB4214BF9B68B5
S214006FD02170F3E72220F7E7F039002070B50BF0B8
S214006FE057FE06460CF035F8084B04461D8801206F
S214006FF0ADB20CF041F818B10CF02BF80446013590
S21400700030460BF04BFE2046294670BDFC3D002066
S2140070100C4B70B51B680D46834211D340F2E73126
S21400702000248C462146084B4FF47A721E680023D3
S214007030E0FB06C160460AF04DFA2860204670BDA7
S2140070402120FCE7E8390020EC390020164B70B50B
S2140070508342164B15468B4124D3154B1A680AB348
S2140070604FF47A76A0FB0603541E144006FB01314B
S21400707011D1B2FA82F3C3F11F025E1CDB4301FAA0
S21400708006F6D04021FA03F330431843D140C5E951
S2140070900001204670BD00230AF01CFA0024C5E952
S2140070A00001F6E72124F4E7EFA7C64B3789410035
S2140070B0EC390020C2072DE9F04704460BD54B4AB1
S2140070C0138801339BB21380FFF770FE484B1B6892
S2140070D00BB1FFF787FEA30740F185800BF0D8FDC4
S2140070E04FF0000980464D46FFF760FE4F46404E83
S2140070F034680CB163698BB100223E4B012D1A70C7
S21400710003D1B9F1020F08BF1D70002C5BD0FFF74A
S21400711069FE4046BDE8F0470BF0C0BD23461A792D
S2140071202179914288BF1C469B6813B15A69002A90
S214007130F5D040460BF0B2FDD4F81090B9F1000F30
S21400714045D00BF086FFA269A0EB02084FEAE87371
S214007150C14577EB03033BDA23691344A36101239C
S2140071602269CAB1C3B9A38BB9EB080833B1E28B65
S21400717013449BB2B3F57A7F1CD2E3830BF088FDF1
S214007180814641462046FFF7EFFDA369226948463F
S2140071901344A3610BF082FDE368B4F80690013552
S2140071A013B12046216898470BF072FD8046FFF722
S2140071B0FDFD9DE7A3F57A73E383A36918F1FF3815
S2140071C0013BA361DAE7022000F082F8A1E7C84697
S2140071D00BF05EFD82462046FFF766FE50460BF03B
S2140071E05DFD0023BCE7BDE8F08700BFFC3D002046
S2140071F0F0390020F93E00201FB50024184B18680F
S2140072009A880290D3F806009B7A009002A8ADF800
S2140072100C208DF804308DF808408DF80C40FFF7F0
S214007220ABF8694601208DF80040FFF769F84FF08B
S214007230B0431F219A6922F01F029A61094A5161E0
S2140072409A6A12F00802FBD11A620120FFF772F860
S2140072504FF48062044BC3F880211A6004B010BD5E
S214007260108301000020005800E100E010B504463D
S2140072700BF007FD4FF0B042936A1907FCD4136A6F
S214007280116C5269120704D4CA1A032A01D899420B
S2140072900ED1E21A022A98BFDC1CB4F1FF3F38BFB9
S2140072A0013C4FF0B0431C649A6942F008029A61B0
S2140072B00BF0EBFC054A13783BB14FF0B041CB6BBB
S2140072C043F00203CB630023137010BD0F1200209F
S2140072D0820700F001030AD50121084A43F008039B
S2140072E011704FF0B041CA6B22F00302CA634FF030
S2140072F0B0418A6922EA03038B6170470F120020AF
S214007300830742BF0822014B5A617047001000589D
S21400731010B50BF0BDFC4FF0B04304465B691A078E
S214007320074A03F0010003F00D0348BF40F00200D7
S2140073305361FFF7BFFE2046BDE810400BF0AEBC21
S2140073400020005820220021014810F0A8BC00BFF1
S214007350183A002007B5FFF741FE6A46FFF776FEAB
S21400736028B16321044B054A05480AF043FA009801
S21400737003B05DF804FB00BF1B830100EB83010034
S2140073803283010030B50D46144685B01548FFF728
S214007390E1FD154B2C441C60FFF7DCFF201A01248E
S2140073A0124B00281C7004DC05B0BDE830400CF021
S2140073B0CFB803A9FFF72CFE034628B189210C4B52
S2140073C00C4A0D480AF016FACDE900040B4A039958
S2140073D004480BF01AFE18B18D21054B054AF0E75C
S2140073E005B030BD183A0020103A0020FA3E0020C2
S2140073F01B830100D383010032830100CD300100DE
S21400740008B50348FFF7A6FD0022024B1A7008BD18
S214007410183A0020FA3E002037B50BF032FC05463D
S2140074200FF07CFF044609490B6808608342084B4E
S214007430284682BF1A6801321A60196801910BF05B
S21400744024FC2046019903B030BD00BFF43900206B
S214007450383A002037B50D46144611480FF0B8FDEF
S214007460104B2C441C600FF059FF01220E4B211AC2
S21400747000291A7004DC03B0BDE830400CF068B890
S214007480002307480093094B0FF095FD30B14FF4E9
S2140074908971074B074A08480AF0ACF903B030BDBB
S2140074A0F8390020143A0020FB3E0020D1300100BD
S2140074B09C830100BB8301003283010008B50348AA
S2140074C00FF086FD0022024B1A7008BDF839002026
S2140074D0FB3E00202DE9F04104460BF0D9FB184B8B
S2140074E007461E788EB90026164B1D78C5B90025AE
S2140074F038460BF0D3FB16B1204601F033FEE5B15B
S2140075002046BDE8F04101F051BE0F4B1D68FFF765
S21400751021FF281A0028E6DC2046FFF771FFE3E784
S2140075200A4BD3F800800FF0F9FEA8EB0000002805
S214007530DDDC2046FFF7C2FFDAE7BDE8F08100BFDA
S214007540FA3E0020FB3E0020103A0020143A0020AD
S21400755008B5FEF7CFFE034B1860BDE808400BF0F9
S214007560B2BB00BF3C3A0020BFF34F8F0549064B25
S214007570CA6802F4E0621343CB60BFF34F8F00BFCC
S214007580FDE700BF00ED00E00400FA050E4B1B68A7
S214007590D9070FD45A060FD413F0180F0ED1990737
S2140075A00ED49A060ED440F2847213420CBF072003
S2140075B0062070470020704702207047082070475A
S2140075C001207047032070473C3A0020054B1B788B
S2140075D003F0FF0023B1044B1B681878C0F340107B
S2140075E0704700BF1A40002048180020064B074A84
S2140075F01B6812781B8802F0FF0022B103F0070018
S214007600C31E584258417047481800201A400020B0
S214007610054B1A79824205D85A79824238BF002330
S214007620184670470023FBE7443A002010B50BF0DD
S21400763053FDA0210B4B1A680B4B4A431B68B3FB48
S214007640F2F402FB1433B0FBF2F404FB1200134412
S214007650181AB0FBF2F302FB1300B0FBF1F080B295
S21400766010BD00BFDC3A0020E03A002010B5094CFF
S21400767020680FF09AFC012804D00122002120681F
S2140076800FF095FC206803F0C5FB0122024B1A7030
S21400769010BD00BF403A00201940002037B505460F
S2140076A02E4B2F4C18689B880090ADF804302B6842
S2140076B020682BB397210FF0BDFE024630B140F292
S2140076C0D331284B284A29480AF094F829682068BC
S2140076D003F06EFE2B79834204D040F2D631244B61
S2140076E0214AF0E701220423114620688DF8003075
S2140076F00FF0D6FE60B14FF477711A4B1A4AE2E7E4
S21400770004F0C0F820B14FF47A71164B164ADAE747
S2140077100322206811460FF0B1FE20680FF00EFD20
S214007720FF280DD0206803F053FE05466946206802
S2140077300FF006FD30B140F28F310A4B0D4AC2E71A
S2140077400025F3E7294620680FF00FFD20B140F230
S2140077509231044B074AB6E703B030BD7487010088
S214007760403A00209C830100EB8701000284010060
S2140077706C840100DA87010038B50D4604460BF02C
S21400778087FA064B1A8892B22DB114431C80BDE8C6
S21400779038400BF083BA22EA0404F7E7FE3D0020E7
S2140077A010B5FFF713FF30B940F6A7110F4B104A7C
S2140077B010480AF01FF8104B1B881B0704D440F62D
S2140077C0A8110E4B0A4AF3E70E2200240C4B214662
S2140077D01A700C4B08201C70FFF7CEFF0A4B186877
S2140077E003F018FB094B1C7010BD00BF9584010008
S2140077F03188010002840100FE3D0020A7840100BC
S2140078001B4000201A400020403A0020FC3E00208A
S21400781038B51D460B4B14460A46014618680FF04D
S2140078205FFD08B1002038BD6088A368411C89B29E
S21400783029801B788B42F5D103387B288CBF00202B
S2140078400120F0E7403A00202DE9F0430D461646A9
S21400785001221A4BDFF87480194F187085B0D8F8DB
S214007860000000213A700FF0A2FBE8B2FFF7D0FE4E
S2140078700446F0B1DFF85890D9F80030984203D0AB
S214007880FFF70CFFC9F80040FF238DF804300D4BBE
S2140078903246CDE902362946D8F8000001AB03F09F
S2140078A033FB38B17F22084B01201A7002233B704D
S2140078B000E0072005B0BDE8F08300BF0D3F0020C4
S2140078C00F3F002020A107000E3F0020403A002076
S2140078D0E43A0020F8B5054614460E46FFF79CFD30
S2140078E04FF0000E73462A6895F90AC08242687AFD
S2140078F028BF01F1FF31EF7A9A1840B10F4BC3E968
S214007900042183F81DC09F7783F808E0F8BD0C4B70
S21400791044EA4604C3E90421DA7F04F0030422F0B3
S21400792003021443074A83F81DC0117892689F77B4
S214007930DC77187219779A61E8E700BFF81700201D
S21400794020180020E83A002008B50E4B1B889B073D
S21400795013D501280C4B11D10F22002120201A70BC
S214007960FFF70AFF00210220FFF706FF074B186803
S21400797003F050FA0022064B1A7008BD0B221A704C
S214007980F0E700BFFE3D00201B400020403A0020EC
S2140079901A400020F8B504460BF0CBFE10B90026BE
S2140079A03046F8BD20460BF0C9FE0028F7D094F804
S2140079B0226016F01006F2D120460BF095FE80B13C
S2140079C020460BF0CCFE054688B31A4B5B785A1E51
S2140079D090420AD0984206D00133984225D0082615
S2140079E0DEE7144B5D78012300E03346114F07EBCA
S2140079F003130C33236194F82230DB0710D420469F
S214007A000BF072FE10B17B683D70BB6029462046C5
S214007A100BF0B2FE796820464B1C7B600BF0AEFE86
S214007A20204605490BF0E5FCBAE70223DEE701260F
S214007A30B6E700BFE83A0020103F00202DE9F04FDF
S214007A400646900215461F46E3B040F1D5802A4B05
S214007A5009A918680FF041FCBDF82630022B40F249
S214007A60CB80272B0AD92723BDF82820ADF826304F
S214007A70262A82BFADF8283000230C9309A922A835
S214007A800BF027FD9DF82640002C00F0B5800DF188
S214007A9089030E93631EADF83C300DF160090DF2BC
S214007AA00913C9F800300EA80BF037FEDFF84C803B
S214007AB030BB012C40F07F8198F80030002B00F09E
S214007AC0B681304642A90FF00FFD0246002840F06E
S214007AD0B4819DF81031032B00F08C819DF8103195
S214007AE0022B40F089800020BDF8081101F05AF9F9
S214007AF0002880F285817FE0403A0020183F002071
S214007B0006A90EA80BF0F8FD98F8004064B19DF8A1
S214007B1020404CB1022C40F04681002006A901F01E
S214007B20B5F9C043C0F3C034A4490DF1140B5B464D
S214007B3091F91D2006A8897F01F082F8DFF8B0A22F
S214007B40021EDAF8003008BF4FF0000B002B00F0E2
S214007B5030819B48039201F0D9F88046039ABBF126
S214007B60000F07D032B15946954801F0E7F8804437
S214007B705FFA88F843462146914ACDF800900EA851
S214007B8001F0AAF8C0BBDAF80080B8F1000F07D001
S214007B90FFF74CFD1FFA88F1024648460BF0C7FD7A
S214007BA048460BF0C6FD18B14846FFF7F3FE18BB73
S214007BB009A80BF080FCF8B9DDE90B38BDF82820E1
S214007BC04846002A18BF98460BF0B3FD28B198F82F
S214007BD0003043F0040388F800302CB198F80030E9
S214007BE063F07F0388F8003099F80420304642A9F5
S214007BF08DF808210FF07BFCE90105F0807240F15A
S214007C002C81704B1B889B070DD502200021FFF7A7
S214007C10B3FDFFF7DBFC0446002800F015810121C8
S214007C200820FFF7A9FDAC0442BF0222664B1A707B
S214007C30680401D5FFF71AFD290775D530460FF001
S214007C4053FBDFF89C91014622AAD9F800000FF0FA
S214007C5040FB8246002867D09DF88830072B63D10A
S214007C6018AB22AA42A9FFF7D3FD00285CD022A8B1
S214007C700BF021FC002857D1BDF88C30002B40F0CB
S214007C80FB80259B93F800809DF81131002B00F0B7
S214007C90F580BDF86030032B46D908F00703022BA9
S214007CA042D14A4C22A920680BF013FCBDF8603084
S214007CB05146D9F80000A3800FF018FBFFF786FCAA
S214007CC058B3434B22681B6892789B789A4224D11B
S214007CD09DF80E3143B3BDF86030D9F8000001338B
S214007CE042A9ADF80C310FF0FDFA0446E0B90246A1
S214007CF0014642A8FFF7EEFD364B08201C70364BB7
S214007D0021461C70FFF738FDFFF770FC28B118F00D
S214007D10100F1EBF0122314B1A70FFF767FC18B90F
S214007D20D9F8000003F076F8AA014FF000080CD549
S214007D302A4C41460420FFF71FFD23782BB1284B21
S214007D40186803F067F884F8008015F0084F01D033
S214007D500BF0D2FBAB0001D50BF0CEFBAC0705D584
S214007D60184B1B88180701D5FFF71AFD79060AD5A8
S214007D70144C23881A0701D5FFF712FD23885B07EA
S214007D8001D50BF0B9FBFC0540F1B48030460FF08E
S214007D90F8F8052840F08E804FF41C61114B124A0B
S214007DA0124809F027FDBDF81810002000F0FAFF71
S214007DB0B7E69846D3E69DF889007DE620180020B1
S214007DC0FD3E0020FE3D002019400020F817002050
S214007DD0481800201A4000201B400020FC3E0020CF
S214007DE0403A0020EC8401001A8801000284010059
S214007DF0DC3A002042A901F049F80028FFF66EAEF2
S214007E0030460FF06FFB0246B8B909A80BF053FBDB
S214007E1000287FF4F1AEDDE90B23BDF82810002919
S214007E2018BF13461A7862F07F021A70E4E600F074
S214007E30070001283FF4E0AEE2E7022A40F08D801A
S214007E4048480BF0E3FCD7E6474B186802F0E2FF21
S214007E50464B1C70464B1C70E5E607F002031A43BF
S214007E6003D00120FFF770FDDDE605F0A8421343BE
S214007E703FF4D9AE0220F5E7249B03E73D4B1B7881
S214007E8023B9BDF86030042B7FF64EAF18F02008FB
S214007E9004D001210420FFF76FFC45E7364C237819
S214007EA0002B3FF441AFD9F8000002F0B3FF84F88E
S214007EB0008039E7442811D000F0EF03242B0DD0C2
S214007EC0032806D12A4B1B7843B92C4B1B78012B71
S214007ED01EE002281BD1264B1B785BB1284C23885A
S214007EE0580701D50BF008FB2388990702D5012017
S214007EF0FFF72AFDBA0513D50022304611460FF0CB
S214007F0083F968B140F681211E4B1F4A48E7942842
S214007F10F0D17F221D4B1A700222184B1A70E9E727
S214007F20EB0713D530460FF0E7F90446304602F06B
S214007F3071FF14F5007F0ED0002CB8BF033444F355
S214007F4087040222114B1C700C4B1A7063B0BDE8FC
S214007F50F04F0BF0FDBA7F24F3E740F60511094B0E
S214007F600B4A1DE7CD840100403A00201B4000204C
S214007F701A400020193F0020FC3E00200F3F002042
S214007F80FE3D00209C830100798801000E3F002002
S214007F905E88010030B50C46154A85B010685168F9
S214007FA002AB002C03C304F1FF350ED1114B07348E
S214007FB09A6CDB6CCDE900232B4602AA12F8011D51
S214007FC003F8011FA342F9D110E02A460A4B0B49D9
S214007FD013F801098B4202F8010FF9D10822204656
S214007FE00DEB02010FF024FE0028DFD005B030BDF7
S214007FF01B8501000080E00F0900E00F0100E00F84
S214008000002310B50C461A460A480BF002FC21461F
S214008010002000F0BBFE084B0022214618680FF037
S2140080200BFA30B140F2E641044B054A054809F028
S214008030E1FB10BD24850100403A00209C8301002E
S214008040088901000284010030B5CB1D0C46154995
S21400805087B01878A34201F8010B03F1FF33F8D17B
S21400806000252378A27904936378E1790393A378B3
S2140080700D480293E378059501932379009363797D
S2140080800BF0C7FB094B2A46214618680FF0E0F9AB
S21400809030B140F20451064B064A074809F0AAFBE5
S2140080A007B030BD103F00203D850100403A00205B
S2140080B09C830100EA8801000284010010B50C468A
S2140080C0002209480BF0A5FB084B00222146186841
S2140080D00FF0B8F930B140F21251054B054A064888
S2140080E009F088FB10BD00BF5F850100403A002004
S2140080F09C830100CF88010002840100024B18789F
S214008100003818BF012070471940002010B5054CF4
S214008110237823B904480BF07CFB0123237000204E
S21400812010BD00BF194000207585010010B5054C34
S214008130237823B104480BF06CFB00232370002047
S21400814010BD00BF194000209085010008B5074B00
S2140081501B78032B07D033B105480BF05AFBFFF70B
S21400816085FA002008BD0D20FCE700BF194000205E
S214008170758501002DE9FF41204E0D463378002B12
S21400818038D0032B36D01E4B1B78012B32D0084636
S214008190FFF73EFA044678B3DFF87880194FD8F830
S2140081A00030834209D00122002138680EF0FFFE1D
S2140081B02046FFF773FAC8F800400023CDE90133E4
S2140081C00393FF232946386801AA8DF8043002F08D
S2140081D069FE044620B10124204604B0BDE8F081C3
S2140081E00223094833700BF014FB084B9D71084BB3
S2140081F09D71F1E70D24EFE70724EDE71940002015
S2140082000F3F0020403A0020AE85010020180020D5
S214008210F8170020E43A00202DE9F0431E46224BD2
S2140082200C461B78174689B0002B39D00846FFF756
S214008230EFF90546B0B3DFF87C90DFF87C80D9F81C
S214008240003083420AD001220021D8F800000EF048
S214008250AEFE2846FFF722FAC9F800500021FF2399
S214008260CDE901118DF8043040F2011303918DF829
S2140082701410ADF81C308DF81E10D8F800002146FA
S21400828001AB04AA0497069602F01AFE30B9074B13
S2140082909C71074B9C7109B0BDE8F0830120FAE79A
S2140082A00D20F8E70720F6E71940002020180020E8
S2140082B0F8170020E43A0020403A00202DE9F0416B
S2140082C02E4F8AB03B889B0706D440F2F6512C4BC3
S2140082D02C4A2D4809F08EFADFF8C080D8F8003016
S2140082E023B940F2F751294B264AF2E79B88284CDF
S2140082F08DF80F30012394E80700264D04AE86E87B
S21400830007003A880DF10F011A4628680EF0DBFFC9
S2140083109DF80F20D8F80010023A0023096892B2A0
S21400832028680EF0D0FF0C3407AB94E8070083E80B
S2140083300700D8F800003988026811F0200F12787C
S2140083408179C2F3401215D090F820008DF8120003
S2140083501148007800938DF813003346286802F021
S21400836093FD20B10220FFF7EFFA0BF0F1F80AB008
S214008370BDE8F081286802F079FDF2E7FE3D0020B6
S214008380CB8501009788010002840100F185010079
S2140083907C870100403A002010120020243B002079
S2140083A02DE9F8433A4F06463B780D461BB90D2497
S2140083B02046BDE8F883032BF9D08879FFF728F923
S2140083C00446002861D0DFF8F080D8F800308342F9
S2140083D00AD0304B0122186800210EF0E8FD204636
S2140083E0FFF75CF9C8F800402B4B1A7802F0FF0143
S2140083F032B140F2AD51294B294A2A4809F0FAF920
S21400840003223A700122DFF8B480274C88F8001067
S21400841095F822102020C1F380011A702560FFF71E
S214008420ABF9276827B940F2D651204B204AE4E73B
S214008430204BD3F80090B9F1000F0BD097F82230FC
S214008440DB0707D4FFF7F2F81FFA89F10246384631
S2140084500BF06DF92068FFF79DFA04460028A6D1B8
S2140084600AF016FC074601210220FFF785F9FFF700
S21400847025FF38460AF012FC98F80030002B97D1FA
S214008480294630460CF09AFA92E7072490E700BF98
S21400849019400020403A00201A40002002860100C1
S2140084A0BB88010002840100243B0020F185010006
S2140084B0A7880100DC3A0020E43A00201B40002098
S2140084C0004870474818002038B5134C237803F04E
S2140084D0FF000BB17F2038BD104B10229979FFF7B3
S2140084E0B3F90028F6D10EF019FF05462378012BC4
S2140084F005D10EF013FF431BB3F5967FF6D3237812
S214008500022B0ABF064B7F2018784FF0000308BFE7
S21400851040B22370DFE700BF0F3F00202018002086
S2140085200E3F0020014B1878704700BF193F00200F
S21400853008B5074B1970074B18680EF08FFF30B15F
S2140085404FF4DD61044B054A054809F053F908BDB0
S214008550193F0020403A00209C8301004488010017
S21400856002840100014B1970704700BF183F0020BD
S21400857010B50C4649B1064B186802F029FF0A23CD
S21400858090FBF3F02070002010BD0720FCE700BF32
S214008590403A002008B5084B01EB810118684900F5
S2140085A00EF0E3FD30B14FF4E261044B044A054897
S2140085B009F020F908BD00BF403A00209C83010066
S2140085C0A987010002840100A1F10B030F2B73B5EC
S2140085D005460C4616460FD8094B0DF106011868DD
S2140085E00EF030FDBDF80630A34203D131462846D2
S2140085F0FFF7D0FF002000E0072002B070BD00BFEC
S214008600403A002021B1034B00201B780B707047C6
S2140086100720704710120020014B00201970704789
S21400862010120020054B1B782BB94FF47A730120EB
S2140086305A43FFF709B90520704700BF0F3F0020D7
S2140086402DE9F0419046DDE906651C460BB106B102
S21400865035B940F26971194B194A1A4809F0CAF837
S2140086600AF016FB23460746174A04F1100C82F858
S21400867001800C32144618685968083303C46345F1
S2140086802246F7D1114C33461036224618685968F0
S214008690083303C2B3421446F7D10D4C2B461035AF
S2140086A0224618685968083303C2AB421446F7D10D
S2140086B03846BDE8F0410AF0F1BA00BF198601005D
S2140086C09487010002840100E83A0020043B002061
S2140086D0143B002010B50C460AF0DAFA024B5C6038
S2140086E0BDE810400AF0DABAE83A0020014B002054
S2140086F019607047DC3A0020014B1960704700BFD4
S214008700E03A00202DE9F0438DB006460AF0C0FAA4
S214008710DFF89C8181460221D8F8000002AA0EF0FC
S214008720D8FD0446002800F0A0809DF80830072BEE
S21400873040F09B800DF1060302AA07A9FFF768F830
S2140087400746002800F08F8002A80AF0B4FE002832
S21400875040F08980494B1D7835B99DF825300BBB14
S214008760BDF80630042B1DD9454D02A928680AF02D
S214008770B0FEBDF80630BDF82C20AB802B68AA7181
S2140087801D78214605F07B021A70D8F800000EF01E
S214008790ADFD9DF82230002808BF0024002B4ED1E6
S2140087A0002524B12146D8F800000EF09FFD48466B
S2140087B00AF074FA75B10023314C324DA188324864
S2140087C02B700BF026F8214630462A780CF0EFF88E
S2140087D00AF0BEFE2D4D2B78032B1BD12C4B1B789D
S2140087E0C3B92C4C23781BB121782B480BF014F816
S2140087F002232A492B700B681B789B0602D5237828
S214008800002B34D000222378244930460CF0DDF8C3
S2140088100AF09EFE224B1B78012B2BD1214B1A7897
S214008820022A27D100221A701F4B3046197849B207
S2140088300CF0D7F80DB0BDE8F0430AF089BEBDF8DD
S2140088400630D8F80000013307A9ADF820300EF046
S21400885049FD0028A4D1EA09C5F3800107A8FFF75F
S21400886039F83D469DE700259CE700259FE72378DD
S2140088700E4ACAE70DB0BDE8F08300BF193F0020DE
S21400888020180020993F0020528601001940002041
S2140088901A4000201B400020648601004818002073
S2140088A00D3F00200F3F00200E3F0020F81700204D
S2140088B0403A0020024B014618680EF01CBE00BF6E
S2140088C0403A002007B5074B0190186000F082F888
S2140088D00198FFF717FF019803B05DF804EBFEF769
S2140088E0F9BD00BF283B00202DE9F0471D461A4E73
S2140088F0DFF86C901746B6F88020B6F8823099F804
S21400890000A09BB2A3EB0A032B4492B203F07F03B2
S2140089109A42804616D0B6F88200A5EB0A0207EB0C
S2140089200A0116FA80F00FF093F90023B6F8824099
S21400893089F80030A4B2A4EB0A042C4404F07F04A7
S214008940A6F882402A4639464046044BFCF7F2FD1C
S214008950BDE8F0470AF0FCBD003E0020E9880000B4
S2140089609B4000200122024B1A700AF0F1BD00BFA6
S2140089709C41002038B50024094B0A4DA3F88040DE
S2140089808022A3F882400849084B2868FCF7D2FDED
S2140089908022064B06492868FCF7CCFD204638BDE9
S2140089A0003E0020241000209C400020E9880000A3
S2140089B01C4100200A460146044808B50068044BDE
S2140089C0FCF754FE003818BF012008BD2410002014
S2140089D0658900002DE9FF410AF05AF907462B4841
S2140089E0DFF8B480006803AB02AA01A90AF0B9F860
S2140089F098F80060029D264CAE4213D2B4F882006E
S214008A000199AA1B314414FA80F00FF021F9B4F84A
S214008A10823088F8005015FA83F39B1B03F07F031F
S214008A20A4F8823038460AF039F9B4F88250B4F81F
S214008A308030ADB29BB29D420DD2B4F88000B4F83F
S214008A40801014FA80F0C1F1800189B20AF0BDFDF1
S214008A500023A4F88030B4F880309BB29D420BD03F
S214008A60B4F88000B4F8801014FA80F0691A89B25D
S214008A700AF0ABFDA4F88050064B1A781AB1002213
S214008A801A700AF0A4FD04B0BDE8F081241000209E
S214008A90003E00209C4100209B4000200A4619B161
S214008AA0024B00211B681847704700BF601100206A
S214008AB037B50C4D0C462B78DB070FD500230A463E
S214008AC00193014601AB281D0AF069FA20B9019B03
S214008AD0A34218BF6FF0930003B030BD6FF088005C
S214008AE0FAE700BF2C3B002008B500F041F8084B21
S214008AF00C211A78064812F0060F1CBF0022C3E9A4
S214008B000122FFF7CBFFBDE808400AF057BD00BFC3
S214008B102C3B002038B50F4D2B7813F0010213D1F3
S214008B20C5E90122022262F342032B7000F014F81A
S214008B30044658B90AF039FD044638B92B7843F094
S214008B4001032B70204638BD0024FBE7FFF7CCFF5F
S214008B50F8E700BF2C3B0020044A002092F8C830FB
S214008B6043F0010382F8C830704700BF383B00204E
S214008B70F8B5094C0525264601272046E7610AF088
S214008B8003FD013D04F12804F7D196F8C83065F3DB
S214008B90000386F8C830F8BD383B002010B5044600
S214008BA0FFF7E8FE2046BDE81040014901F0E0BAB4
S214008BB0BF35010038B5084DD5E88F3F13F00104E6
S214008BC008D128460AF0AFFC20B1044B28461C60AA
S214008BD00AF0AEFC014838BD083C0020B03C00203E
S214008BE070B51248D0E88F4F14F001041BD10AF07C
S214008BF09AFCC0B10E4E34600D4D1022281D204444
S214008C00002110340FF04BF8A02CF5D10A232A4689
S214008C103168013B42F8041F326005F11005F6D1B9
S214008C2002480AF085FC024870BD00BF043C0020E4
S214008C300C3C0020014B1870704700BF9D4100207F
S214008C402DE9F041884615461E460AF01AFD0746ED
S214008C5058B366B30379990748BF86F80080C3F314
S214008C604004037948BF01245A070FD5124B294602
S214008C7093F900000BF0C8FE02B28220C2EB02227B
S214008C80B2FBF0F2012C325513D001243B791B07BE
S214008C9008D582218235C5EB0525B5FBF1F5631CA9
S214008CA03555DCB22046BDE8F0810446FAE7344686
S214008CB0F8E70224F6E700BF9D41002008B5012131
S214008CC0002001F0D9FA0028A2BF0122014B1A7039
S214008CD008BD00BF9E41002070B5049D0C460146AD
S214008CE000B12DB9AB21064B064A074808F082FDB5
S214008CF00493284613462246BDE870400BF084BC19
S214008D0048890100308A0100BA89010008B528B9EF
S214008D10E721074B074A084808F06CFD038823F450
S214008D20FF4343F45063038004230370062008BD0A
S214008D30948A0100A58A0100BA890100131D70B546
S214008D40DBB2144628B9F5210D4B0E4A0E4808F042
S214008D5051FD068803F07F0326F4FF460680037065
S214008D609B238370B823C370EA23037100234371E7
S214008D7011B106300EF06CFFA01DC0B270BD00BF72
S214008D80948A0100D78A0100BA890100034B0A467B
S214008D901980034800210AF03CBD00BF843E002035
S214008DA0248B01000A4B10B51B880A4A194400237D
S214008DB089B2148818B28C4201D1947834B9013340
S214008DC00A2B02F10402F4D14FF0FF3010BD00BFB1
S214008DD0843E0020AE3E002070B500230D46104EA7
S214008DE006EB830292781CB222B101330A2BF7D12C
S214008DF04FF0FF3422462B4600210A48A4B20AF060
S214008E000BFD092C0AD8084B00201B881D440123A3
S214008E1026F8245006EB8404A37070BD0320FCE7FC
S214008E20AE3E0020428B0100843E002013B5002099
S214008E300191FFF7B7FF04460246019B002109484F
S214008E400AF0EAFCA0B209289BBF0023064A0A20C3
S214008E5002EB80019EBF22F8203018468B7002B0CD
S214008E6010BD00BF6F8B0100AE3E002008B500218C
S214008E7004480AF0D1FCBDE8084028220021024838
S214008E800EF00DBF9E8B0100AE3E002010B50E4BBF
S214008E900A8848881B88024413448A8812FA83F397
S214008EA0CA880A4912FA83F300229BB20C8810B2D1
S214008EB09C4201D18C7834B901320A2A01F10401AE
S214008EC0F4D14FF0FF3010BD843E0020863E0020D7
S214008ED070B500230D46154E06EB830292781CB241
S214008EE022B101330A2BF7D14FF0FF3422462B462E
S214008EF000210F48A4B20AF08FFC092C13D80D4BA2
S214008F0069881A882B8800200B441A44AB8813FA09
S214008F1082F2EB8813FA82F2012326F8242006EB6D
S214008F208404A37070BD0320FCE700BF863E0020CB
S214008F30C08B0100843E002010B50020FFF7A6FF7E
S214008F4004460246002108480AF066FCA0B209283A
S214008F509BBF0023054A0A2002EB80019EBF22F831
S214008F6020308B70184610BDE78B0100863E00202F
S214008F7008B5002104480AF04FFCBDE80840282246
S214008F80002102480EF08BBE078C0100863E0020B2
S214008F9000487047278C01000148FFF7C3BA00BF9E
S214008FA08018002008B5836923B10348FFF7C0FA8C
S214008FB0002008BD0D20FCE780180020836913B14F
S214008FC00248FFF7C3B80D20704700BF8018002086
S214008FD008B5836923B10348FFF7C4FA002008BD2B
S214008FE00D20FCE780180020836913B10248FFF7C4
S214008FF0F3BE0D20704700BF80180020836907B5B8
S21400900053B1684601220BF0A8FB69460348FFF7F8
S2140090105FFF03B05DF804FB0D20FAE78018002020
S214009020836913B10248FFF701BF0D20704700BFE8
S21400903080180020836907B553B1684601220BF0FB
S2140090408CFB69460348FFF777FF03B05DF804FB27
S2140090500D20FAE78018002008B5836923B103487D
S214009060FFF704FF002008BD0D20FCE78018002055
S21400907008B5836923B10348FFF77AFF002008BDCF
S2140090800D20FCE78018002010B5064C94F8AC3094
S2140090902BB920460AF0CFFB012384F8AC300148F8
S2140090A010BD00BF8018002037B54FF6FF720C4D7C
S2140090B004462B88934200D1FEE753B904210DEBFA
S2140090C001000AF00BF800B1FEE7019905480AF026
S2140090D0D1FB20462B8801332B8003B030BD00BF68
S2140090E0D63E0020B43C0020034B1B8803B9FEE7A5
S2140090F002480AF0C9BB00BFD63E0020B43C0020A0
S214009100036823B90160044849600AF093BB5A68B3
S2140091104A60596001607047801800204368014625
S21400912013B90248FFF7ECBF704700BF8418002051
S21400913070B505680C4625B9BDE870404B68084810
S21400914018478B6898476A680146831A002BB8BF91
S214009150121A2368A8BF0022BDE8704000481847CE
S2140091608018002010B504460AF00CFB30B104F15C
S21400917008000349BDE810400AF016BC10BD00BF49
S214009180788C01004160024A014602480AF0DDBBC5
S2140091906C8C01008C1800200146024A02480AF036
S2140091A0AFBB00BF6C8C01008C18002010B50446C5
S2140091B00AF0E8FA30B104F10C000349BDE81040AB
S2140091C00AF0F2BB10BD00BF6C8C010010B44468FE
S2140091D02CB122B9234603485DF8044B18475DF8C6
S2140091E0044B70478018002038B5856804461DB1CA
S2140091F00248A8470023A36038BD00BF801800209F
S214009200436810B504462BB1C3681BB102489847A3
S2140092100023E36010BD00BF80180020430708D07D
S21400922000F01803083BDBB2102B04D8034AD05CCE
S2140092307047FF2070470520704700BF848C0100F0
S21400924037B51D4D0446284601910AF05BF920709B
S2140092502846FFF735F90199606104F118000BF014
S214009260A2FB00211022C4E9071104F124000EF02D
S21400927016FD1022002104F134000EF010FD00212E
S214009280102204F144000EF00AFD23460B4A204645
S21400929043F85C2F63662346094A43F87C2FC4F8DC
S2140092A08430FF2384F8783084F879300BF07EFA27
S2140092B0204603B030BD00BF80180020B9960000DD
S2140092C0199800000148FEF79BBE00BF80180020DA
S2140092D08180014800F01ABB9118002007B50A6883
S2140092E0C0F806204A68C0F80A20012268460BF03B
S2140092F034FA6946024800F003FB03B05DF804FB4D
S21400930091180020437810B5044663B90748FEF765
S214009310FDFE50B90548FEF719FF30B96378012BFA
S21400932001D001236370002010BDFEE780180020E6
S21400933010B504467C30FFF72FFF04F15C00FFF702
S2140093402BFF0648FEF702FF30B90448FEF7EEFE94
S21400935010B9637803B1607010BD00BF801800209C
S21400936010B504460448FEF705FF20B96378022BC3
S2140093701CBF0223637010BD8018002038B501237F
S214009380044603FA01F100200AF08CFA4FF4A075A7
S214009390A37B4543DB070BD5636907489979FEF73E
S2140093A0E9FE294604F15C00BDE838400AF01DBB22
S2140093B00148FEF7CBFEF4E780180020437810B58E
S2140093C003F0FB03032B044625D10378DB0606D403
S2140093D0436911489979FEF7CDFE00B1FEE7637840
S2140093E0042B1CBF04236370E3691BB10121226AAE
S2140093F0606998476169094800F08EFA0D2808D11F
S21400940061698B6933B100230448C1E9063300F073
S21400941083FA00B1FEE710BD8018002091180020E6
S214009420437810B504467BB1033B042B0CD9037874
S2140094309B070BD50648FFF7F5F86378052B01D098
S21400944005236370002000E00D2010BD0C20FCE713
S2140094508018002010B5037804469B0700D5FEE769
S2140094601048FFF731F87F2806D094F90F307F2B8D
S21400947001D0984200DDE073FDF76CFF2369C01A47
S214009480002808DA216E04F15C004FF4FA32BDE8D9
S21400949010400AF0A4BA204694F90F10BDE8104018
S2140094A00BF0C0B980180020426910B592690446D6
S2140094B04378C2B1072B1CBF072343700BF0C7F9D4
S2140094C0A8B10D480AF01CF86369D3E906218B1889
S2140094D0C3F18003C3420AD504F15C008039BDE8BD
S2140094E010400AF07CBA032B01D0032343702046B9
S2140094F0BDE81040FFF762BF801800202DE9FF4747
S21400950008290546DDE90C890F4692461C4603D01D
S21400951011F0EF0F13D0FEE780F8582000F1240674
S2140095200FCB86E80F0005F1340698E80F0086E8B2
S2140095300F0005F1440699E80F0086E80F0028465C
S2140095400BF079F948B9CDE90190234652463946E1
S2140095500348CDF80080FFF773F804B0BDE8F08745
S214009560801800202DE9FF411D4604465C300E465B
S2140095709046FFF711FE0E2D5BD004D8002D58D074
S2140095800B2D13D0FEE70F2DFCD1002196F82230CC
S2140095905B0704D5B27904F118000BF005FAB4F8AD
S2140095A068301BB12F4809F0ABFF60673146204694
S2140095B00BF0D4F90023A370E378002D3BD02046AF
S2140095C00BF03FF9074628B196F821709F4294BFEA
S2140095D00027012704F11800CDE9003742462B4644
S2140095E0314603900BF0E1F9039867B3E3780E2D4C
S2140095F003F10103E37096F8223043F0020386F885
S21400960022301AD163782046062B18BF062394F81A
S214009610591018BF6370FFF7B1FE94F85930013344
S214009620DBB2052B28BF052384F8593004B0BDE80B
S214009630F0810121AAE72F46CCE7204604B0BDE81A
S214009640F041FFF731BF63784246022B18BF022372
S214009650314618BF63702B4604B0BDE8F04100F0F9
S214009660E7B800BF80180020437810B5033B0446D7
S214009670042B1DD8DFE803F0030718140300BDE829
S2140096801040FFF79BBE43690A489979FEF772FDC2
S214009690204661690E23BDE810400022FFF762BF36
S2140096A0BDE81040FFF700BFBDE81040FFF7D2BE90
S2140096B010BD00BF801800200148FFF7D5BF00BFCF
S2140096C0A418002008B541650BF0B5F820B9BDE830
S2140096D008400248FEF7FEBF08BD00BF8018002005
S2140096E02DE9F843A023194C8046B0F86850204670
S2140096F016465D430F4609F003FFD8F874106D0850
S214009700A0EB0109204609F002FF98F87840104ABD
S2140097102318A3FB0901DC1709FB0411002307F03B
S214009720D9FE98F8793003EB830300EB430000F58D
S214009730167300F51B502030AB4294BF3B603D6073
S214009740A84294BF30603560BDE8F88380180020DA
S21400975040420F0037B50446694601AAB0F8685083
S214009760FFF7BEFF94F86A30216FDA0904F17C0037
S2140097700FD06FF3C71384F86A30009BC91AFFF73F
S21400978001FD6378082B02D12248FEF7DFFC03B008
S21400979030BDA0235D4394F90030002B22DA009BF5
S2140097A029442167C91AFFF7EDFC009BA3F5167341
S2140097B00093216F1748FEF79FFF94F90030002BA7
S2140097C063781DDA002BE2D0009B226F019894F894
S2140097D06A10D21A521B034401F07F010D48FEF7AF
S2140097E01BFDD4E7019B1944FFF7CCFC94F86A30C4
S2140097F043F0800384F86A30236F2B442367D8E74E
S214009800082BC4D194F86A10024801F07F01FEF7D5
S214009810B1FCBCE7801800200148FFF79BBF00BFE3
S214009820A41800200148FFF7D1BC00BF9418002000
S2140098300148FFF7D9BC00BF941800200148FFF785
S214009840DFBC00BF94180020002370B519464FF601
S214009850FE722A4890B0FEF749FF014600B1FEE7C7
S2140098602648FEF77FFE2548FFF700FB2348FFF754
S2140098707FFB2248FEF742FC48B12048FEF766FC14
S21400988000B1FEE71D48FEF751FC00B1FEE70024DC
S2140098900CAD4FF6FF711948FEF7B2FB2946174884
S2140098A0CDE90C44FEF7D0FB4FF6FE711348FEF7E9
S2140098B005FC102221460DEB020008AE0EF0EFF973
